{
  "abi": [
    {
      "inputs": [
        {
          "internalType": "uint256",
          "name": "requestId",
          "type": "uint256"
        }
      ],
      "name": "getRemainder",
      "outputs": [
        {
          "internalType": "uint256",
          "name": "",
          "type": "uint256"
        }
      ],
      "stateMutability": "view",
      "type": "function"
    },
    {
      "inputs": [
        {
          "internalType": "uint256",
          "name": "submissionId",
          "type": "uint256"
        },
        {
          "internalType": "uint256",
          "name": "score",
          "type": "uint256"
        }
      ],
      "name": "review",
      "outputs": [
        {
          "internalType": "uint256",
          "name": "",
          "type": "uint256"
        }
      ],
      "stateMutability": "nonpayable",
      "type": "function"
    },
    {
      "inputs": [
        {
          "internalType": "uint256",
          "name": "submissionId",
          "type": "uint256"
        }
      ],
      "name": "verify",
      "outputs": [
        {
          "internalType": "uint256",
          "name": "",
          "type": "uint256"
        }
      ],
      "stateMutability": "view",
      "type": "function"
    }
  ],
  "bytecode": {
    "object": "0x608060405234801561001057600080fd5b50610d31806100206000396000f3fe608060405234801561001057600080fd5b50600436106100415760003560e01c80638753367f14610046578063bd78ea121461006b578063dc4966111461007e575b600080fd5b6100596100543660046108cb565b610091565b60405190815260200160405180910390f35b6100596100793660046108cb565b610250565b61005961008c3660046108e4565b6103ed565b33600081815260208181526040808320858452909152812060010154909182919082906100d8908360028111156100ca576100ca610906565b6100d38861062a565b61069b565b6100ea90670de0b6b3a7640000610948565b604051630fa1a1b360e21b8152600481018790529091503390600090670de0b6b3a764000090839063c58343ef908290633e8686cc90602401600060405180830381865afa158015610140573d6000803e3d6000fd5b505050506040513d6000823e601f3d908101601f191682016040526101689190810190610b2f565b602001516040518263ffffffff1660e01b815260040161018a91815260200190565b600060405180830381865afa1580156101a7573d6000803e3d6000fd5b505050506040513d6000823e601f3d908101601f191682016040526101cf9190810190610bf6565b606001516101dd9190610948565b905083610208576102016101f2826000610cb8565b6101fc9085610cb8565b6106fa565b9450610245565b6001840361022a576102016064610220836014610cb8565b6101f29190610948565b60028403610245576102426064610220836050610cb8565b94505b509295945050505050565b60405163c58343ef60e01b815260048101829052600090819033908290829063c58343ef90602401600060405180830381865afa158015610295573d6000803e3d6000fd5b505050506040513d6000823e601f3d908101601f191682016040526102bd9190810190610bf6565b6060015190506000604051806060016040528060405180604001604052806102e73360008c61069b565b81526020016102f7866000610cb8565b815250815260200160405180604001604052806103163360018c61069b565b81526020016064610328876014610cb8565b6103329190610948565b815250815260200160405180604001604052806103513360028c61069b565b81526020016064610363876050610cb8565b61036d9190610948565b90529052905060005b60038110156103d857600082826003811061039357610393610ccf565b60200201515111156103c8578181600381106103b1576103b1610ccf565b602002015160200151856103c59190610ce5565b94505b6103d181610cf8565b9050610376565b506103e38483610d11565b9695505050505050565b600060028211156104575760405162461bcd60e51b815260206004820152602a60248201527f456e666f7263656d656e7443726974657269613a3a7265766965773a20696e76604482015269616c69642073636f726560b01b606482015260840160405180910390fd5b60006104628461062a565b33600090815260208181526040808320888452909152902054909150156104fc5733600081815260016020818152604080842086855282528084209484528382528084208985529091528220015460028111156104c1576104c1610906565b60028111156104d2576104d2610906565b60028111156104e3576104e3610906565b8152602081019190915260400160002080546000190190555b33600090815260208181526040808320878452825280832080546001810182558185528385200187905592879052825481518184028101840190925280825261057a93919283018282801561057057602002820191906000526020600020905b81548152602001906001019080831161055c575b5050505050610878565b33600081815260208181526040808320898452808352818420600190810187905594845293825280832086845282528220888352929052909160028111156105c4576105c4610906565b60028111156105d5576105d5610906565b60028111156105e6576105e6610906565b815260208101919091526040016000208054600101905582600281111561060f5761060f610906565b600281111561062057610620610906565b9150505b92915050565b604051630fa1a1b360e21b8152600481018290526000903390633e8686cc90602401600060405180830381865afa158015610669573d6000803e3d6000fd5b505050506040513d6000823e601f3d908101601f191682016040526106919190810190610b2f565b6020015192915050565b6001600160a01b03831660009081526001602090815260408083208484529091528120818460028111156106d1576106d1610906565b60028111156106e2576106e2610906565b81526020019081526020016000205490509392505050565b60008160000361070c57506000919050565b50600181600160801b81106107265760409190911b9060801c5b6801000000000000000081106107415760209190911b9060401c5b64010000000081106107585760109190911b9060201c5b62010000811061076d5760089190911b9060101c5b61010081106107815760049190911b9060081c5b601081106107945760029190911b9060041c5b600481106107a457600182901b91505b60018284816107b5576107b561091c565b048301901c915060018284816107cd576107cd61091c565b048301901c915060018284816107e5576107e561091c565b048301901c915060018284816107fd576107fd61091c565b048301901c915060018284816108155761081561091c565b048301901c9150600182848161082d5761082d61091c565b048301901c915060018284816108455761084561091c565b048301901c9150600082848161085d5761085d61091c565b0490508083101561086e5782610870565b805b949350505050565b80516000908190815b818110156108c05784818151811061089b5761089b610ccf565b6020026020010151836108ae9190610ce5565b92506108b981610cf8565b9050610881565b506108708183610948565b6000602082840312156108dd57600080fd5b5035919050565b600080604083850312156108f757600080fd5b50508035926020909101359150565b634e487b7160e01b600052602160045260246000fd5b634e487b7160e01b600052601260045260246000fd5b634e487b7160e01b600052601160045260246000fd5b60008261096557634e487b7160e01b600052601260045260246000fd5b500490565b634e487b7160e01b600052604160045260246000fd5b60405160c0810167ffffffffffffffff811182821017156109a3576109a361096a565b60405290565b604051610100810167ffffffffffffffff811182821017156109a3576109a361096a565b604051601f8201601f1916810167ffffffffffffffff811182821017156109f6576109f661096a565b604052919050565b80516001600160a01b0381168114610a1557600080fd5b919050565b600082601f830112610a2b57600080fd5b815167ffffffffffffffff811115610a4557610a4561096a565b6020610a59601f8301601f191682016109cd565b8281528582848701011115610a6d57600080fd5b60005b83811015610a8b578581018301518282018401528201610a70565b506000928101909101919091529392505050565b600082601f830112610ab057600080fd5b8151602067ffffffffffffffff821115610acc57610acc61096a565b8160051b610adb8282016109cd565b9283528481018201928281019087851115610af557600080fd5b83870192505b84831015610b1457825182529183019190830190610afb565b979650505050505050565b80518015158114610a1557600080fd5b600060208284031215610b4157600080fd5b815167ffffffffffffffff80821115610b5957600080fd5b9083019060c08286031215610b6d57600080fd5b610b75610980565b610b7e836109fe565b81526020830151602082015260408301516040820152606083015182811115610ba657600080fd5b610bb287828601610a1a565b606083015250608083015182811115610bca57600080fd5b610bd687828601610a9f565b608083015250610be860a08401610b1f565b60a082015295945050505050565b600060208284031215610c0857600080fd5b815167ffffffffffffffff80821115610c2057600080fd5b908301906101008286031215610c3557600080fd5b610c3d6109a9565b610c46836109fe565b8152610c54602084016109fe565b602082015260408301516040820152606083015160608201526080830151608082015260a083015160a082015260c083015160c082015260e083015182811115610c9d57600080fd5b610ca987828601610a1a565b60e08301525095945050505050565b808202811582820484141761062457610624610932565b634e487b7160e01b600052603260045260246000fd5b8082018082111561062457610624610932565b600060018201610d0a57610d0a610932565b5060010190565b818103818111156106245761062461093256fea164736f6c6343000811000a",
    "linkReferences": {}
  },
  "methodIdentifiers": {
    "getRemainder(uint256)": "bd78ea12",
    "review(uint256,uint256)": "dc496611",
    "verify(uint256)": "8753367f"
  },
  "id": 56
}