{
  "abi": [
    {
      "anonymous": false,
      "inputs": [
        {
          "indexed": false,
          "internalType": "uint8",
          "name": "version",
          "type": "uint8"
        }
      ],
      "name": "Initialized",
      "type": "event"
    },
    {
      "anonymous": false,
      "inputs": [
        {
          "indexed": true,
          "internalType": "address",
          "name": "previousOwner",
          "type": "address"
        },
        {
          "indexed": true,
          "internalType": "address",
          "name": "newOwner",
          "type": "address"
        }
      ],
      "name": "OwnershipTransferred",
      "type": "event"
    },
    {
      "anonymous": false,
      "inputs": [
        {
          "indexed": false,
          "internalType": "uint256",
          "name": "decayRate",
          "type": "uint256"
        },
        {
          "indexed": false,
          "internalType": "uint256",
          "name": "decayInterval",
          "type": "uint256"
        }
      ],
      "name": "ReputationDecayConfigured",
      "type": "event"
    },
    {
      "anonymous": false,
      "inputs": [
        {
          "indexed": true,
          "internalType": "address",
          "name": "account",
          "type": "address"
        },
        {
          "indexed": false,
          "internalType": "uint256",
          "name": "amount",
          "type": "uint256"
        }
      ],
      "name": "ReputationDecayed",
      "type": "event"
    },
    {
      "anonymous": false,
      "inputs": [
        {
          "indexed": true,
          "internalType": "address",
          "name": "account",
          "type": "address"
        },
        {
          "indexed": false,
          "internalType": "uint256",
          "name": "frozenUntilEpoch",
          "type": "uint256"
        }
      ],
      "name": "ReputationFrozen",
      "type": "event"
    },
    {
      "anonymous": false,
      "inputs": [
        {
          "indexed": true,
          "internalType": "address",
          "name": "account",
          "type": "address"
        },
        {
          "indexed": false,
          "internalType": "uint256",
          "name": "amount",
          "type": "uint256"
        }
      ],
      "name": "ReputationLocked",
      "type": "event"
    },
    {
      "anonymous": false,
      "inputs": [
        {
          "indexed": true,
          "internalType": "address",
          "name": "account",
          "type": "address"
        },
        {
          "indexed": false,
          "internalType": "uint256",
          "name": "amount",
          "type": "uint256"
        }
      ],
      "name": "ReputationUnlocked",
      "type": "event"
    },
    {
      "inputs": [
        {
          "internalType": "address",
          "name": "",
          "type": "address"
        }
      ],
      "name": "accountInfo",
      "outputs": [
        {
          "internalType": "uint256",
          "name": "locked",
          "type": "uint256"
        },
        {
          "internalType": "uint256",
          "name": "lastDecayEpoch",
          "type": "uint256"
        },
        {
          "internalType": "uint256",
          "name": "frozenUntilEpoch",
          "type": "uint256"
        }
      ],
      "stateMutability": "view",
      "type": "function"
    },
    {
      "inputs": [],
      "name": "baseToken",
      "outputs": [
        {
          "internalType": "contract IERC1155",
          "name": "",
          "type": "address"
        }
      ],
      "stateMutability": "view",
      "type": "function"
    },
    {
      "inputs": [],
      "name": "baseTokenId",
      "outputs": [
        {
          "internalType": "uint256",
          "name": "",
          "type": "uint256"
        }
      ],
      "stateMutability": "view",
      "type": "function"
    },
    {
      "inputs": [],
      "name": "decayInterval",
      "outputs": [
        {
          "internalType": "uint256",
          "name": "",
          "type": "uint256"
        }
      ],
      "stateMutability": "view",
      "type": "function"
    },
    {
      "inputs": [],
      "name": "decayRate",
      "outputs": [
        {
          "internalType": "uint256",
          "name": "",
          "type": "uint256"
        }
      ],
      "stateMutability": "view",
      "type": "function"
    },
    {
      "inputs": [
        {
          "internalType": "address",
          "name": "_account",
          "type": "address"
        },
        {
          "internalType": "uint256",
          "name": "_frozenUntilEpoch",
          "type": "uint256"
        }
      ],
      "name": "freezeReputation",
      "outputs": [],
      "stateMutability": "nonpayable",
      "type": "function"
    },
    {
      "inputs": [
        {
          "internalType": "address",
          "name": "_account",
          "type": "address"
        }
      ],
      "name": "getAvailableReputation",
      "outputs": [
        {
          "internalType": "uint256",
          "name": "",
          "type": "uint256"
        }
      ],
      "stateMutability": "view",
      "type": "function"
    },
    {
      "inputs": [
        {
          "internalType": "address",
          "name": "_account",
          "type": "address"
        }
      ],
      "name": "getPendingDecay",
      "outputs": [
        {
          "internalType": "uint256",
          "name": "",
          "type": "uint256"
        }
      ],
      "stateMutability": "view",
      "type": "function"
    },
    {
      "inputs": [
        {
          "internalType": "address",
          "name": "_account",
          "type": "address"
        }
      ],
      "name": "getReputationAccountInfo",
      "outputs": [
        {
          "components": [
            {
              "internalType": "uint256",
              "name": "locked",
              "type": "uint256"
            },
            {
              "internalType": "uint256",
              "name": "lastDecayEpoch",
              "type": "uint256"
            },
            {
              "internalType": "uint256",
              "name": "frozenUntilEpoch",
              "type": "uint256"
            }
          ],
          "internalType": "struct ReputationEngineInterface.ReputationAccountInfo",
          "name": "",
          "type": "tuple"
        }
      ],
      "stateMutability": "view",
      "type": "function"
    },
    {
      "inputs": [
        {
          "internalType": "address",
          "name": "_module",
          "type": "address"
        },
        {
          "internalType": "address",
          "name": "_baseToken",
          "type": "address"
        },
        {
          "internalType": "uint256",
          "name": "_baseTokenId",
          "type": "uint256"
        },
        {
          "internalType": "uint256",
          "name": "_decayRate",
          "type": "uint256"
        },
        {
          "internalType": "uint256",
          "name": "_decayInterval",
          "type": "uint256"
        }
      ],
      "name": "initialize",
      "outputs": [],
      "stateMutability": "nonpayable",
      "type": "function"
    },
    {
      "inputs": [
        {
          "internalType": "address",
          "name": "_account",
          "type": "address"
        },
        {
          "internalType": "uint256",
          "name": "_amount",
          "type": "uint256"
        }
      ],
      "name": "lockReputation",
      "outputs": [],
      "stateMutability": "nonpayable",
      "type": "function"
    },
    {
      "inputs": [],
      "name": "module",
      "outputs": [
        {
          "internalType": "address",
          "name": "",
          "type": "address"
        }
      ],
      "stateMutability": "view",
      "type": "function"
    },
    {
      "inputs": [],
      "name": "owner",
      "outputs": [
        {
          "internalType": "address",
          "name": "",
          "type": "address"
        }
      ],
      "stateMutability": "view",
      "type": "function"
    },
    {
      "inputs": [],
      "name": "renounceOwnership",
      "outputs": [],
      "stateMutability": "nonpayable",
      "type": "function"
    },
    {
      "inputs": [
        {
          "internalType": "uint256",
          "name": "_decayRate",
          "type": "uint256"
        },
        {
          "internalType": "uint256",
          "name": "_decayInterval",
          "type": "uint256"
        }
      ],
      "name": "setDecayConfig",
      "outputs": [],
      "stateMutability": "nonpayable",
      "type": "function"
    },
    {
      "inputs": [
        {
          "internalType": "address",
          "name": "newOwner",
          "type": "address"
        }
      ],
      "name": "transferOwnership",
      "outputs": [],
      "stateMutability": "nonpayable",
      "type": "function"
    },
    {
      "inputs": [
        {
          "internalType": "address",
          "name": "_account",
          "type": "address"
        },
        {
          "internalType": "uint256",
          "name": "_amount",
          "type": "uint256"
        }
      ],
      "name": "unlockReputation",
      "outputs": [],
      "stateMutability": "nonpayable",
      "type": "function"
    }
  ],
  "bytecode": {
    "object": "0x6080806040523461001657610d93908161001c8239f35b600080fdfe60806040818152600436101561001457600080fd5b600091823560e01c9081630952c66d1461092d57508063119cedd9146109085780631daa26e21461085257806326776720146107c357806332d2c04b1461076c5780635d3bd678146106a657806363e7bcce1461067a578063715018a6146105f75780638da5cb5b146105c3578063a7310b581461056a578063a9c1f2f11461054c578063b6334aee1461052e578063b86d5298146104fa578063c55dae63146104c6578063d13f90b4146102c0578063f2fde38b146101a85763f943898f146100dd57600080fd5b346101a457806003193601126101a4577ff7abf4e8b13d760cd6334139113e9793f85785b5bc85f27d09bbabecc7cc4d476020809261011a610949565b90602435917f414728c496f470c82d27a3b9f5628afcb807179efa58b4513c1e6aab174eb79e73ffffffffffffffffffffffffffffffffffffffff610164816065541633146109f0565b8216968792838a52606a825261017c858b2091610c8b565b9086600282015561018e828254610a7b565b81556001429101558451908152a251908152a280f35b5080fd5b50346101a45760206003193601126101a4576101c2610949565b6101ca610971565b73ffffffffffffffffffffffffffffffffffffffff80911691821561023d5750603354827fffffffffffffffffffffffff0000000000000000000000000000000000000000821617603355167f8be0079c531659141344cd1fd0a4f28419497f9722a3daafe3b4186f6b6457e08380a380f35b608490517f08c379a000000000000000000000000000000000000000000000000000000000815260206004820152602660248201527f4f776e61626c653a206e6577206f776e657220697320746865207a65726f206160448201527f64647265737300000000000000000000000000000000000000000000000000006064820152fd5b50346101a45760a06003193601126101a4576102da610949565b60243573ffffffffffffffffffffffffffffffffffffffff918282168092036104c25784549260ff8460081c1615938480956104b5575b801561049e575b1561041b578460017fffffffffffffffffffffffffffffffffffffffffffffffffffffffffffffff0083161788556103ed575b507fffffffffffffffffffffffff00000000000000000000000000000000000000009116816065541617606555606654161760665560443560675560643560685560843560695561039a575080f35b60207f7f26b83ff96e1f2b6a682f133852f6798a09c465da95921460cefb3847402498917fffffffffffffffffffffffffffffffffffffffffffffffffffffffffffff00ff84541684555160018152a180f35b7fffffffffffffffffffffffffffffffffffffffffffffffffffffffffffff0000166101011786553861034b565b608486517f08c379a000000000000000000000000000000000000000000000000000000000815260206004820152602e60248201527f496e697469616c697a61626c653a20636f6e747261637420697320616c72656160448201527f647920696e697469616c697a65640000000000000000000000000000000000006064820152fd5b50303b1580156103185750600160ff821614610318565b50600160ff821610610311565b8480fd5b50346101a457816003193601126101a45760209073ffffffffffffffffffffffffffffffffffffffff606654169051908152f35b50346101a457816003193601126101a45760209073ffffffffffffffffffffffffffffffffffffffff606554169051908152f35b50346101a457816003193601126101a4576020906069549051908152f35b50346101a457816003193601126101a4576020906068549051908152f35b50346101a45760206003193601126101a4578060609273ffffffffffffffffffffffffffffffffffffffff61059d610949565b168152606a60205220805491600260018301549201549181519384526020840152820152f35b50346101a457816003193601126101a45760209073ffffffffffffffffffffffffffffffffffffffff603354169051908152f35b8234610677578060031936011261067757610610610971565b8073ffffffffffffffffffffffffffffffffffffffff6033547fffffffffffffffffffffffff00000000000000000000000000000000000000008116603355167f8be0079c531659141344cd1fd0a4f28419497f9722a3daafe3b4186f6b6457e08280a380f35b80fd5b50346101a45760206003193601126101a45760209061069f61069a610949565b610c8b565b9051908152f35b50346101a457806003193601126101a4577fc5448d1cc034e0ea2fda2c39606c5196020e471583a8fccd4d2a29b1f537fa0860206106e2610949565b926024359073ffffffffffffffffffffffffffffffffffffffff9461070c866065541633146109f0565b7f414728c496f470c82d27a3b9f5628afcb807179efa58b4513c1e6aab174eb79e8461073783610c8b565b976107428987610a7b565b9316978893848b52606a835261075c868c20918254610a7b565b90558451908152a251908152a280f35b50346101a457806003193601126101a4577ffae64f943e14d2577b52d82be1508230bc70e00c25ea00f8acf95c8f0aec7f15906004356024356107ad610971565b816068558060695582519182526020820152a180f35b50346101a45760206003193601126101a4578060609273ffffffffffffffffffffffffffffffffffffffff6107f6610949565b8284805161080381610ac4565b8281528260208201520152168152606a6020522090805161082381610ac4565b825492838252826002600183015492602085019384520154920191825282519384525160208401525190820152f35b50346101a457806003193601126101a4577ff0e4f0f18cef6c91cd84954537fd3427d9bb4f5190b3d91b0bf436b9d3b8c1fa602061088e610949565b926024359073ffffffffffffffffffffffffffffffffffffffff946108b8866065541633146109f0565b7f414728c496f470c82d27a3b9f5628afcb807179efa58b4513c1e6aab174eb79e846108e383610c8b565b976108ee8987610a7b565b9316978893848b52606a835261075c868c20918254610ab7565b50346101a45760206003193601126101a45760209061069f610928610949565b610b0f565b8390346101a457816003193601126101a4576020906067548152f35b6004359073ffffffffffffffffffffffffffffffffffffffff8216820361096c57565b600080fd5b73ffffffffffffffffffffffffffffffffffffffff60335416330361099257565b60646040517f08c379a000000000000000000000000000000000000000000000000000000000815260206004820152602060248201527f4f776e61626c653a2063616c6c6572206973206e6f7420746865206f776e65726044820152fd5b156109f757565b60846040517f08c379a000000000000000000000000000000000000000000000000000000000815260206004820152603860248201527f52657075746174696f6e546f6b656e3a204f6e6c7920746865206d6f64756c6560448201527f2063616e2063616c6c20746869732066756e6374696f6e2e00000000000000006064820152fd5b91908201809211610a8857565b7f4e487b7100000000000000000000000000000000000000000000000000000000600052601160045260246000fd5b91908203918211610a8857565b6060810190811067ffffffffffffffff821117610ae057604052565b7f4e487b7100000000000000000000000000000000000000000000000000000000600052604160045260246000fd5b73ffffffffffffffffffffffffffffffffffffffff9081811690600091808352602092606a8452604093848220936002865195610b4b87610ac4565b80548752600181015484880152015480878701524210610c8157610b6f8291610c8b565b966066541693604460675491885196879384927efdd58e000000000000000000000000000000000000000000000000000000008452600484015260248301525afa948515610c76578295610bda575b50505050610bd79291610bd2915190610ab7565b610ab7565b90565b90809293949550903d8311610c6e575b7fffffffffffffffffffffffffffffffffffffffffffffffffffffffffffffffe0601f83011685019085821067ffffffffffffffff831117610c4157528301839003126106775750519080610bd7610bd238610bbe565b6024857f4e487b710000000000000000000000000000000000000000000000000000000081526041600452fd5b3d9150610bea565b51913d9150823e3d90fd5b5050935050505090565b73ffffffffffffffffffffffffffffffffffffffff600091168152606a60205260408120604051610cbb81610ac4565b8154815260406002600184015493846020850152015491019080825242108015610d7c575b610d7757610cf1610cf99242610ab7565b905190610ab7565b606954908115610d4a57049060685491828102928184041490151715610d1d575090565b807f4e487b7100000000000000000000000000000000000000000000000000000000602492526011600452fd5b6024837f4e487b710000000000000000000000000000000000000000000000000000000081526012600452fd5b505090565b5060685415610ce056fea164736f6c6343000811000a",
    "linkReferences": {}
  },
  "methodIdentifiers": {
    "accountInfo(address)": "a7310b58",
    "baseToken()": "c55dae63",
    "baseTokenId()": "0952c66d",
    "decayInterval()": "b6334aee",
    "decayRate()": "a9c1f2f1",
    "freezeReputation(address,uint256)": "f943898f",
    "getAvailableReputation(address)": "119cedd9",
    "getPendingDecay(address)": "63e7bcce",
    "getReputationAccountInfo(address)": "26776720",
    "initialize(address,address,uint256,uint256,uint256)": "d13f90b4",
    "lockReputation(address,uint256)": "5d3bd678",
    "module()": "b86d5298",
    "owner()": "8da5cb5b",
    "renounceOwnership()": "715018a6",
    "setDecayConfig(uint256,uint256)": "32d2c04b",
    "transferOwnership(address)": "f2fde38b",
    "unlockReputation(address,uint256)": "1daa26e2"
  },
  "id": 49
}