{
  "abi": [
    {
      "anonymous": false,
      "inputs": [
        {
          "indexed": false,
          "internalType": "uint8",
          "name": "version",
          "type": "uint8"
        }
      ],
      "name": "Initialized",
      "type": "event"
    },
    {
      "anonymous": false,
      "inputs": [
        {
          "indexed": true,
          "internalType": "address",
          "name": "previousOwner",
          "type": "address"
        },
        {
          "indexed": true,
          "internalType": "address",
          "name": "newOwner",
          "type": "address"
        }
      ],
      "name": "OwnershipTransferred",
      "type": "event"
    },
    {
      "anonymous": false,
      "inputs": [
        {
          "indexed": false,
          "internalType": "uint256",
          "name": "decayRate",
          "type": "uint256"
        },
        {
          "indexed": false,
          "internalType": "uint256",
          "name": "decayInterval",
          "type": "uint256"
        }
      ],
      "name": "ReputationDecayConfigured",
      "type": "event"
    },
    {
      "anonymous": false,
      "inputs": [
        {
          "indexed": true,
          "internalType": "address",
          "name": "account",
          "type": "address"
        },
        {
          "indexed": false,
          "internalType": "uint256",
          "name": "amount",
          "type": "uint256"
        }
      ],
      "name": "ReputationDecayed",
      "type": "event"
    },
    {
      "anonymous": false,
      "inputs": [
        {
          "indexed": true,
          "internalType": "address",
          "name": "account",
          "type": "address"
        },
        {
          "indexed": false,
          "internalType": "uint256",
          "name": "frozenUntilEpoch",
          "type": "uint256"
        }
      ],
      "name": "ReputationFrozen",
      "type": "event"
    },
    {
      "anonymous": false,
      "inputs": [
        {
          "indexed": true,
          "internalType": "address",
          "name": "account",
          "type": "address"
        },
        {
          "indexed": false,
          "internalType": "uint256",
          "name": "amount",
          "type": "uint256"
        }
      ],
      "name": "ReputationLocked",
      "type": "event"
    },
    {
      "anonymous": false,
      "inputs": [
        {
          "indexed": true,
          "internalType": "address",
          "name": "account",
          "type": "address"
        },
        {
          "indexed": false,
          "internalType": "uint256",
          "name": "amount",
          "type": "uint256"
        }
      ],
      "name": "ReputationUnlocked",
      "type": "event"
    },
    {
      "inputs": [
        {
          "internalType": "address",
          "name": "",
          "type": "address"
        }
      ],
      "name": "accountInfo",
      "outputs": [
        {
          "internalType": "uint256",
          "name": "locked",
          "type": "uint256"
        },
        {
          "internalType": "uint256",
          "name": "lastDecayEpoch",
          "type": "uint256"
        },
        {
          "internalType": "uint256",
          "name": "frozenUntilEpoch",
          "type": "uint256"
        }
      ],
      "stateMutability": "view",
      "type": "function"
    },
    {
      "inputs": [],
      "name": "baseToken",
      "outputs": [
        {
          "internalType": "contract IERC1155",
          "name": "",
          "type": "address"
        }
      ],
      "stateMutability": "view",
      "type": "function"
    },
    {
      "inputs": [],
      "name": "baseTokenId",
      "outputs": [
        {
          "internalType": "uint256",
          "name": "",
          "type": "uint256"
        }
      ],
      "stateMutability": "view",
      "type": "function"
    },
    {
      "inputs": [],
      "name": "decayInterval",
      "outputs": [
        {
          "internalType": "uint256",
          "name": "",
          "type": "uint256"
        }
      ],
      "stateMutability": "view",
      "type": "function"
    },
    {
      "inputs": [],
      "name": "decayRate",
      "outputs": [
        {
          "internalType": "uint256",
          "name": "",
          "type": "uint256"
        }
      ],
      "stateMutability": "view",
      "type": "function"
    },
    {
      "inputs": [
        {
          "internalType": "address",
          "name": "_account",
          "type": "address"
        },
        {
          "internalType": "uint256",
          "name": "_frozenUntilEpoch",
          "type": "uint256"
        }
      ],
      "name": "freezeReputation",
      "outputs": [],
      "stateMutability": "nonpayable",
      "type": "function"
    },
    {
      "inputs": [
        {
          "internalType": "address",
          "name": "_account",
          "type": "address"
        }
      ],
      "name": "getAvailableReputation",
      "outputs": [
        {
          "internalType": "uint256",
          "name": "",
          "type": "uint256"
        }
      ],
      "stateMutability": "view",
      "type": "function"
    },
    {
      "inputs": [
        {
          "internalType": "address",
          "name": "_account",
          "type": "address"
        }
      ],
      "name": "getPendingDecay",
      "outputs": [
        {
          "internalType": "uint256",
          "name": "",
          "type": "uint256"
        }
      ],
      "stateMutability": "view",
      "type": "function"
    },
    {
      "inputs": [
        {
          "internalType": "address",
          "name": "_account",
          "type": "address"
        }
      ],
      "name": "getReputationAccountInfo",
      "outputs": [
        {
          "components": [
            {
              "internalType": "uint256",
              "name": "locked",
              "type": "uint256"
            },
            {
              "internalType": "uint256",
              "name": "lastDecayEpoch",
              "type": "uint256"
            },
            {
              "internalType": "uint256",
              "name": "frozenUntilEpoch",
              "type": "uint256"
            }
          ],
          "internalType": "struct ReputationEngineInterface.ReputationAccountInfo",
          "name": "",
          "type": "tuple"
        }
      ],
      "stateMutability": "view",
      "type": "function"
    },
    {
      "inputs": [
        {
          "internalType": "address",
          "name": "_module",
          "type": "address"
        },
        {
          "internalType": "address",
          "name": "_baseToken",
          "type": "address"
        },
        {
          "internalType": "uint256",
          "name": "_baseTokenId",
          "type": "uint256"
        },
        {
          "internalType": "uint256",
          "name": "_decayRate",
          "type": "uint256"
        },
        {
          "internalType": "uint256",
          "name": "_decayInterval",
          "type": "uint256"
        }
      ],
      "name": "initialize",
      "outputs": [],
      "stateMutability": "nonpayable",
      "type": "function"
    },
    {
      "inputs": [
        {
          "internalType": "address",
          "name": "_account",
          "type": "address"
        },
        {
          "internalType": "uint256",
          "name": "_amount",
          "type": "uint256"
        }
      ],
      "name": "lockReputation",
      "outputs": [],
      "stateMutability": "nonpayable",
      "type": "function"
    },
    {
      "inputs": [],
      "name": "module",
      "outputs": [
        {
          "internalType": "address",
          "name": "",
          "type": "address"
        }
      ],
      "stateMutability": "view",
      "type": "function"
    },
    {
      "inputs": [],
      "name": "owner",
      "outputs": [
        {
          "internalType": "address",
          "name": "",
          "type": "address"
        }
      ],
      "stateMutability": "view",
      "type": "function"
    },
    {
      "inputs": [],
      "name": "renounceOwnership",
      "outputs": [],
      "stateMutability": "nonpayable",
      "type": "function"
    },
    {
      "inputs": [
        {
          "internalType": "uint256",
          "name": "_decayRate",
          "type": "uint256"
        },
        {
          "internalType": "uint256",
          "name": "_decayInterval",
          "type": "uint256"
        }
      ],
      "name": "setDecayConfig",
      "outputs": [],
      "stateMutability": "nonpayable",
      "type": "function"
    },
    {
      "inputs": [
        {
          "internalType": "address",
          "name": "newOwner",
          "type": "address"
        }
      ],
      "name": "transferOwnership",
      "outputs": [],
      "stateMutability": "nonpayable",
      "type": "function"
    },
    {
      "inputs": [
        {
          "internalType": "address",
          "name": "_account",
          "type": "address"
        },
        {
          "internalType": "uint256",
          "name": "_amount",
          "type": "uint256"
        }
      ],
      "name": "unlockReputation",
      "outputs": [],
      "stateMutability": "nonpayable",
      "type": "function"
    }
  ],
  "bytecode": {
    "object": "0x608060405234801561001057600080fd5b50610c1c806100206000396000f3fe608060405234801561001057600080fd5b506004361061010b5760003560e01c80638da5cb5b116100a2578063b86d529811610071578063b86d52981461024b578063c55dae631461025e578063d13f90b414610271578063f2fde38b14610284578063f943898f1461029757600080fd5b80638da5cb5b146101ca578063a7310b58146101ef578063a9c1f2f114610239578063b6334aee1461024257600080fd5b806332d2c04b116100de57806332d2c04b146101895780635d3bd6781461019c57806363e7bcce146101af578063715018a6146101c257600080fd5b80630952c66d14610110578063119cedd91461012c5780631daa26e21461013f5780632677672014610154575b600080fd5b61011960675481565b6040519081526020015b60405180910390f35b61011961013a366004610a6a565b6102aa565b61015261014d366004610a85565b61039b565b005b610167610162366004610a6a565b610498565b6040805182518152602080840151908201529181015190820152606001610123565b610152610197366004610aaf565b6104fe565b6101526101aa366004610a85565b61054d565b6101196101bd366004610a6a565b610634565b6101526106cb565b6033546001600160a01b03165b6040516001600160a01b039091168152602001610123565b61021e6101fd366004610a6a565b606a6020526000908152604090208054600182015460029092015490919083565b60408051938452602084019290925290820152606001610123565b61011960685481565b61011960695481565b6065546101d7906001600160a01b031681565b6066546101d7906001600160a01b031681565b61015261027f366004610ad1565b6106df565b610152610292366004610a6a565b61082c565b6101526102a5366004610a85565b6108a5565b6001600160a01b0381166000908152606a60209081526040808320815160608101835281548152600182015493810193909352600201549082018190524210156102f75750600092915050565b600061030284610634565b8251606654606754604051627eeac760e11b81526001600160a01b0389811660048301526024820192909252939450849391169062fdd58e90604401602060405180830381865afa15801561035b573d6000803e3d6000fd5b505050506040513d601f19601f8201168201806040525081019061037f9190610b1e565b6103899190610b4d565b6103939190610b4d565b949350505050565b6065546001600160a01b031633146103ce5760405162461bcd60e51b81526004016103c590610b66565b60405180910390fd5b60006103d983610634565b90506103e58183610bc3565b6001600160a01b0384166000908152606a60205260408120805490919061040d908490610b4d565b90915550506040518181526001600160a01b038416907f414728c496f470c82d27a3b9f5628afcb807179efa58b4513c1e6aab174eb79e9060200160405180910390a2826001600160a01b03167ff0e4f0f18cef6c91cd84954537fd3427d9bb4f5190b3d91b0bf436b9d3b8c1fa8360405161048b91815260200190565b60405180910390a2505050565b6104bc60405180606001604052806000815260200160008152602001600081525090565b506001600160a01b03166000908152606a6020908152604091829020825160608101845281548152600182015492810192909252600201549181019190915290565b6105066109a2565b6068829055606981905560408051838152602081018390527ffae64f943e14d2577b52d82be1508230bc70e00c25ea00f8acf95c8f0aec7f15910160405180910390a15050565b6065546001600160a01b031633146105775760405162461bcd60e51b81526004016103c590610b66565b600061058283610634565b905061058e8183610bc3565b6001600160a01b0384166000908152606a6020526040812080549091906105b6908490610bc3565b90915550506040518181526001600160a01b038416907f414728c496f470c82d27a3b9f5628afcb807179efa58b4513c1e6aab174eb79e9060200160405180910390a2826001600160a01b03167fc5448d1cc034e0ea2fda2c39606c5196020e471583a8fccd4d2a29b1f537fa088360405161048b91815260200190565b6001600160a01b0381166000908152606a602090815260408083208151606081018352815481526001820154938101939093526002015490820181905242108061067e5750606854155b1561068c5750600092915050565b606854606954604083015160208401516106a69042610b4d565b6106b09190610b4d565b6106ba9190610bd6565b6106c49190610bf8565b9392505050565b6106d36109a2565b6106dd60006109fc565b565b600054610100900460ff16158080156106ff5750600054600160ff909116105b806107195750303b158015610719575060005460ff166001145b61077c5760405162461bcd60e51b815260206004820152602e60248201527f496e697469616c697a61626c653a20636f6e747261637420697320616c72656160448201526d191e481a5b9a5d1a585b1a5e995960921b60648201526084016103c5565b6000805460ff19166001179055801561079f576000805461ff0019166101001790555b606580546001600160a01b038089166001600160a01b03199283161790925560668054928816929091169190911790556067849055606883905560698290558015610824576000805461ff0019169055604051600181527f7f26b83ff96e1f2b6a682f133852f6798a09c465da95921460cefb38474024989060200160405180910390a15b505050505050565b6108346109a2565b6001600160a01b0381166108995760405162461bcd60e51b815260206004820152602660248201527f4f776e61626c653a206e6577206f776e657220697320746865207a65726f206160448201526564647265737360d01b60648201526084016103c5565b6108a2816109fc565b50565b6065546001600160a01b031633146108cf5760405162461bcd60e51b81526004016103c590610b66565b6001600160a01b0382166000908152606a60205260408120906108f184610634565b9050828260020181905550808260000160008282546109109190610bc3565b90915550504260018301556040518181526001600160a01b038516907f414728c496f470c82d27a3b9f5628afcb807179efa58b4513c1e6aab174eb79e9060200160405180910390a2836001600160a01b03167ff7abf4e8b13d760cd6334139113e9793f85785b5bc85f27d09bbabecc7cc4d478460405161099491815260200190565b60405180910390a250505050565b6033546001600160a01b031633146106dd5760405162461bcd60e51b815260206004820181905260248201527f4f776e61626c653a2063616c6c6572206973206e6f7420746865206f776e657260448201526064016103c5565b603380546001600160a01b038381166001600160a01b0319831681179093556040519116919082907f8be0079c531659141344cd1fd0a4f28419497f9722a3daafe3b4186f6b6457e090600090a35050565b80356001600160a01b0381168114610a6557600080fd5b919050565b600060208284031215610a7c57600080fd5b6106c482610a4e565b60008060408385031215610a9857600080fd5b610aa183610a4e565b946020939093013593505050565b60008060408385031215610ac257600080fd5b50508035926020909101359150565b600080600080600060a08688031215610ae957600080fd5b610af286610a4e565b9450610b0060208701610a4e565b94979496505050506040830135926060810135926080909101359150565b600060208284031215610b3057600080fd5b5051919050565b634e487b7160e01b600052601160045260246000fd5b81810381811115610b6057610b60610b37565b92915050565b60208082526038908201527f52657075746174696f6e546f6b656e3a204f6e6c7920746865206d6f64756c6560408201527f2063616e2063616c6c20746869732066756e6374696f6e2e0000000000000000606082015260800190565b80820180821115610b6057610b60610b37565b600082610bf357634e487b7160e01b600052601260045260246000fd5b500490565b8082028115828204841417610b6057610b60610b3756fea164736f6c6343000811000a",
    "linkReferences": {}
  },
  "methodIdentifiers": {
    "accountInfo(address)": "a7310b58",
    "baseToken()": "c55dae63",
    "baseTokenId()": "0952c66d",
    "decayInterval()": "b6334aee",
    "decayRate()": "a9c1f2f1",
    "freezeReputation(address,uint256)": "f943898f",
    "getAvailableReputation(address)": "119cedd9",
    "getPendingDecay(address)": "63e7bcce",
    "getReputationAccountInfo(address)": "26776720",
    "initialize(address,address,uint256,uint256,uint256)": "d13f90b4",
    "lockReputation(address,uint256)": "5d3bd678",
    "module()": "b86d5298",
    "owner()": "8da5cb5b",
    "renounceOwnership()": "715018a6",
    "setDecayConfig(uint256,uint256)": "32d2c04b",
    "transferOwnership(address)": "f2fde38b",
    "unlockReputation(address,uint256)": "1daa26e2"
  },
  "id": 62
}