{
  "abi": [
    {
      "inputs": [
        {
          "internalType": "address",
          "name": "payCurve",
          "type": "address"
        },
        {
          "internalType": "uint256",
          "name": "x",
          "type": "uint256"
        }
      ],
      "name": "claim",
      "outputs": [
        {
          "internalType": "uint256",
          "name": "",
          "type": "uint256"
        }
      ],
      "stateMutability": "nonpayable",
      "type": "function"
    },
    {
      "inputs": [
        {
          "internalType": "address",
          "name": "payCurve",
          "type": "address"
        },
        {
          "internalType": "uint256",
          "name": "x",
          "type": "uint256"
        }
      ],
      "name": "earned",
      "outputs": [
        {
          "internalType": "uint256",
          "name": "",
          "type": "uint256"
        }
      ],
      "stateMutability": "nonpayable",
      "type": "function"
    },
    {
      "inputs": [],
      "name": "pay",
      "outputs": [],
      "stateMutability": "nonpayable",
      "type": "function"
    }
  ],
  "bytecode": {
    "object": "0x608060405234801561001057600080fd5b50610168806100206000396000f3fe608060405234801561001057600080fd5b50600436106100415760003560e01c80631b9265b8146100465780633e491d4714610048578063aad3ec961461006d575b600080fd5b005b61005b61005636600461010a565b610080565b60405190815260200160405180910390f35b61005b61007b36600461010a565b6100f5565b604051637d815f4360e11b8152600481018290526000906001600160a01b0384169063fb02be86906024016020604051808303816000875af11580156100ca573d6000803e3d6000fd5b505050506040513d601f19601f820116820180604052508101906100ee9190610142565b9392505050565b6000806101028484610080565b949350505050565b6000806040838503121561011d57600080fd5b82356001600160a01b038116811461013457600080fd5b946020939093013593505050565b60006020828403121561015457600080fd5b505191905056fea164736f6c6343000811000a",
    "linkReferences": {}
  },
  "methodIdentifiers": {
    "claim(address,uint256)": "aad3ec96",
    "earned(address,uint256)": "3e491d47",
    "pay()": "1b9265b8"
  },
  "id": 60
}