{
  "abi": [
    {
      "inputs": [
        {
          "internalType": "address",
          "name": "payCurve",
          "type": "address"
        },
        {
          "internalType": "uint256",
          "name": "x",
          "type": "uint256"
        }
      ],
      "name": "claim",
      "outputs": [
        {
          "internalType": "uint256",
          "name": "",
          "type": "uint256"
        }
      ],
      "stateMutability": "nonpayable",
      "type": "function"
    },
    {
      "inputs": [
        {
          "internalType": "address",
          "name": "payCurve",
          "type": "address"
        },
        {
          "internalType": "uint256",
          "name": "x",
          "type": "uint256"
        }
      ],
      "name": "earned",
      "outputs": [
        {
          "internalType": "uint256",
          "name": "",
          "type": "uint256"
        }
      ],
      "stateMutability": "nonpayable",
      "type": "function"
    },
    {
      "inputs": [],
      "name": "pay",
      "outputs": [],
      "stateMutability": "nonpayable",
      "type": "function"
    }
  ],
  "bytecode": {
    "object": "0x60808060405234610016576101dc908161001c8239f35b600080fdfe60806040526004361015610013575b600080fd5b6000803560e01c9081631b9265b814610052575080633e491d47146100495763aad3ec961461004157600080fd5b61000e610086565b5061000e610086565b3461008357807ffffffffffffffffffffffffffffffffffffffffffffffffffffffffffffffffc3601126100835780f35b80fd5b503461000e5760407ffffffffffffffffffffffffffffffffffffffffffffffffffffffffffffffffc36011261000e5760043573ffffffffffffffffffffffffffffffffffffffff811680910361000e576040517ffb02be860000000000000000000000000000000000000000000000000000000081526024356004820152602081602481600080965af19081156101c457829161012a575b602082604051908152f35b905060203d81116101bd575b7fffffffffffffffffffffffffffffffffffffffffffffffffffffffffffffffe0601f820116820182811067ffffffffffffffff8211176101905760209183916040528101031261018c5760209150513861011f565b5080fd5b6024847f4e487b710000000000000000000000000000000000000000000000000000000081526041600452fd5b503d610136565b6040513d84823e3d90fdfea164736f6c6343000811000a",
    "linkReferences": {}
  },
  "methodIdentifiers": {
    "claim(address,uint256)": "aad3ec96",
    "earned(address,uint256)": "3e491d47",
    "pay()": "1b9265b8"
  },
  "id": 47
}