{
  "abi": [
    {
      "inputs": [
        {
          "internalType": "address",
          "name": "_network",
          "type": "address"
        }
      ],
      "stateMutability": "nonpayable",
      "type": "constructor"
    },
    {
      "anonymous": false,
      "inputs": [
        {
          "indexed": true,
          "internalType": "address",
          "name": "market",
          "type": "address"
        },
        {
          "indexed": true,
          "internalType": "address",
          "name": "reputationEngine",
          "type": "address"
        },
        {
          "indexed": false,
          "internalType": "uint256",
          "name": "signalStake",
          "type": "uint256"
        },
        {
          "indexed": false,
          "internalType": "uint256",
          "name": "providerThreshold",
          "type": "uint256"
        },
        {
          "indexed": false,
          "internalType": "uint256",
          "name": "maintainerThreshold",
          "type": "uint256"
        }
      ],
      "name": "MarketReputationConfigured",
      "type": "event"
    },
    {
      "anonymous": false,
      "inputs": [
        {
          "indexed": true,
          "internalType": "address",
          "name": "reputationEngine",
          "type": "address"
        },
        {
          "indexed": true,
          "internalType": "address",
          "name": "baseToken",
          "type": "address"
        },
        {
          "indexed": true,
          "internalType": "uint256",
          "name": "baseTokenId",
          "type": "uint256"
        },
        {
          "indexed": false,
          "internalType": "address",
          "name": "owner",
          "type": "address"
        },
        {
          "indexed": false,
          "internalType": "uint256",
          "name": "decayRate",
          "type": "uint256"
        },
        {
          "indexed": false,
          "internalType": "uint256",
          "name": "decayInterval",
          "type": "uint256"
        }
      ],
      "name": "ReputationEngineCreated",
      "type": "event"
    },
    {
      "inputs": [
        {
          "internalType": "address",
          "name": "_implementation",
          "type": "address"
        },
        {
          "internalType": "address",
          "name": "_baseToken",
          "type": "address"
        },
        {
          "internalType": "uint256",
          "name": "_baseTokenId",
          "type": "uint256"
        },
        {
          "internalType": "uint256",
          "name": "_decayRate",
          "type": "uint256"
        },
        {
          "internalType": "uint256",
          "name": "_decayInterval",
          "type": "uint256"
        }
      ],
      "name": "createReputationEngine",
      "outputs": [
        {
          "internalType": "address",
          "name": "",
          "type": "address"
        }
      ],
      "stateMutability": "nonpayable",
      "type": "function"
    },
    {
      "inputs": [
        {
          "internalType": "address",
          "name": "_account",
          "type": "address"
        },
        {
          "internalType": "uint256",
          "name": "_frozenUntilEpoch",
          "type": "uint256"
        }
      ],
      "name": "freezeReputation",
      "outputs": [],
      "stateMutability": "nonpayable",
      "type": "function"
    },
    {
      "inputs": [
        {
          "internalType": "address",
          "name": "_laborMarket",
          "type": "address"
        },
        {
          "internalType": "address",
          "name": "_account",
          "type": "address"
        }
      ],
      "name": "getAvailableReputation",
      "outputs": [
        {
          "internalType": "uint256",
          "name": "",
          "type": "uint256"
        }
      ],
      "stateMutability": "view",
      "type": "function"
    },
    {
      "inputs": [
        {
          "internalType": "address",
          "name": "_laborMarket",
          "type": "address"
        }
      ],
      "name": "getMarketReputationConfig",
      "outputs": [
        {
          "components": [
            {
              "internalType": "address",
              "name": "reputationEngine",
              "type": "address"
            },
            {
              "internalType": "uint256",
              "name": "signalStake",
              "type": "uint256"
            },
            {
              "internalType": "uint256",
              "name": "providerThreshold",
              "type": "uint256"
            },
            {
              "internalType": "uint256",
              "name": "maintainerThreshold",
              "type": "uint256"
            }
          ],
          "internalType": "struct ReputationModuleInterface.ReputationMarketConfig",
          "name": "",
          "type": "tuple"
        }
      ],
      "stateMutability": "view",
      "type": "function"
    },
    {
      "inputs": [
        {
          "internalType": "address",
          "name": "_laborMarket",
          "type": "address"
        },
        {
          "internalType": "address",
          "name": "_account",
          "type": "address"
        }
      ],
      "name": "getPendingDecay",
      "outputs": [
        {
          "internalType": "uint256",
          "name": "",
          "type": "uint256"
        }
      ],
      "stateMutability": "view",
      "type": "function"
    },
    {
      "inputs": [
        {
          "internalType": "address",
          "name": "_laborMarket",
          "type": "address"
        },
        {
          "internalType": "address",
          "name": "_account",
          "type": "address"
        }
      ],
      "name": "getReputationAccountInfo",
      "outputs": [
        {
          "components": [
            {
              "internalType": "uint256",
              "name": "locked",
              "type": "uint256"
            },
            {
              "internalType": "uint256",
              "name": "lastDecayEpoch",
              "type": "uint256"
            },
            {
              "internalType": "uint256",
              "name": "frozenUntilEpoch",
              "type": "uint256"
            }
          ],
          "internalType": "struct ReputationEngineInterface.ReputationAccountInfo",
          "name": "",
          "type": "tuple"
        }
      ],
      "stateMutability": "view",
      "type": "function"
    },
    {
      "inputs": [
        {
          "internalType": "address",
          "name": "_laborMarket",
          "type": "address"
        }
      ],
      "name": "getReputationEngine",
      "outputs": [
        {
          "internalType": "address",
          "name": "",
          "type": "address"
        }
      ],
      "stateMutability": "view",
      "type": "function"
    },
    {
      "inputs": [
        {
          "internalType": "address",
          "name": "",
          "type": "address"
        }
      ],
      "name": "laborMarketRepConfig",
      "outputs": [
        {
          "internalType": "address",
          "name": "reputationEngine",
          "type": "address"
        },
        {
          "internalType": "uint256",
          "name": "signalStake",
          "type": "uint256"
        },
        {
          "internalType": "uint256",
          "name": "providerThreshold",
          "type": "uint256"
        },
        {
          "internalType": "uint256",
          "name": "maintainerThreshold",
          "type": "uint256"
        }
      ],
      "stateMutability": "view",
      "type": "function"
    },
    {
      "inputs": [
        {
          "internalType": "address",
          "name": "_account",
          "type": "address"
        },
        {
          "internalType": "uint256",
          "name": "_amount",
          "type": "uint256"
        }
      ],
      "name": "lockReputation",
      "outputs": [],
      "stateMutability": "nonpayable",
      "type": "function"
    },
    {
      "inputs": [],
      "name": "network",
      "outputs": [
        {
          "internalType": "address",
          "name": "",
          "type": "address"
        }
      ],
      "stateMutability": "view",
      "type": "function"
    },
    {
      "inputs": [
        {
          "components": [
            {
              "internalType": "address",
              "name": "reputationEngine",
              "type": "address"
            },
            {
              "internalType": "uint256",
              "name": "signalStake",
              "type": "uint256"
            },
            {
              "internalType": "uint256",
              "name": "providerThreshold",
              "type": "uint256"
            },
            {
              "internalType": "uint256",
              "name": "maintainerThreshold",
              "type": "uint256"
            }
          ],
          "internalType": "struct ReputationModuleInterface.ReputationMarketConfig",
          "name": "_repConfig",
          "type": "tuple"
        }
      ],
      "name": "setMarketRepConfig",
      "outputs": [],
      "stateMutability": "nonpayable",
      "type": "function"
    },
    {
      "inputs": [
        {
          "internalType": "address",
          "name": "_account",
          "type": "address"
        },
        {
          "internalType": "uint256",
          "name": "_amount",
          "type": "uint256"
        }
      ],
      "name": "unlockReputation",
      "outputs": [],
      "stateMutability": "nonpayable",
      "type": "function"
    },
    {
      "inputs": [
        {
          "internalType": "address",
          "name": "_laborMarket",
          "type": "address"
        },
        {
          "components": [
            {
              "internalType": "address",
              "name": "reputationEngine",
              "type": "address"
            },
            {
              "internalType": "uint256",
              "name": "signalStake",
              "type": "uint256"
            },
            {
              "internalType": "uint256",
              "name": "providerThreshold",
              "type": "uint256"
            },
            {
              "internalType": "uint256",
              "name": "maintainerThreshold",
              "type": "uint256"
            }
          ],
          "internalType": "struct ReputationModuleInterface.ReputationMarketConfig",
          "name": "_repConfig",
          "type": "tuple"
        }
      ],
      "name": "useReputationModule",
      "outputs": [],
      "stateMutability": "nonpayable",
      "type": "function"
    }
  ],
  "bytecode": {
    "object": "0x608060405234801561001057600080fd5b50604051610c8b380380610c8b83398101604081905261002f91610054565b600080546001600160a01b0319166001600160a01b0392909216919091179055610084565b60006020828403121561006657600080fd5b81516001600160a01b038116811461007d57600080fd5b9392505050565b610bf8806100936000396000f3fe608060405234801561001057600080fd5b50600436106100cf5760003560e01c80635d3bd6781161008c578063c56286e511610066578063c56286e514610205578063d4fa084e14610218578063e3672c6614610284578063f943898f146102b957600080fd5b80635d3bd678146101cc5780636739afca146101df578063744bd273146101f257600080fd5b80630b8d9748146100d45780631daa26e21461012c5780632c3a50391461014157806333a7c9b1146101545780634cb3730d146101985780635c71493e146101ab575b600080fd5b6100e76100e23660046109e3565b6102cc565b604051610123919081516001600160a01b0316815260208083015190820152604080830151908201526060918201519181019190915260800190565b60405180910390f35b61013f61013a366004610a00565b61034d565b005b61013f61014f366004610a44565b61037a565b6101806101623660046109e3565b6001600160a01b039081166000908152600160205260409020541690565b6040516001600160a01b039091168152602001610123565b61013f6101a6366004610a7a565b610492565b6101be6101b9366004610a96565b6105ac565b604051908152602001610123565b61013f6101da366004610a00565b610631565b600054610180906001600160a01b031681565b610180610200366004610acf565b61065a565b6101be610213366004610a96565b610747565b61025a6102263660046109e3565b600160208190526000918252604090912080549181015460028201546003909201546001600160a01b039093169290919084565b604080516001600160a01b0390951685526020850193909352918301526060820152608001610123565b610297610292366004610a96565b610788565b6040805182518152602080840151908201529181015190820152606001610123565b61013f6102c7366004610a00565b610833565b610300604051806080016040528060006001600160a01b031681526020016000815260200160008152602001600081525090565b506001600160a01b03908116600090815260016020818152604092839020835160808101855281549095168552918201549084015260028101549183019190915260030154606082015290565b61037661036f336000908152600160205260409020546001600160a01b031690565b838361085c565b5050565b6000546001600160a01b031633146103ef5760405162461bcd60e51b815260206004820152602d60248201527f52657075746174696f6e4d6f64756c653a204f6e6c79206e6574776f726b206360448201526c30b71031b0b636103a3434b99760991b60648201526084015b60405180910390fd5b6001600160a01b038216600090815260016020526040902081906104138282610b20565b50610423905060208201826109e3565b6001600160a01b0316826001600160a01b03167f3c75fabf01f386bf2d12896d58f1e5dbbc37a70e0858d58b8240a52f35848a47836020013584604001358560600135604051610486939291909283526020830191909152604082015260600190565b60405180910390a35050565b336000908152600160205260409020546001600160a01b03166105135760405162461bcd60e51b815260206004820152603360248201527f52657075746174696f6e4d6f64756c653a2054686973204c61626f72204d617260448201527235b2ba103237b2b9903737ba1032bc34b9ba1760691b60648201526084016103e6565b336000908152600160205260409020819061052e8282610b20565b5061053e905060208201826109e3565b6001600160a01b0316336001600160a01b03167f3c75fabf01f386bf2d12896d58f1e5dbbc37a70e0858d58b8240a52f35848a478360200135846040013585606001356040516105a1939291909283526020830191909152604082015260600190565b60405180910390a350565b6001600160a01b038281166000908152600160205260408082205490516331f3de6760e11b81528484166004820152919216906363e7bcce906024015b602060405180830381865afa158015610606573d6000803e3d6000fd5b505050506040513d601f19601f8201168201806040525081019061062a9190610b68565b9392505050565b610376610653336000908152600160205260409020546001600160a01b031690565b83836108c4565b60008061066f876001600160a01b03166108f9565b60405163344fe42d60e21b81523060048201526001600160a01b038881166024830152604482018890526064820187905260848201869052919250829182169063d13f90b49060a401600060405180830381600087803b1580156106d257600080fd5b505af11580156106e6573d6000803e3d6000fd5b505060408051338152602081018990529081018790528892506001600160a01b03808b1692508516907febc006224a00c6ef4f9a816fead0c0babca8a22fba7509edb10fc5e7cf37f62b9060600160405180910390a4509695505050505050565b6001600160a01b0382811660009081526001602052604080822054905163119cedd960e01b815284841660048201529192169063119cedd9906024016105e9565b6107ac60405180606001604052806000815260200160008152602001600081525090565b6001600160a01b0380841660009081526001602052604090205416604051630133bb3960e51b81526001600160a01b0384811660048301529190911690632677672090602401606060405180830381865afa15801561080f573d6000803e3d6000fd5b505050506040513d601f19601f8201168201806040525081019061062a9190610b81565b610376610855336000908152600160205260409020546001600160a01b031690565b8383610996565b604051630ed5137160e11b81526001600160a01b03838116600483015260248201839052841690631daa26e2906044015b600060405180830381600087803b1580156108a757600080fd5b505af11580156108bb573d6000803e3d6000fd5b50505050505050565b604051630ba77acf60e31b81526001600160a01b03838116600483015260248201839052841690635d3bd6789060440161088d565b6000604051733d602d80600a3d3981f3363d3d373d3d3d363d7360601b81528260601b60148201526e5af43d82803e903d91602b57fd5bf360881b60288201526037816000f09150506001600160a01b0381166109915760405162461bcd60e51b8152602060048201526016602482015275115490cc4c4d8dce8818dc99585d194819985a5b195960521b60448201526064016103e6565b919050565b60405163f943898f60e01b81526001600160a01b0383811660048301526024820183905284169063f943898f9060440161088d565b6001600160a01b03811681146109e057600080fd5b50565b6000602082840312156109f557600080fd5b813561062a816109cb565b60008060408385031215610a1357600080fd5b8235610a1e816109cb565b946020939093013593505050565b600060808284031215610a3e57600080fd5b50919050565b60008060a08385031215610a5757600080fd5b8235610a62816109cb565b9150610a718460208501610a2c565b90509250929050565b600060808284031215610a8c57600080fd5b61062a8383610a2c565b60008060408385031215610aa957600080fd5b8235610ab4816109cb565b91506020830135610ac4816109cb565b809150509250929050565b600080600080600060a08688031215610ae757600080fd5b8535610af2816109cb565b94506020860135610b02816109cb565b94979496505050506040830135926060810135926080909101359150565b8135610b2b816109cb565b81546001600160a01b0319166001600160a01b03919091161781556020820135600182015560408201356002820155606090910135600390910155565b600060208284031215610b7a57600080fd5b5051919050565b600060608284031215610b9357600080fd5b6040516060810181811067ffffffffffffffff82111715610bc457634e487b7160e01b600052604160045260246000fd5b8060405250825181526020830151602082015260408301516040820152809150509291505056fea164736f6c6343000811000a",
    "linkReferences": {}
  },
  "methodIdentifiers": {
    "createReputationEngine(address,address,uint256,uint256,uint256)": "744bd273",
    "freezeReputation(address,uint256)": "f943898f",
    "getAvailableReputation(address,address)": "c56286e5",
    "getMarketReputationConfig(address)": "0b8d9748",
    "getPendingDecay(address,address)": "5c71493e",
    "getReputationAccountInfo(address,address)": "e3672c66",
    "getReputationEngine(address)": "33a7c9b1",
    "laborMarketRepConfig(address)": "d4fa084e",
    "lockReputation(address,uint256)": "5d3bd678",
    "network()": "6739afca",
    "setMarketRepConfig((address,uint256,uint256,uint256))": "4cb3730d",
    "unlockReputation(address,uint256)": "1daa26e2",
    "useReputationModule(address,(address,uint256,uint256,uint256))": "2c3a5039"
  },
  "id": 63
}