{
  "abi": [
    {
      "inputs": [
        {
          "internalType": "address",
          "name": "_network",
          "type": "address"
        }
      ],
      "stateMutability": "nonpayable",
      "type": "constructor"
    },
    {
      "anonymous": false,
      "inputs": [
        {
          "indexed": true,
          "internalType": "address",
          "name": "market",
          "type": "address"
        },
        {
          "indexed": true,
          "internalType": "address",
          "name": "reputationEngine",
          "type": "address"
        },
        {
          "indexed": false,
          "internalType": "uint256",
          "name": "signalStake",
          "type": "uint256"
        },
        {
          "indexed": false,
          "internalType": "uint256",
          "name": "providerThreshold",
          "type": "uint256"
        },
        {
          "indexed": false,
          "internalType": "uint256",
          "name": "maintainerThreshold",
          "type": "uint256"
        }
      ],
      "name": "MarketReputationConfigured",
      "type": "event"
    },
    {
      "anonymous": false,
      "inputs": [
        {
          "indexed": true,
          "internalType": "address",
          "name": "reputationEngine",
          "type": "address"
        },
        {
          "indexed": true,
          "internalType": "address",
          "name": "baseToken",
          "type": "address"
        },
        {
          "indexed": true,
          "internalType": "uint256",
          "name": "baseTokenId",
          "type": "uint256"
        },
        {
          "indexed": false,
          "internalType": "address",
          "name": "owner",
          "type": "address"
        },
        {
          "indexed": false,
          "internalType": "uint256",
          "name": "decayRate",
          "type": "uint256"
        },
        {
          "indexed": false,
          "internalType": "uint256",
          "name": "decayInterval",
          "type": "uint256"
        }
      ],
      "name": "ReputationEngineCreated",
      "type": "event"
    },
    {
      "inputs": [
        {
          "internalType": "address",
          "name": "_implementation",
          "type": "address"
        },
        {
          "internalType": "address",
          "name": "_baseToken",
          "type": "address"
        },
        {
          "internalType": "uint256",
          "name": "_baseTokenId",
          "type": "uint256"
        },
        {
          "internalType": "uint256",
          "name": "_decayRate",
          "type": "uint256"
        },
        {
          "internalType": "uint256",
          "name": "_decayInterval",
          "type": "uint256"
        }
      ],
      "name": "createReputationEngine",
      "outputs": [
        {
          "internalType": "address",
          "name": "",
          "type": "address"
        }
      ],
      "stateMutability": "nonpayable",
      "type": "function"
    },
    {
      "inputs": [
        {
          "internalType": "address",
          "name": "_account",
          "type": "address"
        },
        {
          "internalType": "uint256",
          "name": "_frozenUntilEpoch",
          "type": "uint256"
        }
      ],
      "name": "freezeReputation",
      "outputs": [],
      "stateMutability": "nonpayable",
      "type": "function"
    },
    {
      "inputs": [
        {
          "internalType": "address",
          "name": "_laborMarket",
          "type": "address"
        },
        {
          "internalType": "address",
          "name": "_account",
          "type": "address"
        }
      ],
      "name": "getAvailableReputation",
      "outputs": [
        {
          "internalType": "uint256",
          "name": "",
          "type": "uint256"
        }
      ],
      "stateMutability": "view",
      "type": "function"
    },
    {
      "inputs": [
        {
          "internalType": "address",
          "name": "_laborMarket",
          "type": "address"
        }
      ],
      "name": "getMarketReputationConfig",
      "outputs": [
        {
          "components": [
            {
              "internalType": "address",
              "name": "reputationEngine",
              "type": "address"
            },
            {
              "internalType": "uint256",
              "name": "signalStake",
              "type": "uint256"
            },
            {
              "internalType": "uint256",
              "name": "providerThreshold",
              "type": "uint256"
            },
            {
              "internalType": "uint256",
              "name": "maintainerThreshold",
              "type": "uint256"
            }
          ],
          "internalType": "struct ReputationModuleInterface.ReputationMarketConfig",
          "name": "",
          "type": "tuple"
        }
      ],
      "stateMutability": "view",
      "type": "function"
    },
    {
      "inputs": [
        {
          "internalType": "address",
          "name": "_laborMarket",
          "type": "address"
        },
        {
          "internalType": "address",
          "name": "_account",
          "type": "address"
        }
      ],
      "name": "getPendingDecay",
      "outputs": [
        {
          "internalType": "uint256",
          "name": "",
          "type": "uint256"
        }
      ],
      "stateMutability": "view",
      "type": "function"
    },
    {
      "inputs": [
        {
          "internalType": "address",
          "name": "_laborMarket",
          "type": "address"
        },
        {
          "internalType": "address",
          "name": "_account",
          "type": "address"
        }
      ],
      "name": "getReputationAccountInfo",
      "outputs": [
        {
          "components": [
            {
              "internalType": "uint256",
              "name": "locked",
              "type": "uint256"
            },
            {
              "internalType": "uint256",
              "name": "lastDecayEpoch",
              "type": "uint256"
            },
            {
              "internalType": "uint256",
              "name": "frozenUntilEpoch",
              "type": "uint256"
            }
          ],
          "internalType": "struct ReputationEngineInterface.ReputationAccountInfo",
          "name": "",
          "type": "tuple"
        }
      ],
      "stateMutability": "view",
      "type": "function"
    },
    {
      "inputs": [
        {
          "internalType": "address",
          "name": "_laborMarket",
          "type": "address"
        }
      ],
      "name": "getReputationEngine",
      "outputs": [
        {
          "internalType": "address",
          "name": "",
          "type": "address"
        }
      ],
      "stateMutability": "view",
      "type": "function"
    },
    {
      "inputs": [
        {
          "internalType": "address",
          "name": "",
          "type": "address"
        }
      ],
      "name": "laborMarketRepConfig",
      "outputs": [
        {
          "internalType": "address",
          "name": "reputationEngine",
          "type": "address"
        },
        {
          "internalType": "uint256",
          "name": "signalStake",
          "type": "uint256"
        },
        {
          "internalType": "uint256",
          "name": "providerThreshold",
          "type": "uint256"
        },
        {
          "internalType": "uint256",
          "name": "maintainerThreshold",
          "type": "uint256"
        }
      ],
      "stateMutability": "view",
      "type": "function"
    },
    {
      "inputs": [
        {
          "internalType": "address",
          "name": "_account",
          "type": "address"
        },
        {
          "internalType": "uint256",
          "name": "_amount",
          "type": "uint256"
        }
      ],
      "name": "lockReputation",
      "outputs": [],
      "stateMutability": "nonpayable",
      "type": "function"
    },
    {
      "inputs": [],
      "name": "network",
      "outputs": [
        {
          "internalType": "address",
          "name": "",
          "type": "address"
        }
      ],
      "stateMutability": "view",
      "type": "function"
    },
    {
      "inputs": [
        {
          "components": [
            {
              "internalType": "address",
              "name": "reputationEngine",
              "type": "address"
            },
            {
              "internalType": "uint256",
              "name": "signalStake",
              "type": "uint256"
            },
            {
              "internalType": "uint256",
              "name": "providerThreshold",
              "type": "uint256"
            },
            {
              "internalType": "uint256",
              "name": "maintainerThreshold",
              "type": "uint256"
            }
          ],
          "internalType": "struct ReputationModuleInterface.ReputationMarketConfig",
          "name": "_repConfig",
          "type": "tuple"
        }
      ],
      "name": "setMarketRepConfig",
      "outputs": [],
      "stateMutability": "nonpayable",
      "type": "function"
    },
    {
      "inputs": [
        {
          "internalType": "address",
          "name": "_account",
          "type": "address"
        },
        {
          "internalType": "uint256",
          "name": "_amount",
          "type": "uint256"
        }
      ],
      "name": "unlockReputation",
      "outputs": [],
      "stateMutability": "nonpayable",
      "type": "function"
    },
    {
      "inputs": [
        {
          "internalType": "address",
          "name": "_laborMarket",
          "type": "address"
        },
        {
          "components": [
            {
              "internalType": "address",
              "name": "reputationEngine",
              "type": "address"
            },
            {
              "internalType": "uint256",
              "name": "signalStake",
              "type": "uint256"
            },
            {
              "internalType": "uint256",
              "name": "providerThreshold",
              "type": "uint256"
            },
            {
              "internalType": "uint256",
              "name": "maintainerThreshold",
              "type": "uint256"
            }
          ],
          "internalType": "struct ReputationModuleInterface.ReputationMarketConfig",
          "name": "_repConfig",
          "type": "tuple"
        }
      ],
      "name": "useReputationModule",
      "outputs": [],
      "stateMutability": "nonpayable",
      "type": "function"
    }
  ],
  "bytecode": {
    "object": "0x60803461007457601f610dac38819003918201601f19168301916001600160401b038311848410176100795780849260209460405283398101031261007457516001600160a01b0381169081900361007457600080546001600160a01b031916919091179055604051610d1c90816100908239f35b600080fd5b634e487b7160e01b600052604160045260246000fdfe6080604081815260048036101561001557600080fd5b600092833560e01c9081630b8d974814610b1b575080631daa26e214610a605780632c3a5039146108cc57806333a7c9b1146108855780634cb3730d1461071b5780635c71493e14610687578381635d3bd678146105e2575080636739afca146105af578063744bd273146103ed578063c56286e514610324578063d4fa084e146102b6578063e3672c661461018f5763f943898f146100b457600080fd5b82913461018b578060031936011261018b576100ce610bc7565b338452600160205273ffffffffffffffffffffffffffffffffffffffff828520541692833b15610187576101589385928385518097819582947ff943898f0000000000000000000000000000000000000000000000000000000084526024359184016020909392919373ffffffffffffffffffffffffffffffffffffffff60408201951681520152565b03925af190811561017e575061016b5750f35b61017490610c58565b61017b5780f35b80fd5b513d84823e3d90fd5b8480fd5b5050fd5b5090346102b257806003193601126102b2576101a9610bc7565b9160606101b4610bea565b9360248451956101c387610c6c565b8787528786602098828a820152015273ffffffffffffffffffffffffffffffffffffffff809316885260018752828689205416865195869485937f2677672000000000000000000000000000000000000000000000000000000000855216908301525afa9384156102a7578094610252575b505080606093815193815185528082015190850152015190820152f35b9093506060843d821161029f575b8161026d60609383610c88565b8101031261017b5750806060938180519161028783610c6c565b80518352858101518684015201518282015293610235565b3d9150610260565b8251903d90823e3d90fd5b8280fd5b50503461032057602060031936011261032057908160809273ffffffffffffffffffffffffffffffffffffffff92836102ed610bc7565b16815260016020522091825416916001810154916003600283015492015492815194855260208501528301526060820152f35b5080fd5b50919034610320578060031936011261032057602492610342610bc7565b61034a610bea565b9073ffffffffffffffffffffffffffffffffffffffff8091168552602095869260018452828688205416865195869485937f119cedd900000000000000000000000000000000000000000000000000000000855216908301525afa9283156102a757926103b9575b5051908152f35b9091508281813d83116103e6575b6103d18183610c88565b810103126103e1575190386103b2565b600080fd5b503d6103c7565b5090346102b25760a06003193601126102b257610408610bc7565b610410610bea565b9260443591606435956037608435928651907f3d602d80600a3d3981f3363d3d373d3d3d363d73000000000000000000000000825260601b60148201527f5af43d82803e903d91602b57fd5bf30000000000000000000000000000000000602882015273ffffffffffffffffffffffffffffffffffffffff91829184f01696871561055257873b156102b2578651947fd13f90b400000000000000000000000000000000000000000000000000000000865230908601521692836024820152846044820152876064820152826084820152818160a481838b5af1801561054857610534575b50507febc006224a00c6ef4f9a816fead0c0babca8a22fba7509edb10fc5e7cf37f62b606060209787938751913383528a83015287820152a451908152f35b61053e8291610c58565b61017b57806104f5565b86513d84823e3d90fd5b60648560208951917f08c379a0000000000000000000000000000000000000000000000000000000008352820152601660248201527f455243313136373a20637265617465206661696c6564000000000000000000006044820152fd5b50503461032057816003193601126103205773ffffffffffffffffffffffffffffffffffffffff60209254169051908152f35b9290503461018b578060031936011261018b576105fd610bc7565b338452600160205273ffffffffffffffffffffffffffffffffffffffff828520541692833b15610187576101589385928385518097819582947f5d3bd6780000000000000000000000000000000000000000000000000000000084526024359184016020909392919373ffffffffffffffffffffffffffffffffffffffff60408201951681520152565b509190346103205780600319360112610320576024926106a5610bc7565b6106ad610bea565b9073ffffffffffffffffffffffffffffffffffffffff8091168552602095869260018452828688205416865195869485937f63e7bcce00000000000000000000000000000000000000000000000000000000855216908301525afa9283156102a757926103b9575051908152f35b50346102b25760806003193601126102b257338352600160205273ffffffffffffffffffffffffffffffffffffffff9081838520541615610802575033835260016020527f3c75fabf01f386bf2d12896d58f1e5dbbc37a70e0858d58b8240a52f35848a4760038385208361078e610cec565b167fffffffffffffffffffffffff00000000000000000000000000000000000000008254161781556107fc602435948560018401556044359283600282015560643594859101556107dd610cec565b1695519283923396846040919493926060820195825260208201520152565b0390a380f35b60849060208451917f08c379a0000000000000000000000000000000000000000000000000000000008352820152603360248201527f52657075746174696f6e4d6f64756c653a2054686973204c61626f72204d617260448201527f6b657420646f6573206e6f742065786973742e000000000000000000000000006064820152fd5b505034610320576020600319360112610320576020918173ffffffffffffffffffffffffffffffffffffffff91826108bb610bc7565b168152600185522054169051908152f35b50346102b25760a06003193601126102b2576108e6610bc7565b60807fffffffffffffffffffffffffffffffffffffffffffffffffffffffffffffffdc360112610a5c5773ffffffffffffffffffffffffffffffffffffffff918285541633036109d95750817f3c75fabf01f386bf2d12896d58f1e5dbbc37a70e0858d58b8240a52f35848a479116918285526001602052838520908061096b610cc9565b167fffffffffffffffffffffffff00000000000000000000000000000000000000008354161782556107fc6003604435928360018601556064359485600282015560843592839101556109bc610cc9565b169651938493846040919493926060820195825260208201520152565b60849060208551917f08c379a0000000000000000000000000000000000000000000000000000000008352820152602d60248201527f52657075746174696f6e4d6f64756c653a204f6e6c79206e6574776f726b206360448201527f616e2063616c6c20746869732e000000000000000000000000000000000000006064820152fd5b8380fd5b5090346102b257806003193601126102b25782610a7b610bc7565b92338252600160205273ffffffffffffffffffffffffffffffffffffffff8383205416803b156102b25783517f1daa26e200000000000000000000000000000000000000000000000000000000815273ffffffffffffffffffffffffffffffffffffffff9095169185019182526024356020830152849182908490829060400103925af190811561017e5750610b0f575080f35b610b1890610c58565b80f35b915050346102b25760206003193601126102b25781836080946060610b3e610bc7565b94610b4881610c0d565b8281528260208201528285820152015273ffffffffffffffffffffffffffffffffffffffff809316815260016020522091805191610b8583610c0d565b83541692838352600181015460208401908152606060036002840154938587019485520154940193845282519485525160208501525190830152516060820152f35b6004359073ffffffffffffffffffffffffffffffffffffffff821682036103e157565b6024359073ffffffffffffffffffffffffffffffffffffffff821682036103e157565b6080810190811067ffffffffffffffff821117610c2957604052565b7f4e487b7100000000000000000000000000000000000000000000000000000000600052604160045260246000fd5b67ffffffffffffffff8111610c2957604052565b6060810190811067ffffffffffffffff821117610c2957604052565b90601f7fffffffffffffffffffffffffffffffffffffffffffffffffffffffffffffffe0910116810190811067ffffffffffffffff821117610c2957604052565b60243573ffffffffffffffffffffffffffffffffffffffff811681036103e15790565b60043573ffffffffffffffffffffffffffffffffffffffff811681036103e1579056fea164736f6c6343000811000a",
    "linkReferences": {}
  },
  "methodIdentifiers": {
    "createReputationEngine(address,address,uint256,uint256,uint256)": "744bd273",
    "freezeReputation(address,uint256)": "f943898f",
    "getAvailableReputation(address,address)": "c56286e5",
    "getMarketReputationConfig(address)": "0b8d9748",
    "getPendingDecay(address,address)": "5c71493e",
    "getReputationAccountInfo(address,address)": "e3672c66",
    "getReputationEngine(address)": "33a7c9b1",
    "laborMarketRepConfig(address)": "d4fa084e",
    "lockReputation(address,uint256)": "5d3bd678",
    "network()": "6739afca",
    "setMarketRepConfig((address,uint256,uint256,uint256))": "4cb3730d",
    "unlockReputation(address,uint256)": "1daa26e2",
    "useReputationModule(address,(address,uint256,uint256,uint256))": "2c3a5039"
  },
  "id": 50
}