{
  "abi": [
    {
      "inputs": [
        {
          "internalType": "uint256",
          "name": "requestId",
          "type": "uint256"
        }
      ],
      "name": "getClaimableAllocation",
      "outputs": [
        {
          "internalType": "uint256",
          "name": "",
          "type": "uint256"
        }
      ],
      "stateMutability": "view",
      "type": "function"
    },
    {
      "inputs": [
        {
          "internalType": "uint256",
          "name": "submissionId",
          "type": "uint256"
        },
        {
          "internalType": "uint256",
          "name": "score",
          "type": "uint256"
        }
      ],
      "name": "review",
      "outputs": [
        {
          "internalType": "uint256",
          "name": "",
          "type": "uint256"
        }
      ],
      "stateMutability": "nonpayable",
      "type": "function"
    },
    {
      "inputs": [
        {
          "internalType": "uint256",
          "name": "submissionId",
          "type": "uint256"
        }
      ],
      "name": "verify",
      "outputs": [
        {
          "internalType": "uint256",
          "name": "",
          "type": "uint256"
        }
      ],
      "stateMutability": "view",
      "type": "function"
    }
  ],
  "bytecode": {
    "object": "0x6080806040523461001657610ca7908161001c8239f35b600080fdfe608060408181526004908136101561001657600080fd5b600092833560e01c908163455386111461069d575080638753367f146103115763dc4966111461004557600080fd5b3461030d57807ffffffffffffffffffffffffffffffffffffffffffffffffffffffffffffffffc36011261030d578135926024908135936002851161028b57338252602095828752848320818452875284832054610230575b33835282875284832081845287528483209081546801000000000000000081101561021d5760019283820180825582101561020b5785528885200187905533845283885285842081855288528584208651815480825291865289862090918290818c019088878e5b8383106101f4575050505061011d925003826108ff565b8481519186905b8382106101b55750509061013791610940565b33855284895286852082865289528287862001553384528188528584209084895286852090855288528186852001549060038210156101a2579061017a9161089f565b90815401905560038510156101925750505051908152f35b602190634e487b7160e01b835252fd5b505050602190634e487b7160e01b835252fd5b909181518310156101e2576101d66101dc918d8560051b8501015190610b3f565b92610aeb565b90610124565b8888603289634e487b7160e01b835252fd5b86548552958101958795509093019201878e610106565b8686603287634e487b7160e01b835252fd5b505050604190634e487b7160e01b835252fd5b338352600187528483208388528584208285528852600186852001549060038210156101a257906102609161089f565b7fffffffffffffffffffffffffffffffffffffffffffffffffffffffffffffffff815401905561009e565b608490602a8460208751937f08c379a00000000000000000000000000000000000000000000000000000000085528401528201527f456e666f7263656d656e7443726974657269613a3a7265766965773a20696e7660448201527f616c69642073636f7265000000000000000000000000000000000000000000006064820152fd5b8280fd5b50823461069a57602092837ffffffffffffffffffffffffffffffffffffffffffffffffffffffffffffffffc3601126106965780359082338452838652848420838552865260018585200154600381101561068357338552600187526103798187872061089f565b5491821561067057670de0b6b3a7640000928304928751957f3e8686cc0000000000000000000000000000000000000000000000000000000087528587015260249587818881335afa90811561052f57908a918991610539575b5001518851907fc58343ef0000000000000000000000000000000000000000000000000000000082528682015287818881335afa90811561052f5790606091899161050d575b5001510491806104645750501560011715610452571560011715610441575050905b51908152f35b60118391634e487b7160e01b835252fd5b5060118391634e487b7160e01b835252fd5b600181989793959298969496146000146104c25750909192939495506014840293808504601414901517156104b2575050506104ac9160646104a7920490610ac2565b610b4c565b9061043b565b601190634e487b7160e01b835252fd5b6002146104d4575b505050505061043b565b909192939495506050840293808504605014901517156104b2575050506105029160646104a7920490610ac2565b9083808080806104ca565b61052991503d808b833e61052181836108ff565b810190610a15565b8b610419565b89513d8a823e3d90fd5b9150503d8089833e61054b81836108ff565b8101908a8183031261063b57805167ffffffffffffffff9182821161066c57019060c082840312610668578a519260c0840184811083821117610652578c5261059383610960565b84528c8301518d8501528b8301518c850152606083015182811161066457816105bd918501610986565b6060850152608083015182811161066457830181601f82011215610664578051928311610652578c908e8460051b9251946105fa828501876108ff565b85528085019282010192831161064e57908e809201905b83821061063f5750505050608083015260a00151801515810361063b5760a082015289908b6103d3565b8880fd5b81518152908201908201610611565b8c80fd5b8a8c60418c634e487b7160e01b835252fd5b8b80fd5b8980fd5b8a80fd5b602486601286634e487b7160e01b835252fd5b602485602185634e487b7160e01b835252fd5b5080fd5b80fd5b9290503461089b57602093847ffffffffffffffffffffffffffffffffffffffffffffffffffffffffffffffffc36011261069a5780937fc58343ef0000000000000000000000000000000000000000000000000000000081528235838201528181602481335afa90811561089157906060918391610877575b50015191835192606084019184831067ffffffffffffffff841117610864578286523384526001885285842084805288528584205492821593600185171561085157610761826108cd565b815284608087015285523384526001885285842060018552885285842054601483028381046014148517156108515760649088519261079f846108cd565b835204898201528886015233845260018852858420600285528852858420549260508302928304605014171561083e57506064908551926107df846108cd565b83520486820152838301525b600381106107fb57505051908152f35b6108058183610b18565b515161081a575b61081590610aeb565b6107eb565b92610836610815918661082d8786610b18565b51015190610b3f565b93905061080c565b836011602492634e487b7160e01b835252fd5b602486601185634e487b7160e01b835252fd5b836041602492634e487b7160e01b835252fd5b61088b91503d8085833e61052181836108ff565b38610716565b84513d84823e3d90fd5b8380fd5b9060038110156108b757600052602052604060002090565b634e487b7160e01b600052602160045260246000fd5b6040810190811067ffffffffffffffff8211176108e957604052565b634e487b7160e01b600052604160045260246000fd5b90601f7fffffffffffffffffffffffffffffffffffffffffffffffffffffffffffffffe0910116810190811067ffffffffffffffff8211176108e957604052565b811561094a570490565b634e487b7160e01b600052601260045260246000fd5b519073ffffffffffffffffffffffffffffffffffffffff8216820361098157565b600080fd5b919080601f840112156109815782519067ffffffffffffffff82116108e957604051916020916109dd837fffffffffffffffffffffffffffffffffffffffffffffffffffffffffffffffe0601f85011601856108ff565b8184528282870101116109815760005b818110610a0257508260009394955001015290565b85810183015184820184015282016109ed565b9060208282031261098157815167ffffffffffffffff9283821161098157019061010092838383031261098157604051938401848110828211176108e957604052610a5f83610960565b8452610a6d60208401610960565b602085015260408301516040850152606083015160608501526080830151608085015260a083015160a085015260c083015160c085015260e083015190811161098157610aba9201610986565b60e082015290565b81810292918115918404141715610ad557565b634e487b7160e01b600052601160045260246000fd5b7fffffffffffffffffffffffffffffffffffffffffffffffffffffffffffffffff8114610ad55760010190565b906003811015610b295760051b0190565b634e487b7160e01b600052603260045260246000fd5b91908201809211610ad557565b8015610c9457806001700100000000000000000000000000000000831015610c7e575b60048268010000000000000000610c26941015610c71575b640100000000811015610c64575b62010000811015610c57575b610100811015610c4b575b6010811015610c3f575b1015610c37575b610bc78184610940565b0160011c610bd58184610940565b0160011c610be38184610940565b0160011c610bf18184610940565b0160011c610bff8184610940565b0160011c610c0d8184610940565b0160011c610c1b8184610940565b0160011c8092610940565b90818110610c32575090565b905090565b60011b610bbd565b811c9160021b91610bb6565b60081c91811b91610bac565b60101c9160081b91610ba1565b60201c9160101b91610b95565b60401c9160201b91610b87565b5050608081901c68010000000000000000610b6f565b5060009056fea164736f6c6343000811000a",
    "linkReferences": {}
  },
  "methodIdentifiers": {
    "getClaimableAllocation(uint256)": "45538611",
    "review(uint256,uint256)": "dc496611",
    "verify(uint256)": "8753367f"
  },
  "id": 44
}