{
  "abi": [
    {
      "inputs": [
        {
          "internalType": "address",
          "name": "_implementation",
          "type": "address"
        }
      ],
      "stateMutability": "nonpayable",
      "type": "constructor"
    },
    {
      "anonymous": false,
      "inputs": [
        {
          "indexed": true,
          "internalType": "address",
          "name": "organization",
          "type": "address"
        },
        {
          "indexed": true,
          "internalType": "address",
          "name": "owner",
          "type": "address"
        },
        {
          "indexed": true,
          "internalType": "address",
          "name": "implementation",
          "type": "address"
        }
      ],
      "name": "LaborMarketCreated",
      "type": "event"
    },
    {
      "anonymous": false,
      "inputs": [
        {
          "indexed": true,
          "internalType": "address",
          "name": "previousOwner",
          "type": "address"
        },
        {
          "indexed": true,
          "internalType": "address",
          "name": "newOwner",
          "type": "address"
        }
      ],
      "name": "OwnershipTransferred",
      "type": "event"
    },
    {
      "anonymous": false,
      "inputs": [
        {
          "indexed": true,
          "internalType": "address",
          "name": "implementation",
          "type": "address"
        },
        {
          "components": [
            {
              "internalType": "address",
              "name": "owner",
              "type": "address"
            },
            {
              "internalType": "bytes32",
              "name": "licenseKey",
              "type": "bytes32"
            },
            {
              "internalType": "uint256",
              "name": "amount",
              "type": "uint256"
            },
            {
              "internalType": "bool",
              "name": "locked",
              "type": "bool"
            }
          ],
          "indexed": true,
          "internalType": "struct LaborMarketVersionsInterface.Version",
          "name": "version",
          "type": "tuple"
        }
      ],
      "name": "VersionUpdated",
      "type": "event"
    },
    {
      "inputs": [
        {
          "internalType": "bytes32",
          "name": "_versionKey",
          "type": "bytes32"
        },
        {
          "internalType": "address",
          "name": "_sender",
          "type": "address"
        }
      ],
      "name": "getLicenseKey",
      "outputs": [
        {
          "internalType": "bytes32",
          "name": "",
          "type": "bytes32"
        }
      ],
      "stateMutability": "pure",
      "type": "function"
    },
    {
      "inputs": [
        {
          "internalType": "address",
          "name": "_implementation",
          "type": "address"
        }
      ],
      "name": "getVersionKey",
      "outputs": [
        {
          "internalType": "bytes32",
          "name": "",
          "type": "bytes32"
        }
      ],
      "stateMutability": "view",
      "type": "function"
    },
    {
      "inputs": [
        {
          "internalType": "address",
          "name": "",
          "type": "address"
        },
        {
          "internalType": "address",
          "name": "",
          "type": "address"
        },
        {
          "internalType": "uint256[]",
          "name": "",
          "type": "uint256[]"
        },
        {
          "internalType": "uint256[]",
          "name": "",
          "type": "uint256[]"
        },
        {
          "internalType": "bytes",
          "name": "",
          "type": "bytes"
        }
      ],
      "name": "onERC1155BatchReceived",
      "outputs": [
        {
          "internalType": "bytes4",
          "name": "",
          "type": "bytes4"
        }
      ],
      "stateMutability": "nonpayable",
      "type": "function"
    },
    {
      "inputs": [
        {
          "internalType": "address",
          "name": "",
          "type": "address"
        },
        {
          "internalType": "address",
          "name": "",
          "type": "address"
        },
        {
          "internalType": "uint256",
          "name": "",
          "type": "uint256"
        },
        {
          "internalType": "uint256",
          "name": "",
          "type": "uint256"
        },
        {
          "internalType": "bytes",
          "name": "",
          "type": "bytes"
        }
      ],
      "name": "onERC1155Received",
      "outputs": [
        {
          "internalType": "bytes4",
          "name": "",
          "type": "bytes4"
        }
      ],
      "stateMutability": "nonpayable",
      "type": "function"
    },
    {
      "inputs": [],
      "name": "owner",
      "outputs": [
        {
          "internalType": "address",
          "name": "",
          "type": "address"
        }
      ],
      "stateMutability": "view",
      "type": "function"
    },
    {
      "inputs": [],
      "name": "renounceOwnership",
      "outputs": [],
      "stateMutability": "nonpayable",
      "type": "function"
    },
    {
      "inputs": [
        {
          "internalType": "address",
          "name": "_implementation",
          "type": "address"
        },
        {
          "internalType": "address",
          "name": "_owner",
          "type": "address"
        },
        {
          "internalType": "address",
          "name": "_tokenAddress",
          "type": "address"
        },
        {
          "internalType": "uint256",
          "name": "_tokenId",
          "type": "uint256"
        },
        {
          "internalType": "uint256",
          "name": "_amount",
          "type": "uint256"
        },
        {
          "internalType": "bool",
          "name": "_locked",
          "type": "bool"
        }
      ],
      "name": "setVersion",
      "outputs": [],
      "stateMutability": "nonpayable",
      "type": "function"
    },
    {
      "inputs": [
        {
          "internalType": "bytes4",
          "name": "_interfaceId",
          "type": "bytes4"
        }
      ],
      "name": "supportsInterface",
      "outputs": [
        {
          "internalType": "bool",
          "name": "",
          "type": "bool"
        }
      ],
      "stateMutability": "view",
      "type": "function"
    },
    {
      "inputs": [
        {
          "internalType": "address",
          "name": "newOwner",
          "type": "address"
        }
      ],
      "name": "transferOwnership",
      "outputs": [],
      "stateMutability": "nonpayable",
      "type": "function"
    },
    {
      "inputs": [
        {
          "internalType": "bytes32",
          "name": "",
          "type": "bytes32"
        }
      ],
      "name": "versionKeyToFunded",
      "outputs": [
        {
          "internalType": "uint256",
          "name": "",
          "type": "uint256"
        }
      ],
      "stateMutability": "view",
      "type": "function"
    },
    {
      "inputs": [
        {
          "internalType": "address",
          "name": "",
          "type": "address"
        }
      ],
      "name": "versions",
      "outputs": [
        {
          "internalType": "address",
          "name": "owner",
          "type": "address"
        },
        {
          "internalType": "bytes32",
          "name": "licenseKey",
          "type": "bytes32"
        },
        {
          "internalType": "uint256",
          "name": "amount",
          "type": "uint256"
        },
        {
          "internalType": "bool",
          "name": "locked",
          "type": "bool"
        }
      ],
      "stateMutability": "view",
      "type": "function"
    }
  ],
  "bytecode": {
    "object": "0x608060405234801561001057600080fd5b50604051610cb9380380610cb983398101604081905261002f91610199565b6100383361007b565b61007581336040516000602082018190526034820152605401604051602081830303815290604052805190602001206000806100cb60201b60201c565b506101c9565b600080546001600160a01b038381166001600160a01b0319831681178455604051919092169283917f8be0079c531659141344cd1fd0a4f28419497f9722a3daafe3b4186f6b6457e09190a35050565b60408051608080820183526001600160a01b038781168352602080840188815284860188815287151560608088019182528d8616600081815260018088528b82209a518b546001600160a01b03191699169889178b559551958a01869055935160028a0181905592516003909901805460ff1916991515998a1790558951968752948601939093528488015260ff909516151590830152935190819003909101812092917f9aa070da0af188ad2b4060cc793b7f3f9d9178d0a74ccd9f2da6fa610f41baea91a35050505050565b6000602082840312156101ab57600080fd5b81516001600160a01b03811681146101c257600080fd5b9392505050565b610ae1806101d86000396000f3fe608060405234801561001057600080fd5b50600436106100a95760003560e01c80638da5cb5b116100715780638da5cb5b146101ac578063bc197c81146101c7578063f0526bf8146101ff578063f0d2120b14610212578063f23a6e6114610225578063f2fde38b1461024457600080fd5b806301ffc9a7146100ae578063488725a0146100d657806352d574e5146101475780635f52d85214610182578063715018a6146101a2575b600080fd5b6100c16100bc366004610772565b610257565b60405190151581526020015b60405180910390f35b61011b6100e43660046107bf565b600160208190526000918252604090912080549181015460028201546003909201546001600160a01b039093169290919060ff1684565b604080516001600160a01b039095168552602085019390935291830152151560608201526080016100cd565b6101746101553660046107bf565b6001600160a01b03166000908152600160208190526040909120015490565b6040519081526020016100cd565b6101746101903660046107da565b60026020526000908152604090205481565b6101aa61028e565b005b6000546040516001600160a01b0390911681526020016100cd565b6101e66101d536600461092a565b63bc197c8160e01b95945050505050565b6040516001600160e01b031990911681526020016100cd565b6101aa61020d3660046109d4565b6102a2565b610174610220366004610a43565b610533565b6101e6610233366004610a6f565b63f23a6e6160e01b95945050505050565b6101aa6102523660046107bf565b610581565b60006001600160e01b0319821663292a868b60e11b148061028857506001600160e01b03198216630271189760e51b145b92915050565b6102966105fa565b6102a06000610654565b565b6001600160a01b0380871660009081526001602081815260409283902083516080810185528154909516855291820154908401526002810154918301919091526003015460ff1615801560608301526103725760405162461bcd60e51b815260206004820152604160248201527f4c61626f724d61726b657456657273696f6e733a3a5f73657456657273696f6e60448201527f3a2043616e6e6f74207570646174652061206c6f636b65642076657273696f6e6064820152601760f91b608482015260a4015b60405180910390fd5b80516001600160a01b03161580610392575080516001600160a01b031633145b61041f5760405162461bcd60e51b815260206004820152605260248201527f4c61626f724d61726b657456657273696f6e733a3a5f73657456657273696f6e60448201527f3a20596f7520646f206e6f742068617665207065726d697373696f6e20746f2060648201527132b234ba103a3434b9903b32b939b4b7b71760711b608482015260a401610369565b6000546001600160a01b031633146104df576001600160a01b038516158015610446575083155b8015610450575082155b6104df5760405162461bcd60e51b815260206004820152605460248201527f4c61626f724d61726b657456657273696f6e733a3a5f73657456657273696f6e60448201527f3a20596f7520646f206e6f742068617665207065726d697373696f6e20746f2060648201527339b2ba1030903830bcb6b2b73a103a37b5b2b71760611b608482015260a401610369565b6040516bffffffffffffffffffffffff19606087901b1660208201526034810185905261052a90889088906054016040516020818303038152906040528051906020012086866106a4565b50505050505050565b6000828260405160200161056392919091825260601b6bffffffffffffffffffffffff1916602082015260340190565b60405160208183030381529060405280519060200120905092915050565b6105896105fa565b6001600160a01b0381166105ee5760405162461bcd60e51b815260206004820152602660248201527f4f776e61626c653a206e6577206f776e657220697320746865207a65726f206160448201526564647265737360d01b6064820152608401610369565b6105f781610654565b50565b6000546001600160a01b031633146102a05760405162461bcd60e51b815260206004820181905260248201527f4f776e61626c653a2063616c6c6572206973206e6f7420746865206f776e65726044820152606401610369565b600080546001600160a01b038381166001600160a01b0319831681178455604051919092169283917f8be0079c531659141344cd1fd0a4f28419497f9722a3daafe3b4186f6b6457e09190a35050565b60408051608080820183526001600160a01b038781168352602080840188815284860188815287151560608088019182528d8616600081815260018088528b82209a518b546001600160a01b03191699169889178b559551958a01869055935160028a0181905592516003909901805460ff1916991515998a1790558951968752948601939093528488015260ff909516151590830152935190819003909101812092917f9aa070da0af188ad2b4060cc793b7f3f9d9178d0a74ccd9f2da6fa610f41baea91a35050505050565b60006020828403121561078457600080fd5b81356001600160e01b03198116811461079c57600080fd5b9392505050565b80356001600160a01b03811681146107ba57600080fd5b919050565b6000602082840312156107d157600080fd5b61079c826107a3565b6000602082840312156107ec57600080fd5b5035919050565b634e487b7160e01b600052604160045260246000fd5b604051601f8201601f1916810167ffffffffffffffff81118282101715610832576108326107f3565b604052919050565b600082601f83011261084b57600080fd5b8135602067ffffffffffffffff821115610867576108676107f3565b8160051b610876828201610809565b928352848101820192828101908785111561089057600080fd5b83870192505b848310156108af57823582529183019190830190610896565b979650505050505050565b600082601f8301126108cb57600080fd5b813567ffffffffffffffff8111156108e5576108e56107f3565b6108f8601f8201601f1916602001610809565b81815284602083860101111561090d57600080fd5b816020850160208301376000918101602001919091529392505050565b600080600080600060a0868803121561094257600080fd5b61094b866107a3565b9450610959602087016107a3565b9350604086013567ffffffffffffffff8082111561097657600080fd5b61098289838a0161083a565b9450606088013591508082111561099857600080fd5b6109a489838a0161083a565b935060808801359150808211156109ba57600080fd5b506109c7888289016108ba565b9150509295509295909350565b60008060008060008060c087890312156109ed57600080fd5b6109f6876107a3565b9550610a04602088016107a3565b9450610a12604088016107a3565b9350606087013592506080870135915060a08701358015158114610a3557600080fd5b809150509295509295509295565b60008060408385031215610a5657600080fd5b82359150610a66602084016107a3565b90509250929050565b600080600080600060a08688031215610a8757600080fd5b610a90866107a3565b9450610a9e602087016107a3565b93506040860135925060608601359150608086013567ffffffffffffffff811115610ac857600080fd5b6109c7888289016108ba56fea164736f6c6343000811000a",
    "linkReferences": {}
  },
  "methodIdentifiers": {
    "getLicenseKey(bytes32,address)": "f0d2120b",
    "getVersionKey(address)": "52d574e5",
    "onERC1155BatchReceived(address,address,uint256[],uint256[],bytes)": "bc197c81",
    "onERC1155Received(address,address,uint256,uint256,bytes)": "f23a6e61",
    "owner()": "8da5cb5b",
    "renounceOwnership()": "715018a6",
    "setVersion(address,address,address,uint256,uint256,bool)": "f0526bf8",
    "supportsInterface(bytes4)": "01ffc9a7",
    "transferOwnership(address)": "f2fde38b",
    "versionKeyToFunded(bytes32)": "5f52d852",
    "versions(address)": "488725a0"
  },
  "id": 68
}