{
  "abi": [
    {
      "inputs": [
        {
          "internalType": "address",
          "name": "_implementation",
          "type": "address"
        }
      ],
      "stateMutability": "nonpayable",
      "type": "constructor"
    },
    {
      "anonymous": false,
      "inputs": [
        {
          "indexed": true,
          "internalType": "address",
          "name": "organization",
          "type": "address"
        },
        {
          "indexed": true,
          "internalType": "address",
          "name": "owner",
          "type": "address"
        },
        {
          "indexed": true,
          "internalType": "address",
          "name": "implementation",
          "type": "address"
        }
      ],
      "name": "LaborMarketCreated",
      "type": "event"
    },
    {
      "anonymous": false,
      "inputs": [
        {
          "indexed": true,
          "internalType": "address",
          "name": "previousOwner",
          "type": "address"
        },
        {
          "indexed": true,
          "internalType": "address",
          "name": "newOwner",
          "type": "address"
        }
      ],
      "name": "OwnershipTransferred",
      "type": "event"
    },
    {
      "anonymous": false,
      "inputs": [
        {
          "indexed": true,
          "internalType": "address",
          "name": "implementation",
          "type": "address"
        },
        {
          "components": [
            {
              "internalType": "address",
              "name": "owner",
              "type": "address"
            },
            {
              "internalType": "bytes32",
              "name": "licenseKey",
              "type": "bytes32"
            },
            {
              "internalType": "uint256",
              "name": "amount",
              "type": "uint256"
            },
            {
              "internalType": "bool",
              "name": "locked",
              "type": "bool"
            }
          ],
          "indexed": true,
          "internalType": "struct LaborMarketVersionsInterface.Version",
          "name": "version",
          "type": "tuple"
        }
      ],
      "name": "VersionUpdated",
      "type": "event"
    },
    {
      "inputs": [
        {
          "internalType": "bytes32",
          "name": "_versionKey",
          "type": "bytes32"
        },
        {
          "internalType": "address",
          "name": "_sender",
          "type": "address"
        }
      ],
      "name": "getLicenseKey",
      "outputs": [
        {
          "internalType": "bytes32",
          "name": "",
          "type": "bytes32"
        }
      ],
      "stateMutability": "pure",
      "type": "function"
    },
    {
      "inputs": [
        {
          "internalType": "address",
          "name": "_implementation",
          "type": "address"
        }
      ],
      "name": "getVersionKey",
      "outputs": [
        {
          "internalType": "bytes32",
          "name": "",
          "type": "bytes32"
        }
      ],
      "stateMutability": "view",
      "type": "function"
    },
    {
      "inputs": [
        {
          "internalType": "address",
          "name": "",
          "type": "address"
        },
        {
          "internalType": "address",
          "name": "",
          "type": "address"
        },
        {
          "internalType": "uint256[]",
          "name": "",
          "type": "uint256[]"
        },
        {
          "internalType": "uint256[]",
          "name": "",
          "type": "uint256[]"
        },
        {
          "internalType": "bytes",
          "name": "",
          "type": "bytes"
        }
      ],
      "name": "onERC1155BatchReceived",
      "outputs": [
        {
          "internalType": "bytes4",
          "name": "",
          "type": "bytes4"
        }
      ],
      "stateMutability": "nonpayable",
      "type": "function"
    },
    {
      "inputs": [
        {
          "internalType": "address",
          "name": "",
          "type": "address"
        },
        {
          "internalType": "address",
          "name": "",
          "type": "address"
        },
        {
          "internalType": "uint256",
          "name": "",
          "type": "uint256"
        },
        {
          "internalType": "uint256",
          "name": "",
          "type": "uint256"
        },
        {
          "internalType": "bytes",
          "name": "",
          "type": "bytes"
        }
      ],
      "name": "onERC1155Received",
      "outputs": [
        {
          "internalType": "bytes4",
          "name": "",
          "type": "bytes4"
        }
      ],
      "stateMutability": "nonpayable",
      "type": "function"
    },
    {
      "inputs": [],
      "name": "owner",
      "outputs": [
        {
          "internalType": "address",
          "name": "",
          "type": "address"
        }
      ],
      "stateMutability": "view",
      "type": "function"
    },
    {
      "inputs": [],
      "name": "renounceOwnership",
      "outputs": [],
      "stateMutability": "nonpayable",
      "type": "function"
    },
    {
      "inputs": [
        {
          "internalType": "address",
          "name": "_implementation",
          "type": "address"
        },
        {
          "internalType": "address",
          "name": "_owner",
          "type": "address"
        },
        {
          "internalType": "address",
          "name": "_tokenAddress",
          "type": "address"
        },
        {
          "internalType": "uint256",
          "name": "_tokenId",
          "type": "uint256"
        },
        {
          "internalType": "uint256",
          "name": "_amount",
          "type": "uint256"
        },
        {
          "internalType": "bool",
          "name": "_locked",
          "type": "bool"
        }
      ],
      "name": "setVersion",
      "outputs": [],
      "stateMutability": "nonpayable",
      "type": "function"
    },
    {
      "inputs": [
        {
          "internalType": "bytes4",
          "name": "_interfaceId",
          "type": "bytes4"
        }
      ],
      "name": "supportsInterface",
      "outputs": [
        {
          "internalType": "bool",
          "name": "",
          "type": "bool"
        }
      ],
      "stateMutability": "view",
      "type": "function"
    },
    {
      "inputs": [
        {
          "internalType": "address",
          "name": "newOwner",
          "type": "address"
        }
      ],
      "name": "transferOwnership",
      "outputs": [],
      "stateMutability": "nonpayable",
      "type": "function"
    },
    {
      "inputs": [
        {
          "internalType": "bytes32",
          "name": "",
          "type": "bytes32"
        }
      ],
      "name": "versionKeyToFunded",
      "outputs": [
        {
          "internalType": "uint256",
          "name": "",
          "type": "uint256"
        }
      ],
      "stateMutability": "view",
      "type": "function"
    },
    {
      "inputs": [
        {
          "internalType": "address",
          "name": "",
          "type": "address"
        }
      ],
      "name": "versions",
      "outputs": [
        {
          "internalType": "address",
          "name": "owner",
          "type": "address"
        },
        {
          "internalType": "bytes32",
          "name": "licenseKey",
          "type": "bytes32"
        },
        {
          "internalType": "uint256",
          "name": "amount",
          "type": "uint256"
        },
        {
          "internalType": "bool",
          "name": "locked",
          "type": "bool"
        }
      ],
      "stateMutability": "view",
      "type": "function"
    }
  ],
  "bytecode": {
    "object": "0x60803461019f576001600160401b0390601f610db638819003918201601f19168301929190848411838510176101a457816020928492604096875283398101031261019f57516001600160a01b038082169182900361019f57600080546001600160a01b0319808216339081178455865193979193919285167f8be0079c531659141344cd1fd0a4f28419497f9722a3daafe3b4186f6b6457e08980a360208101918783528760348301526034825260608201928284108285111761018b57838852825190209060e083019081118482101761018b5792608094926003927f9aa070da0af188ad2b4060cc793b7f3f9d9178d0a74ccd9f2da6fa610f41baea97958a5233835286820190815260c060a08301928c845201948b8652898c526001602052868b8d2094511690845416178355516001830155516002820155019051151560ff8019835416911617905560ff6003868820875193815416845260018101546020850152600281015488850152015416151560608201522092519380a3610bfb90816101bb8239f35b634e487b7160e01b89526041600452602489fd5b600080fd5b634e487b7160e01b600052604160045260246000fdfe6080604081815260048036101561001557600080fd5b600092833560e01c90816301ffc9a71461090157508063488725a01461089257806352d574e51461084c5780635f52d85214610825578063715018a6146107a75780638da5cb5b14610774578063bc197c81146106d0578063f0526bf814610290578063f0d2120b14610229578063f23a6e61146101b75763f2fde38b1461009c57600080fd5b346101b35760206003193601126101b3576100b56109a0565b906100be610b6f565b73ffffffffffffffffffffffffffffffffffffffff8092169283156101305750508254827fffffffffffffffffffffffff00000000000000000000000000000000000000008216178455167f8be0079c531659141344cd1fd0a4f28419497f9722a3daafe3b4186f6b6457e08380a380f35b90602060849251917f08c379a0000000000000000000000000000000000000000000000000000000008352820152602660248201527f4f776e61626c653a206e6577206f776e657220697320746865207a65726f206160448201527f64647265737300000000000000000000000000000000000000000000000000006064820152fd5b8280fd5b5091346102265760a0600319360112610226576101d26109a0565b506101db6109c8565b506084359067ffffffffffffffff821161022657506020926101ff91369101610afa565b50517ff23a6e61000000000000000000000000000000000000000000000000000000008152f35b80fd5b50346101b357816003193601126101b357602092506102466109c8565b7fffffffffffffffffffffffffffffffffffffffff0000000000000000000000008351918583019335845260601b16838201526034815261028681610a36565b5190209051908152f35b5090346101b35760c06003193601126101b3576102ab6109a0565b6102b36109c8565b916044359173ffffffffffffffffffffffffffffffffffffffff93848416938481036106cc57606435906084359160a435948515158096036106c857881698898b5260209760018952878c2060ff60038a519261030f846109eb565b8d815416845260018101548d85015260028101548c850152015416151580606083015261062057518a168015908115610616575b501561056e57918a93918c938b8554163303610493575b505093600396938a89899560809d9c9995829960ff9d51907fffffffffffffffffffffffffffffffffffffffff0000000000000000000000008d83019360601b1683526034820152603481526103af81610a36565b51902093838351976103c0896109eb565b1687528a870194855282870195865260608701988952815260018a52209351167fffffffffffffffffffffffff00000000000000000000000000000000000000008454161783555160018301555160028201550190511515857fffffffffffffffffffffffffffffffffffffffffffffffffffffffffffffff0083541691161790558088209181519583541686526001830154908601526002820154908501520154161515606082015220907f9aa070da0af188ad2b4060cc793b7f3f9d9178d0a74ccd9f2da6fa610f41baea8380a380f35b9193509193501580610566575b8061055e575b156104b657918a91838b9461035a565b60a490888851917f08c379a0000000000000000000000000000000000000000000000000000000008352820152605460248201527f4c61626f724d61726b657456657273696f6e733a3a5f73657456657273696f6e60448201527f3a20596f7520646f206e6f742068617665207065726d697373696f6e20746f2060648201527f7365742061207061796d656e7420746f6b656e2e0000000000000000000000006084820152fd5b5083156104a6565b5081156104a0565b60a4828a8a51917f08c379a0000000000000000000000000000000000000000000000000000000008352820152605260248201527f4c61626f724d61726b657456657273696f6e733a3a5f73657456657273696f6e60448201527f3a20596f7520646f206e6f742068617665207065726d697373696f6e20746f2060648201527f6564697420746869732076657273696f6e2e00000000000000000000000000006084820152fd5b9050331438610343565b60a4838b8b51917f08c379a0000000000000000000000000000000000000000000000000000000008352820152604160248201527f4c61626f724d61726b657456657273696f6e733a3a5f73657456657273696f6e60448201527f3a2043616e6e6f74207570646174652061206c6f636b65642076657273696f6e60648201527f2e000000000000000000000000000000000000000000000000000000000000006084820152fd5b8a80fd5b8780fd5b5091346102265760a0600319360112610226576106eb6109a0565b506106f46109c8565b5067ffffffffffffffff90604435828111610770576107169036908601610a93565b506064358281116107705761072e9036908601610a93565b50608435918211610226575060209261074991369101610afa565b50517fbc197c81000000000000000000000000000000000000000000000000000000008152f35b5080fd5b50503461077057816003193601126107705773ffffffffffffffffffffffffffffffffffffffff60209254169051908152f35b83346102265780600319360112610226576107c0610b6f565b8073ffffffffffffffffffffffffffffffffffffffff81547fffffffffffffffffffffffff000000000000000000000000000000000000000081168355167f8be0079c531659141344cd1fd0a4f28419497f9722a3daafe3b4186f6b6457e08280a380f35b50346101b35760206003193601126101b35760209282913581526002845220549051908152f35b5050346107705760206003193601126107705760018160209373ffffffffffffffffffffffffffffffffffffffff6108826109a0565b1681528285522001549051908152f35b50503461077057602060031936011261077057908160809273ffffffffffffffffffffffffffffffffffffffff92836108c96109a0565b168152600160205220918254169160018101549160ff6003600284015493015416928151948552602085015283015215156060820152f35b925050346101b35760206003193601126101b357357fffffffff0000000000000000000000000000000000000000000000000000000081168091036101b357602092507f52550d16000000000000000000000000000000000000000000000000000000008114908115610976575b5015158152f35b7f4e2312e0000000000000000000000000000000000000000000000000000000009150143861096f565b6004359073ffffffffffffffffffffffffffffffffffffffff821682036109c357565b600080fd5b6024359073ffffffffffffffffffffffffffffffffffffffff821682036109c357565b6080810190811067ffffffffffffffff821117610a0757604052565b7f4e487b7100000000000000000000000000000000000000000000000000000000600052604160045260246000fd5b6060810190811067ffffffffffffffff821117610a0757604052565b90601f7fffffffffffffffffffffffffffffffffffffffffffffffffffffffffffffffe0910116810190811067ffffffffffffffff821117610a0757604052565b9080601f830112156109c35781359067ffffffffffffffff8211610a07578160051b60405193602093610ac885840187610a52565b855283808601928201019283116109c3578301905b828210610aeb575050505090565b81358152908301908301610add565b81601f820112156109c35780359067ffffffffffffffff8211610a075760405192610b4d60207fffffffffffffffffffffffffffffffffffffffffffffffffffffffffffffffe0601f8601160185610a52565b828452602083830101116109c357816000926020809301838601378301015290565b73ffffffffffffffffffffffffffffffffffffffff600054163303610b9057565b60646040517f08c379a000000000000000000000000000000000000000000000000000000000815260206004820152602060248201527f4f776e61626c653a2063616c6c6572206973206e6f7420746865206f776e65726044820152fdfea164736f6c6343000811000a",
    "linkReferences": {}
  },
  "methodIdentifiers": {
    "getLicenseKey(bytes32,address)": "f0d2120b",
    "getVersionKey(address)": "52d574e5",
    "onERC1155BatchReceived(address,address,uint256[],uint256[],bytes)": "bc197c81",
    "onERC1155Received(address,address,uint256,uint256,bytes)": "f23a6e61",
    "owner()": "8da5cb5b",
    "renounceOwnership()": "715018a6",
    "setVersion(address,address,address,uint256,uint256,bool)": "f0526bf8",
    "supportsInterface(bytes4)": "01ffc9a7",
    "transferOwnership(address)": "f2fde38b",
    "versionKeyToFunded(bytes32)": "5f52d852",
    "versions(address)": "488725a0"
  },
  "id": 55
}