{
  "abi": [
    {
      "anonymous": false,
      "inputs": [
        {
          "indexed": false,
          "internalType": "uint8",
          "name": "version",
          "type": "uint8"
        }
      ],
      "name": "Initialized",
      "type": "event"
    },
    {
      "anonymous": false,
      "inputs": [
        {
          "indexed": true,
          "internalType": "uint256",
          "name": "marketId",
          "type": "uint256"
        },
        {
          "indexed": false,
          "internalType": "address",
          "name": "delegateBadge",
          "type": "address"
        },
        {
          "indexed": false,
          "internalType": "address",
          "name": "maintainerBadge",
          "type": "address"
        },
        {
          "indexed": false,
          "internalType": "address",
          "name": "payCurve",
          "type": "address"
        },
        {
          "indexed": false,
          "internalType": "address",
          "name": "enforcementCriteria",
          "type": "address"
        },
        {
          "indexed": false,
          "internalType": "uint256",
          "name": "repParticipantMultiplier",
          "type": "uint256"
        },
        {
          "indexed": false,
          "internalType": "uint256",
          "name": "repMaintainerMultiplier",
          "type": "uint256"
        },
        {
          "indexed": false,
          "internalType": "string",
          "name": "marketUri",
          "type": "string"
        }
      ],
      "name": "LaborMarketCreated",
      "type": "event"
    },
    {
      "anonymous": false,
      "inputs": [
        {
          "components": [
            {
              "internalType": "address",
              "name": "network",
              "type": "address"
            },
            {
              "internalType": "address",
              "name": "enforcementModule",
              "type": "address"
            },
            {
              "internalType": "address",
              "name": "paymentModule",
              "type": "address"
            },
            {
              "internalType": "string",
              "name": "marketUri",
              "type": "string"
            },
            {
              "internalType": "address",
              "name": "delegateBadge",
              "type": "address"
            },
            {
              "internalType": "uint256",
              "name": "delegateTokenId",
              "type": "uint256"
            },
            {
              "internalType": "address",
              "name": "maintainerBadge",
              "type": "address"
            },
            {
              "internalType": "uint256",
              "name": "maintainerTokenId",
              "type": "uint256"
            },
            {
              "internalType": "address",
              "name": "reputationModule",
              "type": "address"
            },
            {
              "components": [
                {
                  "internalType": "address",
                  "name": "reputationEngine",
                  "type": "address"
                },
                {
                  "internalType": "uint256",
                  "name": "signalStake",
                  "type": "uint256"
                },
                {
                  "internalType": "uint256",
                  "name": "providerThreshold",
                  "type": "uint256"
                },
                {
                  "internalType": "uint256",
                  "name": "maintainerThreshold",
                  "type": "uint256"
                }
              ],
              "internalType": "struct ReputationModuleInterface.ReputationMarketConfig",
              "name": "reputationConfig",
              "type": "tuple"
            }
          ],
          "indexed": true,
          "internalType": "struct LaborMarketConfigurationInterface.LaborMarketConfiguration",
          "name": "configuration",
          "type": "tuple"
        }
      ],
      "name": "MarketParametersUpdated",
      "type": "event"
    },
    {
      "anonymous": false,
      "inputs": [
        {
          "indexed": true,
          "internalType": "address",
          "name": "previousOwner",
          "type": "address"
        },
        {
          "indexed": true,
          "internalType": "address",
          "name": "newOwner",
          "type": "address"
        }
      ],
      "name": "OwnershipTransferred",
      "type": "event"
    },
    {
      "anonymous": false,
      "inputs": [
        {
          "indexed": true,
          "internalType": "address",
          "name": "claimer",
          "type": "address"
        },
        {
          "indexed": true,
          "internalType": "uint256",
          "name": "requestId",
          "type": "uint256"
        },
        {
          "indexed": false,
          "internalType": "uint256",
          "name": "remainderAmount",
          "type": "uint256"
        }
      ],
      "name": "RemainderClaimed",
      "type": "event"
    },
    {
      "anonymous": false,
      "inputs": [
        {
          "indexed": true,
          "internalType": "address",
          "name": "requester",
          "type": "address"
        },
        {
          "indexed": true,
          "internalType": "uint256",
          "name": "requestId",
          "type": "uint256"
        },
        {
          "indexed": true,
          "internalType": "string",
          "name": "uri",
          "type": "string"
        },
        {
          "indexed": false,
          "internalType": "address",
          "name": "pToken",
          "type": "address"
        },
        {
          "indexed": false,
          "internalType": "uint256",
          "name": "pTokenId",
          "type": "uint256"
        },
        {
          "indexed": false,
          "internalType": "uint256",
          "name": "pTokenQ",
          "type": "uint256"
        },
        {
          "indexed": false,
          "internalType": "uint256",
          "name": "signalExp",
          "type": "uint256"
        },
        {
          "indexed": false,
          "internalType": "uint256",
          "name": "submissionExp",
          "type": "uint256"
        },
        {
          "indexed": false,
          "internalType": "uint256",
          "name": "enforcementExp",
          "type": "uint256"
        }
      ],
      "name": "RequestCreated",
      "type": "event"
    },
    {
      "anonymous": false,
      "inputs": [
        {
          "indexed": true,
          "internalType": "address",
          "name": "fulfiller",
          "type": "address"
        },
        {
          "indexed": true,
          "internalType": "uint256",
          "name": "requestId",
          "type": "uint256"
        },
        {
          "indexed": true,
          "internalType": "uint256",
          "name": "submissionId",
          "type": "uint256"
        }
      ],
      "name": "RequestFulfilled",
      "type": "event"
    },
    {
      "anonymous": false,
      "inputs": [
        {
          "indexed": true,
          "internalType": "address",
          "name": "claimer",
          "type": "address"
        },
        {
          "indexed": true,
          "internalType": "uint256",
          "name": "submissionId",
          "type": "uint256"
        },
        {
          "indexed": true,
          "internalType": "uint256",
          "name": "payAmount",
          "type": "uint256"
        },
        {
          "indexed": false,
          "internalType": "address",
          "name": "to",
          "type": "address"
        }
      ],
      "name": "RequestPayClaimed",
      "type": "event"
    },
    {
      "anonymous": false,
      "inputs": [
        {
          "indexed": false,
          "internalType": "address",
          "name": "reviewer",
          "type": "address"
        },
        {
          "indexed": true,
          "internalType": "uint256",
          "name": "requestId",
          "type": "uint256"
        },
        {
          "indexed": true,
          "internalType": "uint256",
          "name": "submissionId",
          "type": "uint256"
        },
        {
          "indexed": true,
          "internalType": "uint256",
          "name": "reviewScore",
          "type": "uint256"
        }
      ],
      "name": "RequestReviewed",
      "type": "event"
    },
    {
      "anonymous": false,
      "inputs": [
        {
          "indexed": true,
          "internalType": "address",
          "name": "signaler",
          "type": "address"
        },
        {
          "indexed": true,
          "internalType": "uint256",
          "name": "requestId",
          "type": "uint256"
        },
        {
          "indexed": false,
          "internalType": "uint256",
          "name": "signalAmount",
          "type": "uint256"
        }
      ],
      "name": "RequestSignal",
      "type": "event"
    },
    {
      "anonymous": false,
      "inputs": [
        {
          "indexed": true,
          "internalType": "uint256",
          "name": "requestId",
          "type": "uint256"
        }
      ],
      "name": "RequestWithdrawn",
      "type": "event"
    },
    {
      "anonymous": false,
      "inputs": [
        {
          "indexed": true,
          "internalType": "address",
          "name": "signaler",
          "type": "address"
        },
        {
          "indexed": true,
          "internalType": "uint256",
          "name": "quantity",
          "type": "uint256"
        },
        {
          "indexed": false,
          "internalType": "uint256",
          "name": "signalAmount",
          "type": "uint256"
        }
      ],
      "name": "ReviewSignal",
      "type": "event"
    },
    {
      "inputs": [
        {
          "internalType": "uint256",
          "name": "submissionId",
          "type": "uint256"
        },
        {
          "internalType": "address",
          "name": "to",
          "type": "address"
        },
        {
          "internalType": "bytes",
          "name": "data",
          "type": "bytes"
        }
      ],
      "name": "claim",
      "outputs": [
        {
          "internalType": "uint256",
          "name": "",
          "type": "uint256"
        }
      ],
      "stateMutability": "nonpayable",
      "type": "function"
    },
    {
      "inputs": [
        {
          "internalType": "uint256",
          "name": "requestId",
          "type": "uint256"
        }
      ],
      "name": "claimRemainder",
      "outputs": [],
      "stateMutability": "nonpayable",
      "type": "function"
    },
    {
      "inputs": [],
      "name": "configuration",
      "outputs": [
        {
          "internalType": "address",
          "name": "network",
          "type": "address"
        },
        {
          "internalType": "address",
          "name": "enforcementModule",
          "type": "address"
        },
        {
          "internalType": "address",
          "name": "paymentModule",
          "type": "address"
        },
        {
          "internalType": "string",
          "name": "marketUri",
          "type": "string"
        },
        {
          "internalType": "address",
          "name": "delegateBadge",
          "type": "address"
        },
        {
          "internalType": "uint256",
          "name": "delegateTokenId",
          "type": "uint256"
        },
        {
          "internalType": "address",
          "name": "maintainerBadge",
          "type": "address"
        },
        {
          "internalType": "uint256",
          "name": "maintainerTokenId",
          "type": "uint256"
        },
        {
          "internalType": "address",
          "name": "reputationModule",
          "type": "address"
        },
        {
          "components": [
            {
              "internalType": "address",
              "name": "reputationEngine",
              "type": "address"
            },
            {
              "internalType": "uint256",
              "name": "signalStake",
              "type": "uint256"
            },
            {
              "internalType": "uint256",
              "name": "providerThreshold",
              "type": "uint256"
            },
            {
              "internalType": "uint256",
              "name": "maintainerThreshold",
              "type": "uint256"
            }
          ],
          "internalType": "struct ReputationModuleInterface.ReputationMarketConfig",
          "name": "reputationConfig",
          "type": "tuple"
        }
      ],
      "stateMutability": "view",
      "type": "function"
    },
    {
      "inputs": [],
      "name": "delegateBadge",
      "outputs": [
        {
          "internalType": "contract IERC1155",
          "name": "",
          "type": "address"
        }
      ],
      "stateMutability": "view",
      "type": "function"
    },
    {
      "inputs": [],
      "name": "enforcementCriteria",
      "outputs": [
        {
          "internalType": "contract EnforcementCriteriaInterface",
          "name": "",
          "type": "address"
        }
      ],
      "stateMutability": "view",
      "type": "function"
    },
    {
      "inputs": [
        {
          "internalType": "uint256",
          "name": "_requestId",
          "type": "uint256"
        }
      ],
      "name": "getRequest",
      "outputs": [
        {
          "components": [
            {
              "internalType": "address",
              "name": "serviceRequester",
              "type": "address"
            },
            {
              "internalType": "address",
              "name": "pToken",
              "type": "address"
            },
            {
              "internalType": "uint256",
              "name": "pTokenId",
              "type": "uint256"
            },
            {
              "internalType": "uint256",
              "name": "pTokenQ",
              "type": "uint256"
            },
            {
              "internalType": "uint256",
              "name": "signalExp",
              "type": "uint256"
            },
            {
              "internalType": "uint256",
              "name": "submissionExp",
              "type": "uint256"
            },
            {
              "internalType": "uint256",
              "name": "enforcementExp",
              "type": "uint256"
            },
            {
              "internalType": "string",
              "name": "uri",
              "type": "string"
            }
          ],
          "internalType": "struct LaborMarketInterface.ServiceRequest",
          "name": "",
          "type": "tuple"
        }
      ],
      "stateMutability": "view",
      "type": "function"
    },
    {
      "inputs": [
        {
          "internalType": "uint256",
          "name": "_submissionId",
          "type": "uint256"
        }
      ],
      "name": "getSubmission",
      "outputs": [
        {
          "components": [
            {
              "internalType": "address",
              "name": "serviceProvider",
              "type": "address"
            },
            {
              "internalType": "uint256",
              "name": "requestId",
              "type": "uint256"
            },
            {
              "internalType": "uint256",
              "name": "timestamp",
              "type": "uint256"
            },
            {
              "internalType": "string",
              "name": "uri",
              "type": "string"
            },
            {
              "internalType": "uint256[]",
              "name": "scores",
              "type": "uint256[]"
            },
            {
              "internalType": "bool",
              "name": "reviewed",
              "type": "bool"
            }
          ],
          "internalType": "struct LaborMarketInterface.ServiceSubmission",
          "name": "",
          "type": "tuple"
        }
      ],
      "stateMutability": "view",
      "type": "function"
    },
    {
      "inputs": [
        {
          "internalType": "uint256",
          "name": "",
          "type": "uint256"
        },
        {
          "internalType": "address",
          "name": "",
          "type": "address"
        }
      ],
      "name": "hasClaimed",
      "outputs": [
        {
          "internalType": "bool",
          "name": "",
          "type": "bool"
        }
      ],
      "stateMutability": "view",
      "type": "function"
    },
    {
      "inputs": [
        {
          "internalType": "uint256",
          "name": "",
          "type": "uint256"
        },
        {
          "internalType": "address",
          "name": "",
          "type": "address"
        }
      ],
      "name": "hasClaimedRemainder",
      "outputs": [
        {
          "internalType": "bool",
          "name": "",
          "type": "bool"
        }
      ],
      "stateMutability": "view",
      "type": "function"
    },
    {
      "inputs": [
        {
          "internalType": "uint256",
          "name": "",
          "type": "uint256"
        },
        {
          "internalType": "address",
          "name": "",
          "type": "address"
        }
      ],
      "name": "hasReviewed",
      "outputs": [
        {
          "internalType": "bool",
          "name": "",
          "type": "bool"
        }
      ],
      "stateMutability": "view",
      "type": "function"
    },
    {
      "inputs": [
        {
          "internalType": "uint256",
          "name": "",
          "type": "uint256"
        },
        {
          "internalType": "address",
          "name": "",
          "type": "address"
        }
      ],
      "name": "hasSubmitted",
      "outputs": [
        {
          "internalType": "bool",
          "name": "",
          "type": "bool"
        }
      ],
      "stateMutability": "view",
      "type": "function"
    },
    {
      "inputs": [
        {
          "components": [
            {
              "internalType": "address",
              "name": "network",
              "type": "address"
            },
            {
              "internalType": "address",
              "name": "enforcementModule",
              "type": "address"
            },
            {
              "internalType": "address",
              "name": "paymentModule",
              "type": "address"
            },
            {
              "internalType": "string",
              "name": "marketUri",
              "type": "string"
            },
            {
              "internalType": "address",
              "name": "delegateBadge",
              "type": "address"
            },
            {
              "internalType": "uint256",
              "name": "delegateTokenId",
              "type": "uint256"
            },
            {
              "internalType": "address",
              "name": "maintainerBadge",
              "type": "address"
            },
            {
              "internalType": "uint256",
              "name": "maintainerTokenId",
              "type": "uint256"
            },
            {
              "internalType": "address",
              "name": "reputationModule",
              "type": "address"
            },
            {
              "components": [
                {
                  "internalType": "address",
                  "name": "reputationEngine",
                  "type": "address"
                },
                {
                  "internalType": "uint256",
                  "name": "signalStake",
                  "type": "uint256"
                },
                {
                  "internalType": "uint256",
                  "name": "providerThreshold",
                  "type": "uint256"
                },
                {
                  "internalType": "uint256",
                  "name": "maintainerThreshold",
                  "type": "uint256"
                }
              ],
              "internalType": "struct ReputationModuleInterface.ReputationMarketConfig",
              "name": "reputationConfig",
              "type": "tuple"
            }
          ],
          "internalType": "struct LaborMarketConfigurationInterface.LaborMarketConfiguration",
          "name": "_configuration",
          "type": "tuple"
        }
      ],
      "name": "initialize",
      "outputs": [],
      "stateMutability": "nonpayable",
      "type": "function"
    },
    {
      "inputs": [],
      "name": "maintainerBadge",
      "outputs": [
        {
          "internalType": "contract IERC1155",
          "name": "",
          "type": "address"
        }
      ],
      "stateMutability": "view",
      "type": "function"
    },
    {
      "inputs": [],
      "name": "network",
      "outputs": [
        {
          "internalType": "contract LaborMarketNetwork",
          "name": "",
          "type": "address"
        }
      ],
      "stateMutability": "view",
      "type": "function"
    },
    {
      "inputs": [
        {
          "internalType": "address",
          "name": "",
          "type": "address"
        },
        {
          "internalType": "address",
          "name": "",
          "type": "address"
        },
        {
          "internalType": "uint256[]",
          "name": "",
          "type": "uint256[]"
        },
        {
          "internalType": "uint256[]",
          "name": "",
          "type": "uint256[]"
        },
        {
          "internalType": "bytes",
          "name": "",
          "type": "bytes"
        }
      ],
      "name": "onERC1155BatchReceived",
      "outputs": [
        {
          "internalType": "bytes4",
          "name": "",
          "type": "bytes4"
        }
      ],
      "stateMutability": "nonpayable",
      "type": "function"
    },
    {
      "inputs": [
        {
          "internalType": "address",
          "name": "",
          "type": "address"
        },
        {
          "internalType": "address",
          "name": "",
          "type": "address"
        },
        {
          "internalType": "uint256",
          "name": "",
          "type": "uint256"
        },
        {
          "internalType": "uint256",
          "name": "",
          "type": "uint256"
        },
        {
          "internalType": "bytes",
          "name": "",
          "type": "bytes"
        }
      ],
      "name": "onERC1155Received",
      "outputs": [
        {
          "internalType": "bytes4",
          "name": "",
          "type": "bytes4"
        }
      ],
      "stateMutability": "nonpayable",
      "type": "function"
    },
    {
      "inputs": [
        {
          "internalType": "address",
          "name": "",
          "type": "address"
        },
        {
          "internalType": "address",
          "name": "",
          "type": "address"
        },
        {
          "internalType": "uint256",
          "name": "",
          "type": "uint256"
        },
        {
          "internalType": "bytes",
          "name": "",
          "type": "bytes"
        }
      ],
      "name": "onERC721Received",
      "outputs": [
        {
          "internalType": "bytes4",
          "name": "",
          "type": "bytes4"
        }
      ],
      "stateMutability": "nonpayable",
      "type": "function"
    },
    {
      "inputs": [],
      "name": "owner",
      "outputs": [
        {
          "internalType": "address",
          "name": "",
          "type": "address"
        }
      ],
      "stateMutability": "view",
      "type": "function"
    },
    {
      "inputs": [],
      "name": "paymentCurve",
      "outputs": [
        {
          "internalType": "contract PayCurveInterface",
          "name": "",
          "type": "address"
        }
      ],
      "stateMutability": "view",
      "type": "function"
    },
    {
      "inputs": [
        {
          "internalType": "uint256",
          "name": "requestId",
          "type": "uint256"
        },
        {
          "internalType": "string",
          "name": "uri",
          "type": "string"
        }
      ],
      "name": "provide",
      "outputs": [
        {
          "internalType": "uint256",
          "name": "submissionId",
          "type": "uint256"
        }
      ],
      "stateMutability": "nonpayable",
      "type": "function"
    },
    {
      "inputs": [],
      "name": "renounceOwnership",
      "outputs": [],
      "stateMutability": "nonpayable",
      "type": "function"
    },
    {
      "inputs": [],
      "name": "reputationModule",
      "outputs": [
        {
          "internalType": "contract ReputationModuleInterface",
          "name": "",
          "type": "address"
        }
      ],
      "stateMutability": "view",
      "type": "function"
    },
    {
      "inputs": [
        {
          "internalType": "uint256",
          "name": "requestId",
          "type": "uint256"
        },
        {
          "internalType": "uint256",
          "name": "submissionId",
          "type": "uint256"
        },
        {
          "internalType": "uint256",
          "name": "score",
          "type": "uint256"
        }
      ],
      "name": "review",
      "outputs": [],
      "stateMutability": "nonpayable",
      "type": "function"
    },
    {
      "inputs": [
        {
          "internalType": "address",
          "name": "",
          "type": "address"
        }
      ],
      "name": "reviewSignals",
      "outputs": [
        {
          "internalType": "uint256",
          "name": "total",
          "type": "uint256"
        },
        {
          "internalType": "uint256",
          "name": "remainder",
          "type": "uint256"
        }
      ],
      "stateMutability": "view",
      "type": "function"
    },
    {
      "inputs": [],
      "name": "serviceRequestId",
      "outputs": [
        {
          "internalType": "uint256",
          "name": "",
          "type": "uint256"
        }
      ],
      "stateMutability": "view",
      "type": "function"
    },
    {
      "inputs": [
        {
          "internalType": "uint256",
          "name": "",
          "type": "uint256"
        }
      ],
      "name": "serviceRequests",
      "outputs": [
        {
          "internalType": "address",
          "name": "serviceRequester",
          "type": "address"
        },
        {
          "internalType": "address",
          "name": "pToken",
          "type": "address"
        },
        {
          "internalType": "uint256",
          "name": "pTokenId",
          "type": "uint256"
        },
        {
          "internalType": "uint256",
          "name": "pTokenQ",
          "type": "uint256"
        },
        {
          "internalType": "uint256",
          "name": "signalExp",
          "type": "uint256"
        },
        {
          "internalType": "uint256",
          "name": "submissionExp",
          "type": "uint256"
        },
        {
          "internalType": "uint256",
          "name": "enforcementExp",
          "type": "uint256"
        },
        {
          "internalType": "string",
          "name": "uri",
          "type": "string"
        }
      ],
      "stateMutability": "view",
      "type": "function"
    },
    {
      "inputs": [],
      "name": "serviceSubmissionId",
      "outputs": [
        {
          "internalType": "uint256",
          "name": "",
          "type": "uint256"
        }
      ],
      "stateMutability": "view",
      "type": "function"
    },
    {
      "inputs": [
        {
          "internalType": "uint256",
          "name": "",
          "type": "uint256"
        }
      ],
      "name": "serviceSubmissions",
      "outputs": [
        {
          "internalType": "address",
          "name": "serviceProvider",
          "type": "address"
        },
        {
          "internalType": "uint256",
          "name": "requestId",
          "type": "uint256"
        },
        {
          "internalType": "uint256",
          "name": "timestamp",
          "type": "uint256"
        },
        {
          "internalType": "string",
          "name": "uri",
          "type": "string"
        },
        {
          "internalType": "bool",
          "name": "reviewed",
          "type": "bool"
        }
      ],
      "stateMutability": "view",
      "type": "function"
    },
    {
      "inputs": [
        {
          "internalType": "uint256",
          "name": "requestId",
          "type": "uint256"
        }
      ],
      "name": "signal",
      "outputs": [],
      "stateMutability": "nonpayable",
      "type": "function"
    },
    {
      "inputs": [
        {
          "internalType": "uint256",
          "name": "",
          "type": "uint256"
        }
      ],
      "name": "signalCount",
      "outputs": [
        {
          "internalType": "uint256",
          "name": "",
          "type": "uint256"
        }
      ],
      "stateMutability": "view",
      "type": "function"
    },
    {
      "inputs": [
        {
          "internalType": "uint256",
          "name": "quantity",
          "type": "uint256"
        }
      ],
      "name": "signalReview",
      "outputs": [],
      "stateMutability": "nonpayable",
      "type": "function"
    },
    {
      "inputs": [
        {
          "internalType": "uint256",
          "name": "",
          "type": "uint256"
        },
        {
          "internalType": "address",
          "name": "",
          "type": "address"
        }
      ],
      "name": "submissionSignals",
      "outputs": [
        {
          "internalType": "bool",
          "name": "",
          "type": "bool"
        }
      ],
      "stateMutability": "view",
      "type": "function"
    },
    {
      "inputs": [
        {
          "internalType": "address",
          "name": "pToken",
          "type": "address"
        },
        {
          "internalType": "uint256",
          "name": "pTokenId",
          "type": "uint256"
        },
        {
          "internalType": "uint256",
          "name": "pTokenQ",
          "type": "uint256"
        },
        {
          "internalType": "uint256",
          "name": "signalExp",
          "type": "uint256"
        },
        {
          "internalType": "uint256",
          "name": "submissionExp",
          "type": "uint256"
        },
        {
          "internalType": "uint256",
          "name": "enforcementExp",
          "type": "uint256"
        },
        {
          "internalType": "string",
          "name": "requestUri",
          "type": "string"
        }
      ],
      "name": "submitRequest",
      "outputs": [
        {
          "internalType": "uint256",
          "name": "requestId",
          "type": "uint256"
        }
      ],
      "stateMutability": "nonpayable",
      "type": "function"
    },
    {
      "inputs": [
        {
          "internalType": "bytes4",
          "name": "interfaceId",
          "type": "bytes4"
        }
      ],
      "name": "supportsInterface",
      "outputs": [
        {
          "internalType": "bool",
          "name": "",
          "type": "bool"
        }
      ],
      "stateMutability": "view",
      "type": "function"
    },
    {
      "inputs": [
        {
          "internalType": "address",
          "name": "newOwner",
          "type": "address"
        }
      ],
      "name": "transferOwnership",
      "outputs": [],
      "stateMutability": "nonpayable",
      "type": "function"
    },
    {
      "inputs": [
        {
          "internalType": "uint256",
          "name": "requestId",
          "type": "uint256"
        }
      ],
      "name": "withdrawRequest",
      "outputs": [],
      "stateMutability": "nonpayable",
      "type": "function"
    }
  ],
  "bytecode": {
    "object": "0x6080806040523461001657613950908161001c8239f35b600080fdfe608080604052600436101561001357600080fd5b60003560e01c90816301ffc9a7146132bf57508063088c7aac1461329757806313d5602414613253578063150b7a02146131e557806325798fd314612ff45780632626f48414612fcc578063269dde8914612b1b57806328cd59bf14612af35780633b3244f714612ac65780633e8686cc14612955578063404684c61461290657806343d6f88b146125b9578063459492bb14612521578063545a8b1b14611d0957806354ac8d9114611cea57806354ae73aa146119365780636739afca1461190e5780636c70bee914611726578063715018a6146116be57806374899a7e146113c05780637c7198cc14611371578063873f6f9e1461132257806387403549146112d35780638da5cb5b146112ac5780638ddad6ac14610e06578063960de16c14610dde578063a57d380614610d8f578063b56c86b814610d0f578063b636fc6814610cf0578063bc197c8114610c4f578063c58343ef14610b24578063d2ef575e14610819578063ecbd45af1461032b578063f23a6e61146102bd578063f2fde38b146101d85763fd88e4d3146101ab57600080fd5b346101d35760006003193601126101d35760206001600160a01b036101315416604051908152f35b600080fd5b346101d35760206003193601126101d3576101f161335d565b6101f961365d565b6001600160a01b03809116908115610253576033548273ffffffffffffffffffffffffffffffffffffffff19821617603355167f8be0079c531659141344cd1fd0a4f28419497f9722a3daafe3b4186f6b6457e0600080a3005b608460405162461bcd60e51b815260206004820152602660248201527f4f776e61626c653a206e6577206f776e657220697320746865207a65726f206160448201527f64647265737300000000000000000000000000000000000000000000000000006064820152fd5b346101d35760a06003193601126101d3576102d661335d565b506102df613373565b5060843567ffffffffffffffff81116101d357610300903690600401613470565b5060206040517ff23a6e61000000000000000000000000000000000000000000000000000000008152f35b346101d35760606003193601126101d357600435610347613373565b604491823567ffffffffffffffff81116101d35761036990369060040161348e565b505061014a5481116107af578060005261014690602092828452604060002033600052845260ff6040600020541661074757816000526101429283855260ff60056040600020015416156106de57826000528385526001600160a01b039333856040600020541603610675578360005280865260016040600020015460005261014191828752600660406000200154421061060c578660009798508661012e54166024604051809a81937f8753367f0000000000000000000000000000000000000000000000000000000083528a60048401525af180156105a35788906000906105de575b6000985060248861012f5416916040519a8b9384927ffb02be8600000000000000000000000000000000000000000000000000000000845260048401525af19687156105a3576000976105af575b5084600052875260406000203360005287526040600020600160ff1982541617905583600052865260016040600020015460005285528260016040600020015416928560405180957fa9059cbb0000000000000000000000000000000000000000000000000000000082528160008161052f8b8960048401602090939291936001600160a01b0360408201951681520152565b03925af19384156105a3578594610576575b50604051911681527f4ccbeeb0e610ec22bc85785ff109ac4b9ef6541221175d28838a810c226ad38d853392a4604051908152f35b61059590873d891161059c575b61058d8183613406565b810190613777565b5086610541565b503d610583565b6040513d6000823e3d90fd5b9096508781813d83116105d7575b6105c78183613406565b810103126101d35751958861049c565b503d6105bd565b5087813d8311610605575b6105f38183613406565b810103126101d357876000975161044e565b503d6105e9565b6084877f4c61626f724d61726b65743a3a636c61696d3a20456e666f7263656d656e74208a6040519262461bcd60e51b84526004840152603460248401528201527f646561646c696e65206e6f74207061737365642e0000000000000000000000006064820152fd5b6084867f4c61626f724d61726b65743a3a636c61696d3a204e6f74207365727669636520896040519262461bcd60e51b84526004840152602960248401528201527f70726f76696465722e00000000000000000000000000000000000000000000006064820152fd5b6084857f4c61626f724d61726b65743a3a636c61696d3a204e6f74207265766965776564886040519262461bcd60e51b84526004840152602160248401528201527f2e000000000000000000000000000000000000000000000000000000000000006064820152fd5b6084847f4c61626f724d61726b65743a3a636c61696d3a20416c726561647920636c6169876040519262461bcd60e51b845260048401526024808401528201527f6d65642e000000000000000000000000000000000000000000000000000000006064820152fd5b6084837f4c61626f724d61726b65743a3a636c61696d3a205375626d697373696f6e20646040519162461bcd60e51b835260206004840152602e60248401528201527f6f6573206e6f742065786973742e0000000000000000000000000000000000006064820152fd5b346101d3576020806003193601126101d357600435906001600160a01b036101305416604051907fc56286e50000000000000000000000000000000000000000000000000000000082523060048301523360248301528282604481845afa9182156105a357600092610af4575b506080602491604051928380927f0b8d97480000000000000000000000000000000000000000000000000000000082523060048301525afa80156105a357604091600091610ac6575b50015111610a5c5781600052610141815260046040600020015442116109f2578160005261014390818152604060002033600052815260ff60406000205416610988577f39cfaa9f08313b202d1017e871a33923ac50b799e5afd0f9c7885a097c318d839061093c6138cb565b9261094784336137dd565b84600052815260406000203360005281526040600020600160ff198254161790558360005261014081526040600020600181540190556040519283523392a3005b6084906040519062461bcd60e51b82526004820152602660248201527f4c61626f724d61726b65743a3a7369676e616c3a20416c72656164792073696760448201527f6e616c65642e00000000000000000000000000000000000000000000000000006064820152fd5b6084906040519062461bcd60e51b82526004820152602c60248201527f4c61626f724d61726b65743a3a7369676e616c3a205369676e616c206465616460448201527f6c696e65207061737365642e00000000000000000000000000000000000000006064820152fd5b6084906040519062461bcd60e51b82526004820152603e60248201527f4c61626f724d61726b65743a3a7065726d69747465645061727469636970616e60448201527f743a204e6f742061207065726d6974746564207061727469636970616e7400006064820152fd5b610ae7915060803d8111610aed575b610adf8183613406565b81019061378f565b856108cf565b503d610ad5565b9091508281813d8311610b1d575b610b0c8183613406565b810103126101d35751906080610886565b503d610b02565b346101d3576020806003193601126101d357606060e0604051610b46816133b9565b600081526000848201526000604082015260008382015260006080820152600060a0820152600060c082015201526004356000526101418152604060002090610c4b60405191610b95836133b9565b6001600160a01b039384815416845284600182015416828501908152600282015460408601908152600383015460608701908152600484015491608088019283528860058601549460a08a01958652610bfc600760068901549860c08d01998a520161354f565b9760e08b019889526040519b8c9b828d525116908b0152511660408901525160608801525160808701525160a08601525160c08501525160e084015251610100808401526101208301906134bc565b0390f35b346101d35760a06003193601126101d357610c6861335d565b50610c71613373565b5067ffffffffffffffff6044358181116101d357610c939036906004016135f6565b506064358181116101d357610cac9036906004016135f6565b506084359081116101d357610cc5903690600401613470565b5060206040517fbc197c81000000000000000000000000000000000000000000000000000000008152f35b346101d35760006003193601126101d357602061014a54604051908152f35b346101d35760206003193601126101d35760043560005261014260205260406000206001600160a01b03815416600182015491610d8360028201549160ff6005610d5b6003840161354f565b920154169260405195869586526020860152604085015260a0606085015260a08401906134bc565b90151560808301520390f35b346101d35760406003193601126101d357610da8613373565b6004356000526101456020526001600160a01b0360406000209116600052602052602060ff604060002054166040519015158152f35b346101d35760006003193601126101d35760206001600160a01b0361012e5416604051908152f35b346101d35760606003193601126101d35760043560249081359061014a54821161124257806000526020610141815260066040600020015442116111d957336000526101449384825260016040600020015415611170578360005261014894858352604060002033600052835260ff604060002054166111075784600052610142958684526001600160a01b03963388604060002054161461109e578460009861012e54166044604051809b81937fdc4966110000000000000000000000000000000000000000000000000000000083528c600484015283358a8401525af19788156105a35760009861106f575b508660005280855260046040600020018054906801000000000000000082101561104157600182018082558210156110135790899160005286600020015586600052845260ff6005604060002001541615610ffb575b835260406000203360005283526040600020600160ff1982541617905580835260016040600020016000198154019055610f826138cb565b90336000528352604060002054918215610fce57507f7f466090f77d613fca7b81626e4276e4b1c11a8a4030310f33b745f83925e2009291610fc5910433613855565b604051338152a4005b7f4e487b710000000000000000000000000000000000000000000000000000000060005260126004526000fd5b6005604060002001600160ff19825416179055610f4a565b857f4e487b710000000000000000000000000000000000000000000000000000000060005260326004526000fd5b857f4e487b710000000000000000000000000000000000000000000000000000000060005260416004526000fd5b9097508481813d8311611097575b6110878183613406565b810103126101d357519688610ef4565b503d61107d565b6084856032866040519262461bcd60e51b845260048401528201527f4c61626f724d61726b65743a3a7265766965773a2043616e6e6f74207265766960448201527f6577206f776e207375626d697373696f6e2e00000000000000000000000000006064820152fd5b6084836026846040519262461bcd60e51b845260048401528201527f4c61626f724d61726b65743a3a7265766965773a20416c72656164792072657660448201527f69657765642e00000000000000000000000000000000000000000000000000006064820152fd5b9060226084926040519262461bcd60e51b845260048401528201527f4c61626f724d61726b65743a3a7265766965773a204e6f74207369676e616c6560448201527f642e0000000000000000000000000000000000000000000000000000000000006064820152fd5b6084906031856040519262461bcd60e51b845260048401528201527f4c61626f724d61726b65743a3a7265766965773a20456e666f7263656d656e7460448201527f20646561646c696e65207061737365642e0000000000000000000000000000006064820152fd5b608483602f6040519162461bcd60e51b8352602060048401528201527f4c61626f724d61726b65743a3a7265766965773a205375626d697373696f6e2060448201527f646f6573206e6f742065786973742e00000000000000000000000000000000006064820152fd5b346101d35760006003193601126101d35760206001600160a01b0360335416604051908152f35b346101d35760406003193601126101d3576112ec613373565b6004356000526101476020526001600160a01b0360406000209116600052602052602060ff604060002054166040519015158152f35b346101d35760406003193601126101d35761133b613373565b6004356000526101466020526001600160a01b0360406000209116600052602052602060ff604060002054166040519015158152f35b346101d35760406003193601126101d35761138a613373565b6004356000526101486020526001600160a01b0360406000209116600052602052602060ff604060002054166040519015158152f35b346101d3576020806003193601126101d357600435906001600160a01b0361143782826101315416610138549060405180809581947efdd58e0000000000000000000000000000000000000000000000000000000083523360048401602090939291936001600160a01b0360408201951681520152565b03915afa9081156105a357600091611690575b5060016114589110156136b5565b826000526101418083523382604060002054160361162657836000526101408352600160406000205410156115bc57611529600092849286855283526001604085200154166003604085200154600760408620868155866001820155866002820155866003820155866004820155866005820155866006820155016114dd81546134fc565b908161157e575b50506040517fa9059cbb000000000000000000000000000000000000000000000000000000008152336004820152602481019190915293849283919082906044820190565b03925af180156105a357611560575b827fa96b5d0d7f26bd7262aefaa969b62e7b98f59439bca50822d598df9c16a20d67600080a2005b8161157692903d1061059c5761058d8183613406565b508180611538565b81601f8893116001146115955750555b87806114e4565b8183528683206115b091601f0160051c810190600101613726565b8186812091555561158e565b6084836040519062461bcd60e51b82526004820152602d60248201527f4c61626f724d61726b65743a3a7769746864726177526571756573743a20416c60448201527f7265616479206163746976652e000000000000000000000000000000000000006064820152fd5b6084836040519062461bcd60e51b82526004820152603460248201527f4c61626f724d61726b65743a3a7769746864726177526571756573743a204e6f60448201527f742073657276696365207265717565737465722e0000000000000000000000006064820152fd5b90508281813d83116116b7575b6116a78183613406565b810103126101d35751600161144a565b503d61169d565b346101d35760006003193601126101d3576116d761365d565b60006001600160a01b0360335473ffffffffffffffffffffffffffffffffffffffff198116603355167f8be0079c531659141344cd1fd0a4f28419497f9722a3daafe3b4186f6b6457e08280a3005b346101d35760006003193601126101d3576001600160a01b0361013354166001600160a01b036101345416906001600160a01b036101355416604051908160006101368054611774816134fc565b808552916001918083169081156118e3575060011461187b575b505050606092916117a0910384613406565b6001600160a01b03610137541692610138546001600160a01b03610139541661013a549161182d6001600160a01b0361013b541694604051966117e2886133d6565b6001600160a01b0361013c5416885261013d54602089015261013e54604089015261013f54898901526040519b8c9b8c5260208c015260408b01526101a080898c01528a01906134bc565b96608089015260a088015260c087015260e08601526101008501526001600160a01b038151166101208501526020810151610140850152604081015161016085015201516101808301520390f35b60009081527f39da2db355130acf428d669fbf1c14faa9d51399a25b793fc254bbbde66f02e29594935091905b8183106118c657509293509091508101602001816117a0606061178e565b8093508560209295965483858a01015201910190939285926118a8565b6117a09550602093506060979694925060ff1991501682840152151560051b8201019181939461178e565b346101d35760006003193601126101d35760206001600160a01b0361012d5416604051908152f35b346101d35760e06003193601126101d35761194f61335d565b60c43567ffffffffffffffff81116101d35761196f90369060040161348e565b61013154610138546040517efdd58e00000000000000000000000000000000000000000000000000000000815233600482015260248101919091529293919290602090829060449082906001600160a01b03165afa9081156105a357600091611cb7575b5060016119e19110156136b5565b600161014954018061014955604051906119fa826133b9565b3382526001600160a01b038316602083015260243560408301526044356060830152606435608083015260843560a083015260c0820160a4358152611a40368688613429565b9160e0840192835260005261014160205260a06040600020936001600160a01b0381511673ffffffffffffffffffffffffffffffffffffffff19908187541617865560018601906001600160a01b036020840151169082541617905560408101516002860155606081015160038601556080810151600486015501516005840155516006830155519081519067ffffffffffffffff8211611c8857600782910192611af582611aef86546134fc565b8661373d565b602090601f8311600114611c2457600092611c19575b50506000198260011b9260031b1c19161790555b604051927f23b872dd000000000000000000000000000000000000000000000000000000008452336004850152306024850152604435604485015260208460648160006001600160a01b0387165af19384156105a357602094611bfc575b5061014954928391816040519283928337810160008152039020916001600160a01b03604051911681526024358582015260443560408201526064356060820152608435608082015260a43560a08201527f8dbf1cdaa50a6a4004cfc582492983c7f8166dfb215008cd230ed3e54cc161f960c03392a4604051908152f35b611c1290853d871161059c5761058d8183613406565b5084611b7d565b015190508680611b0b565b60008581526020812093601f1916905b818110611c705750908460019594939210611c57575b505050811b019055611b1f565b015160001960f88460031b161c19169055868080611c4a565b92936020600181928786015181550195019301611c34565b7f4e487b7100000000000000000000000000000000000000000000000000000000600052604160045260246000fd5b90506020813d602011611ce2575b81611cd260209383613406565b810103126101d3575160016119d3565b3d9150611cc5565b346101d35760006003193601126101d357602061014954604051908152f35b346101d3576003196020813601126101d35767ffffffffffffffff600435116101d3576101a090600435360301126101d35760005460ff8160081c161590818092612514575b80156124fd575b156124935781600160ff19831617600055612464575b506001600160a01b03611d836004356004016138b7565b1661012d9073ffffffffffffffffffffffffffffffffffffffff198254161790556001600160a01b03611dba6024600435016138b7565b1661012e9073ffffffffffffffffffffffffffffffffffffffff198254161790556001600160a01b03611df16044600435016138b7565b1661012f9073ffffffffffffffffffffffffffffffffffffffff198254161790556001600160a01b03611e29610104600435016138b7565b166101309073ffffffffffffffffffffffffffffffffffffffff198254161790556001600160a01b03611e606084600435016138b7565b166101319073ffffffffffffffffffffffffffffffffffffffff198254161790556001600160a01b03611e9760c4600435016138b7565b166101329073ffffffffffffffffffffffffffffffffffffffff198254161790556001600160a01b03611ece6004356004016138b7565b166101339073ffffffffffffffffffffffffffffffffffffffff198254161790556001600160a01b03611f056024600435016138b7565b166101349073ffffffffffffffffffffffffffffffffffffffff198254161790556001600160a01b03611f3c6044600435016138b7565b166101359073ffffffffffffffffffffffffffffffffffffffff198254161790557fffffffffffffffffffffffffffffffffffffffffffffffffffffffffffffffdd6004353603016064600435013512156101d35767ffffffffffffffff600480356064810135010135116101d357600480356064810135019081013536036024909101136101d357611fd1610136546134fc565b601f81116123fb575b5060006001601f60048035606481013501013511146123345760009060048035606481013501013561231e575b50600019600480356064810135010135600381901b9190911c1990911660019190911b17610136555b6001600160a01b036120466084600435016138b7565b166101379073ffffffffffffffffffffffffffffffffffffffff1982541617905560a46004350135610138556001600160a01b0361208860c4600435016138b7565b166101399073ffffffffffffffffffffffffffffffffffffffff1982541617905560e4600435013561013a556001600160a01b036120cb610104600435016138b7565b1661013b9073ffffffffffffffffffffffffffffffffffffffff198254161790556001600160a01b03612103610124600435016138b7565b1661013c9073ffffffffffffffffffffffffffffffffffffffff19825416179055610144600435013561013d55610164600435013561013e55610184600435013561013f556040516001600160a01b03612161600435600401613389565b1681526001600160a01b0361217a602460043501613389565b1660208201526001600160a01b03612196604460043501613389565b166040820152600435606460043501350160246004820135910167ffffffffffffffff82116101d35781360381136101d357601f19601f836101809486946060860137600060608286010152011681016001600160a01b036121fc608460043501613389565b16606082015260a4600435013560808201526001600160a01b0361222460c460043501613389565b1660a082015260e4600435013560c08201526001600160a01b0361224d61010460043501613389565b1660e08201526001600160a01b0361226a61012460043501613389565b1661010082015260043561014481013561012083015261016481013561014083015261018401356101608201520301902060405191907f24c62de81c6bfa9baaccfb2cd3a546165c4c2cd201bc3d6bc9ab83c5b0977463600080a26122cb57005b60207f7f26b83ff96e1f2b6a682f133852f6798a09c465da95921460cefb3847402498917fffffffffffffffffffffffffffffffffffffffffffffffffffffffffffff00ff6000541660005560018152a1005b6004356064810135010160240135905082612007565b6101366000527f39da2db355130acf428d669fbf1c14faa9d51399a25b793fc254bbbde66f02e29060005b600480356064810135010135601f191681106123d85750600480356064810135010135601f198116106123aa575b5050600160046064813501358135010135811b0161013655612030565b6004803560648101350191820160240135600019929091013560031b60f8169190911c19169055818061238d565b60043560648101350182016024013583556001909201916020918201910161235f565b61013660005261245490600480356064810135010135601f810160051c7f39da2db355130acf428d669fbf1c14faa9d51399a25b793fc254bbbde66f02e290810192909160201161245a575b601f0160051c0190613726565b81611fda565b9091508190612447565b7fffffffffffffffffffffffffffffffffffffffffffffffffffffffffffff0000166101011760005581611d6c565b608460405162461bcd60e51b815260206004820152602e60248201527f496e697469616c697a61626c653a20636f6e747261637420697320616c72656160448201527f647920696e697469616c697a65640000000000000000000000000000000000006064820152fd5b50303b158015611d565750600160ff821614611d56565b50600160ff821610611d4f565b346101d35760206003193601126101d35760043560005261014160205260406000206001600160a01b03610c4b8183541691600184015416926002810154906003810154600482015460058301549161258160076006860154950161354f565b946040519889988952602089015260408801526060870152608086015260a085015260c08401526101008060e08501528301906134bc565b346101d3576020806003193601126101d3576004359081600052610141908181526001600160a01b038060406000205416330361289c57836000528282526006604060002001544210612832578360005261014792838352604060002033600052835260ff604060002054166127c85784600052808352600360406000200154936024848461012e5416604051928380927f455386110000000000000000000000000000000000000000000000000000000082528b60048301525afa9081156105a35760009161279b575b50850394851161276c5785600052835260406000203360005283526040600020600160ff1982541617905584600052825260016040600020015416908060405180937fa9059cbb00000000000000000000000000000000000000000000000000000000825281600081612711893360048401602090939291936001600160a01b0360408201951681520152565b03925af19182156105a3577fdc382d43afeb132f8521473c91d2713e410c3e33257a3414961eacdc766036b89261274f575b506040519283523392a3005b61276590823d841161059c5761058d8183613406565b5084612743565b7f4e487b7100000000000000000000000000000000000000000000000000000000600052601160045260246000fd5b90508481813d83116127c1575b6127b28183613406565b810103126101d3575187612684565b503d6127a8565b6084836040519062461bcd60e51b82526004820152602d60248201527f4c61626f724d61726b65743a3a636c61696d52656d61696e6465723a20416c7260448201527f6561647920636c61696d65642e000000000000000000000000000000000000006064820152fd5b6084826040519062461bcd60e51b82526004820152603d60248201527f4c61626f724d61726b65743a3a636c61696d52656d61696e6465723a20456e6660448201527f6f7263656d656e7420646561646c696e65206e6f74207061737365642e0000006064820152fd5b6084826040519062461bcd60e51b82526004820152603360248201527f4c61626f724d61726b65743a3a636c61696d52656d61696e6465723a204e6f7460448201527f2073657276696365207265717565737465722e000000000000000000000000006064820152fd5b346101d35760406003193601126101d35761291f613373565b6004356000526101436020526001600160a01b0360406000209116600052602052602060ff604060002054166040519015158152f35b346101d3576020806003193601126101d357600060a06040516129778161339d565b828152828482015282604082015260608082015260606080820152015260043560005261014281526040600020604051906129b18261339d565b6001600160a01b03808254168352600193848301548185019081526002840154604086019081526129e46003860161354f565b91606087019283526004860195604051968786825491828152019160005286600020908b60005b828110612ab357505050506005612a6c95949392612a2d8a60ff94038b613406565b60808b01998a520154169560a08901961515875260405198868a525116858901525160408801525160608701525160c0608087015260e08601906134bc565b925192601f198582030160a086015281808551928381520194019160005b828110612aa0578451151560c088015286860387f35b8351865294810194928101928701612a8a565b8354855293890193928101928101612a0b565b346101d35760206003193601126101d3576004356000526101406020526020604060002054604051908152f35b346101d35760006003193601126101d35760206001600160a01b036101325416604051908152f35b346101d35760406003193601126101d357602460043567ffffffffffffffff82358181116101d357612b5190369060040161348e565b9390918360005260209461014186526005604060002001544211612f6357846000526101438652604060002033600052865260ff6040600020541615612efa578460005261014590818752604060002033600052875260ff60406000205416612e915760019261014a958487540195868855604051918a830183811085821117612e63576040526000835260405194612be98661339d565b338652612c058c8701928c845260408801924284523691613429565b91606087019283526080870194855260a087019960008b526000526101428d526001600160a01b03604060002097511673ffffffffffffffffffffffffffffffffffffffff198854161787555188870155516002860155600385019051805190858211612e35578c8291612c8383612c7d87546134fc565b8761373d565b81601f8411600114612dd15750600092612dc6575b5050600019828a1b9260031b1c19161790555b600484019151908151938411612d9957680100000000000000008411612d99575089908254848455808510612d7c575b500190600052886000208560005b848110612d6a575050505050600501925115159260ff199360ff8583541691161790558460005285526040600020336000528552604060002091825416179055612d3a612d346138cb565b33613855565b548060405192337f1165aa98d42fbaef9bacc273d7b5cca8edc94909519f8f949ec33562963c87e4600080a48152f35b8b845194019381840155018690612ce9565b612d93908460005285846000209182019101613726565b8b612cdb565b7f4e487b710000000000000000000000000000000000000000000000000000000060005260416004526000fd5b015190508d80612c98565b9190601f198c95168660005283600020936000905b828210612e1c5750508411612e03575b505050811b019055612cab565b015160001960f88460031b161c191690558d8080612df6565b8484015186558e97909501949384019390810190612de6565b837f4e487b710000000000000000000000000000000000000000000000000000000060005260416004526000fd5b827f4e487b710000000000000000000000000000000000000000000000000000000060005260416004526000fd5b6084876028866040519262461bcd60e51b845260048401528201527f4c61626f724d61726b65743a3a70726f766964653a20416c726561647920737560448201527f626d69747465642e0000000000000000000000000000000000000000000000006064820152fd5b6084866023856040519262461bcd60e51b845260048401528201527f4c61626f724d61726b65743a3a70726f766964653a204e6f74207369676e616c60448201527f65642e00000000000000000000000000000000000000000000000000000000006064820152fd5b6084866031856040519262461bcd60e51b845260048401528201527f4c61626f724d61726b65743a3a70726f766964653a205375626d697373696f6e60448201527f20646561646c696e65207061737365642e0000000000000000000000000000006064820152fd5b346101d35760006003193601126101d35760206001600160a01b0361012f5416604051908152f35b346101d3576020806003193601126101d3576101325461013a546040517efdd58e000000000000000000000000000000000000000000000000000000008152336004808301919091526024820192909252903592918290829060449082906001600160a01b03165afa80156105a3576000906131b7575b600191501061314d5733600052610144908181526001604060002001546130e3577f441ae063a8dcb5729d1abd27a407ea2b39536fd5cb2a95b4d4aedd7ff21edc14906130b66138cb565b926130c184336137dd565b33600052815283604060002055836001604060002001556040519283523392a3005b6084906040519062461bcd60e51b82526004820152602c60248201527f4c61626f724d61726b65743a3a7369676e616c5265766965773a20416c72656160448201527f6479207369676e616c65642e00000000000000000000000000000000000000006064820152fd5b6084906040519062461bcd60e51b82526004820152602d60248201527f4c61626f724d61726b65743a3a6f6e6c794d61696e7461696e65723a204e6f7460448201527f2061206d61696e7461696e6572000000000000000000000000000000000000006064820152fd5b508181813d83116131de575b6131cd8183613406565b810103126101d3576001905161306b565b503d6131c3565b346101d35760806003193601126101d3576131fe61335d565b50613207613373565b5060643567ffffffffffffffff81116101d357613228903690600401613470565b5060206040517f150b7a02000000000000000000000000000000000000000000000000000000008152f35b346101d35760206003193601126101d3576001600160a01b0361327461335d565b166000526101446020526040806000206001815491015482519182526020820152f35b346101d35760006003193601126101d35760206001600160a01b036101305416604051908152f35b346101d35760206003193601126101d357600435907fffffffff0000000000000000000000000000000000000000000000000000000082168092036101d357817f4e2312e00000000000000000000000000000000000000000000000000000000060209314908115613333575b5015158152f35b7f01ffc9a7000000000000000000000000000000000000000000000000000000009150148361332c565b600435906001600160a01b03821682036101d357565b602435906001600160a01b03821682036101d357565b35906001600160a01b03821682036101d357565b60c0810190811067ffffffffffffffff821117611c8857604052565b610100810190811067ffffffffffffffff821117611c8857604052565b6080810190811067ffffffffffffffff821117611c8857604052565b67ffffffffffffffff8111611c8857604052565b90601f601f19910116810190811067ffffffffffffffff821117611c8857604052565b92919267ffffffffffffffff8211611c8857604051916134536020601f19601f8401160184613406565b8294818452818301116101d3578281602093846000960137010152565b9080601f830112156101d35781602061348b93359101613429565b90565b9181601f840112156101d35782359167ffffffffffffffff83116101d357602083818601950101116101d357565b919082519283825260005b8481106134e8575050601f19601f8460006020809697860101520116010190565b6020818301810151848301820152016134c7565b90600182811c92168015613545575b602083101461351657565b7f4e487b7100000000000000000000000000000000000000000000000000000000600052602260045260246000fd5b91607f169161350b565b9060405191826000825492613563846134fc565b9081845260019485811690816000146135d2575060011461358f575b505061358d92500383613406565b565b9093915060005260209081600020936000915b8183106135ba57505061358d9350820101388061357f565b855488840185015294850194879450918301916135a2565b905061358d95506020935060ff1991501682840152151560051b820101388061357f565b9080601f830112156101d35781359067ffffffffffffffff8211611c88578160051b6040519360209361362b85840187613406565b855283808601928201019283116101d3578301905b82821061364e575050505090565b81358152908301908301613640565b6001600160a01b0360335416330361367157565b606460405162461bcd60e51b815260206004820152602060248201527f4f776e61626c653a2063616c6c6572206973206e6f7420746865206f776e65726044820152fd5b156136bc57565b608460405162461bcd60e51b815260206004820152603260248201527f4c61626f724d61726b65743a3a7065726d69747465645061727469636970616e60448201527f743a204e6f7420612064656c65676174652e00000000000000000000000000006064820152fd5b818110613731575050565b60008155600101613726565b9190601f811161374c57505050565b61358d926000526020600020906020601f840160051c8301931061245a57601f0160051c0190613726565b908160209103126101d3575180151581036101d35790565b908160809103126101d357604051906137a7826133d6565b8051906001600160a01b03821682036101d357606091835260208101516020840152604081015160408401520151606082015290565b6001600160a01b03610130541691823b156101d3576040517f5d3bd6780000000000000000000000000000000000000000000000000000000081526001600160a01b0390921660048301526024820152906000908290818381604481015b03925af180156105a35761384c5750565b61358d906133f2565b6001600160a01b03610130541691823b156101d3576040517f1daa26e20000000000000000000000000000000000000000000000000000000081526001600160a01b03909216600483015260248201529060009082908183816044810161383b565b356001600160a01b03811681036101d35790565b602460806001600160a01b036101305416604051928380927f0b8d97480000000000000000000000000000000000000000000000000000000082523060048301525afa80156105a357602091600091613925575b50015190565b61393d915060803d8111610aed57610adf8183613406565b3861391f56fea164736f6c6343000811000a",
    "linkReferences": {}
  },
  "methodIdentifiers": {
    "claim(uint256,address,bytes)": "ecbd45af",
    "claimRemainder(uint256)": "43d6f88b",
    "configuration()": "6c70bee9",
    "delegateBadge()": "fd88e4d3",
    "enforcementCriteria()": "960de16c",
    "getRequest(uint256)": "c58343ef",
    "getSubmission(uint256)": "3e8686cc",
    "hasClaimed(uint256,address)": "873f6f9e",
    "hasClaimedRemainder(uint256,address)": "87403549",
    "hasReviewed(uint256,address)": "7c7198cc",
    "hasSubmitted(uint256,address)": "a57d3806",
    "initialize((address,address,address,string,address,uint256,address,uint256,address,(address,uint256,uint256,uint256)))": "545a8b1b",
    "maintainerBadge()": "28cd59bf",
    "network()": "6739afca",
    "onERC1155BatchReceived(address,address,uint256[],uint256[],bytes)": "bc197c81",
    "onERC1155Received(address,address,uint256,uint256,bytes)": "f23a6e61",
    "onERC721Received(address,address,uint256,bytes)": "150b7a02",
    "owner()": "8da5cb5b",
    "paymentCurve()": "2626f484",
    "provide(uint256,string)": "269dde89",
    "renounceOwnership()": "715018a6",
    "reputationModule()": "088c7aac",
    "review(uint256,uint256,uint256)": "8ddad6ac",
    "reviewSignals(address)": "13d56024",
    "serviceRequestId()": "54ac8d91",
    "serviceRequests(uint256)": "459492bb",
    "serviceSubmissionId()": "b636fc68",
    "serviceSubmissions(uint256)": "b56c86b8",
    "signal(uint256)": "d2ef575e",
    "signalCount(uint256)": "3b3244f7",
    "signalReview(uint256)": "25798fd3",
    "submissionSignals(uint256,address)": "404684c6",
    "submitRequest(address,uint256,uint256,uint256,uint256,uint256,string)": "54ae73aa",
    "supportsInterface(bytes4)": "01ffc9a7",
    "transferOwnership(address)": "f2fde38b",
    "withdrawRequest(uint256)": "74899a7e"
  },
  "id": 41
}