{
  "abi": [
    {
      "anonymous": false,
      "inputs": [
        {
          "indexed": false,
          "internalType": "uint8",
          "name": "version",
          "type": "uint8"
        }
      ],
      "name": "Initialized",
      "type": "event"
    },
    {
      "anonymous": false,
      "inputs": [
        {
          "indexed": true,
          "internalType": "uint256",
          "name": "marketId",
          "type": "uint256"
        },
        {
          "indexed": false,
          "internalType": "address",
          "name": "delegateBadge",
          "type": "address"
        },
        {
          "indexed": false,
          "internalType": "address",
          "name": "maintainerBadge",
          "type": "address"
        },
        {
          "indexed": false,
          "internalType": "address",
          "name": "payCurve",
          "type": "address"
        },
        {
          "indexed": false,
          "internalType": "address",
          "name": "enforcementCriteria",
          "type": "address"
        },
        {
          "indexed": false,
          "internalType": "uint256",
          "name": "repParticipantMultiplier",
          "type": "uint256"
        },
        {
          "indexed": false,
          "internalType": "uint256",
          "name": "repMaintainerMultiplier",
          "type": "uint256"
        },
        {
          "indexed": false,
          "internalType": "string",
          "name": "marketUri",
          "type": "string"
        }
      ],
      "name": "LaborMarketCreated",
      "type": "event"
    },
    {
      "anonymous": false,
      "inputs": [
        {
          "components": [
            {
              "internalType": "address",
              "name": "network",
              "type": "address"
            },
            {
              "internalType": "address",
              "name": "enforcementModule",
              "type": "address"
            },
            {
              "internalType": "address",
              "name": "paymentModule",
              "type": "address"
            },
            {
              "internalType": "string",
              "name": "marketUri",
              "type": "string"
            },
            {
              "internalType": "address",
              "name": "delegateBadge",
              "type": "address"
            },
            {
              "internalType": "uint256",
              "name": "delegateTokenId",
              "type": "uint256"
            },
            {
              "internalType": "address",
              "name": "maintainerBadge",
              "type": "address"
            },
            {
              "internalType": "uint256",
              "name": "maintainerTokenId",
              "type": "uint256"
            },
            {
              "internalType": "address",
              "name": "reputationModule",
              "type": "address"
            },
            {
              "components": [
                {
                  "internalType": "address",
                  "name": "reputationEngine",
                  "type": "address"
                },
                {
                  "internalType": "uint256",
                  "name": "signalStake",
                  "type": "uint256"
                },
                {
                  "internalType": "uint256",
                  "name": "providerThreshold",
                  "type": "uint256"
                },
                {
                  "internalType": "uint256",
                  "name": "maintainerThreshold",
                  "type": "uint256"
                }
              ],
              "internalType": "struct ReputationModuleInterface.ReputationMarketConfig",
              "name": "reputationConfig",
              "type": "tuple"
            }
          ],
          "indexed": true,
          "internalType": "struct LaborMarketConfigurationInterface.LaborMarketConfiguration",
          "name": "configuration",
          "type": "tuple"
        }
      ],
      "name": "MarketParametersUpdated",
      "type": "event"
    },
    {
      "anonymous": false,
      "inputs": [
        {
          "indexed": true,
          "internalType": "address",
          "name": "previousOwner",
          "type": "address"
        },
        {
          "indexed": true,
          "internalType": "address",
          "name": "newOwner",
          "type": "address"
        }
      ],
      "name": "OwnershipTransferred",
      "type": "event"
    },
    {
      "anonymous": false,
      "inputs": [
        {
          "indexed": true,
          "internalType": "address",
          "name": "claimer",
          "type": "address"
        },
        {
          "indexed": true,
          "internalType": "uint256",
          "name": "requestId",
          "type": "uint256"
        },
        {
          "indexed": false,
          "internalType": "uint256",
          "name": "remainderAmount",
          "type": "uint256"
        }
      ],
      "name": "RemainderClaimed",
      "type": "event"
    },
    {
      "anonymous": false,
      "inputs": [
        {
          "indexed": true,
          "internalType": "address",
          "name": "requester",
          "type": "address"
        },
        {
          "indexed": true,
          "internalType": "uint256",
          "name": "requestId",
          "type": "uint256"
        },
        {
          "indexed": true,
          "internalType": "string",
          "name": "uri",
          "type": "string"
        },
        {
          "indexed": false,
          "internalType": "address",
          "name": "pToken",
          "type": "address"
        },
        {
          "indexed": false,
          "internalType": "uint256",
          "name": "pTokenId",
          "type": "uint256"
        },
        {
          "indexed": false,
          "internalType": "uint256",
          "name": "pTokenQ",
          "type": "uint256"
        },
        {
          "indexed": false,
          "internalType": "uint256",
          "name": "signalExp",
          "type": "uint256"
        },
        {
          "indexed": false,
          "internalType": "uint256",
          "name": "submissionExp",
          "type": "uint256"
        },
        {
          "indexed": false,
          "internalType": "uint256",
          "name": "enforcementExp",
          "type": "uint256"
        }
      ],
      "name": "RequestCreated",
      "type": "event"
    },
    {
      "anonymous": false,
      "inputs": [
        {
          "indexed": true,
          "internalType": "address",
          "name": "fulfiller",
          "type": "address"
        },
        {
          "indexed": true,
          "internalType": "uint256",
          "name": "requestId",
          "type": "uint256"
        },
        {
          "indexed": true,
          "internalType": "uint256",
          "name": "submissionId",
          "type": "uint256"
        }
      ],
      "name": "RequestFulfilled",
      "type": "event"
    },
    {
      "anonymous": false,
      "inputs": [
        {
          "indexed": true,
          "internalType": "address",
          "name": "claimer",
          "type": "address"
        },
        {
          "indexed": true,
          "internalType": "uint256",
          "name": "submissionId",
          "type": "uint256"
        },
        {
          "indexed": true,
          "internalType": "uint256",
          "name": "payAmount",
          "type": "uint256"
        },
        {
          "indexed": false,
          "internalType": "address",
          "name": "to",
          "type": "address"
        }
      ],
      "name": "RequestPayClaimed",
      "type": "event"
    },
    {
      "anonymous": false,
      "inputs": [
        {
          "indexed": false,
          "internalType": "address",
          "name": "reviewer",
          "type": "address"
        },
        {
          "indexed": true,
          "internalType": "uint256",
          "name": "requestId",
          "type": "uint256"
        },
        {
          "indexed": true,
          "internalType": "uint256",
          "name": "submissionId",
          "type": "uint256"
        },
        {
          "indexed": true,
          "internalType": "uint256",
          "name": "reviewScore",
          "type": "uint256"
        }
      ],
      "name": "RequestReviewed",
      "type": "event"
    },
    {
      "anonymous": false,
      "inputs": [
        {
          "indexed": true,
          "internalType": "address",
          "name": "signaler",
          "type": "address"
        },
        {
          "indexed": true,
          "internalType": "uint256",
          "name": "requestId",
          "type": "uint256"
        },
        {
          "indexed": false,
          "internalType": "uint256",
          "name": "signalAmount",
          "type": "uint256"
        }
      ],
      "name": "RequestSignal",
      "type": "event"
    },
    {
      "anonymous": false,
      "inputs": [
        {
          "indexed": true,
          "internalType": "uint256",
          "name": "requestId",
          "type": "uint256"
        }
      ],
      "name": "RequestWithdrawn",
      "type": "event"
    },
    {
      "anonymous": false,
      "inputs": [
        {
          "indexed": true,
          "internalType": "address",
          "name": "signaler",
          "type": "address"
        },
        {
          "indexed": true,
          "internalType": "uint256",
          "name": "quantity",
          "type": "uint256"
        },
        {
          "indexed": false,
          "internalType": "uint256",
          "name": "signalAmount",
          "type": "uint256"
        }
      ],
      "name": "ReviewSignal",
      "type": "event"
    },
    {
      "inputs": [
        {
          "components": [
            {
              "internalType": "address",
              "name": "enforcer",
              "type": "address"
            },
            {
              "internalType": "bytes",
              "name": "terms",
              "type": "bytes"
            }
          ],
          "internalType": "struct Caveat[]",
          "name": "_input",
          "type": "tuple[]"
        }
      ],
      "name": "GET_CAVEAT_ARRAY_PACKETHASH",
      "outputs": [
        {
          "internalType": "bytes32",
          "name": "",
          "type": "bytes32"
        }
      ],
      "stateMutability": "pure",
      "type": "function"
    },
    {
      "inputs": [
        {
          "components": [
            {
              "internalType": "address",
              "name": "enforcer",
              "type": "address"
            },
            {
              "internalType": "bytes",
              "name": "terms",
              "type": "bytes"
            }
          ],
          "internalType": "struct Caveat",
          "name": "_input",
          "type": "tuple"
        }
      ],
      "name": "GET_CAVEAT_PACKETHASH",
      "outputs": [
        {
          "internalType": "bytes32",
          "name": "",
          "type": "bytes32"
        }
      ],
      "stateMutability": "pure",
      "type": "function"
    },
    {
      "inputs": [
        {
          "components": [
            {
              "internalType": "address",
              "name": "delegate",
              "type": "address"
            },
            {
              "internalType": "bytes32",
              "name": "authority",
              "type": "bytes32"
            },
            {
              "components": [
                {
                  "internalType": "address",
                  "name": "enforcer",
                  "type": "address"
                },
                {
                  "internalType": "bytes",
                  "name": "terms",
                  "type": "bytes"
                }
              ],
              "internalType": "struct Caveat[]",
              "name": "caveats",
              "type": "tuple[]"
            }
          ],
          "internalType": "struct Delegation",
          "name": "_input",
          "type": "tuple"
        }
      ],
      "name": "GET_DELEGATION_PACKETHASH",
      "outputs": [
        {
          "internalType": "bytes32",
          "name": "",
          "type": "bytes32"
        }
      ],
      "stateMutability": "pure",
      "type": "function"
    },
    {
      "inputs": [
        {
          "components": [
            {
              "components": [
                {
                  "components": [
                    {
                      "internalType": "address",
                      "name": "to",
                      "type": "address"
                    },
                    {
                      "internalType": "uint256",
                      "name": "gasLimit",
                      "type": "uint256"
                    },
                    {
                      "internalType": "bytes",
                      "name": "data",
                      "type": "bytes"
                    }
                  ],
                  "internalType": "struct Transaction",
                  "name": "transaction",
                  "type": "tuple"
                },
                {
                  "components": [
                    {
                      "components": [
                        {
                          "internalType": "address",
                          "name": "delegate",
                          "type": "address"
                        },
                        {
                          "internalType": "bytes32",
                          "name": "authority",
                          "type": "bytes32"
                        },
                        {
                          "components": [
                            {
                              "internalType": "address",
                              "name": "enforcer",
                              "type": "address"
                            },
                            {
                              "internalType": "bytes",
                              "name": "terms",
                              "type": "bytes"
                            }
                          ],
                          "internalType": "struct Caveat[]",
                          "name": "caveats",
                          "type": "tuple[]"
                        }
                      ],
                      "internalType": "struct Delegation",
                      "name": "delegation",
                      "type": "tuple"
                    },
                    {
                      "internalType": "bytes",
                      "name": "signature",
                      "type": "bytes"
                    }
                  ],
                  "internalType": "struct SignedDelegation[]",
                  "name": "authority",
                  "type": "tuple[]"
                }
              ],
              "internalType": "struct Invocation[]",
              "name": "batch",
              "type": "tuple[]"
            },
            {
              "components": [
                {
                  "internalType": "uint256",
                  "name": "nonce",
                  "type": "uint256"
                },
                {
                  "internalType": "uint256",
                  "name": "queue",
                  "type": "uint256"
                }
              ],
              "internalType": "struct ReplayProtection",
              "name": "replayProtection",
              "type": "tuple"
            }
          ],
          "internalType": "struct Invocations",
          "name": "_input",
          "type": "tuple"
        }
      ],
      "name": "GET_INVOCATIONS_PACKETHASH",
      "outputs": [
        {
          "internalType": "bytes32",
          "name": "",
          "type": "bytes32"
        }
      ],
      "stateMutability": "pure",
      "type": "function"
    },
    {
      "inputs": [
        {
          "components": [
            {
              "components": [
                {
                  "internalType": "address",
                  "name": "to",
                  "type": "address"
                },
                {
                  "internalType": "uint256",
                  "name": "gasLimit",
                  "type": "uint256"
                },
                {
                  "internalType": "bytes",
                  "name": "data",
                  "type": "bytes"
                }
              ],
              "internalType": "struct Transaction",
              "name": "transaction",
              "type": "tuple"
            },
            {
              "components": [
                {
                  "components": [
                    {
                      "internalType": "address",
                      "name": "delegate",
                      "type": "address"
                    },
                    {
                      "internalType": "bytes32",
                      "name": "authority",
                      "type": "bytes32"
                    },
                    {
                      "components": [
                        {
                          "internalType": "address",
                          "name": "enforcer",
                          "type": "address"
                        },
                        {
                          "internalType": "bytes",
                          "name": "terms",
                          "type": "bytes"
                        }
                      ],
                      "internalType": "struct Caveat[]",
                      "name": "caveats",
                      "type": "tuple[]"
                    }
                  ],
                  "internalType": "struct Delegation",
                  "name": "delegation",
                  "type": "tuple"
                },
                {
                  "internalType": "bytes",
                  "name": "signature",
                  "type": "bytes"
                }
              ],
              "internalType": "struct SignedDelegation[]",
              "name": "authority",
              "type": "tuple[]"
            }
          ],
          "internalType": "struct Invocation[]",
          "name": "_input",
          "type": "tuple[]"
        }
      ],
      "name": "GET_INVOCATION_ARRAY_PACKETHASH",
      "outputs": [
        {
          "internalType": "bytes32",
          "name": "",
          "type": "bytes32"
        }
      ],
      "stateMutability": "pure",
      "type": "function"
    },
    {
      "inputs": [
        {
          "components": [
            {
              "components": [
                {
                  "internalType": "address",
                  "name": "to",
                  "type": "address"
                },
                {
                  "internalType": "uint256",
                  "name": "gasLimit",
                  "type": "uint256"
                },
                {
                  "internalType": "bytes",
                  "name": "data",
                  "type": "bytes"
                }
              ],
              "internalType": "struct Transaction",
              "name": "transaction",
              "type": "tuple"
            },
            {
              "components": [
                {
                  "components": [
                    {
                      "internalType": "address",
                      "name": "delegate",
                      "type": "address"
                    },
                    {
                      "internalType": "bytes32",
                      "name": "authority",
                      "type": "bytes32"
                    },
                    {
                      "components": [
                        {
                          "internalType": "address",
                          "name": "enforcer",
                          "type": "address"
                        },
                        {
                          "internalType": "bytes",
                          "name": "terms",
                          "type": "bytes"
                        }
                      ],
                      "internalType": "struct Caveat[]",
                      "name": "caveats",
                      "type": "tuple[]"
                    }
                  ],
                  "internalType": "struct Delegation",
                  "name": "delegation",
                  "type": "tuple"
                },
                {
                  "internalType": "bytes",
                  "name": "signature",
                  "type": "bytes"
                }
              ],
              "internalType": "struct SignedDelegation[]",
              "name": "authority",
              "type": "tuple[]"
            }
          ],
          "internalType": "struct Invocation",
          "name": "_input",
          "type": "tuple"
        }
      ],
      "name": "GET_INVOCATION_PACKETHASH",
      "outputs": [
        {
          "internalType": "bytes32",
          "name": "",
          "type": "bytes32"
        }
      ],
      "stateMutability": "pure",
      "type": "function"
    },
    {
      "inputs": [
        {
          "components": [
            {
              "internalType": "uint256",
              "name": "nonce",
              "type": "uint256"
            },
            {
              "internalType": "uint256",
              "name": "queue",
              "type": "uint256"
            }
          ],
          "internalType": "struct ReplayProtection",
          "name": "_input",
          "type": "tuple"
        }
      ],
      "name": "GET_REPLAYPROTECTION_PACKETHASH",
      "outputs": [
        {
          "internalType": "bytes32",
          "name": "",
          "type": "bytes32"
        }
      ],
      "stateMutability": "pure",
      "type": "function"
    },
    {
      "inputs": [
        {
          "components": [
            {
              "components": [
                {
                  "internalType": "address",
                  "name": "delegate",
                  "type": "address"
                },
                {
                  "internalType": "bytes32",
                  "name": "authority",
                  "type": "bytes32"
                },
                {
                  "components": [
                    {
                      "internalType": "address",
                      "name": "enforcer",
                      "type": "address"
                    },
                    {
                      "internalType": "bytes",
                      "name": "terms",
                      "type": "bytes"
                    }
                  ],
                  "internalType": "struct Caveat[]",
                  "name": "caveats",
                  "type": "tuple[]"
                }
              ],
              "internalType": "struct Delegation",
              "name": "delegation",
              "type": "tuple"
            },
            {
              "internalType": "bytes",
              "name": "signature",
              "type": "bytes"
            }
          ],
          "internalType": "struct SignedDelegation[]",
          "name": "_input",
          "type": "tuple[]"
        }
      ],
      "name": "GET_SIGNEDDELEGATION_ARRAY_PACKETHASH",
      "outputs": [
        {
          "internalType": "bytes32",
          "name": "",
          "type": "bytes32"
        }
      ],
      "stateMutability": "pure",
      "type": "function"
    },
    {
      "inputs": [
        {
          "components": [
            {
              "components": [
                {
                  "internalType": "address",
                  "name": "delegate",
                  "type": "address"
                },
                {
                  "internalType": "bytes32",
                  "name": "authority",
                  "type": "bytes32"
                },
                {
                  "components": [
                    {
                      "internalType": "address",
                      "name": "enforcer",
                      "type": "address"
                    },
                    {
                      "internalType": "bytes",
                      "name": "terms",
                      "type": "bytes"
                    }
                  ],
                  "internalType": "struct Caveat[]",
                  "name": "caveats",
                  "type": "tuple[]"
                }
              ],
              "internalType": "struct Delegation",
              "name": "delegation",
              "type": "tuple"
            },
            {
              "internalType": "bytes",
              "name": "signature",
              "type": "bytes"
            }
          ],
          "internalType": "struct SignedDelegation",
          "name": "_input",
          "type": "tuple"
        }
      ],
      "name": "GET_SIGNEDDELEGATION_PACKETHASH",
      "outputs": [
        {
          "internalType": "bytes32",
          "name": "",
          "type": "bytes32"
        }
      ],
      "stateMutability": "pure",
      "type": "function"
    },
    {
      "inputs": [
        {
          "components": [
            {
              "internalType": "address",
              "name": "to",
              "type": "address"
            },
            {
              "internalType": "uint256",
              "name": "gasLimit",
              "type": "uint256"
            },
            {
              "internalType": "bytes",
              "name": "data",
              "type": "bytes"
            }
          ],
          "internalType": "struct Transaction",
          "name": "_input",
          "type": "tuple"
        }
      ],
      "name": "GET_TRANSACTION_PACKETHASH",
      "outputs": [
        {
          "internalType": "bytes32",
          "name": "",
          "type": "bytes32"
        }
      ],
      "stateMutability": "pure",
      "type": "function"
    },
    {
      "inputs": [],
      "name": "HAS_CLAIMED",
      "outputs": [
        {
          "internalType": "bytes32",
          "name": "",
          "type": "bytes32"
        }
      ],
      "stateMutability": "view",
      "type": "function"
    },
    {
      "inputs": [],
      "name": "HAS_CLAIMED_REMAINDER",
      "outputs": [
        {
          "internalType": "bytes32",
          "name": "",
          "type": "bytes32"
        }
      ],
      "stateMutability": "view",
      "type": "function"
    },
    {
      "inputs": [],
      "name": "HAS_REVIEWED",
      "outputs": [
        {
          "internalType": "bytes32",
          "name": "",
          "type": "bytes32"
        }
      ],
      "stateMutability": "view",
      "type": "function"
    },
    {
      "inputs": [],
      "name": "HAS_SIGNALED",
      "outputs": [
        {
          "internalType": "bytes32",
          "name": "",
          "type": "bytes32"
        }
      ],
      "stateMutability": "view",
      "type": "function"
    },
    {
      "inputs": [],
      "name": "HAS_SUBMITTED",
      "outputs": [
        {
          "internalType": "bytes32",
          "name": "",
          "type": "bytes32"
        }
      ],
      "stateMutability": "view",
      "type": "function"
    },
    {
      "inputs": [
        {
          "internalType": "uint256",
          "name": "submissionId",
          "type": "uint256"
        },
        {
          "internalType": "address",
          "name": "to",
          "type": "address"
        },
        {
          "internalType": "bytes",
          "name": "data",
          "type": "bytes"
        }
      ],
      "name": "claim",
      "outputs": [
        {
          "internalType": "uint256",
          "name": "",
          "type": "uint256"
        }
      ],
      "stateMutability": "nonpayable",
      "type": "function"
    },
    {
      "inputs": [
        {
          "internalType": "uint256",
          "name": "requestId",
          "type": "uint256"
        }
      ],
      "name": "claimRemainder",
      "outputs": [],
      "stateMutability": "nonpayable",
      "type": "function"
    },
    {
      "inputs": [],
      "name": "configuration",
      "outputs": [
        {
          "internalType": "address",
          "name": "network",
          "type": "address"
        },
        {
          "internalType": "address",
          "name": "enforcementModule",
          "type": "address"
        },
        {
          "internalType": "address",
          "name": "paymentModule",
          "type": "address"
        },
        {
          "internalType": "string",
          "name": "marketUri",
          "type": "string"
        },
        {
          "internalType": "address",
          "name": "delegateBadge",
          "type": "address"
        },
        {
          "internalType": "uint256",
          "name": "delegateTokenId",
          "type": "uint256"
        },
        {
          "internalType": "address",
          "name": "maintainerBadge",
          "type": "address"
        },
        {
          "internalType": "uint256",
          "name": "maintainerTokenId",
          "type": "uint256"
        },
        {
          "internalType": "address",
          "name": "reputationModule",
          "type": "address"
        },
        {
          "components": [
            {
              "internalType": "address",
              "name": "reputationEngine",
              "type": "address"
            },
            {
              "internalType": "uint256",
              "name": "signalStake",
              "type": "uint256"
            },
            {
              "internalType": "uint256",
              "name": "providerThreshold",
              "type": "uint256"
            },
            {
              "internalType": "uint256",
              "name": "maintainerThreshold",
              "type": "uint256"
            }
          ],
          "internalType": "struct ReputationModuleInterface.ReputationMarketConfig",
          "name": "reputationConfig",
          "type": "tuple"
        }
      ],
      "stateMutability": "view",
      "type": "function"
    },
    {
      "inputs": [
        {
          "components": [
            {
              "components": [
                {
                  "internalType": "address",
                  "name": "to",
                  "type": "address"
                },
                {
                  "internalType": "uint256",
                  "name": "gasLimit",
                  "type": "uint256"
                },
                {
                  "internalType": "bytes",
                  "name": "data",
                  "type": "bytes"
                }
              ],
              "internalType": "struct Transaction",
              "name": "transaction",
              "type": "tuple"
            },
            {
              "components": [
                {
                  "components": [
                    {
                      "internalType": "address",
                      "name": "delegate",
                      "type": "address"
                    },
                    {
                      "internalType": "bytes32",
                      "name": "authority",
                      "type": "bytes32"
                    },
                    {
                      "components": [
                        {
                          "internalType": "address",
                          "name": "enforcer",
                          "type": "address"
                        },
                        {
                          "internalType": "bytes",
                          "name": "terms",
                          "type": "bytes"
                        }
                      ],
                      "internalType": "struct Caveat[]",
                      "name": "caveats",
                      "type": "tuple[]"
                    }
                  ],
                  "internalType": "struct Delegation",
                  "name": "delegation",
                  "type": "tuple"
                },
                {
                  "internalType": "bytes",
                  "name": "signature",
                  "type": "bytes"
                }
              ],
              "internalType": "struct SignedDelegation[]",
              "name": "authority",
              "type": "tuple[]"
            }
          ],
          "internalType": "struct Invocation[]",
          "name": "batch",
          "type": "tuple[]"
        }
      ],
      "name": "contractInvoke",
      "outputs": [
        {
          "internalType": "bool",
          "name": "",
          "type": "bool"
        }
      ],
      "stateMutability": "nonpayable",
      "type": "function"
    },
    {
      "inputs": [],
      "name": "delegateBadge",
      "outputs": [
        {
          "internalType": "contract IERC1155",
          "name": "",
          "type": "address"
        }
      ],
      "stateMutability": "view",
      "type": "function"
    },
    {
      "inputs": [],
      "name": "domainHash",
      "outputs": [
        {
          "internalType": "bytes32",
          "name": "",
          "type": "bytes32"
        }
      ],
      "stateMutability": "view",
      "type": "function"
    },
    {
      "inputs": [],
      "name": "enforcementCriteria",
      "outputs": [
        {
          "internalType": "contract EnforcementCriteriaInterface",
          "name": "",
          "type": "address"
        }
      ],
      "stateMutability": "view",
      "type": "function"
    },
    {
      "inputs": [],
      "name": "getConfiguration",
      "outputs": [
        {
          "components": [
            {
              "internalType": "address",
              "name": "network",
              "type": "address"
            },
            {
              "internalType": "address",
              "name": "enforcementModule",
              "type": "address"
            },
            {
              "internalType": "address",
              "name": "paymentModule",
              "type": "address"
            },
            {
              "internalType": "string",
              "name": "marketUri",
              "type": "string"
            },
            {
              "internalType": "address",
              "name": "delegateBadge",
              "type": "address"
            },
            {
              "internalType": "uint256",
              "name": "delegateTokenId",
              "type": "uint256"
            },
            {
              "internalType": "address",
              "name": "maintainerBadge",
              "type": "address"
            },
            {
              "internalType": "uint256",
              "name": "maintainerTokenId",
              "type": "uint256"
            },
            {
              "internalType": "address",
              "name": "reputationModule",
              "type": "address"
            },
            {
              "components": [
                {
                  "internalType": "address",
                  "name": "reputationEngine",
                  "type": "address"
                },
                {
                  "internalType": "uint256",
                  "name": "signalStake",
                  "type": "uint256"
                },
                {
                  "internalType": "uint256",
                  "name": "providerThreshold",
                  "type": "uint256"
                },
                {
                  "internalType": "uint256",
                  "name": "maintainerThreshold",
                  "type": "uint256"
                }
              ],
              "internalType": "struct ReputationModuleInterface.ReputationMarketConfig",
              "name": "reputationConfig",
              "type": "tuple"
            }
          ],
          "internalType": "struct LaborMarketConfigurationInterface.LaborMarketConfiguration",
          "name": "",
          "type": "tuple"
        }
      ],
      "stateMutability": "view",
      "type": "function"
    },
    {
      "inputs": [
        {
          "components": [
            {
              "internalType": "address",
              "name": "delegate",
              "type": "address"
            },
            {
              "internalType": "bytes32",
              "name": "authority",
              "type": "bytes32"
            },
            {
              "components": [
                {
                  "internalType": "address",
                  "name": "enforcer",
                  "type": "address"
                },
                {
                  "internalType": "bytes",
                  "name": "terms",
                  "type": "bytes"
                }
              ],
              "internalType": "struct Caveat[]",
              "name": "caveats",
              "type": "tuple[]"
            }
          ],
          "internalType": "struct Delegation",
          "name": "delegation",
          "type": "tuple"
        }
      ],
      "name": "getDelegationTypedDataHash",
      "outputs": [
        {
          "internalType": "bytes32",
          "name": "",
          "type": "bytes32"
        }
      ],
      "stateMutability": "view",
      "type": "function"
    },
    {
      "inputs": [
        {
          "internalType": "string",
          "name": "contractName",
          "type": "string"
        },
        {
          "internalType": "string",
          "name": "version",
          "type": "string"
        },
        {
          "internalType": "uint256",
          "name": "chainId",
          "type": "uint256"
        },
        {
          "internalType": "address",
          "name": "verifyingContract",
          "type": "address"
        }
      ],
      "name": "getEIP712DomainHash",
      "outputs": [
        {
          "internalType": "bytes32",
          "name": "",
          "type": "bytes32"
        }
      ],
      "stateMutability": "pure",
      "type": "function"
    },
    {
      "inputs": [
        {
          "components": [
            {
              "components": [
                {
                  "components": [
                    {
                      "internalType": "address",
                      "name": "to",
                      "type": "address"
                    },
                    {
                      "internalType": "uint256",
                      "name": "gasLimit",
                      "type": "uint256"
                    },
                    {
                      "internalType": "bytes",
                      "name": "data",
                      "type": "bytes"
                    }
                  ],
                  "internalType": "struct Transaction",
                  "name": "transaction",
                  "type": "tuple"
                },
                {
                  "components": [
                    {
                      "components": [
                        {
                          "internalType": "address",
                          "name": "delegate",
                          "type": "address"
                        },
                        {
                          "internalType": "bytes32",
                          "name": "authority",
                          "type": "bytes32"
                        },
                        {
                          "components": [
                            {
                              "internalType": "address",
                              "name": "enforcer",
                              "type": "address"
                            },
                            {
                              "internalType": "bytes",
                              "name": "terms",
                              "type": "bytes"
                            }
                          ],
                          "internalType": "struct Caveat[]",
                          "name": "caveats",
                          "type": "tuple[]"
                        }
                      ],
                      "internalType": "struct Delegation",
                      "name": "delegation",
                      "type": "tuple"
                    },
                    {
                      "internalType": "bytes",
                      "name": "signature",
                      "type": "bytes"
                    }
                  ],
                  "internalType": "struct SignedDelegation[]",
                  "name": "authority",
                  "type": "tuple[]"
                }
              ],
              "internalType": "struct Invocation[]",
              "name": "batch",
              "type": "tuple[]"
            },
            {
              "components": [
                {
                  "internalType": "uint256",
                  "name": "nonce",
                  "type": "uint256"
                },
                {
                  "internalType": "uint256",
                  "name": "queue",
                  "type": "uint256"
                }
              ],
              "internalType": "struct ReplayProtection",
              "name": "replayProtection",
              "type": "tuple"
            }
          ],
          "internalType": "struct Invocations",
          "name": "invocations",
          "type": "tuple"
        }
      ],
      "name": "getInvocationsTypedDataHash",
      "outputs": [
        {
          "internalType": "bytes32",
          "name": "",
          "type": "bytes32"
        }
      ],
      "stateMutability": "view",
      "type": "function"
    },
    {
      "inputs": [
        {
          "internalType": "address",
          "name": "intendedSender",
          "type": "address"
        },
        {
          "internalType": "uint256",
          "name": "queue",
          "type": "uint256"
        }
      ],
      "name": "getNonce",
      "outputs": [
        {
          "internalType": "uint256",
          "name": "",
          "type": "uint256"
        }
      ],
      "stateMutability": "view",
      "type": "function"
    },
    {
      "inputs": [
        {
          "internalType": "uint256",
          "name": "_requestId",
          "type": "uint256"
        }
      ],
      "name": "getRequest",
      "outputs": [
        {
          "components": [
            {
              "internalType": "address",
              "name": "serviceRequester",
              "type": "address"
            },
            {
              "internalType": "address",
              "name": "pToken",
              "type": "address"
            },
            {
              "internalType": "uint256",
              "name": "pTokenId",
              "type": "uint256"
            },
            {
              "internalType": "uint256",
              "name": "pTokenQ",
              "type": "uint256"
            },
            {
              "internalType": "uint256",
              "name": "signalExp",
              "type": "uint256"
            },
            {
              "internalType": "uint256",
              "name": "submissionExp",
              "type": "uint256"
            },
            {
              "internalType": "uint256",
              "name": "enforcementExp",
              "type": "uint256"
            },
            {
              "internalType": "string",
              "name": "uri",
              "type": "string"
            }
          ],
          "internalType": "struct LaborMarketInterface.ServiceRequest",
          "name": "",
          "type": "tuple"
        }
      ],
      "stateMutability": "view",
      "type": "function"
    },
    {
      "inputs": [
        {
          "internalType": "uint256",
          "name": "_submissionId",
          "type": "uint256"
        }
      ],
      "name": "getSubmission",
      "outputs": [
        {
          "components": [
            {
              "internalType": "address",
              "name": "serviceProvider",
              "type": "address"
            },
            {
              "internalType": "uint256",
              "name": "requestId",
              "type": "uint256"
            },
            {
              "internalType": "uint256",
              "name": "timestamp",
              "type": "uint256"
            },
            {
              "internalType": "string",
              "name": "uri",
              "type": "string"
            },
            {
              "internalType": "uint256[]",
              "name": "scores",
              "type": "uint256[]"
            },
            {
              "internalType": "bool",
              "name": "reviewed",
              "type": "bool"
            }
          ],
          "internalType": "struct LaborMarketInterface.ServiceSubmission",
          "name": "",
          "type": "tuple"
        }
      ],
      "stateMutability": "view",
      "type": "function"
    },
    {
      "inputs": [
        {
          "internalType": "uint256",
          "name": "",
          "type": "uint256"
        },
        {
          "internalType": "address",
          "name": "",
          "type": "address"
        },
        {
          "internalType": "bytes32",
          "name": "",
          "type": "bytes32"
        }
      ],
      "name": "hasPerformed",
      "outputs": [
        {
          "internalType": "bool",
          "name": "",
          "type": "bool"
        }
      ],
      "stateMutability": "view",
      "type": "function"
    },
    {
      "inputs": [
        {
          "components": [
            {
              "internalType": "address",
              "name": "network",
              "type": "address"
            },
            {
              "internalType": "address",
              "name": "enforcementModule",
              "type": "address"
            },
            {
              "internalType": "address",
              "name": "paymentModule",
              "type": "address"
            },
            {
              "internalType": "string",
              "name": "marketUri",
              "type": "string"
            },
            {
              "internalType": "address",
              "name": "delegateBadge",
              "type": "address"
            },
            {
              "internalType": "uint256",
              "name": "delegateTokenId",
              "type": "uint256"
            },
            {
              "internalType": "address",
              "name": "maintainerBadge",
              "type": "address"
            },
            {
              "internalType": "uint256",
              "name": "maintainerTokenId",
              "type": "uint256"
            },
            {
              "internalType": "address",
              "name": "reputationModule",
              "type": "address"
            },
            {
              "components": [
                {
                  "internalType": "address",
                  "name": "reputationEngine",
                  "type": "address"
                },
                {
                  "internalType": "uint256",
                  "name": "signalStake",
                  "type": "uint256"
                },
                {
                  "internalType": "uint256",
                  "name": "providerThreshold",
                  "type": "uint256"
                },
                {
                  "internalType": "uint256",
                  "name": "maintainerThreshold",
                  "type": "uint256"
                }
              ],
              "internalType": "struct ReputationModuleInterface.ReputationMarketConfig",
              "name": "reputationConfig",
              "type": "tuple"
            }
          ],
          "internalType": "struct LaborMarketConfigurationInterface.LaborMarketConfiguration",
          "name": "_configuration",
          "type": "tuple"
        }
      ],
      "name": "initialize",
      "outputs": [],
      "stateMutability": "nonpayable",
      "type": "function"
    },
    {
      "inputs": [
        {
          "components": [
            {
              "components": [
                {
                  "components": [
                    {
                      "components": [
                        {
                          "internalType": "address",
                          "name": "to",
                          "type": "address"
                        },
                        {
                          "internalType": "uint256",
                          "name": "gasLimit",
                          "type": "uint256"
                        },
                        {
                          "internalType": "bytes",
                          "name": "data",
                          "type": "bytes"
                        }
                      ],
                      "internalType": "struct Transaction",
                      "name": "transaction",
                      "type": "tuple"
                    },
                    {
                      "components": [
                        {
                          "components": [
                            {
                              "internalType": "address",
                              "name": "delegate",
                              "type": "address"
                            },
                            {
                              "internalType": "bytes32",
                              "name": "authority",
                              "type": "bytes32"
                            },
                            {
                              "components": [
                                {
                                  "internalType": "address",
                                  "name": "enforcer",
                                  "type": "address"
                                },
                                {
                                  "internalType": "bytes",
                                  "name": "terms",
                                  "type": "bytes"
                                }
                              ],
                              "internalType": "struct Caveat[]",
                              "name": "caveats",
                              "type": "tuple[]"
                            }
                          ],
                          "internalType": "struct Delegation",
                          "name": "delegation",
                          "type": "tuple"
                        },
                        {
                          "internalType": "bytes",
                          "name": "signature",
                          "type": "bytes"
                        }
                      ],
                      "internalType": "struct SignedDelegation[]",
                      "name": "authority",
                      "type": "tuple[]"
                    }
                  ],
                  "internalType": "struct Invocation[]",
                  "name": "batch",
                  "type": "tuple[]"
                },
                {
                  "components": [
                    {
                      "internalType": "uint256",
                      "name": "nonce",
                      "type": "uint256"
                    },
                    {
                      "internalType": "uint256",
                      "name": "queue",
                      "type": "uint256"
                    }
                  ],
                  "internalType": "struct ReplayProtection",
                  "name": "replayProtection",
                  "type": "tuple"
                }
              ],
              "internalType": "struct Invocations",
              "name": "invocations",
              "type": "tuple"
            },
            {
              "internalType": "bytes",
              "name": "signature",
              "type": "bytes"
            }
          ],
          "internalType": "struct SignedInvocation[]",
          "name": "signedInvocations",
          "type": "tuple[]"
        }
      ],
      "name": "invoke",
      "outputs": [
        {
          "internalType": "bool",
          "name": "success",
          "type": "bool"
        }
      ],
      "stateMutability": "nonpayable",
      "type": "function"
    },
    {
      "inputs": [],
      "name": "maintainerBadge",
      "outputs": [
        {
          "internalType": "contract IERC1155",
          "name": "",
          "type": "address"
        }
      ],
      "stateMutability": "view",
      "type": "function"
    },
    {
      "inputs": [],
      "name": "network",
      "outputs": [
        {
          "internalType": "contract LaborMarketNetwork",
          "name": "",
          "type": "address"
        }
      ],
      "stateMutability": "view",
      "type": "function"
    },
    {
      "inputs": [
        {
          "internalType": "address",
          "name": "",
          "type": "address"
        },
        {
          "internalType": "address",
          "name": "",
          "type": "address"
        },
        {
          "internalType": "uint256[]",
          "name": "",
          "type": "uint256[]"
        },
        {
          "internalType": "uint256[]",
          "name": "",
          "type": "uint256[]"
        },
        {
          "internalType": "bytes",
          "name": "",
          "type": "bytes"
        }
      ],
      "name": "onERC1155BatchReceived",
      "outputs": [
        {
          "internalType": "bytes4",
          "name": "",
          "type": "bytes4"
        }
      ],
      "stateMutability": "nonpayable",
      "type": "function"
    },
    {
      "inputs": [
        {
          "internalType": "address",
          "name": "",
          "type": "address"
        },
        {
          "internalType": "address",
          "name": "",
          "type": "address"
        },
        {
          "internalType": "uint256",
          "name": "",
          "type": "uint256"
        },
        {
          "internalType": "uint256",
          "name": "",
          "type": "uint256"
        },
        {
          "internalType": "bytes",
          "name": "",
          "type": "bytes"
        }
      ],
      "name": "onERC1155Received",
      "outputs": [
        {
          "internalType": "bytes4",
          "name": "",
          "type": "bytes4"
        }
      ],
      "stateMutability": "nonpayable",
      "type": "function"
    },
    {
      "inputs": [
        {
          "internalType": "address",
          "name": "",
          "type": "address"
        },
        {
          "internalType": "address",
          "name": "",
          "type": "address"
        },
        {
          "internalType": "uint256",
          "name": "",
          "type": "uint256"
        },
        {
          "internalType": "bytes",
          "name": "",
          "type": "bytes"
        }
      ],
      "name": "onERC721Received",
      "outputs": [
        {
          "internalType": "bytes4",
          "name": "",
          "type": "bytes4"
        }
      ],
      "stateMutability": "nonpayable",
      "type": "function"
    },
    {
      "inputs": [],
      "name": "owner",
      "outputs": [
        {
          "internalType": "address",
          "name": "",
          "type": "address"
        }
      ],
      "stateMutability": "view",
      "type": "function"
    },
    {
      "inputs": [],
      "name": "paymentCurve",
      "outputs": [
        {
          "internalType": "contract PayCurveInterface",
          "name": "",
          "type": "address"
        }
      ],
      "stateMutability": "view",
      "type": "function"
    },
    {
      "inputs": [
        {
          "internalType": "uint256",
          "name": "requestId",
          "type": "uint256"
        },
        {
          "internalType": "string",
          "name": "uri",
          "type": "string"
        }
      ],
      "name": "provide",
      "outputs": [
        {
          "internalType": "uint256",
          "name": "submissionId",
          "type": "uint256"
        }
      ],
      "stateMutability": "nonpayable",
      "type": "function"
    },
    {
      "inputs": [],
      "name": "renounceOwnership",
      "outputs": [],
      "stateMutability": "nonpayable",
      "type": "function"
    },
    {
      "inputs": [],
      "name": "reputationModule",
      "outputs": [
        {
          "internalType": "contract ReputationModuleInterface",
          "name": "",
          "type": "address"
        }
      ],
      "stateMutability": "view",
      "type": "function"
    },
    {
      "inputs": [
        {
          "internalType": "uint256",
          "name": "requestId",
          "type": "uint256"
        },
        {
          "internalType": "uint256",
          "name": "submissionId",
          "type": "uint256"
        },
        {
          "internalType": "uint256",
          "name": "score",
          "type": "uint256"
        }
      ],
      "name": "review",
      "outputs": [],
      "stateMutability": "nonpayable",
      "type": "function"
    },
    {
      "inputs": [
        {
          "internalType": "address",
          "name": "",
          "type": "address"
        }
      ],
      "name": "reviewSignals",
      "outputs": [
        {
          "internalType": "uint256",
          "name": "total",
          "type": "uint256"
        },
        {
          "internalType": "uint256",
          "name": "remainder",
          "type": "uint256"
        }
      ],
      "stateMutability": "view",
      "type": "function"
    },
    {
      "inputs": [],
      "name": "serviceRequestId",
      "outputs": [
        {
          "internalType": "uint256",
          "name": "",
          "type": "uint256"
        }
      ],
      "stateMutability": "view",
      "type": "function"
    },
    {
      "inputs": [
        {
          "internalType": "uint256",
          "name": "",
          "type": "uint256"
        }
      ],
      "name": "serviceRequests",
      "outputs": [
        {
          "internalType": "address",
          "name": "serviceRequester",
          "type": "address"
        },
        {
          "internalType": "address",
          "name": "pToken",
          "type": "address"
        },
        {
          "internalType": "uint256",
          "name": "pTokenId",
          "type": "uint256"
        },
        {
          "internalType": "uint256",
          "name": "pTokenQ",
          "type": "uint256"
        },
        {
          "internalType": "uint256",
          "name": "signalExp",
          "type": "uint256"
        },
        {
          "internalType": "uint256",
          "name": "submissionExp",
          "type": "uint256"
        },
        {
          "internalType": "uint256",
          "name": "enforcementExp",
          "type": "uint256"
        },
        {
          "internalType": "string",
          "name": "uri",
          "type": "string"
        }
      ],
      "stateMutability": "view",
      "type": "function"
    },
    {
      "inputs": [],
      "name": "serviceSubmissionId",
      "outputs": [
        {
          "internalType": "uint256",
          "name": "",
          "type": "uint256"
        }
      ],
      "stateMutability": "view",
      "type": "function"
    },
    {
      "inputs": [
        {
          "internalType": "uint256",
          "name": "",
          "type": "uint256"
        }
      ],
      "name": "serviceSubmissions",
      "outputs": [
        {
          "internalType": "address",
          "name": "serviceProvider",
          "type": "address"
        },
        {
          "internalType": "uint256",
          "name": "requestId",
          "type": "uint256"
        },
        {
          "internalType": "uint256",
          "name": "timestamp",
          "type": "uint256"
        },
        {
          "internalType": "string",
          "name": "uri",
          "type": "string"
        },
        {
          "internalType": "bool",
          "name": "reviewed",
          "type": "bool"
        }
      ],
      "stateMutability": "view",
      "type": "function"
    },
    {
      "inputs": [
        {
          "internalType": "uint256",
          "name": "requestId",
          "type": "uint256"
        }
      ],
      "name": "signal",
      "outputs": [],
      "stateMutability": "nonpayable",
      "type": "function"
    },
    {
      "inputs": [
        {
          "internalType": "uint256",
          "name": "",
          "type": "uint256"
        }
      ],
      "name": "signalCount",
      "outputs": [
        {
          "internalType": "uint256",
          "name": "",
          "type": "uint256"
        }
      ],
      "stateMutability": "view",
      "type": "function"
    },
    {
      "inputs": [
        {
          "internalType": "uint256",
          "name": "quantity",
          "type": "uint256"
        }
      ],
      "name": "signalReview",
      "outputs": [],
      "stateMutability": "nonpayable",
      "type": "function"
    },
    {
      "inputs": [
        {
          "internalType": "address",
          "name": "pToken",
          "type": "address"
        },
        {
          "internalType": "uint256",
          "name": "pTokenId",
          "type": "uint256"
        },
        {
          "internalType": "uint256",
          "name": "pTokenQ",
          "type": "uint256"
        },
        {
          "internalType": "uint256",
          "name": "signalExp",
          "type": "uint256"
        },
        {
          "internalType": "uint256",
          "name": "submissionExp",
          "type": "uint256"
        },
        {
          "internalType": "uint256",
          "name": "enforcementExp",
          "type": "uint256"
        },
        {
          "internalType": "string",
          "name": "requestUri",
          "type": "string"
        }
      ],
      "name": "submitRequest",
      "outputs": [
        {
          "internalType": "uint256",
          "name": "requestId",
          "type": "uint256"
        }
      ],
      "stateMutability": "nonpayable",
      "type": "function"
    },
    {
      "inputs": [
        {
          "internalType": "bytes4",
          "name": "interfaceId",
          "type": "bytes4"
        }
      ],
      "name": "supportsInterface",
      "outputs": [
        {
          "internalType": "bool",
          "name": "",
          "type": "bool"
        }
      ],
      "stateMutability": "view",
      "type": "function"
    },
    {
      "inputs": [
        {
          "internalType": "address",
          "name": "newOwner",
          "type": "address"
        }
      ],
      "name": "transferOwnership",
      "outputs": [],
      "stateMutability": "nonpayable",
      "type": "function"
    },
    {
      "inputs": [
        {
          "components": [
            {
              "components": [
                {
                  "internalType": "address",
                  "name": "delegate",
                  "type": "address"
                },
                {
                  "internalType": "bytes32",
                  "name": "authority",
                  "type": "bytes32"
                },
                {
                  "components": [
                    {
                      "internalType": "address",
                      "name": "enforcer",
                      "type": "address"
                    },
                    {
                      "internalType": "bytes",
                      "name": "terms",
                      "type": "bytes"
                    }
                  ],
                  "internalType": "struct Caveat[]",
                  "name": "caveats",
                  "type": "tuple[]"
                }
              ],
              "internalType": "struct Delegation",
              "name": "delegation",
              "type": "tuple"
            },
            {
              "internalType": "bytes",
              "name": "signature",
              "type": "bytes"
            }
          ],
          "internalType": "struct SignedDelegation",
          "name": "signedDelegation",
          "type": "tuple"
        }
      ],
      "name": "verifyDelegationSignature",
      "outputs": [
        {
          "internalType": "address",
          "name": "",
          "type": "address"
        }
      ],
      "stateMutability": "view",
      "type": "function"
    },
    {
      "inputs": [
        {
          "components": [
            {
              "components": [
                {
                  "components": [
                    {
                      "components": [
                        {
                          "internalType": "address",
                          "name": "to",
                          "type": "address"
                        },
                        {
                          "internalType": "uint256",
                          "name": "gasLimit",
                          "type": "uint256"
                        },
                        {
                          "internalType": "bytes",
                          "name": "data",
                          "type": "bytes"
                        }
                      ],
                      "internalType": "struct Transaction",
                      "name": "transaction",
                      "type": "tuple"
                    },
                    {
                      "components": [
                        {
                          "components": [
                            {
                              "internalType": "address",
                              "name": "delegate",
                              "type": "address"
                            },
                            {
                              "internalType": "bytes32",
                              "name": "authority",
                              "type": "bytes32"
                            },
                            {
                              "components": [
                                {
                                  "internalType": "address",
                                  "name": "enforcer",
                                  "type": "address"
                                },
                                {
                                  "internalType": "bytes",
                                  "name": "terms",
                                  "type": "bytes"
                                }
                              ],
                              "internalType": "struct Caveat[]",
                              "name": "caveats",
                              "type": "tuple[]"
                            }
                          ],
                          "internalType": "struct Delegation",
                          "name": "delegation",
                          "type": "tuple"
                        },
                        {
                          "internalType": "bytes",
                          "name": "signature",
                          "type": "bytes"
                        }
                      ],
                      "internalType": "struct SignedDelegation[]",
                      "name": "authority",
                      "type": "tuple[]"
                    }
                  ],
                  "internalType": "struct Invocation[]",
                  "name": "batch",
                  "type": "tuple[]"
                },
                {
                  "components": [
                    {
                      "internalType": "uint256",
                      "name": "nonce",
                      "type": "uint256"
                    },
                    {
                      "internalType": "uint256",
                      "name": "queue",
                      "type": "uint256"
                    }
                  ],
                  "internalType": "struct ReplayProtection",
                  "name": "replayProtection",
                  "type": "tuple"
                }
              ],
              "internalType": "struct Invocations",
              "name": "invocations",
              "type": "tuple"
            },
            {
              "internalType": "bytes",
              "name": "signature",
              "type": "bytes"
            }
          ],
          "internalType": "struct SignedInvocation",
          "name": "signedInvocation",
          "type": "tuple"
        }
      ],
      "name": "verifyInvocationSignature",
      "outputs": [
        {
          "internalType": "address",
          "name": "",
          "type": "address"
        }
      ],
      "stateMutability": "view",
      "type": "function"
    },
    {
      "inputs": [
        {
          "internalType": "uint256",
          "name": "requestId",
          "type": "uint256"
        }
      ],
      "name": "withdrawRequest",
      "outputs": [],
      "stateMutability": "nonpayable",
      "type": "function"
    }
  ],
  "bytecode": {
    "object": "0x60a06040523480156200001157600080fd5b506040518060400160405280600b81526020016a1318589bdc93585c9ad95d60aa1b81525060405180604001604052806006815260200165076312e302e360d41b81525062000069828246306200007560201b60201c565b60805250620000f19050565b8351602094850120835193850193909320604080517f8b73c3c69bb8fe3d512ecc4cf759cc79239f7b179b0ffacaa9a75d522b39400f8188015280820195909552606085019190915260808401929092526001600160a01b031660a0808401919091528151808403909101815260c09092019052805191012090565b6080516159eb6200011b6000396000818161091301528181611dcc0152612a8801526159eb6000f3fe608060405234801561001057600080fd5b50600436106103835760003560e01c8063715018a6116101de578063b636fc681161010f578063da566c67116100ad578063f087f8431161007c578063f087f8431461096f578063f23a6e6114610984578063f2fde38b146109a3578063fd88e4d3146109b657600080fd5b8063da566c67146108e7578063dfe86ac51461090e578063ecbd45af14610935578063f05e49ce1461094857600080fd5b8063caced6c5116100e9578063caced6c514610810578063d2ef575e14610823578063d327c1eb14610836578063d43cb521146108c057600080fd5b8063b636fc68146107c7578063bc197c81146107d1578063c58343ef146107f057600080fd5b80638da5cb5b1161017c57806397182ed61161015657806397182ed6146107565780639b829c2e14610769578063a2e01f7514610790578063b56c86b8146107a357600080fd5b80638da5cb5b1461071e5780638ddad6ac1461072f578063960de16c1461074257600080fd5b806374899a7e116101b857806374899a7e146106ae5780637b577b58146106c157806389535803146106d45780638a04499e1461070b57600080fd5b8063715018a6146106805780637234eefe14610688578063736f7ce71461069b57600080fd5b806343d6f88b116102b85780635cf1b24a116102565780636bd50cef116102305780636bd50cef146106275780636c2b12531461063c5780636c70bee91461064f5780636f9658031461066d57600080fd5b80635cf1b24a146105ed57806360b6d768146106005780636739afca1461061357600080fd5b8063545a8b1b11610292578063545a8b1b146105aa57806354ac8d91146105bd57806354ae73aa146105c75780635c6d9f0c146105da57600080fd5b806343d6f88b1461053b578063459492bb1461054e57806353f386f11461057557600080fd5b8063269dde89116103255780632fad7efc116102ff5780632fad7efc146104d45780633a481821146104e75780633b3244f7146104fa5780633e8686cc1461051b57600080fd5b8063269dde891461049a57806328cd59bf146104ad5780632f52a2fd146104c157600080fd5b806313d560241161036157806313d56024146103fd578063150b7a021461043a57806325798fd3146104715780632626f4841461048657600080fd5b806301ffc9a714610388578063088c7aac146103b057806308aaf6b0146103dc575b600080fd5b61039b6103963660046140d4565b6109ca565b60405190151581526020015b60405180910390f35b610131546103c4906001600160a01b031681565b6040516001600160a01b0390911681526020016103a7565b6103ef6103ea36600461427c565b610a01565b6040519081526020016103a7565b61042561040b3660046142b0565b610144602052600090815260409020805460019091015482565b604080519283526020830191909152016103a7565b6104586104483660046142cd565b630a85bd0160e11b949350505050565b6040516001600160e01b031990911681526020016103a7565b61048461047f366004614338565b610a81565b005b610130546103c4906001600160a01b031681565b6103ef6104a8366004614399565b610ccf565b610133546103c4906001600160a01b031681565b6103ef6104cf3660046144fa565b6110a4565b61039b6104e2366004614572565b61110f565b6103ef6104f53660046147cd565b6111d6565b6103ef610508366004614338565b6101416020526000908152604090205481565b61052e610529366004614338565b61124d565b6040516103a79190614851565b610484610549366004614338565b6113da565b61056161055c366004614338565b61176d565b6040516103a79897969594939291906148ee565b61039b610583366004614947565b61014560209081526000938452604080852082529284528284209052825290205460ff1681565b6104846105b836600461497f565b611849565b6103ef6101465481565b6103ef6105d53660046149ba565b61195c565b61039b6105e8366004614572565b611d56565b6103ef6105fb366004614a3f565b611d6a565b6103ef61060e366004614afc565b611dc7565b61012e546103c4906001600160a01b031681565b61062f611e17565b6040516103a79190614b30565b6103ef61064a366004614c3e565b611fe2565b61065761203f565b6040516103a79a99989796959493929190614c72565b6103ef61067b366004614d0a565b612156565b6104846121a7565b6103ef610696366004614afc565b6121bb565b6103ef6106a9366004614d26565b6121f9565b6104846106bc366004614338565b612261565b6103ef6106cf366004614d5a565b612534565b6103ef6106e2366004614d8e565b6001600160a01b0391909116600090815261012d60209081526040808320938352929052205490565b6103c4610719366004614c3e565b61259c565b6033546001600160a01b03166103c4565b61048461073d366004614dba565b6125c6565b61012f546103c4906001600160a01b031681565b6103ef6107643660046144fa565b612a83565b6103ef7fcc94bce3a09542ac2ffe66b9a1aa82c1d5686085fdf785e74dc1a8e9b977afb581565b6103ef61079e366004614de6565b612ab0565b6107b66107b1366004614338565b612b1c565b6040516103a7959493929190614e1a565b6103ef6101475481565b6104586107df366004614eb6565b63bc197c8160e01b95945050505050565b6108036107fe366004614338565b612be3565b6040516103a79190614f63565b6103c461081e366004615013565b612d4a565b610484610831366004614338565b612d74565b6103ef610844366004615047565b8351602094850120835193850193909320604080517f8b73c3c69bb8fe3d512ecc4cf759cc79239f7b179b0ffacaa9a75d522b39400f8188015280820195909552606085019190915260808401929092526001600160a01b031660a0808401919091528151808403909101815260c09092019052805191012090565b6103ef7fc8dd2b0cc55da4364ac0bedcdafba3fa0cecc4fd5aa7beab1600bbb6a5c3677481565b6103ef7f23d1963d09c1653bd8a2d4a7387cf144b218407f508da08be6e53155be3e735881565b6103ef7f000000000000000000000000000000000000000000000000000000000000000081565b6103ef6109433660046150c6565b61304e565b6103ef7fb5ce8fdd7c263c376e7d7c1b5d3524c0ba0eb87319e9506da6889f33070136a981565b6103ef6000805160206159bf83398151915281565b610458610992366004615121565b63f23a6e6160e01b95945050505050565b6104846109b13660046142b0565b6135b7565b610132546103c4906001600160a01b031681565b60006001600160e01b03198216630271189760e51b14806109fb57506301ffc9a760e01b6001600160e01b03198316145b92915050565b6000807f80ad7e1b04ee6d994a125f4714ca0720908bd80ed16063ec8aee4b88e9253e2d8360000151846020015180519060200120604051602001610a62939291909283526001600160a01b03919091166020830152604082015260600190565b60408051601f1981840301815291905280516020909101209392505050565b610133546001906001600160a01b031662fdd58e610a9d613630565b61013b5460405160e084901b6001600160e01b03191681526001600160a01b0390921660048301526024820152604401602060405180830381865afa158015610aea573d6000803e3d6000fd5b505050506040513d601f19601f82011682018060405250810190610b0e9190615189565b1015610b775760405162461bcd60e51b815260206004820152602d60248201527f4c61626f724d61726b65743a3a6f6e6c794d61696e7461696e65723a204e6f7460448201526c10309036b0b4b73a30b4b732b960991b60648201526084015b60405180910390fd5b6101446000610b84613630565b6001600160a01b0316815260208101919091526040016000206001015415610c035760405162461bcd60e51b815260206004820152602c60248201527f4c61626f724d61726b65743a3a7369676e616c5265766965773a20416c72656160448201526b323c9039b4b3b730b632b21760a11b6064820152608401610b6e565b6000610c0d61368c565b9050610c20610c1a613630565b82613703565b816101446000610c2e613630565b6001600160a01b03166001600160a01b0316815260200190815260200160002060000181905550816101446000610c63613630565b6001600160a01b0316815260208101919091526040016000206001015581610c89613630565b6001600160a01b03167f441ae063a8dcb5729d1abd27a407ea2b39536fd5cb2a95b4d4aedd7ff21edc1483604051610cc391815260200190565b60405180910390a35050565b60008381526101426020526040812060050154421115610d4b5760405162461bcd60e51b815260206004820152603160248201527f4c61626f724d61726b65743a3a70726f766964653a205375626d697373696f6e604482015270103232b0b23634b732903830b9b9b2b21760791b6064820152608401610b6e565b60008481526101456020526040812090610d63613630565b6001600160a01b03168152602080820192909252604090810160009081206000805160206159bf833981519152825290925290205460ff16610df35760405162461bcd60e51b815260206004820152602360248201527f4c61626f724d61726b65743a3a70726f766964653a204e6f74207369676e616c60448201526232b21760e91b6064820152608401610b6e565b60008481526101456020526040812090610e0b613630565b6001600160a01b03168152602080820192909252604090810160009081207fcc94bce3a09542ac2ffe66b9a1aa82c1d5686085fdf785e74dc1a8e9b977afb5825290925290205460ff1615610eb35760405162461bcd60e51b815260206004820152602860248201527f4c61626f724d61726b65743a3a70726f766964653a20416c72656164792073756044820152673136b4ba3a32b21760c11b6064820152608401610b6e565b610147805460010190556040805160c0810190915260009080610ed4613630565b6001600160a01b0316815260200186815260200142815260200185858080601f01602080910402602001604051908101604052809392919081815260200183838082843760009201829052509385525050604080518381526020808201835280860191909152938101839052610147548352610143845291829020845181546001600160a01b0319166001600160a01b03909116178155928401516001840155508201516002820155606082015191925082916003820190610f969082615227565b5060808201518051610fb291600484019160209091019061403e565b5060a091909101516005909101805460ff1916911515919091179055600085815261014560205260408120600191610fe8613630565b6001600160a01b03168152602080820192909252604090810160009081207fcc94bce3a09542ac2ffe66b9a1aa82c1d5686085fdf785e74dc1a8e9b977afb582529092529020805460ff1916911515919091179055611055611048613630565b61105061368c565b61376f565b6101475485611062613630565b6001600160a01b03167f1165aa98d42fbaef9bacc273d7b5cca8edc94909519f8f949ec33562963c87e460405160405180910390a45050610147549392505050565b6000807f409f5114779a253e700d775d7845e6efc1e83685ac59868d2df3d4de51c7d621836000015184602001516110df8660400151612534565b6040805160208101959095526001600160a01b03909316928401929092526060830152608082015260a001610a62565b6000805b828110156111cf573684848381811061112e5761112e6152e6565b905060200281019061114091906152fc565b9050600061115061081e8361531c565b905061119c81878786818110611168576111686152e6565b905060200281019061117a91906152fc565b6111849080615328565b6020018036038101906111979190614d0a565b6137a9565b6111b96111a98380615328565b6111b3908061533e565b83613868565b50505080806111c79061539d565b915050611113565b5092915050565b6000606060005b835181101561123e57816112098583815181106111fc576111fc6152e6565b6020026020010151611d6a565b60405160200161121a9291906153b6565b604051602081830303815290604052915080806112369061539d565b9150506111dd565b50805160209091012092915050565b6112916040518060c0016040528060006001600160a01b03168152602001600081526020016000815260200160608152602001606081526020016000151581525090565b60008281526101436020908152604091829020825160c08101845281546001600160a01b031681526001820154928101929092526002810154928201929092526003820180549192916060840191906112e9906151a2565b80601f0160208091040260200160405190810160405280929190818152602001828054611315906151a2565b80156113625780601f1061133757610100808354040283529160200191611362565b820191906000526020600020905b81548152906001019060200180831161134557829003601f168201915b50505050508152602001600482018054806020026020016040519081016040528092919081815260200182805480156113ba57602002820191906000526020600020905b8154815260200190600101908083116113a6575b50505091835250506005919091015460ff16151560209091015292915050565b6113e2613630565b600082815261014260205260409020546001600160a01b039081169116146114685760405162461bcd60e51b815260206004820152603360248201527f4c61626f724d61726b65743a3a636c61696d52656d61696e6465723a204e6f746044820152721039b2b93b34b1b2903932b8bab2b9ba32b91760691b6064820152608401610b6e565b600081815261014260205260409020600601544210156114f05760405162461bcd60e51b815260206004820152603d60248201527f4c61626f724d61726b65743a3a636c61696d52656d61696e6465723a20456e6660448201527f6f7263656d656e7420646561646c696e65206e6f74207061737365642e0000006064820152608401610b6e565b60008181526101456020526040812090611508613630565b6001600160a01b03168152602080820192909252604090810160009081207f23d1963d09c1653bd8a2d4a7387cf144b218407f508da08be6e53155be3e7358825290925290205460ff16156115b55760405162461bcd60e51b815260206004820152602d60248201527f4c61626f724d61726b65743a3a636c61696d52656d61696e6465723a20416c7260448201526c32b0b23c9031b630b4b6b2b21760991b6064820152608401610b6e565b61012f54604051635ebc750960e11b8152600481018390526000916001600160a01b03169063bd78ea1290602401602060405180830381865afa158015611600573d6000803e3d6000fd5b505050506040513d601f19601f820116820180604052508101906116249190615189565b60008381526101456020526040812091925060019190611642613630565b6001600160a01b039081168252602080830193909352604091820160009081207f23d1963d09c1653bd8a2d4a7387cf144b218407f508da08be6e53155be3e735882528452828120805460ff191695151595909517909455858452610142909252909120600101541663a9059cbb6116b8613630565b6040516001600160e01b031960e084901b1681526001600160a01b039091166004820152602481018490526044016020604051808303816000875af1158015611705573d6000803e3d6000fd5b505050506040513d601f19601f8201168201806040525081019061172991906153d8565b5081611733613630565b6001600160a01b03167fdc382d43afeb132f8521473c91d2713e410c3e33257a3414961eacdc766036b883604051610cc391815260200190565b61014260205260009081526040902080546001820154600283015460038401546004850154600586015460068701546007880180546001600160a01b03988916999890971697959694959394929391926117c6906151a2565b80601f01602080910402602001604051908101604052809291908181526020018280546117f2906151a2565b801561183f5780601f106118145761010080835404028352916020019161183f565b820191906000526020600020905b81548152906001019060200180831161182257829003601f168201915b5050505050905088565b600054610100900460ff16158080156118695750600054600160ff909116105b806118835750303b158015611883575060005460ff166001145b6118e65760405162461bcd60e51b815260206004820152602e60248201527f496e697469616c697a61626c653a20636f6e747261637420697320616c72656160448201526d191e481a5b9a5d1a585b1a5e995960921b6064820152608401610b6e565b6000805460ff191660011790558015611909576000805461ff0019166101001790555b61191282613c55565b8015611958576000805461ff0019169055604051600181527f7f26b83ff96e1f2b6a682f133852f6798a09c465da95921460cefb38474024989060200160405180910390a15b5050565b610132546000906001906001600160a01b031662fdd58e61197b613630565b6101395460405160e084901b6001600160e01b03191681526001600160a01b0390921660048301526024820152604401602060405180830381865afa1580156119c8573d6000803e3d6000fd5b505050506040513d601f19601f820116820180604052508101906119ec9190615189565b1015611a0a5760405162461bcd60e51b8152600401610b6e906153fa565b610146805460010190556040516370a0823160e01b81523060048201526000906001600160a01b038b16906370a0823190602401602060405180830381865afa158015611a5b573d6000803e3d6000fd5b505050506040513d601f19601f82011682018060405250810190611a7f9190615189565b9050896001600160a01b03166323b872dd611a98613630565b6040516001600160e01b031960e084901b1681526001600160a01b039091166004820152306024820152604481018b90526064016020604051808303816000875af1158015611aeb573d6000803e3d6000fd5b505050506040513d601f19601f82011682018060405250810190611b0f91906153d8565b506040516370a0823160e01b81523060048201526000906001600160a01b038c16906370a0823190602401602060405180830381865afa158015611b57573d6000803e3d6000fd5b505050506040513d601f19601f82011682018060405250810190611b7b9190615189565b90506000604051806101000160405280611b93613630565b6001600160a01b031681526020018d6001600160a01b031681526020018c81526020018484611bc2919061544c565b81526020018a815260200189815260200188815260200187878080601f01602080910402602001604051908101604052809392919081815260200183838082843760009201829052509390945250506101465481526101426020908152604091829020845181546001600160a01b03199081166001600160a01b0392831617835592860151600183018054909416911617909155908301516002820155606083015160038201556080830151600482015560a0830151600582015560c0830151600682015560e083015192935083929091506007820190611ca39082615227565b5050604051611cb691508790879061545f565b604051809103902061014654611cca613630565b6001600160a01b03167f8dbf1cdaa50a6a4004cfc582492983c7f8166dfb215008cd230ed3e54cc161f98f8f8f8f8f8f604051611d3a969594939291906001600160a01b03969096168652602086019490945260408501929092526060840152608083015260a082015260c00190565b60405180910390a45050610146549a9950505050505050505050565b6000611d63838333613868565b9392505050565b6000807fd97dd99b404d177890f06a8f0fc8e5ed0333fb2ebb6684360709066e8984f594611d9b8460000151612ab0565b611da885602001516121f9565b6040805160208101949094528301919091526060820152608001610a62565b6000807f0000000000000000000000000000000000000000000000000000000000000000611df4846121bb565b60405161190160f01b602082015260228101929092526042820152606201610a62565b611e896040805161014081018252600080825260208083018290528284018290526060808401819052608080850184905260a0850184905260c0850184905260e08501849052610100850184905285519081018652838152918201839052938101829052928301529061012082015290565b604080516101408101825261013480546001600160a01b03908116835261013554811660208401526101365416928201929092526101378054919291606084019190611ed4906151a2565b80601f0160208091040260200160405190810160405280929190818152602001828054611f00906151a2565b8015611f4d5780601f10611f2257610100808354040283529160200191611f4d565b820191906000526020600020905b815481529060010190602001808311611f3057829003601f168201915b505050918352505060048201546001600160a01b0390811660208084019190915260058401546040808501919091526006850154831660608086019190915260078601546080808701919091526008870154851660a08701528251908101835260098701549094168452600a86015492840192909252600b85015490830152600c909301549281019290925260c00152919050565b6000807f3c36a06e1d288b0f94f565588317a46ad11bc3c96992109f9a2365a2737259a761201384600001516110a4565b602080860151805190820120604051610a62949392019283526020830191909152604082015260600190565b6101348054610135546101365461013780546001600160a01b039485169593851694909216929161206f906151a2565b80601f016020809104026020016040519081016040528092919081815260200182805461209b906151a2565b80156120e85780601f106120bd576101008083540402835291602001916120e8565b820191906000526020600020905b8154815290600101906020018083116120cb57829003601f168201915b505050600484015460058501546006860154600787015460088801546040805160808101825260098b01546001600160a01b039081168252600a8c01546020830152600b8c015492820192909252600c909a015460608b01529798948816979396509183169450929116908a565b6000807fe8d3d963b33868fb116316bc3fd55e8f49123f30e4418f71e140d54b7cd3b2b983600001518460200151604051602001610a62939291909283526020830191909152604082015260600190565b6121af613dcb565b6121b96000613e44565b565b6000807f08c69a206c06f5334b35ceb1186181a713b21aff02cf66285f375084fbef2eb86121ec84600001516111d6565b611da88560200151612156565b6000606060005b835181101561123e578161222c85838151811061221f5761221f6152e6565b6020026020010151611fe2565b60405160200161223d9291906153b6565b604051602081830303815290604052915080806122599061539d565b915050612200565b610132546001906001600160a01b031662fdd58e61227d613630565b6101395460405160e084901b6001600160e01b03191681526001600160a01b0390921660048301526024820152604401602060405180830381865afa1580156122ca573d6000803e3d6000fd5b505050506040513d601f19601f820116820180604052508101906122ee9190615189565b101561230c5760405162461bcd60e51b8152600401610b6e906153fa565b612314613630565b600082815261014260205260409020546001600160a01b0390811691161461239b5760405162461bcd60e51b815260206004820152603460248201527f4c61626f724d61726b65743a3a7769746864726177526571756573743a204e6f6044820152733a1039b2b93b34b1b2903932b8bab2b9ba32b91760611b6064820152608401610b6e565b600081815261014160205260409020546001116124105760405162461bcd60e51b815260206004820152602d60248201527f4c61626f724d61726b65743a3a7769746864726177526571756573743a20416c60448201526c3932b0b23c9030b1ba34bb329760991b6064820152608401610b6e565b60008181526101426020526040812060018101805460038301805484546001600160a01b031990811686558316909355600284018590558490556004830184905560058301849055600683018490556001600160a01b0316929091906124796007830182614089565b5050816001600160a01b031663a9059cbb612492613630565b6040516001600160e01b031960e084901b1681526001600160a01b039091166004820152602481018490526044016020604051808303816000875af11580156124df573d6000803e3d6000fd5b505050506040513d601f19601f8201168201806040525081019061250391906153d8565b5060405183907fa96b5d0d7f26bd7262aefaa969b62e7b98f59439bca50822d598df9c16a20d6790600090a2505050565b6000606060005b835181101561123e578161256785838151811061255a5761255a6152e6565b6020026020010151610a01565b6040516020016125789291906153b6565b604051602081830303815290604052915080806125949061539d565b91505061253b565b8051600090816125ab82612a83565b905060006125bd828660200151613e96565b95945050505050565b610147548211156126315760405162461bcd60e51b815260206004820152602f60248201527f4c61626f724d61726b65743a3a7265766965773a205375626d697373696f6e2060448201526e3237b2b9903737ba1032bc34b9ba1760891b6064820152608401610b6e565b600083815261014260205260409020600601544211156126ad5760405162461bcd60e51b815260206004820152603160248201527f4c61626f724d61726b65743a3a7265766965773a20456e666f7263656d656e74604482015270103232b0b23634b732903830b9b9b2b21760791b6064820152608401610b6e565b600061014460006126bc613630565b6001600160a01b03166001600160a01b0316815260200190815260200160002060010154116127385760405162461bcd60e51b815260206004820152602260248201527f4c61626f724d61726b65743a3a7265766965773a204e6f74207369676e616c65604482015261321760f11b6064820152608401610b6e565b60008281526101456020526040812090612750613630565b6001600160a01b03168152602080820192909252604090810160009081207fb5ce8fdd7c263c376e7d7c1b5d3524c0ba0eb87319e9506da6889f33070136a9825290925290205460ff16156127f65760405162461bcd60e51b815260206004820152602660248201527f4c61626f724d61726b65743a3a7265766965773a20416c72656164792072657660448201526534b2bbb2b21760d11b6064820152608401610b6e565b6127fe613630565b600083815261014360205260409020546001600160a01b039182169116036128835760405162461bcd60e51b815260206004820152603260248201527f4c61626f724d61726b65743a3a7265766965773a2043616e6e6f74207265766960448201527132bb9037bbb71039bab136b4b9b9b4b7b71760711b6064820152608401610b6e565b61012f5460405163dc49661160e01b815260048101849052602481018390526001600160a01b039091169063dc496611906044016020604051808303816000875af11580156128d6573d6000803e3d6000fd5b505050506040513d601f19601f820116820180604052508101906128fa9190615189565b6000838152610143602090815260408220600481018054600181018255908452918320909101839055908490526005015490915060ff1661295357600082815261014360205260409020600501805460ff191660011790555b60008281526101456020526040812060019161296d613630565b6001600160a01b03168152602080820192909252604090810160009081207fb5ce8fdd7c263c376e7d7c1b5d3524c0ba0eb87319e9506da6889f33070136a982529092528120805460ff191692151592909217909155610144906129cf613630565b6001600160a01b0316815260208101919091526040016000206001018054600019019055612a376129fe613630565b6101446000612a0b613630565b6001600160a01b03168152602081019190915260400160002054612a2d61368c565b611050919061546f565b8082847f7f466090f77d613fca7b81626e4276e4b1c11a8a4030310f33b745f83925e200612a63613630565b6040516001600160a01b03909116815260200160405180910390a4505050565b6000807f0000000000000000000000000000000000000000000000000000000000000000611df4846110a4565b6000807fb16dfdb3b8fa033fe30ac976cd4a50ad256b6811c80d90fcd0b323eec190047d83600001518460200151856040015180519060200120604051602001610a6294939291909384526001600160a01b039290921660208401526040830152606082015260800190565b6101436020526000908152604090208054600182015460028301546003840180546001600160a01b03909416949293919291612b57906151a2565b80601f0160208091040260200160405190810160405280929190818152602001828054612b83906151a2565b8015612bd05780601f10612ba557610100808354040283529160200191612bd0565b820191906000526020600020905b815481529060010190602001808311612bb357829003601f168201915b5050506005909301549192505060ff1685565b612c3d60405180610100016040528060006001600160a01b0316815260200160006001600160a01b031681526020016000815260200160008152602001600081526020016000815260200160008152602001606081525090565b6000828152610142602090815260409182902082516101008101845281546001600160a01b039081168252600183015416928101929092526002810154928201929092526003820154606082015260048201546080820152600582015460a0820152600682015460c082015260078201805491929160e084019190612cc1906151a2565b80601f0160208091040260200160405190810160405280929190818152602001828054612ced906151a2565b8015612d3a5780601f10612d0f57610100808354040283529160200191612d3a565b820191906000526020600020905b815481529060010190602001808311612d1d57829003601f168201915b5050505050815250509050919050565b600080612d5a8360000151611dc7565b90506000612d6c828560200151613e96565b949350505050565b61013154604051630171b2e960e31b81523060048201526001600160a01b0390911690630b8d974890602401608060405180830381865afa158015612dbd573d6000803e3d6000fd5b505050506040513d601f19601f82011682018060405250810190612de19190615491565b60400151612ded613f6d565b1015612e615760405162461bcd60e51b815260206004820152603e60248201527f4c61626f724d61726b65743a3a7065726d69747465645061727469636970616e60448201527f743a204e6f742061207065726d6974746564207061727469636970616e7400006064820152608401610b6e565b60008181526101426020526040902060040154421115612ed85760405162461bcd60e51b815260206004820152602c60248201527f4c61626f724d61726b65743a3a7369676e616c3a205369676e616c206465616460448201526b3634b732903830b9b9b2b21760a11b6064820152608401610b6e565b60008181526101456020526040812090612ef0613630565b6001600160a01b03168152602080820192909252604090810160009081206000805160206159bf833981519152825290925290205460ff1615612f845760405162461bcd60e51b815260206004820152602660248201527f4c61626f724d61726b65743a3a7369676e616c3a20416c7265616479207369676044820152653730b632b21760d11b6064820152608401610b6e565b6000612f8e61368c565b9050612f9b610c1a613630565b600082815261014560205260408120600191612fb5613630565b6001600160a01b03168152602080820192909252604090810160009081206000805160206159bf83398151915282528352818120805460ff19169415159490941790935584835261014190915290208054600101905581613014613630565b6001600160a01b03167f39cfaa9f08313b202d1017e871a33923ac50b799e5afd0f9c7885a097c318d8383604051610cc391815260200190565b6000610147548511156130ba5760405162461bcd60e51b815260206004820152602e60248201527f4c61626f724d61726b65743a3a636c61696d3a205375626d697373696f6e206460448201526d37b2b9903737ba1032bc34b9ba1760911b6064820152608401610b6e565b600085815261014560205260408120906130d2613630565b6001600160a01b03168152602080820192909252604090810160009081207fc8dd2b0cc55da4364ac0bedcdafba3fa0cecc4fd5aa7beab1600bbb6a5c36774825290925290205460ff16156131755760405162461bcd60e51b8152602060048201526024808201527f4c61626f724d61726b65743a3a636c61696d3a20416c726561647920636c616960448201526336b2b21760e11b6064820152608401610b6e565b6000858152610143602052604090206005015460ff166131e15760405162461bcd60e51b815260206004820152602160248201527f4c61626f724d61726b65743a3a636c61696d3a204e6f742072657669657765646044820152601760f91b6064820152608401610b6e565b6131e9613630565b600086815261014360205260409020546001600160a01b039081169116146132655760405162461bcd60e51b815260206004820152602960248201527f4c61626f724d61726b65743a3a636c61696d3a204e6f74207365727669636520604482015268383937bb34b232b91760b91b6064820152608401610b6e565b6000858152610143602090815260408083206001015483526101429091529020600601544210156132f55760405162461bcd60e51b815260206004820152603460248201527f4c61626f724d61726b65743a3a636c61696d3a20456e666f7263656d656e74206044820152733232b0b23634b732903737ba103830b9b9b2b21760611b6064820152608401610b6e565b6000826133715761012f54604051638753367f60e01b8152600481018890526001600160a01b0390911690638753367f906024016020604051808303816000875af1158015613348573d6000803e3d6000fd5b505050506040513d601f19601f8201168201806040525081019061336c9190615189565b6133e9565b61012f5460405163235ca99d60e11b81526001600160a01b03909116906346b9533a906133a6908990889088906004016154ff565b6020604051808303816000875af11580156133c5573d6000803e3d6000fd5b505050506040513d601f19601f820116820180604052508101906133e99190615189565b61013054604051637d815f4360e11b8152600481018390529192506000916001600160a01b039091169063fb02be86906024016020604051808303816000875af115801561343b573d6000803e3d6000fd5b505050506040513d601f19601f8201168201806040525081019061345f9190615189565b6000888152610145602052604081209192506001919061347d613630565b6001600160a01b039081168252602080830193909352604091820160009081207fc8dd2b0cc55da4364ac0bedcdafba3fa0cecc4fd5aa7beab1600bbb6a5c3677482528452828120805460ff1916951515959095179094558a8452610143835281842060019081015485526101429093529281902090910154905163a9059cbb60e01b815288831660048201526024810184905291169063a9059cbb906044016020604051808303816000875af115801561353c573d6000803e3d6000fd5b505050506040513d601f19601f8201168201806040525081019061356091906153d8565b50808761356b613630565b6040516001600160a01b038a8116825291909116907f4ccbeeb0e610ec22bc85785ff109ac4b9ef6541221175d28838a810c226ad38d9060200160405180910390a49695505050505050565b6135bf613dcb565b6001600160a01b0381166136245760405162461bcd60e51b815260206004820152602660248201527f4f776e61626c653a206e6577206f776e657220697320746865207a65726f206160448201526564647265737360d01b6064820152608401610b6e565b61362d81613e44565b50565b600030330361368657600080368080601f0160208091040260200160405190810160405280939291908181526020018383808284376000920191909152505050503601516001600160a01b031691506136899050565b50335b90565b61013154604051630171b2e960e31b81523060048201526000916001600160a01b031690630b8d974890602401608060405180830381865afa1580156136d6573d6000803e3d6000fd5b505050506040513d601f19601f820116820180604052508101906136fa9190615491565b60200151905090565b61013154604051630ba77acf60e31b81526001600160a01b0384811660048301526024820184905290911690635d3bd678906044015b600060405180830381600087803b15801561375357600080fd5b505af1158015613767573d6000803e3d6000fd5b505050505050565b61013154604051630ed5137160e11b81526001600160a01b0384811660048301526024820184905290911690631daa26e290604401613739565b60208082015182516001600160a01b038516600090815261012d8452604080822084835290945292909220549091906137e3906001615535565b811461383d5760405162461bcd60e51b815260206004820152602360248201527f44656c6567617461626c65436f72653a6e6f6e6365322d6f75742d6f662d6f726044820152623232b960e91b6064820152608401610b6e565b6001600160a01b03909316600090815261012d60209081526040808320938352929052209190915550565b6000805b83811015613c4d576000858583818110613888576138886152e6565b905060200281019061389a91906152fc565b6138a390615548565b90506000808260200151516000036138bb5750849050805b6000805b846020015151811015613b56576000856020015182815181106138e4576138e46152e6565b6020026020010151905060006138f98261259c565b90508260000361390a578095508594505b846001600160a01b0316816001600160a01b03161461397d5760405162461bcd60e51b815260206004820152602960248201527f44656c6567617461626c65436f72653a696e76616c69642d64656c656761746960448201526837b716b9b4b3b732b960b91b6064820152608401610b6e565b8151602081015185146139ec5760405162461bcd60e51b815260206004820152603160248201527f44656c6567617461626c65436f72653a696e76616c69642d617574686f726974604482015270792d64656c65676174696f6e2d6c696e6b60781b6064820152608401610b6e565b60006139f784611fe2565b905060005b8260400151518161ffff161015613b3957600083604001518261ffff1681518110613a2957613a296152e6565b60200260200101516000015190506000816001600160a01b0316635068de4c86604001518561ffff1681518110613a6257613a626152e6565b6020026020010151602001518e60000151876040518463ffffffff1660e01b8152600401613a9293929190615554565b6020604051808303816000875af1158015613ab1573d6000803e3d6000fd5b505050506040513d601f19601f82011682018060405250810190613ad591906153d8565b905080613b245760405162461bcd60e51b815260206004820152601f60248201527f44656c6567617461626c65436f72653a6361766561742d72656a6563746564006044820152606401610b6e565b50508080613b31906155b0565b9150506139fc565b50905195509350829150613b4e90508161539d565b9150506138bf565b50835180516001600160a01b03163014613bc45760405162461bcd60e51b815260206004820152602960248201527f44656c6567617461626c65436f72653a696e76616c69642d696e766f636174696044820152681bdb8b5d185c99d95d60ba1b6064820152608401610b6e565b613bdc81600001518260400151836020015187613fff565b965086613c355760405162461bcd60e51b815260206004820152602160248201527f44656c6567617461626c65436f72653a3a657865637574696f6e2d6661696c656044820152601960fa1b6064820152608401610b6e565b50505050508080613c459061539d565b91505061386c565b509392505050565b613c6260208201826142b0565b61012e80546001600160a01b0319166001600160a01b0392909216919091179055613c9360408201602083016142b0565b61012f80546001600160a01b0319166001600160a01b0392909216919091179055613cc460608201604083016142b0565b61013080546001600160a01b0319166001600160a01b0392909216919091179055613cf7610120820161010083016142b0565b61013180546001600160a01b0319166001600160a01b0392909216919091179055613d2860a08201608083016142b0565b61013280546001600160a01b0319166001600160a01b0392909216919091179055613d5960e0820160c083016142b0565b61013380546001600160a01b0319166001600160a01b039290921691909117905580610134613d88828261573c565b5050604051613d989082906158a1565b604051908190038120907f24c62de81c6bfa9baaccfb2cd3a546165c4c2cd201bc3d6bc9ab83c5b097746390600090a250565b613dd3613630565b6001600160a01b0316613dee6033546001600160a01b031690565b6001600160a01b0316146121b95760405162461bcd60e51b815260206004820181905260248201527f4f776e61626c653a2063616c6c6572206973206e6f7420746865206f776e65726044820152606401610b6e565b603380546001600160a01b038381166001600160a01b0319831681179093556040519116919082907f8be0079c531659141344cd1fd0a4f28419497f9722a3daafe3b4186f6b6457e090600090a35050565b6000806000808451604114613eb157600093505050506109fb565b50505060208201516040830151606084015160001a601b811015613edd57613eda601b8261596e565b90505b8060ff16601b14158015613ef557508060ff16601c14155b15613f0657600093505050506109fb565b60408051600081526020810180835288905260ff831691810191909152606081018490526080810183905260019060a0016020604051602081039080840390855afa158015613f59573d6000803e3d6000fd5b5050506020604051035193505050506109fb565b610131546000906001600160a01b031663c56286e530613f8b613630565b6040516001600160e01b031960e085901b1681526001600160a01b03928316600482015291166024820152604401602060405180830381865afa158015613fd6573d6000803e3d6000fd5b505050506040513d601f19601f82011682018060405250810190613ffa9190615189565b905090565b6000808483604051602001614015929190615987565b604051602081830303815290604052905060008082516020840160008a89f19695505050505050565b828054828255906000526020600020908101928215614079579160200282015b8281111561407957825182559160200191906001019061405e565b506140859291506140bf565b5090565b508054614095906151a2565b6000825580601f106140a5575050565b601f01602090049060005260206000209081019061362d91905b5b8082111561408557600081556001016140c0565b6000602082840312156140e657600080fd5b81356001600160e01b031981168114611d6357600080fd5b634e487b7160e01b600052604160045260246000fd5b604080519081016001600160401b0381118282101715614136576141366140fe565b60405290565b604051606081016001600160401b0381118282101715614136576141366140fe565b604051601f8201601f191681016001600160401b0381118282101715614186576141866140fe565b604052919050565b6001600160a01b038116811461362d57600080fd5b80356141ae8161418e565b919050565b600082601f8301126141c457600080fd5b81356001600160401b038111156141dd576141dd6140fe565b6141f0601f8201601f191660200161415e565b81815284602083860101111561420557600080fd5b816020850160208301376000918101602001919091529392505050565b60006040828403121561423457600080fd5b61423c614114565b905081356142498161418e565b815260208201356001600160401b0381111561426457600080fd5b614270848285016141b3565b60208301525092915050565b60006020828403121561428e57600080fd5b81356001600160401b038111156142a457600080fd5b612d6c84828501614222565b6000602082840312156142c257600080fd5b8135611d638161418e565b600080600080608085870312156142e357600080fd5b84356142ee8161418e565b935060208501356142fe8161418e565b92506040850135915060608501356001600160401b0381111561432057600080fd5b61432c878288016141b3565b91505092959194509250565b60006020828403121561434a57600080fd5b5035919050565b60008083601f84011261436357600080fd5b5081356001600160401b0381111561437a57600080fd5b60208301915083602082850101111561439257600080fd5b9250929050565b6000806000604084860312156143ae57600080fd5b8335925060208401356001600160401b038111156143cb57600080fd5b6143d786828701614351565b9497909650939450505050565b60006001600160401b038211156143fd576143fd6140fe565b5060051b60200190565b600082601f83011261441857600080fd5b8135602061442d614428836143e4565b61415e565b82815260059290921b8401810191818101908684111561444c57600080fd5b8286015b8481101561448b5780356001600160401b0381111561446f5760008081fd5b61447d8986838b0101614222565b845250918301918301614450565b509695505050505050565b6000606082840312156144a857600080fd5b6144b061413c565b905081356144bd8161418e565b81526020828101359082015260408201356001600160401b038111156144e257600080fd5b6144ee84828501614407565b60408301525092915050565b60006020828403121561450c57600080fd5b81356001600160401b0381111561452257600080fd5b612d6c84828501614496565b60008083601f84011261454057600080fd5b5081356001600160401b0381111561455757600080fd5b6020830191508360208260051b850101111561439257600080fd5b6000806020838503121561458557600080fd5b82356001600160401b0381111561459b57600080fd5b6145a78582860161452e565b90969095509350505050565b6000606082840312156145c557600080fd5b6145cd61413c565b905081356145da8161418e565b81526020828101359082015260408201356001600160401b038111156145ff57600080fd5b6144ee848285016141b3565b60006040828403121561461d57600080fd5b614625614114565b905081356001600160401b038082111561463e57600080fd5b61464a85838601614496565b8352602084013591508082111561466057600080fd5b50614270848285016141b3565b600082601f83011261467e57600080fd5b8135602061468e614428836143e4565b82815260059290921b840181019181810190868411156146ad57600080fd5b8286015b8481101561448b5780356001600160401b038111156146d05760008081fd5b6146de8986838b010161460b565b8452509183019183016146b1565b6000604082840312156146fe57600080fd5b614706614114565b905081356001600160401b038082111561471f57600080fd5b61472b858386016145b3565b8352602084013591508082111561474157600080fd5b506142708482850161466d565b600082601f83011261475f57600080fd5b8135602061476f614428836143e4565b82815260059290921b8401810191818101908684111561478e57600080fd5b8286015b8481101561448b5780356001600160401b038111156147b15760008081fd5b6147bf8986838b01016146ec565b845250918301918301614792565b6000602082840312156147df57600080fd5b81356001600160401b038111156147f557600080fd5b612d6c8482850161474e565b60005b8381101561481c578181015183820152602001614804565b50506000910152565b6000815180845261483d816020860160208601614801565b601f01601f19169290920160200192915050565b6000602080835260018060a01b038451168184015280840151604084015260408401516060840152606084015160c0608085015261489260e0850182614825565b6080860151858203601f190160a0870152805180835290840192506000918401905b808310156148d457835182529284019260019290920191908401906148b4565b5060a087015180151560c088015293509695505050505050565b600061010060018060a01b03808c168452808b166020850152508860408401528760608401528660808401528560a08401528460c08401528060e084015261493881840185614825565b9b9a5050505050505050505050565b60008060006060848603121561495c57600080fd5b83359250602084013561496e8161418e565b929592945050506040919091013590565b60006020828403121561499157600080fd5b81356001600160401b038111156149a757600080fd5b82016101a08185031215611d6357600080fd5b60008060008060008060008060e0898b0312156149d657600080fd5b88356149e18161418e565b97506020890135965060408901359550606089013594506080890135935060a0890135925060c08901356001600160401b03811115614a1f57600080fd5b614a2b8b828c01614351565b999c989b5096995094979396929594505050565b600060208284031215614a5157600080fd5b81356001600160401b03811115614a6757600080fd5b612d6c848285016146ec565b600060408284031215614a8557600080fd5b614a8d614114565b9050813581526020820135602082015292915050565b600060608284031215614ab557600080fd5b614abd614114565b905081356001600160401b03811115614ad557600080fd5b614ae18482850161474e565b825250614af18360208401614a73565b602082015292915050565b600060208284031215614b0e57600080fd5b81356001600160401b03811115614b2457600080fd5b612d6c84828501614aa3565b60208152614b4a6020820183516001600160a01b03169052565b60006020830151614b6660408401826001600160a01b03169052565b5060408301516001600160a01b03811660608401525060608301516101a06080840152614b976101c0840182614825565b90506080840151614bb360a08501826001600160a01b03169052565b5060a084015160c084015260c0840151614bd860e08501826001600160a01b03169052565b5060e084015161010084810191909152840151610120614c02818601836001600160a01b03169052565b85015180516001600160a01b03166101408601526020810151610160860152604081015161018086015260608101516101a08601529050613c4d565b600060208284031215614c5057600080fd5b81356001600160401b03811115614c6657600080fd5b612d6c8482850161460b565b6001600160a01b038b811682528a8116602083015289811660408301526101a060608301819052600091614ca88483018c614825565b8a8216608086015260a085018a905288821660c086015260e0850188905290861661010085015284516001600160a01b031661012085015260208501516101408501526040850151610160850152606085015161018085015291506149389050565b600060408284031215614d1c57600080fd5b611d638383614a73565b600060208284031215614d3857600080fd5b81356001600160401b03811115614d4e57600080fd5b612d6c8482850161466d565b600060208284031215614d6c57600080fd5b81356001600160401b03811115614d8257600080fd5b612d6c84828501614407565b60008060408385031215614da157600080fd5b8235614dac8161418e565b946020939093013593505050565b600080600060608486031215614dcf57600080fd5b505081359360208301359350604090920135919050565b600060208284031215614df857600080fd5b81356001600160401b03811115614e0e57600080fd5b612d6c848285016145b3565b60018060a01b038616815284602082015283604082015260a060608201526000614e4760a0830185614825565b905082151560808301529695505050505050565b600082601f830112614e6c57600080fd5b81356020614e7c614428836143e4565b82815260059290921b84018101918181019086841115614e9b57600080fd5b8286015b8481101561448b5780358352918301918301614e9f565b600080600080600060a08688031215614ece57600080fd5b8535614ed98161418e565b94506020860135614ee98161418e565b935060408601356001600160401b0380821115614f0557600080fd5b614f1189838a01614e5b565b94506060880135915080821115614f2757600080fd5b614f3389838a01614e5b565b93506080880135915080821115614f4957600080fd5b50614f56888289016141b3565b9150509295509295909350565b60208152600060018060a01b03808451166020840152806020850151166040840152506040830151606083015260608301516080830152608083015160a083015260a083015160c083015260c083015160e083015260e0830151610100808185015250612d6c610120840182614825565b600060408284031215614fe657600080fd5b614fee614114565b905081356001600160401b038082111561500757600080fd5b61464a85838601614aa3565b60006020828403121561502557600080fd5b81356001600160401b0381111561503b57600080fd5b612d6c84828501614fd4565b6000806000806080858703121561505d57600080fd5b84356001600160401b038082111561507457600080fd5b615080888389016141b3565b9550602087013591508082111561509657600080fd5b506150a3878288016141b3565b9350506040850135915060608501356150bb8161418e565b939692955090935050565b600080600080606085870312156150dc57600080fd5b8435935060208501356150ee8161418e565b925060408501356001600160401b0381111561510957600080fd5b61511587828801614351565b95989497509550505050565b600080600080600060a0868803121561513957600080fd5b85356151448161418e565b945060208601356151548161418e565b9350604086013592506060860135915060808601356001600160401b0381111561517d57600080fd5b614f56888289016141b3565b60006020828403121561519b57600080fd5b5051919050565b600181811c908216806151b657607f821691505b6020821081036151d657634e487b7160e01b600052602260045260246000fd5b50919050565b601f82111561522257600081815260208120601f850160051c810160208610156152035750805b601f850160051c820191505b818110156137675782815560010161520f565b505050565b81516001600160401b03811115615240576152406140fe565b6152548161524e84546151a2565b846151dc565b602080601f83116001811461528957600084156152715750858301515b600019600386901b1c1916600185901b178555613767565b600085815260208120601f198616915b828110156152b857888601518255948401946001909101908401615299565b50858210156152d65787850151600019600388901b60f8161c191681555b5050505050600190811b01905550565b634e487b7160e01b600052603260045260246000fd5b60008235603e1983360301811261531257600080fd5b9190910192915050565b60006109fb3683614fd4565b60008235605e1983360301811261531257600080fd5b6000808335601e1984360301811261535557600080fd5b8301803591506001600160401b0382111561536f57600080fd5b6020019150600581901b360382131561439257600080fd5b634e487b7160e01b600052601160045260246000fd5b6000600182016153af576153af615387565b5060010190565b600083516153c8818460208801614801565b9190910191825250602001919050565b6000602082840312156153ea57600080fd5b81518015158114611d6357600080fd5b60208082526032908201527f4c61626f724d61726b65743a3a7065726d69747465645061727469636970616e6040820152713a1d102737ba1030903232b632b3b0ba329760711b606082015260800190565b818103818111156109fb576109fb615387565b8183823760009101908152919050565b60008261548c57634e487b7160e01b600052601260045260246000fd5b500490565b6000608082840312156154a357600080fd5b604051608081018181106001600160401b03821117156154c5576154c56140fe565b60405282516154d38161418e565b808252506020830151602082015260408301516040820152606083015160608201528091505092915050565b83815260406020820152816040820152818360608301376000818301606090810191909152601f909201601f1916010192915050565b808201808211156109fb576109fb615387565b60006109fb36836146ec565b6060815260006155676060830186614825565b828103602084015260018060a01b0385511681526020850151602082015260408501516060604083015261559e6060830182614825565b92505050826040830152949350505050565b600061ffff8083168181036155c7576155c7615387565b6001019392505050565b600081356109fb8161418e565b80546001600160a01b0319166001600160a01b0392909216919091179055565b6000808335601e1984360301811261561557600080fd5b8301803591506001600160401b0382111561562f57600080fd5b60200191503681900382131561439257600080fd5b6001600160401b0383111561565b5761565b6140fe565b61566f8361566983546151a2565b836151dc565b6000601f8411600181146156a3576000851561568b5750838201355b600019600387901b1c1916600186901b1783556156fd565b600083815260209020601f19861690835b828110156156d457868501358255602094850194600190920191016156b4565b50868210156156f15760001960f88860031b161c19848701351681555b505060018560011b0183555b5050505050565b813561570f8161418e565b61571981836155de565b506020820135600182015560408201356002820155606082013560038201555050565b61574e615748836155d1565b826155de565b61576661575d602084016155d1565b600183016155de565b61577e615775604084016155d1565b600283016155de565b61578b60608301836155fe565b615799818360038601615644565b50506157b36157aa608084016155d1565b600483016155de565b60a082013560058201556157d56157cc60c084016155d1565b600683016155de565b60e082013560078201556157f86157ef61010084016155d1565b600883016155de565b611958610120830160098301615704565b6000808335601e1984360301811261582057600080fd5b83016020810192503590506001600160401b0381111561583f57600080fd5b80360382131561439257600080fd5b8181843750600082820152601f01601f19160190565b600081356158718161418e565b6001600160a01b031683525060208181013590830152604080820135908301526060908101359082015260800190565b600082356158ae8161418e565b6001600160a01b0390811683526020840135906158ca8261418e565b90811660208401526040840135906158e18261418e565b1660408301526158f46060840184615809565b6125bd61596461595761594a61593e61593161591460608b01888a61584e565b61592060808d016141a3565b6001600160a01b0316815260200190565b60a08b0135815260200190565b61592060c08b016141a3565b60e0890135815260200190565b61592061010089016141a3565b6101208701615864565b60ff81811683821601908111156109fb576109fb615387565b60008351615999818460208801614801565b60609390931b6bffffffffffffffffffffffff1916919092019081526014019291505056fef86d4fd21cdd436304050ebe0ff9e2cc19e69cd97e41bc532b4d0cd047a1ff5fa164736f6c6343000811000a",
    "linkReferences": {}
  },
  "methodIdentifiers": {
    "GET_CAVEAT_ARRAY_PACKETHASH((address,bytes)[])": "7b577b58",
    "GET_CAVEAT_PACKETHASH((address,bytes))": "08aaf6b0",
    "GET_DELEGATION_PACKETHASH((address,bytes32,(address,bytes)[]))": "2f52a2fd",
    "GET_INVOCATIONS_PACKETHASH((((address,uint256,bytes),((address,bytes32,(address,bytes)[]),bytes)[])[],(uint256,uint256)))": "7234eefe",
    "GET_INVOCATION_ARRAY_PACKETHASH(((address,uint256,bytes),((address,bytes32,(address,bytes)[]),bytes)[])[])": "3a481821",
    "GET_INVOCATION_PACKETHASH(((address,uint256,bytes),((address,bytes32,(address,bytes)[]),bytes)[]))": "5cf1b24a",
    "GET_REPLAYPROTECTION_PACKETHASH((uint256,uint256))": "6f965803",
    "GET_SIGNEDDELEGATION_ARRAY_PACKETHASH(((address,bytes32,(address,bytes)[]),bytes)[])": "736f7ce7",
    "GET_SIGNEDDELEGATION_PACKETHASH(((address,bytes32,(address,bytes)[]),bytes))": "6c2b1253",
    "GET_TRANSACTION_PACKETHASH((address,uint256,bytes))": "a2e01f75",
    "HAS_CLAIMED()": "d43cb521",
    "HAS_CLAIMED_REMAINDER()": "da566c67",
    "HAS_REVIEWED()": "f05e49ce",
    "HAS_SIGNALED()": "f087f843",
    "HAS_SUBMITTED()": "9b829c2e",
    "claim(uint256,address,bytes)": "ecbd45af",
    "claimRemainder(uint256)": "43d6f88b",
    "configuration()": "6c70bee9",
    "contractInvoke(((address,uint256,bytes),((address,bytes32,(address,bytes)[]),bytes)[])[])": "5c6d9f0c",
    "delegateBadge()": "fd88e4d3",
    "domainHash()": "dfe86ac5",
    "enforcementCriteria()": "960de16c",
    "getConfiguration()": "6bd50cef",
    "getDelegationTypedDataHash((address,bytes32,(address,bytes)[]))": "97182ed6",
    "getEIP712DomainHash(string,string,uint256,address)": "d327c1eb",
    "getInvocationsTypedDataHash((((address,uint256,bytes),((address,bytes32,(address,bytes)[]),bytes)[])[],(uint256,uint256)))": "60b6d768",
    "getNonce(address,uint256)": "89535803",
    "getRequest(uint256)": "c58343ef",
    "getSubmission(uint256)": "3e8686cc",
    "hasPerformed(uint256,address,bytes32)": "53f386f1",
    "initialize((address,address,address,string,address,uint256,address,uint256,address,(address,uint256,uint256,uint256)))": "545a8b1b",
    "invoke(((((address,uint256,bytes),((address,bytes32,(address,bytes)[]),bytes)[])[],(uint256,uint256)),bytes)[])": "2fad7efc",
    "maintainerBadge()": "28cd59bf",
    "network()": "6739afca",
    "onERC1155BatchReceived(address,address,uint256[],uint256[],bytes)": "bc197c81",
    "onERC1155Received(address,address,uint256,uint256,bytes)": "f23a6e61",
    "onERC721Received(address,address,uint256,bytes)": "150b7a02",
    "owner()": "8da5cb5b",
    "paymentCurve()": "2626f484",
    "provide(uint256,string)": "269dde89",
    "renounceOwnership()": "715018a6",
    "reputationModule()": "088c7aac",
    "review(uint256,uint256,uint256)": "8ddad6ac",
    "reviewSignals(address)": "13d56024",
    "serviceRequestId()": "54ac8d91",
    "serviceRequests(uint256)": "459492bb",
    "serviceSubmissionId()": "b636fc68",
    "serviceSubmissions(uint256)": "b56c86b8",
    "signal(uint256)": "d2ef575e",
    "signalCount(uint256)": "3b3244f7",
    "signalReview(uint256)": "25798fd3",
    "submitRequest(address,uint256,uint256,uint256,uint256,uint256,string)": "54ae73aa",
    "supportsInterface(bytes4)": "01ffc9a7",
    "transferOwnership(address)": "f2fde38b",
    "verifyDelegationSignature(((address,bytes32,(address,bytes)[]),bytes))": "8a04499e",
    "verifyInvocationSignature(((((address,uint256,bytes),((address,bytes32,(address,bytes)[]),bytes)[])[],(uint256,uint256)),bytes))": "caced6c5",
    "withdrawRequest(uint256)": "74899a7e"
  },
  "id": 51
}