{
  "abi": [
    {
      "inputs": [
        {
          "internalType": "uint256",
          "name": "submissionId",
          "type": "uint256"
        }
      ],
      "name": "getIndex",
      "outputs": [
        {
          "internalType": "uint256",
          "name": "",
          "type": "uint256"
        }
      ],
      "stateMutability": "view",
      "type": "function"
    },
    {
      "inputs": [
        {
          "internalType": "uint256",
          "name": "requestId",
          "type": "uint256"
        }
      ],
      "name": "getRemainder",
      "outputs": [
        {
          "internalType": "uint256",
          "name": "",
          "type": "uint256"
        }
      ],
      "stateMutability": "nonpayable",
      "type": "function"
    },
    {
      "inputs": [
        {
          "internalType": "address",
          "name": "market",
          "type": "address"
        },
        {
          "internalType": "uint256",
          "name": "requestId",
          "type": "uint256"
        }
      ],
      "name": "getSubmissions",
      "outputs": [
        {
          "components": [
            {
              "internalType": "uint256",
              "name": "submissionId",
              "type": "uint256"
            },
            {
              "internalType": "uint256",
              "name": "score",
              "type": "uint256"
            }
          ],
          "internalType": "struct Best5EnforcementCriteria.Submission[]",
          "name": "",
          "type": "tuple[]"
        }
      ],
      "stateMutability": "view",
      "type": "function"
    },
    {
      "inputs": [
        {
          "internalType": "address",
          "name": "",
          "type": "address"
        },
        {
          "internalType": "uint256",
          "name": "",
          "type": "uint256"
        }
      ],
      "name": "isSorted",
      "outputs": [
        {
          "internalType": "bool",
          "name": "",
          "type": "bool"
        }
      ],
      "stateMutability": "view",
      "type": "function"
    },
    {
      "inputs": [
        {
          "internalType": "address",
          "name": "",
          "type": "address"
        },
        {
          "internalType": "uint256",
          "name": "",
          "type": "uint256"
        },
        {
          "internalType": "uint256",
          "name": "",
          "type": "uint256"
        }
      ],
      "name": "marketSubmissions",
      "outputs": [
        {
          "internalType": "uint256",
          "name": "submissionId",
          "type": "uint256"
        },
        {
          "internalType": "uint256",
          "name": "score",
          "type": "uint256"
        }
      ],
      "stateMutability": "view",
      "type": "function"
    },
    {
      "inputs": [
        {
          "internalType": "uint256",
          "name": "submissionId",
          "type": "uint256"
        },
        {
          "internalType": "uint256",
          "name": "score",
          "type": "uint256"
        }
      ],
      "name": "review",
      "outputs": [
        {
          "internalType": "uint256",
          "name": "",
          "type": "uint256"
        }
      ],
      "stateMutability": "nonpayable",
      "type": "function"
    },
    {
      "inputs": [
        {
          "internalType": "uint256",
          "name": "",
          "type": "uint256"
        }
      ],
      "name": "submissionToIndex",
      "outputs": [
        {
          "internalType": "uint256",
          "name": "",
          "type": "uint256"
        }
      ],
      "stateMutability": "view",
      "type": "function"
    },
    {
      "inputs": [
        {
          "internalType": "uint256",
          "name": "submissionId",
          "type": "uint256"
        }
      ],
      "name": "verify",
      "outputs": [
        {
          "internalType": "uint256",
          "name": "",
          "type": "uint256"
        }
      ],
      "stateMutability": "nonpayable",
      "type": "function"
    }
  ],
  "bytecode": {
    "object": "0x608060405234801561001057600080fd5b50610dfd806100206000396000f3fe608060405234801561001057600080fd5b50600436106100885760003560e01c8063a9a1fba51161005b578063a9a1fba514610139578063aa9b232d14610159578063bd78ea1214610179578063dc4966111461018c57600080fd5b80630a411d7f1461008d5780637e6af978146100d05780638753367f146100f85780638e7cb6e114610119575b600080fd5b6100bb61009b36600461087c565b600260209081526000928352604080842090915290825290205460ff1681565b60405190151581526020015b60405180910390f35b6100e36100de3660046108a8565b61019f565b604080519283526020830191909152016100c7565b61010b6101063660046108dd565b6101e9565b6040519081526020016100c7565b61010b6101273660046108dd565b60009081526001602052604090205490565b61014c61014736600461087c565b610237565b6040516100c791906108f6565b61010b6101673660046108dd565b60016020526000908152604090205481565b61010b6101873660046108dd565b6102c8565b61010b61019a366004610945565b610452565b600060205282600052604060002060205281600052604060002081815481106101c757600080fd5b6000918252602090912060029091020180546001909101549093509150839050565b6000806101f583610524565b33600090815260026020908152604080832084845290915290205490915060ff166102235761022381610595565b505060009081526001602052604090205490565b6001600160a01b0382166000908152602081815260408083208484528252808320805482518185028101850190935280835260609492939192909184015b828210156102bb57838290600052602060002090600202016040518060400160405290816000820154815260200160018201548152505081526020019060010190610275565b5050505090505b92915050565b336000908152602081815260408083208484529091528120546005116102f057506000919050565b6000803390506000816001600160a01b0316636bd50cef6040518163ffffffff1660e01b8152600401600060405180830381865afa158015610336573d6000803e3d6000fd5b505050506040513d6000823e601f3d908101601f1916820160405261035e9190810190610afc565b6040908101513360009081526020818152838220898352905291822054909250905b61038b826005610c14565b81101561044257600061039e8284610c27565b6103a9906001610c27565b6103b4906014610c3a565b604051637d815f4360e11b8152600481018290529091506001600160a01b0385169063fb02be86906024016020604051808303816000875af11580156103fe573d6000803e3d6000fd5b505050506040513d601f19601f820116820180604052508101906104229190610c51565b61042c9087610c27565b955050808061043a90610c6a565b915050610380565b509295945050505050565b919050565b600060648211156104bc5760405162461bcd60e51b815260206004820152602a60248201527f456e666f7263656d656e7443726974657269613a3a7265766965773a20696e76604482015269616c69642073636f726560b01b606482015260840160405180910390fd5b60408051808201825284815260208082018590523360009081529081905291822090916104e886610524565b81526020808201929092526040016000908120805460018082018355918352918390208451600290930201918255929091015191015550919050565b604051630fa1a1b360e21b8152600481018290526000903390633e8686cc90602401600060405180830381865afa158015610563573d6000803e3d6000fd5b505050506040513d6000823e601f3d908101601f1916820160405261058b9190810190610d13565b6020015192915050565b60005b336000908152602081815260408083208584529091529020548110156107bf5760005b336000908152602081815260408083208684529091529020546105e090600190610c14565b8110156107ae5733600090815260208181526040808320868452909152902061060a826001610c27565b8154811061061a5761061a610dda565b60009182526020808320600160029093020191909101543383528282526040808420878552909252912080548390811061065657610656610dda565b906000526020600020906002020160010154101561079e5733600090815260208181526040808320868452909152812080548390811061069857610698610dda565b6000918252602080832060408051808201825260029094029091018054845260019081015484840152338552848352818520898652909252909220909250906106e2908490610c27565b815481106106f2576106f2610dda565b60009182526020808320338452838252604080852089865290925292208054600290920290920191908490811061072b5761072b610dda565b6000918252602080832084546002909302019182556001938401549184019190915533825281815260408083208884529091529020829161076d908590610c27565b8154811061077d5761077d610dda565b60009182526020918290208351600290920201908155910151600190910155505b6107a781610c6a565b90506105bb565b506107b881610c6a565b9050610598565b5060015b600681101561083d576107d7816014610c3a565b336000908152602081815260408083208684529091528120805460019291908590811061080657610806610dda565b906000526020600020906002020160000154815260200190815260200160002081905550808061083590610c6a565b9150506107c3565b5033600090815260026020908152604080832093835292905220805460ff19166001179055565b6001600160a01b038116811461087957600080fd5b50565b6000806040838503121561088f57600080fd5b823561089a81610864565b946020939093013593505050565b6000806000606084860312156108bd57600080fd5b83356108c881610864565b95602085013595506040909401359392505050565b6000602082840312156108ef57600080fd5b5035919050565b602080825282518282018190526000919060409081850190868401855b8281101561093857815180518552860151868501529284019290850190600101610913565b5091979650505050505050565b6000806040838503121561095857600080fd5b50508035926020909101359150565b634e487b7160e01b600052604160045260246000fd5b604051610140810167ffffffffffffffff811182821017156109a1576109a1610967565b60405290565b60405160c0810167ffffffffffffffff811182821017156109a1576109a1610967565b604051601f8201601f1916810167ffffffffffffffff811182821017156109f3576109f3610967565b604052919050565b805161044d81610864565b600082601f830112610a1757600080fd5b815167ffffffffffffffff811115610a3157610a31610967565b6020610a45601f8301601f191682016109ca565b8281528582848701011115610a5957600080fd5b60005b83811015610a77578581018301518282018401528201610a5c565b506000928101909101919091529392505050565b600060808284031215610a9d57600080fd5b6040516080810181811067ffffffffffffffff82111715610ac057610ac0610967565b80604052508091508251610ad381610864565b808252506020830151602082015260408301516040820152606083015160608201525092915050565b600060208284031215610b0e57600080fd5b815167ffffffffffffffff80821115610b2657600080fd5b908301906101a08286031215610b3b57600080fd5b610b4361097d565b610b4c836109fb565b8152610b5a602084016109fb565b6020820152610b6b604084016109fb565b6040820152606083015182811115610b8257600080fd5b610b8e87828601610a06565b606083015250610ba0608084016109fb565b608082015260a083015160a0820152610bbb60c084016109fb565b60c082015260e083015160e08201526101009150610bda8284016109fb565b828201526101209150610bef86838501610a8b565b91810191909152949350505050565b634e487b7160e01b600052601160045260246000fd5b818103818111156102c2576102c2610bfe565b808201808211156102c2576102c2610bfe565b80820281158282048414176102c2576102c2610bfe565b600060208284031215610c6357600080fd5b5051919050565b600060018201610c7c57610c7c610bfe565b5060010190565b600082601f830112610c9457600080fd5b8151602067ffffffffffffffff821115610cb057610cb0610967565b8160051b610cbf8282016109ca565b9283528481018201928281019087851115610cd957600080fd5b83870192505b84831015610cf857825182529183019190830190610cdf565b979650505050505050565b8051801515811461044d57600080fd5b600060208284031215610d2557600080fd5b815167ffffffffffffffff80821115610d3d57600080fd5b9083019060c08286031215610d5157600080fd5b610d596109a7565b610d62836109fb565b81526020830151602082015260408301516040820152606083015182811115610d8a57600080fd5b610d9687828601610a06565b606083015250608083015182811115610dae57600080fd5b610dba87828601610c83565b608083015250610dcc60a08401610d03565b60a082015295945050505050565b634e487b7160e01b600052603260045260246000fdfea164736f6c6343000811000a",
    "linkReferences": {}
  },
  "methodIdentifiers": {
    "getIndex(uint256)": "8e7cb6e1",
    "getRemainder(uint256)": "bd78ea12",
    "getSubmissions(address,uint256)": "a9a1fba5",
    "isSorted(address,uint256)": "0a411d7f",
    "marketSubmissions(address,uint256,uint256)": "7e6af978",
    "review(uint256,uint256)": "dc496611",
    "submissionToIndex(uint256)": "aa9b232d",
    "verify(uint256)": "8753367f"
  },
  "id": 54
}