{
  "abi": [
    {
      "anonymous": false,
      "inputs": [
        {
          "indexed": false,
          "internalType": "address",
          "name": "who",
          "type": "address"
        },
        {
          "indexed": false,
          "internalType": "bytes4",
          "name": "fsig",
          "type": "bytes4"
        },
        {
          "indexed": false,
          "internalType": "bytes32",
          "name": "keysHash",
          "type": "bytes32"
        },
        {
          "indexed": false,
          "internalType": "uint256",
          "name": "slot",
          "type": "uint256"
        }
      ],
      "name": "SlotFound",
      "type": "event"
    },
    {
      "anonymous": false,
      "inputs": [
        {
          "indexed": false,
          "internalType": "address",
          "name": "who",
          "type": "address"
        },
        {
          "indexed": false,
          "internalType": "uint256",
          "name": "slot",
          "type": "uint256"
        }
      ],
      "name": "WARNING_UninitedSlot",
      "type": "event"
    },
    {
      "inputs": [
        {
          "internalType": "bytes",
          "name": "b",
          "type": "bytes"
        },
        {
          "internalType": "uint256",
          "name": "offset",
          "type": "uint256"
        }
      ],
      "name": "bytesToBytes32",
      "outputs": [
        {
          "internalType": "bytes32",
          "name": "",
          "type": "bytes32"
        }
      ],
      "stateMutability": "pure",
      "type": "function"
    }
  ],
  "bytecode": {
    "object": "0x6080806040523461001a5761028f9081610020823930815050f35b600080fdfe608060048036101561001057600080fd5b600091823560e01c63535849391461002757600080fd5b60407ffffffffffffffffffffffffffffffffffffffffffffffffffffffffffffffffc36011261024e5767ffffffffffffffff92823584811161027e573660238201121561027e578084013594808611610252577fffffffffffffffffffffffffffffffffffffffffffffffffffffffffffffffe0603f81601f890116011684019084821090821117610252576040528483526024943686828401011161024e57918091838795946020988993018387013784010152823593819483518781116000146102435750869291909493945b82955b84871061010b578888604051908152f35b909192939495968783018084116102185782518110156101ed57897fff000000000000000000000000000000000000000000000000000000000000009184010151168860031b8981046008148a1517156101c2571c17967fffffffffffffffffffffffffffffffffffffffffffffffffffffffffffffffff8114610197576001019594939291906100fa565b86856011867f4e487b7100000000000000000000000000000000000000000000000000000000835252fd5b88876011887f4e487b7100000000000000000000000000000000000000000000000000000000835252fd5b87866032877f4e487b7100000000000000000000000000000000000000000000000000000000835252fd5b87866011877f4e487b7100000000000000000000000000000000000000000000000000000000835252fd5b9291909493946100f7565b8280fd5b6024836041877f4e487b7100000000000000000000000000000000000000000000000000000000835252fd5b5080fdfea164736f6c6343000811000a",
    "linkReferences": {}
  },
  "methodIdentifiers": {
    "bytesToBytes32(bytes,uint256)": "53584939"
  },
  "id": 7
}