{
  "abi": [
    {
      "inputs": [
        {
          "components": [
            {
              "internalType": "address",
              "name": "enforcer",
              "type": "address"
            },
            {
              "internalType": "bytes",
              "name": "terms",
              "type": "bytes"
            }
          ],
          "internalType": "struct Caveat[]",
          "name": "_input",
          "type": "tuple[]"
        }
      ],
      "name": "GET_CAVEAT_ARRAY_PACKETHASH",
      "outputs": [
        {
          "internalType": "bytes32",
          "name": "",
          "type": "bytes32"
        }
      ],
      "stateMutability": "pure",
      "type": "function"
    },
    {
      "inputs": [
        {
          "components": [
            {
              "internalType": "address",
              "name": "enforcer",
              "type": "address"
            },
            {
              "internalType": "bytes",
              "name": "terms",
              "type": "bytes"
            }
          ],
          "internalType": "struct Caveat",
          "name": "_input",
          "type": "tuple"
        }
      ],
      "name": "GET_CAVEAT_PACKETHASH",
      "outputs": [
        {
          "internalType": "bytes32",
          "name": "",
          "type": "bytes32"
        }
      ],
      "stateMutability": "pure",
      "type": "function"
    },
    {
      "inputs": [
        {
          "components": [
            {
              "internalType": "address",
              "name": "delegate",
              "type": "address"
            },
            {
              "internalType": "bytes32",
              "name": "authority",
              "type": "bytes32"
            },
            {
              "components": [
                {
                  "internalType": "address",
                  "name": "enforcer",
                  "type": "address"
                },
                {
                  "internalType": "bytes",
                  "name": "terms",
                  "type": "bytes"
                }
              ],
              "internalType": "struct Caveat[]",
              "name": "caveats",
              "type": "tuple[]"
            }
          ],
          "internalType": "struct Delegation",
          "name": "_input",
          "type": "tuple"
        }
      ],
      "name": "GET_DELEGATION_PACKETHASH",
      "outputs": [
        {
          "internalType": "bytes32",
          "name": "",
          "type": "bytes32"
        }
      ],
      "stateMutability": "pure",
      "type": "function"
    },
    {
      "inputs": [
        {
          "components": [
            {
              "components": [
                {
                  "components": [
                    {
                      "internalType": "address",
                      "name": "to",
                      "type": "address"
                    },
                    {
                      "internalType": "uint256",
                      "name": "gasLimit",
                      "type": "uint256"
                    },
                    {
                      "internalType": "bytes",
                      "name": "data",
                      "type": "bytes"
                    }
                  ],
                  "internalType": "struct Transaction",
                  "name": "transaction",
                  "type": "tuple"
                },
                {
                  "components": [
                    {
                      "components": [
                        {
                          "internalType": "address",
                          "name": "delegate",
                          "type": "address"
                        },
                        {
                          "internalType": "bytes32",
                          "name": "authority",
                          "type": "bytes32"
                        },
                        {
                          "components": [
                            {
                              "internalType": "address",
                              "name": "enforcer",
                              "type": "address"
                            },
                            {
                              "internalType": "bytes",
                              "name": "terms",
                              "type": "bytes"
                            }
                          ],
                          "internalType": "struct Caveat[]",
                          "name": "caveats",
                          "type": "tuple[]"
                        }
                      ],
                      "internalType": "struct Delegation",
                      "name": "delegation",
                      "type": "tuple"
                    },
                    {
                      "internalType": "bytes",
                      "name": "signature",
                      "type": "bytes"
                    }
                  ],
                  "internalType": "struct SignedDelegation[]",
                  "name": "authority",
                  "type": "tuple[]"
                }
              ],
              "internalType": "struct Invocation[]",
              "name": "batch",
              "type": "tuple[]"
            },
            {
              "components": [
                {
                  "internalType": "uint256",
                  "name": "nonce",
                  "type": "uint256"
                },
                {
                  "internalType": "uint256",
                  "name": "queue",
                  "type": "uint256"
                }
              ],
              "internalType": "struct ReplayProtection",
              "name": "replayProtection",
              "type": "tuple"
            }
          ],
          "internalType": "struct Invocations",
          "name": "_input",
          "type": "tuple"
        }
      ],
      "name": "GET_INVOCATIONS_PACKETHASH",
      "outputs": [
        {
          "internalType": "bytes32",
          "name": "",
          "type": "bytes32"
        }
      ],
      "stateMutability": "pure",
      "type": "function"
    },
    {
      "inputs": [
        {
          "components": [
            {
              "components": [
                {
                  "internalType": "address",
                  "name": "to",
                  "type": "address"
                },
                {
                  "internalType": "uint256",
                  "name": "gasLimit",
                  "type": "uint256"
                },
                {
                  "internalType": "bytes",
                  "name": "data",
                  "type": "bytes"
                }
              ],
              "internalType": "struct Transaction",
              "name": "transaction",
              "type": "tuple"
            },
            {
              "components": [
                {
                  "components": [
                    {
                      "internalType": "address",
                      "name": "delegate",
                      "type": "address"
                    },
                    {
                      "internalType": "bytes32",
                      "name": "authority",
                      "type": "bytes32"
                    },
                    {
                      "components": [
                        {
                          "internalType": "address",
                          "name": "enforcer",
                          "type": "address"
                        },
                        {
                          "internalType": "bytes",
                          "name": "terms",
                          "type": "bytes"
                        }
                      ],
                      "internalType": "struct Caveat[]",
                      "name": "caveats",
                      "type": "tuple[]"
                    }
                  ],
                  "internalType": "struct Delegation",
                  "name": "delegation",
                  "type": "tuple"
                },
                {
                  "internalType": "bytes",
                  "name": "signature",
                  "type": "bytes"
                }
              ],
              "internalType": "struct SignedDelegation[]",
              "name": "authority",
              "type": "tuple[]"
            }
          ],
          "internalType": "struct Invocation[]",
          "name": "_input",
          "type": "tuple[]"
        }
      ],
      "name": "GET_INVOCATION_ARRAY_PACKETHASH",
      "outputs": [
        {
          "internalType": "bytes32",
          "name": "",
          "type": "bytes32"
        }
      ],
      "stateMutability": "pure",
      "type": "function"
    },
    {
      "inputs": [
        {
          "components": [
            {
              "components": [
                {
                  "internalType": "address",
                  "name": "to",
                  "type": "address"
                },
                {
                  "internalType": "uint256",
                  "name": "gasLimit",
                  "type": "uint256"
                },
                {
                  "internalType": "bytes",
                  "name": "data",
                  "type": "bytes"
                }
              ],
              "internalType": "struct Transaction",
              "name": "transaction",
              "type": "tuple"
            },
            {
              "components": [
                {
                  "components": [
                    {
                      "internalType": "address",
                      "name": "delegate",
                      "type": "address"
                    },
                    {
                      "internalType": "bytes32",
                      "name": "authority",
                      "type": "bytes32"
                    },
                    {
                      "components": [
                        {
                          "internalType": "address",
                          "name": "enforcer",
                          "type": "address"
                        },
                        {
                          "internalType": "bytes",
                          "name": "terms",
                          "type": "bytes"
                        }
                      ],
                      "internalType": "struct Caveat[]",
                      "name": "caveats",
                      "type": "tuple[]"
                    }
                  ],
                  "internalType": "struct Delegation",
                  "name": "delegation",
                  "type": "tuple"
                },
                {
                  "internalType": "bytes",
                  "name": "signature",
                  "type": "bytes"
                }
              ],
              "internalType": "struct SignedDelegation[]",
              "name": "authority",
              "type": "tuple[]"
            }
          ],
          "internalType": "struct Invocation",
          "name": "_input",
          "type": "tuple"
        }
      ],
      "name": "GET_INVOCATION_PACKETHASH",
      "outputs": [
        {
          "internalType": "bytes32",
          "name": "",
          "type": "bytes32"
        }
      ],
      "stateMutability": "pure",
      "type": "function"
    },
    {
      "inputs": [
        {
          "components": [
            {
              "internalType": "uint256",
              "name": "nonce",
              "type": "uint256"
            },
            {
              "internalType": "uint256",
              "name": "queue",
              "type": "uint256"
            }
          ],
          "internalType": "struct ReplayProtection",
          "name": "_input",
          "type": "tuple"
        }
      ],
      "name": "GET_REPLAYPROTECTION_PACKETHASH",
      "outputs": [
        {
          "internalType": "bytes32",
          "name": "",
          "type": "bytes32"
        }
      ],
      "stateMutability": "pure",
      "type": "function"
    },
    {
      "inputs": [
        {
          "components": [
            {
              "components": [
                {
                  "internalType": "address",
                  "name": "delegate",
                  "type": "address"
                },
                {
                  "internalType": "bytes32",
                  "name": "authority",
                  "type": "bytes32"
                },
                {
                  "components": [
                    {
                      "internalType": "address",
                      "name": "enforcer",
                      "type": "address"
                    },
                    {
                      "internalType": "bytes",
                      "name": "terms",
                      "type": "bytes"
                    }
                  ],
                  "internalType": "struct Caveat[]",
                  "name": "caveats",
                  "type": "tuple[]"
                }
              ],
              "internalType": "struct Delegation",
              "name": "delegation",
              "type": "tuple"
            },
            {
              "internalType": "bytes",
              "name": "signature",
              "type": "bytes"
            }
          ],
          "internalType": "struct SignedDelegation[]",
          "name": "_input",
          "type": "tuple[]"
        }
      ],
      "name": "GET_SIGNEDDELEGATION_ARRAY_PACKETHASH",
      "outputs": [
        {
          "internalType": "bytes32",
          "name": "",
          "type": "bytes32"
        }
      ],
      "stateMutability": "pure",
      "type": "function"
    },
    {
      "inputs": [
        {
          "components": [
            {
              "components": [
                {
                  "internalType": "address",
                  "name": "delegate",
                  "type": "address"
                },
                {
                  "internalType": "bytes32",
                  "name": "authority",
                  "type": "bytes32"
                },
                {
                  "components": [
                    {
                      "internalType": "address",
                      "name": "enforcer",
                      "type": "address"
                    },
                    {
                      "internalType": "bytes",
                      "name": "terms",
                      "type": "bytes"
                    }
                  ],
                  "internalType": "struct Caveat[]",
                  "name": "caveats",
                  "type": "tuple[]"
                }
              ],
              "internalType": "struct Delegation",
              "name": "delegation",
              "type": "tuple"
            },
            {
              "internalType": "bytes",
              "name": "signature",
              "type": "bytes"
            }
          ],
          "internalType": "struct SignedDelegation",
          "name": "_input",
          "type": "tuple"
        }
      ],
      "name": "GET_SIGNEDDELEGATION_PACKETHASH",
      "outputs": [
        {
          "internalType": "bytes32",
          "name": "",
          "type": "bytes32"
        }
      ],
      "stateMutability": "pure",
      "type": "function"
    },
    {
      "inputs": [
        {
          "components": [
            {
              "internalType": "address",
              "name": "to",
              "type": "address"
            },
            {
              "internalType": "uint256",
              "name": "gasLimit",
              "type": "uint256"
            },
            {
              "internalType": "bytes",
              "name": "data",
              "type": "bytes"
            }
          ],
          "internalType": "struct Transaction",
          "name": "_input",
          "type": "tuple"
        }
      ],
      "name": "GET_TRANSACTION_PACKETHASH",
      "outputs": [
        {
          "internalType": "bytes32",
          "name": "",
          "type": "bytes32"
        }
      ],
      "stateMutability": "pure",
      "type": "function"
    }
  ],
  "bytecode": {
    "object": "0x608060405234801561001057600080fd5b50610cee806100206000396000f3fe608060405234801561001057600080fd5b506004361061009e5760003560e01c80636f965803116100665780636f965803146101145780637234eefe14610127578063736f7ce71461013a5780637b577b581461014d578063a2e01f751461016057600080fd5b806308aaf6b0146100a35780632f52a2fd146100c85780633a481821146100db5780635cf1b24a146100ee5780636c2b125314610101575b600080fd5b6100b66100b13660046106cd565b610173565b60405190815260200160405180910390f35b6100b66100d636600461081d565b6101f3565b6100b66100e9366004610a69565b61025e565b6100b66100fc366004610a9d565b6102d5565b6100b661010f366004610ad1565b610332565b6100b6610122366004610b35565b61038f565b6100b6610135366004610b58565b6103e0565b6100b6610148366004610bd6565b61041e565b6100b661015b366004610c0a565b610486565b6100b661016e366004610c3e565b6104ee565b6000807f80ad7e1b04ee6d994a125f4714ca0720908bd80ed16063ec8aee4b88e9253e2d83600001518460200151805190602001206040516020016101d4939291909283526001600160a01b03919091166020830152604082015260600190565b60408051601f1981840301815291905280516020909101209392505050565b6000807f409f5114779a253e700d775d7845e6efc1e83685ac59868d2df3d4de51c7d6218360000151846020015161022e8660400151610486565b6040805160208101959095526001600160a01b03909316928401929092526060830152608082015260a0016101d4565b6000606060005b83518110156102c6578161029185838151811061028457610284610c72565b60200260200101516102d5565b6040516020016102a2929190610c88565b604051602081830303815290604052915080806102be90610cba565b915050610265565b50805160209091012092915050565b6000807fd97dd99b404d177890f06a8f0fc8e5ed0333fb2ebb6684360709066e8984f59461030684600001516104ee565b610313856020015161041e565b60408051602081019490945283019190915260608201526080016101d4565b6000807f3c36a06e1d288b0f94f565588317a46ad11bc3c96992109f9a2365a2737259a761036384600001516101f3565b6020808601518051908201206040516101d4949392019283526020830191909152604082015260600190565b6000807fe8d3d963b33868fb116316bc3fd55e8f49123f30e4418f71e140d54b7cd3b2b9836000015184602001516040516020016101d4939291909283526020830191909152604082015260600190565b6000807f08c69a206c06f5334b35ceb1186181a713b21aff02cf66285f375084fbef2eb8610411846000015161025e565b610313856020015161038f565b6000606060005b83518110156102c6578161045185838151811061044457610444610c72565b6020026020010151610332565b604051602001610462929190610c88565b6040516020818303038152906040529150808061047e90610cba565b915050610425565b6000606060005b83518110156102c657816104b98583815181106104ac576104ac610c72565b6020026020010151610173565b6040516020016104ca929190610c88565b604051602081830303815290604052915080806104e690610cba565b91505061048d565b6000807fb16dfdb3b8fa033fe30ac976cd4a50ad256b6811c80d90fcd0b323eec190047d836000015184602001518560400151805190602001206040516020016101d494939291909384526001600160a01b039290921660208401526040830152606082015260800190565b634e487b7160e01b600052604160045260246000fd5b604080519081016001600160401b03811182821017156105925761059261055a565b60405290565b604051606081016001600160401b03811182821017156105925761059261055a565b604051601f8201601f191681016001600160401b03811182821017156105e2576105e261055a565b604052919050565b80356001600160a01b038116811461060157600080fd5b919050565b600082601f83011261061757600080fd5b81356001600160401b038111156106305761063061055a565b610643601f8201601f19166020016105ba565b81815284602083860101111561065857600080fd5b816020850160208301376000918101602001919091529392505050565b60006040828403121561068757600080fd5b61068f610570565b905061069a826105ea565b815260208201356001600160401b038111156106b557600080fd5b6106c184828501610606565b60208301525092915050565b6000602082840312156106df57600080fd5b81356001600160401b038111156106f557600080fd5b61070184828501610675565b949350505050565b60006001600160401b038211156107225761072261055a565b5060051b60200190565b600082601f83011261073d57600080fd5b8135602061075261074d83610709565b6105ba565b82815260059290921b8401810191818101908684111561077157600080fd5b8286015b848110156107b05780356001600160401b038111156107945760008081fd5b6107a28986838b0101610675565b845250918301918301610775565b509695505050505050565b6000606082840312156107cd57600080fd5b6107d5610598565b90506107e0826105ea565b81526020820135602082015260408201356001600160401b0381111561080557600080fd5b6108118482850161072c565b60408301525092915050565b60006020828403121561082f57600080fd5b81356001600160401b0381111561084557600080fd5b610701848285016107bb565b60006060828403121561086357600080fd5b61086b610598565b9050610876826105ea565b81526020820135602082015260408201356001600160401b0381111561089b57600080fd5b61081184828501610606565b6000604082840312156108b957600080fd5b6108c1610570565b905081356001600160401b03808211156108da57600080fd5b6108e6858386016107bb565b835260208401359150808211156108fc57600080fd5b506106c184828501610606565b600082601f83011261091a57600080fd5b8135602061092a61074d83610709565b82815260059290921b8401810191818101908684111561094957600080fd5b8286015b848110156107b05780356001600160401b0381111561096c5760008081fd5b61097a8986838b01016108a7565b84525091830191830161094d565b60006040828403121561099a57600080fd5b6109a2610570565b905081356001600160401b03808211156109bb57600080fd5b6109c785838601610851565b835260208401359150808211156109dd57600080fd5b506106c184828501610909565b600082601f8301126109fb57600080fd5b81356020610a0b61074d83610709565b82815260059290921b84018101918181019086841115610a2a57600080fd5b8286015b848110156107b05780356001600160401b03811115610a4d5760008081fd5b610a5b8986838b0101610988565b845250918301918301610a2e565b600060208284031215610a7b57600080fd5b81356001600160401b03811115610a9157600080fd5b610701848285016109ea565b600060208284031215610aaf57600080fd5b81356001600160401b03811115610ac557600080fd5b61070184828501610988565b600060208284031215610ae357600080fd5b81356001600160401b03811115610af957600080fd5b610701848285016108a7565b600060408284031215610b1757600080fd5b610b1f610570565b9050813581526020820135602082015292915050565b600060408284031215610b4757600080fd5b610b518383610b05565b9392505050565b600060208284031215610b6a57600080fd5b81356001600160401b0380821115610b8157600080fd5b9083019060608286031215610b9557600080fd5b610b9d610570565b823582811115610bac57600080fd5b610bb8878286016109ea565b825250610bc88660208501610b05565b602082015295945050505050565b600060208284031215610be857600080fd5b81356001600160401b03811115610bfe57600080fd5b61070184828501610909565b600060208284031215610c1c57600080fd5b81356001600160401b03811115610c3257600080fd5b6107018482850161072c565b600060208284031215610c5057600080fd5b81356001600160401b03811115610c6657600080fd5b61070184828501610851565b634e487b7160e01b600052603260045260246000fd5b6000835160005b81811015610ca95760208187018101518583015201610c8f565b509190910191825250602001919050565b600060018201610cda57634e487b7160e01b600052601160045260246000fd5b506001019056fea164736f6c6343000811000a",
    "linkReferences": {}
  },
  "methodIdentifiers": {
    "GET_CAVEAT_ARRAY_PACKETHASH((address,bytes)[])": "7b577b58",
    "GET_CAVEAT_PACKETHASH((address,bytes))": "08aaf6b0",
    "GET_DELEGATION_PACKETHASH((address,bytes32,(address,bytes)[]))": "2f52a2fd",
    "GET_INVOCATIONS_PACKETHASH((((address,uint256,bytes),((address,bytes32,(address,bytes)[]),bytes)[])[],(uint256,uint256)))": "7234eefe",
    "GET_INVOCATION_ARRAY_PACKETHASH(((address,uint256,bytes),((address,bytes32,(address,bytes)[]),bytes)[])[])": "3a481821",
    "GET_INVOCATION_PACKETHASH(((address,uint256,bytes),((address,bytes32,(address,bytes)[]),bytes)[]))": "5cf1b24a",
    "GET_REPLAYPROTECTION_PACKETHASH((uint256,uint256))": "6f965803",
    "GET_SIGNEDDELEGATION_ARRAY_PACKETHASH(((address,bytes32,(address,bytes)[]),bytes)[])": "736f7ce7",
    "GET_SIGNEDDELEGATION_PACKETHASH(((address,bytes32,(address,bytes)[]),bytes))": "6c2b1253",
    "GET_TRANSACTION_PACKETHASH((address,uint256,bytes))": "a2e01f75"
  },
  "id": 3
}