{
  "abi": [
    {
      "inputs": [],
      "name": "MAX_SCORE",
      "outputs": [
        {
          "internalType": "uint256",
          "name": "",
          "type": "uint256"
        }
      ],
      "stateMutability": "view",
      "type": "function"
    },
    {
      "inputs": [
        {
          "internalType": "uint256",
          "name": "requestId",
          "type": "uint256"
        }
      ],
      "name": "getRemainder",
      "outputs": [
        {
          "internalType": "uint256",
          "name": "",
          "type": "uint256"
        }
      ],
      "stateMutability": "nonpayable",
      "type": "function"
    },
    {
      "inputs": [
        {
          "internalType": "uint256",
          "name": "",
          "type": "uint256"
        }
      ],
      "name": "payCount",
      "outputs": [
        {
          "internalType": "uint256",
          "name": "",
          "type": "uint256"
        }
      ],
      "stateMutability": "view",
      "type": "function"
    },
    {
      "inputs": [
        {
          "internalType": "uint256",
          "name": "submissionId",
          "type": "uint256"
        },
        {
          "internalType": "uint256",
          "name": "score",
          "type": "uint256"
        }
      ],
      "name": "review",
      "outputs": [
        {
          "internalType": "uint256",
          "name": "",
          "type": "uint256"
        }
      ],
      "stateMutability": "nonpayable",
      "type": "function"
    },
    {
      "inputs": [
        {
          "internalType": "address",
          "name": "",
          "type": "address"
        },
        {
          "internalType": "uint256",
          "name": "",
          "type": "uint256"
        }
      ],
      "name": "submissionToIndex",
      "outputs": [
        {
          "internalType": "uint256",
          "name": "",
          "type": "uint256"
        }
      ],
      "stateMutability": "view",
      "type": "function"
    },
    {
      "inputs": [
        {
          "internalType": "uint256",
          "name": "submissionId",
          "type": "uint256"
        }
      ],
      "name": "verify",
      "outputs": [
        {
          "internalType": "uint256",
          "name": "",
          "type": "uint256"
        }
      ],
      "stateMutability": "view",
      "type": "function"
    }
  ],
  "bytecode": {
    "object": "0x608060405234801561001057600080fd5b506108b5806100206000396000f3fe608060405234801561001057600080fd5b50600436106100625760003560e01c806305480fc01461006757806327ff6223146100a15780638753367f146100a9578063bd78ea12146100d2578063ceefed27146100e5578063dc49661114610105575b600080fd5b61008f6100753660046103e5565b600060208181529281526040808220909352908152205481565b60405190815260200160405180910390f35b61008f600a81565b61008f6100b7366004610411565b33600090815260208181526040808320938352929052205490565b61008f6100e0366004610411565b610118565b61008f6100f3366004610411565b60016020526000908152604090205481565b61008f61011336600461042a565b610285565b600081815260016020526040812054600a1161013657506000919050565b6000803390506000816001600160a01b0316636bd50cef6040518163ffffffff1660e01b8152600401600060405180830381865afa15801561017c573d6000803e3d6000fd5b505050506040513d6000823e601f3d908101601f191682016040526101a491908101906105e1565b60400151905060005b6000868152600160205260409020546101c790600a6106f9565b811015610276576000868152600160205260408120546101e890839061070c565b604051637d815f4360e11b8152600481018290529091506001600160a01b0384169063fb02be86906024016020604051808303816000875af1158015610232573d6000803e3d6000fd5b505050506040513d601f19601f82011682018060405250810190610256919061071f565b610260908661070c565b945050808061026e90610738565b9150506101ad565b5091949350505050565b919050565b6000806102918461035c565b905060018311156102fb5760405162461bcd60e51b815260206004820152602a60248201527f456e666f7263656d656e7443726974657269613a3a7265766965773a20696e76604482015269616c69642073636f726560b01b606482015260840160405180910390fd5b6000831180156103195750600081815260016020526040902054600a115b1561035157600081815260016020818152604080842080543386528584528286208a8752845291852082905593859052908290520190555b829150505b92915050565b604051630fa1a1b360e21b8152600481018290526000903390633e8686cc90602401600060405180830381865afa15801561039b573d6000803e3d6000fd5b505050506040513d6000823e601f3d908101601f191682016040526103c391908101906107e1565b6020015192915050565b6001600160a01b03811681146103e257600080fd5b50565b600080604083850312156103f857600080fd5b8235610403816103cd565b946020939093013593505050565b60006020828403121561042357600080fd5b5035919050565b6000806040838503121561043d57600080fd5b50508035926020909101359150565b634e487b7160e01b600052604160045260246000fd5b604051610140810167ffffffffffffffff811182821017156104865761048661044c565b60405290565b60405160c0810167ffffffffffffffff811182821017156104865761048661044c565b604051601f8201601f1916810167ffffffffffffffff811182821017156104d8576104d861044c565b604052919050565b8051610280816103cd565b600082601f8301126104fc57600080fd5b815167ffffffffffffffff8111156105165761051661044c565b602061052a601f8301601f191682016104af565b828152858284870101111561053e57600080fd5b60005b8381101561055c578581018301518282018401528201610541565b506000928101909101919091529392505050565b60006080828403121561058257600080fd5b6040516080810181811067ffffffffffffffff821117156105a5576105a561044c565b806040525080915082516105b8816103cd565b808252506020830151602082015260408301516040820152606083015160608201525092915050565b6000602082840312156105f357600080fd5b815167ffffffffffffffff8082111561060b57600080fd5b908301906101a0828603121561062057600080fd5b610628610462565b610631836104e0565b815261063f602084016104e0565b6020820152610650604084016104e0565b604082015260608301518281111561066757600080fd5b610673878286016104eb565b606083015250610685608084016104e0565b608082015260a083015160a08201526106a060c084016104e0565b60c082015260e083015160e082015261010091506106bf8284016104e0565b8282015261012091506106d486838501610570565b91810191909152949350505050565b634e487b7160e01b600052601160045260246000fd5b81810381811115610356576103566106e3565b80820180821115610356576103566106e3565b60006020828403121561073157600080fd5b5051919050565b60006001820161074a5761074a6106e3565b5060010190565b600082601f83011261076257600080fd5b8151602067ffffffffffffffff82111561077e5761077e61044c565b8160051b61078d8282016104af565b92835284810182019282810190878511156107a757600080fd5b83870192505b848310156107c6578251825291830191908301906107ad565b979650505050505050565b8051801515811461028057600080fd5b6000602082840312156107f357600080fd5b815167ffffffffffffffff8082111561080b57600080fd5b9083019060c0828603121561081f57600080fd5b61082761048c565b610830836104e0565b8152602083015160208201526040830151604082015260608301518281111561085857600080fd5b610864878286016104eb565b60608301525060808301518281111561087c57600080fd5b61088887828601610751565b60808301525061089a60a084016107d1565b60a08201529594505050505056fea164736f6c6343000811000a",
    "linkReferences": {}
  },
  "methodIdentifiers": {
    "MAX_SCORE()": "27ff6223",
    "getRemainder(uint256)": "bd78ea12",
    "payCount(uint256)": "ceefed27",
    "review(uint256,uint256)": "dc496611",
    "submissionToIndex(address,uint256)": "05480fc0",
    "verify(uint256)": "8753367f"
  },
  "id": 55
}