{
  "abi": [
    {
      "inputs": [
        {
          "internalType": "string",
          "name": "_uri",
          "type": "string"
        }
      ],
      "stateMutability": "nonpayable",
      "type": "constructor"
    },
    {
      "anonymous": false,
      "inputs": [
        {
          "indexed": true,
          "internalType": "address",
          "name": "owner",
          "type": "address"
        },
        {
          "indexed": true,
          "internalType": "address",
          "name": "operator",
          "type": "address"
        },
        {
          "indexed": false,
          "internalType": "bool",
          "name": "approved",
          "type": "bool"
        }
      ],
      "name": "ApprovalForAll",
      "type": "event"
    },
    {
      "anonymous": false,
      "inputs": [
        {
          "indexed": true,
          "internalType": "address",
          "name": "operator",
          "type": "address"
        },
        {
          "indexed": true,
          "internalType": "address",
          "name": "from",
          "type": "address"
        },
        {
          "indexed": true,
          "internalType": "address",
          "name": "to",
          "type": "address"
        },
        {
          "indexed": false,
          "internalType": "uint256[]",
          "name": "ids",
          "type": "uint256[]"
        },
        {
          "indexed": false,
          "internalType": "uint256[]",
          "name": "amounts",
          "type": "uint256[]"
        }
      ],
      "name": "TransferBatch",
      "type": "event"
    },
    {
      "anonymous": false,
      "inputs": [
        {
          "indexed": true,
          "internalType": "address",
          "name": "operator",
          "type": "address"
        },
        {
          "indexed": true,
          "internalType": "address",
          "name": "from",
          "type": "address"
        },
        {
          "indexed": true,
          "internalType": "address",
          "name": "to",
          "type": "address"
        },
        {
          "indexed": false,
          "internalType": "uint256",
          "name": "id",
          "type": "uint256"
        },
        {
          "indexed": false,
          "internalType": "uint256",
          "name": "amount",
          "type": "uint256"
        }
      ],
      "name": "TransferSingle",
      "type": "event"
    },
    {
      "anonymous": false,
      "inputs": [
        {
          "indexed": false,
          "internalType": "string",
          "name": "value",
          "type": "string"
        },
        {
          "indexed": true,
          "internalType": "uint256",
          "name": "id",
          "type": "uint256"
        }
      ],
      "name": "URI",
      "type": "event"
    },
    {
      "inputs": [],
      "name": "DELEGATE_TOKEN_ID",
      "outputs": [
        {
          "internalType": "uint256",
          "name": "",
          "type": "uint256"
        }
      ],
      "stateMutability": "view",
      "type": "function"
    },
    {
      "inputs": [],
      "name": "PARTICIPATION_TOKEN_ID",
      "outputs": [
        {
          "internalType": "uint256",
          "name": "",
          "type": "uint256"
        }
      ],
      "stateMutability": "view",
      "type": "function"
    },
    {
      "inputs": [
        {
          "internalType": "address",
          "name": "",
          "type": "address"
        },
        {
          "internalType": "uint256",
          "name": "",
          "type": "uint256"
        }
      ],
      "name": "balanceOf",
      "outputs": [
        {
          "internalType": "uint256",
          "name": "",
          "type": "uint256"
        }
      ],
      "stateMutability": "view",
      "type": "function"
    },
    {
      "inputs": [
        {
          "internalType": "address[]",
          "name": "owners",
          "type": "address[]"
        },
        {
          "internalType": "uint256[]",
          "name": "ids",
          "type": "uint256[]"
        }
      ],
      "name": "balanceOfBatch",
      "outputs": [
        {
          "internalType": "uint256[]",
          "name": "balances",
          "type": "uint256[]"
        }
      ],
      "stateMutability": "view",
      "type": "function"
    },
    {
      "inputs": [
        {
          "internalType": "address",
          "name": "account",
          "type": "address"
        },
        {
          "internalType": "uint256",
          "name": "id",
          "type": "uint256"
        },
        {
          "internalType": "uint256",
          "name": "amount",
          "type": "uint256"
        }
      ],
      "name": "freeMint",
      "outputs": [],
      "stateMutability": "nonpayable",
      "type": "function"
    },
    {
      "inputs": [
        {
          "internalType": "address",
          "name": "",
          "type": "address"
        },
        {
          "internalType": "address",
          "name": "",
          "type": "address"
        }
      ],
      "name": "isApprovedForAll",
      "outputs": [
        {
          "internalType": "bool",
          "name": "",
          "type": "bool"
        }
      ],
      "stateMutability": "view",
      "type": "function"
    },
    {
      "inputs": [
        {
          "internalType": "address",
          "name": "from",
          "type": "address"
        },
        {
          "internalType": "address",
          "name": "to",
          "type": "address"
        },
        {
          "internalType": "uint256[]",
          "name": "ids",
          "type": "uint256[]"
        },
        {
          "internalType": "uint256[]",
          "name": "amounts",
          "type": "uint256[]"
        },
        {
          "internalType": "bytes",
          "name": "data",
          "type": "bytes"
        }
      ],
      "name": "safeBatchTransferFrom",
      "outputs": [],
      "stateMutability": "nonpayable",
      "type": "function"
    },
    {
      "inputs": [
        {
          "internalType": "address",
          "name": "from",
          "type": "address"
        },
        {
          "internalType": "address",
          "name": "to",
          "type": "address"
        },
        {
          "internalType": "uint256",
          "name": "id",
          "type": "uint256"
        },
        {
          "internalType": "uint256",
          "name": "amount",
          "type": "uint256"
        },
        {
          "internalType": "bytes",
          "name": "data",
          "type": "bytes"
        }
      ],
      "name": "safeTransferFrom",
      "outputs": [],
      "stateMutability": "nonpayable",
      "type": "function"
    },
    {
      "inputs": [
        {
          "internalType": "address",
          "name": "operator",
          "type": "address"
        },
        {
          "internalType": "bool",
          "name": "approved",
          "type": "bool"
        }
      ],
      "name": "setApprovalForAll",
      "outputs": [],
      "stateMutability": "nonpayable",
      "type": "function"
    },
    {
      "inputs": [
        {
          "internalType": "bytes4",
          "name": "interfaceId",
          "type": "bytes4"
        }
      ],
      "name": "supportsInterface",
      "outputs": [
        {
          "internalType": "bool",
          "name": "",
          "type": "bool"
        }
      ],
      "stateMutability": "view",
      "type": "function"
    },
    {
      "inputs": [
        {
          "internalType": "uint256",
          "name": "",
          "type": "uint256"
        }
      ],
      "name": "uri",
      "outputs": [
        {
          "internalType": "string",
          "name": "",
          "type": "string"
        }
      ],
      "stateMutability": "view",
      "type": "function"
    }
  ],
  "bytecode": {
    "object": "0x608060405234620002175762001222803803806200001d816200021c565b92833981019060208082840312620002175781516001600160401b039283821162000217570192601f9080828601121562000217578451848111620001ec57601f199562000071828501881686016200021c565b928284528583830101116200021757849060005b83811062000202575050600091830101528051938411620001ec57600254926001938481811c91168015620001e1575b82821014620001cb578381116200017f575b50809285116001146200011457508394509083929160009462000108575b50501b916000199060031b1c1916176002555b604051610fdf9081620002438239f35b015192503880620000e5565b929484908116600260005284600020946000905b888383106200016457505050106200014a575b505050811b01600255620000f8565b015160001960f88460031b161c191690553880806200013b565b85870151885590960195948501948793509081019062000128565b6002600052816000208480880160051c820192848910620001c1575b0160051c019085905b828110620001b4575050620000c7565b60008155018590620001a4565b925081926200019b565b634e487b7160e01b600052602260045260246000fd5b90607f1690620000b5565b634e487b7160e01b600052604160045260246000fd5b81810183015185820184015286920162000085565b600080fd5b6040519190601f01601f191682016001600160401b03811183821017620001ec5760405256fe60a06040818152600436101561001457600080fd5b600091823560e01c908162fdd58e14610b8e5750806301ffc9a714610abb5780630e89341c1461096c5780632eb2c2d6146106bf5780634e1273f414610524578063615544e2146103de578063a22cb4651461032e578063a910003a14610314578063ac631701146102f9578063e985e9c51461029f5763f242432a1461009a57600080fd5b3461029b5760a060031936011261029b576100b3610bd7565b6100bb610bff565b90604435906064359060843567ffffffffffffffff8111610297576100e4903690600401610cb1565b90928773ffffffffffffffffffffffffffffffffffffffff809416958633148015610278575b61011390610cdf565b8682526020948286528983208284528652898320610132858254610d44565b90558816978883528286528983208284528652898320610153858254610d80565b905588888b5184815286898201527fc3d58168c5ae7397731d063d5bbf3d657854427343f4c083240f7aacaa2d0f628d3392a43b6101a1575050505050505061019e91501515610e74565b80f35b908495969792916101ff8a51988996879586947ff23a6e61000000000000000000000000000000000000000000000000000000009d8e875233600488015260248701526044860152606485015260a0608485015260a4840191610e35565b03925af193841561026f5750927fffffffff000000000000000000000000000000000000000000000000000000009161019e948692610242575b50501614610e74565b6102619250803d10610268575b6102598183610d8d565b810190610dfd565b3880610239565b503d61024f565b513d86823e3d90fd5b508682526001602090815289832033845290528882205460ff1661010a565b8680fd5b5080fd5b503461029b578060031936011261029b5760ff816020936102be610bd7565b6102c6610bff565b73ffffffffffffffffffffffffffffffffffffffff91821683526001875283832091168252855220549151911615158152f35b503461029b578160031936011261029b576020905160018152f35b503461029b578160031936011261029b5751908152602090f35b503461029b578060031936011261029b57610347610bd7565b90602435908115158092036103da57338452600160205273ffffffffffffffffffffffffffffffffffffffff8185209316928385526020528084207fffffffffffffffffffffffffffffffffffffffffffffffffffffffffffffff0081541660ff8416179055519081527f17307eab39ab6107e8899845ad3d59bd9653f200f220920489ca2b5937696c3160203392a380f35b8380fd5b503461029b57606060031936011261029b576103f8610bd7565b602435604435835160209182820182811067ffffffffffffffff8211176104f757865286825273ffffffffffffffffffffffffffffffffffffffff8516948588528784528688208589528452868820610452838254610d80565b90558588885187815284878201527fc3d58168c5ae7397731d063d5bbf3d657854427343f4c083240f7aacaa2d0f628a3392a43b61049a575050505061019e91501515610e74565b906101ff939483928888518097819582947ff23a6e61000000000000000000000000000000000000000000000000000000009b8c85523360048601528560248601526044850152606484015260a0608484015260a4830190610c22565b6024887f4e487b710000000000000000000000000000000000000000000000000000000081526041600452fd5b5090346106bc57816003193601126106bc5767ffffffffffffffff9060043582811161029b57610558903690600401610c80565b9091602493843590811161029b5785918461057887933690600401610c80565b939091610586858814610ed9565b61058f87610fba565b9261059c87519485610d8d565b8784526105a888610fba565b956020987fffffffffffffffffffffffffffffffffffffffffffffffffffffffffffffffe08a87019801368937865b81811061061f5750505050505083519485948186019282875251809352850193925b82811061060857505050500390f35b8351855286955093810193928101926001016105f9565b6106308183879d9a999b9c9d610f3e565b3573ffffffffffffffffffffffffffffffffffffffff81168091036106b85787528688528a8720610662828587610f3e565b35885288528a872054895182101561068c57600582901b8a018901529699989795966001016105d7565b86887f4e487b710000000000000000000000000000000000000000000000000000000081526032600452fd5b8780fd5b80fd5b503461029b5760031960a081360112610968576106da610bd7565b906106e3610bff565b9067ffffffffffffffff60443581811161029757610705903690600401610c80565b90916064358181116109645761071f903690600401610c80565b9490916084359081116109605761073a903690600401610cb1565b9096610747878614610ed9565b73ffffffffffffffffffffffffffffffffffffffff9889169861077c338b148c8e8215610941575b908a918a95948f94610cdf565b809487166080525b8c8686106108de57939450509350507f4a39dc06d4c0dbc64b70af90fd698a233a518aa5d07e595d983b8c0526c8f7fb6107c684519480865285018a8c610f7d565b938085036020820152806107df6080519633958c610f7d565b0390a43b6107fd5750505050505050505061019e6080511515610e74565b61085396610863610872946020988c519a8b998a997fbc197c81000000000000000000000000000000000000000000000000000000009e8f8c523360048d015260248c015260a060448c015260a48b0191610f7d565b91868984030160648a0152610f7d565b92858403016084860152610e35565b0381876080515af19283156108d5575061019e927fffffffff000000000000000000000000000000000000000000000000000000009185916108b7575b501614610e74565b6108cf915060203d8111610268576102598183610d8d565b386108af565b513d85823e3d90fd5b6108fa866108f28160019a61093398610f3e565b35928d610f3e565b3594825260208281528383208284528152838320610919878254610d44565b905560805183528281528383209183525220918254610d80565b90550185908a888d8f610784565b60ff92508d815260016020528181203382526020522054168c8e61076f565b8980fd5b8880fd5b8280fd5b503461029b57602080600319360112610968578151918360025494600186811c91818816978815610ab1575b8684108914610a8457868899858a98999a529182600014610a3f5750506001146109e3575b5050506109df92916109d0910385610d8d565b51928284938452830190610c22565b0390f35b9190869350600283527f405787fa12a823e0f2b7631cc41b3ba8828b3321ca811111fa75cd3aa3bb5ace5b828410610a2757505050820101816109d06109df6109bd565b8054848a018601528895508794909301928101610a0e565b7fffffffffffffffffffffffffffffffffffffffffffffffffffffffffffffff00168782015293151560051b860190930193508492506109d091506109df90506109bd565b6024827f4e487b710000000000000000000000000000000000000000000000000000000081526022600452fd5b92607f1692610998565b503461029b57602060031936011261029b57600435907fffffffff00000000000000000000000000000000000000000000000000000000821680920361096857602092507f01ffc9a7000000000000000000000000000000000000000000000000000000008214918215610b64575b8215610b3a575b50519015158152f35b7f0e89341c0000000000000000000000000000000000000000000000000000000014915038610b31565b7fd9b67a260000000000000000000000000000000000000000000000000000000081149250610b2a565b9190503461096857806003193601126109685760209273ffffffffffffffffffffffffffffffffffffffff610bc1610bd7565b1681528084528181206024358252845220548152f35b6004359073ffffffffffffffffffffffffffffffffffffffff82168203610bfa57565b600080fd5b6024359073ffffffffffffffffffffffffffffffffffffffff82168203610bfa57565b919082519283825260005b848110610c6c5750507fffffffffffffffffffffffffffffffffffffffffffffffffffffffffffffffe0601f8460006020809697860101520116010190565b602081830181015184830182015201610c2d565b9181601f84011215610bfa5782359167ffffffffffffffff8311610bfa576020808501948460051b010111610bfa57565b9181601f84011215610bfa5782359167ffffffffffffffff8311610bfa5760208381860195010111610bfa57565b15610ce657565b60646040517f08c379a000000000000000000000000000000000000000000000000000000000815260206004820152600e60248201527f4e4f545f415554484f52495a45440000000000000000000000000000000000006044820152fd5b91908203918211610d5157565b7f4e487b7100000000000000000000000000000000000000000000000000000000600052601160045260246000fd5b91908201809211610d5157565b90601f7fffffffffffffffffffffffffffffffffffffffffffffffffffffffffffffffe0910116810190811067ffffffffffffffff821117610dce57604052565b7f4e487b7100000000000000000000000000000000000000000000000000000000600052604160045260246000fd5b90816020910312610bfa57517fffffffff0000000000000000000000000000000000000000000000000000000081168103610bfa5790565b601f82602094937fffffffffffffffffffffffffffffffffffffffffffffffffffffffffffffffe0938186528686013760008582860101520116010190565b15610e7b57565b60646040517f08c379a000000000000000000000000000000000000000000000000000000000815260206004820152601060248201527f554e534146455f524543495049454e54000000000000000000000000000000006044820152fd5b15610ee057565b60646040517f08c379a000000000000000000000000000000000000000000000000000000000815260206004820152600f60248201527f4c454e4754485f4d49534d4154434800000000000000000000000000000000006044820152fd5b9190811015610f4e5760051b0190565b7f4e487b7100000000000000000000000000000000000000000000000000000000600052603260045260246000fd5b90918281527f07ffffffffffffffffffffffffffffffffffffffffffffffffffffffffffffff8311610bfa5760209260051b809284830137010190565b67ffffffffffffffff8111610dce5760051b6020019056fea164736f6c6343000811000a",
    "linkReferences": {}
  },
  "methodIdentifiers": {
    "DELEGATE_TOKEN_ID()": "a910003a",
    "PARTICIPATION_TOKEN_ID()": "ac631701",
    "balanceOf(address,uint256)": "00fdd58e",
    "balanceOfBatch(address[],uint256[])": "4e1273f4",
    "freeMint(address,uint256,uint256)": "615544e2",
    "isApprovedForAll(address,address)": "e985e9c5",
    "safeBatchTransferFrom(address,address,uint256[],uint256[],bytes)": "2eb2c2d6",
    "safeTransferFrom(address,address,uint256,uint256,bytes)": "f242432a",
    "setApprovalForAll(address,bool)": "a22cb465",
    "supportsInterface(bytes4)": "01ffc9a7",
    "uri(uint256)": "0e89341c"
  },
  "id": 59
}