{
  "abi": [
    {
      "inputs": [
        {
          "internalType": "string",
          "name": "_uri",
          "type": "string"
        },
        {
          "internalType": "address",
          "name": "newOwner",
          "type": "address"
        }
      ],
      "stateMutability": "nonpayable",
      "type": "constructor"
    },
    {
      "anonymous": false,
      "inputs": [
        {
          "indexed": true,
          "internalType": "address",
          "name": "owner",
          "type": "address"
        },
        {
          "indexed": true,
          "internalType": "address",
          "name": "operator",
          "type": "address"
        },
        {
          "indexed": false,
          "internalType": "bool",
          "name": "approved",
          "type": "bool"
        }
      ],
      "name": "ApprovalForAll",
      "type": "event"
    },
    {
      "anonymous": false,
      "inputs": [
        {
          "indexed": true,
          "internalType": "address",
          "name": "previousOwner",
          "type": "address"
        },
        {
          "indexed": true,
          "internalType": "address",
          "name": "newOwner",
          "type": "address"
        }
      ],
      "name": "OwnershipTransferred",
      "type": "event"
    },
    {
      "anonymous": false,
      "inputs": [
        {
          "indexed": true,
          "internalType": "address",
          "name": "operator",
          "type": "address"
        },
        {
          "indexed": true,
          "internalType": "address",
          "name": "from",
          "type": "address"
        },
        {
          "indexed": true,
          "internalType": "address",
          "name": "to",
          "type": "address"
        },
        {
          "indexed": false,
          "internalType": "uint256[]",
          "name": "ids",
          "type": "uint256[]"
        },
        {
          "indexed": false,
          "internalType": "uint256[]",
          "name": "amounts",
          "type": "uint256[]"
        }
      ],
      "name": "TransferBatch",
      "type": "event"
    },
    {
      "anonymous": false,
      "inputs": [
        {
          "indexed": true,
          "internalType": "address",
          "name": "operator",
          "type": "address"
        },
        {
          "indexed": true,
          "internalType": "address",
          "name": "from",
          "type": "address"
        },
        {
          "indexed": true,
          "internalType": "address",
          "name": "to",
          "type": "address"
        },
        {
          "indexed": false,
          "internalType": "uint256",
          "name": "id",
          "type": "uint256"
        },
        {
          "indexed": false,
          "internalType": "uint256",
          "name": "amount",
          "type": "uint256"
        }
      ],
      "name": "TransferSingle",
      "type": "event"
    },
    {
      "anonymous": false,
      "inputs": [
        {
          "indexed": false,
          "internalType": "string",
          "name": "value",
          "type": "string"
        },
        {
          "indexed": true,
          "internalType": "uint256",
          "name": "id",
          "type": "uint256"
        }
      ],
      "name": "URI",
      "type": "event"
    },
    {
      "inputs": [
        {
          "internalType": "address",
          "name": "",
          "type": "address"
        },
        {
          "internalType": "uint256",
          "name": "",
          "type": "uint256"
        }
      ],
      "name": "balanceOf",
      "outputs": [
        {
          "internalType": "uint256",
          "name": "",
          "type": "uint256"
        }
      ],
      "stateMutability": "view",
      "type": "function"
    },
    {
      "inputs": [
        {
          "internalType": "address[]",
          "name": "owners",
          "type": "address[]"
        },
        {
          "internalType": "uint256[]",
          "name": "ids",
          "type": "uint256[]"
        }
      ],
      "name": "balanceOfBatch",
      "outputs": [
        {
          "internalType": "uint256[]",
          "name": "balances",
          "type": "uint256[]"
        }
      ],
      "stateMutability": "view",
      "type": "function"
    },
    {
      "inputs": [
        {
          "internalType": "address[]",
          "name": "accounts",
          "type": "address[]"
        },
        {
          "internalType": "uint256[]",
          "name": "amounts",
          "type": "uint256[]"
        },
        {
          "internalType": "uint256",
          "name": "id",
          "type": "uint256"
        }
      ],
      "name": "distribute",
      "outputs": [],
      "stateMutability": "nonpayable",
      "type": "function"
    },
    {
      "inputs": [
        {
          "internalType": "address",
          "name": "account",
          "type": "address"
        },
        {
          "internalType": "uint256",
          "name": "id",
          "type": "uint256"
        },
        {
          "internalType": "uint256",
          "name": "amount",
          "type": "uint256"
        }
      ],
      "name": "freeBurn",
      "outputs": [],
      "stateMutability": "nonpayable",
      "type": "function"
    },
    {
      "inputs": [
        {
          "internalType": "address",
          "name": "account",
          "type": "address"
        },
        {
          "internalType": "uint256",
          "name": "id",
          "type": "uint256"
        },
        {
          "internalType": "uint256",
          "name": "amount",
          "type": "uint256"
        }
      ],
      "name": "freeMint",
      "outputs": [],
      "stateMutability": "nonpayable",
      "type": "function"
    },
    {
      "inputs": [
        {
          "internalType": "address",
          "name": "",
          "type": "address"
        },
        {
          "internalType": "address",
          "name": "",
          "type": "address"
        }
      ],
      "name": "isApprovedForAll",
      "outputs": [
        {
          "internalType": "bool",
          "name": "",
          "type": "bool"
        }
      ],
      "stateMutability": "view",
      "type": "function"
    },
    {
      "inputs": [],
      "name": "owner",
      "outputs": [
        {
          "internalType": "address",
          "name": "",
          "type": "address"
        }
      ],
      "stateMutability": "view",
      "type": "function"
    },
    {
      "inputs": [],
      "name": "renounceOwnership",
      "outputs": [],
      "stateMutability": "nonpayable",
      "type": "function"
    },
    {
      "inputs": [
        {
          "internalType": "address",
          "name": "from",
          "type": "address"
        },
        {
          "internalType": "address",
          "name": "to",
          "type": "address"
        },
        {
          "internalType": "uint256[]",
          "name": "ids",
          "type": "uint256[]"
        },
        {
          "internalType": "uint256[]",
          "name": "amounts",
          "type": "uint256[]"
        },
        {
          "internalType": "bytes",
          "name": "data",
          "type": "bytes"
        }
      ],
      "name": "safeBatchTransferFrom",
      "outputs": [],
      "stateMutability": "nonpayable",
      "type": "function"
    },
    {
      "inputs": [
        {
          "internalType": "address",
          "name": "from",
          "type": "address"
        },
        {
          "internalType": "address",
          "name": "to",
          "type": "address"
        },
        {
          "internalType": "uint256",
          "name": "id",
          "type": "uint256"
        },
        {
          "internalType": "uint256",
          "name": "amount",
          "type": "uint256"
        },
        {
          "internalType": "bytes",
          "name": "data",
          "type": "bytes"
        }
      ],
      "name": "safeTransferFrom",
      "outputs": [],
      "stateMutability": "nonpayable",
      "type": "function"
    },
    {
      "inputs": [
        {
          "internalType": "address",
          "name": "operator",
          "type": "address"
        },
        {
          "internalType": "bool",
          "name": "approved",
          "type": "bool"
        }
      ],
      "name": "setApprovalForAll",
      "outputs": [],
      "stateMutability": "nonpayable",
      "type": "function"
    },
    {
      "inputs": [
        {
          "internalType": "bytes4",
          "name": "interfaceId",
          "type": "bytes4"
        }
      ],
      "name": "supportsInterface",
      "outputs": [
        {
          "internalType": "bool",
          "name": "",
          "type": "bool"
        }
      ],
      "stateMutability": "view",
      "type": "function"
    },
    {
      "inputs": [
        {
          "internalType": "address",
          "name": "newOwner",
          "type": "address"
        }
      ],
      "name": "transferOwnership",
      "outputs": [],
      "stateMutability": "nonpayable",
      "type": "function"
    },
    {
      "inputs": [
        {
          "internalType": "uint256",
          "name": "",
          "type": "uint256"
        }
      ],
      "name": "uri",
      "outputs": [
        {
          "internalType": "string",
          "name": "",
          "type": "string"
        }
      ],
      "stateMutability": "view",
      "type": "function"
    }
  ],
  "bytecode": {
    "object": "0x60806040523480156200001157600080fd5b50604051620017d8380380620017d88339810160408190526200003491620000e6565b6200003f3362000061565b60036200004d83826200025d565b50620000598162000061565b505062000329565b600280546001600160a01b038381166001600160a01b0319831681179093556040519116919082907f8be0079c531659141344cd1fd0a4f28419497f9722a3daafe3b4186f6b6457e090600090a35050565b634e487b7160e01b600052604160045260246000fd5b80516001600160a01b0381168114620000e157600080fd5b919050565b60008060408385031215620000fa57600080fd5b82516001600160401b03808211156200011257600080fd5b818501915085601f8301126200012757600080fd5b8151818111156200013c576200013c620000b3565b604051601f8201601f19908116603f01168101908382118183101715620001675762000167620000b3565b816040528281526020935088848487010111156200018457600080fd5b600091505b82821015620001a8578482018401518183018501529083019062000189565b6000848483010152809650505050620001c3818601620000c9565b925050509250929050565b600181811c90821680620001e357607f821691505b6020821081036200020457634e487b7160e01b600052602260045260246000fd5b50919050565b601f8211156200025857600081815260208120601f850160051c81016020861015620002335750805b601f850160051c820191505b8181101562000254578281556001016200023f565b5050505b505050565b81516001600160401b03811115620002795762000279620000b3565b62000291816200028a8454620001ce565b846200020a565b602080601f831160018114620002c95760008415620002b05750858301515b600019600386901b1c1916600185901b17855562000254565b600085815260208120601f198616915b82811015620002fa57888601518255948401946001909101908401620002d9565b5085821015620003195787850151600019600388901b60f8161c191681555b5050505050600190811b01905550565b61149f80620003396000396000f3fe608060405234801561001057600080fd5b50600436106100e95760003560e01c8063715018a61161008c578063e985e9c511610066578063e985e9c5146101fd578063f242432a1461022b578063f2fde38b1461023e578063f72df6511461025157600080fd5b8063715018a6146101c75780638da5cb5b146101cf578063a22cb465146101ea57600080fd5b80632eb2c2d6116100c85780632eb2c2d61461016c5780632ef59533146101815780634e1273f414610194578063615544e2146101b457600080fd5b8062fdd58e146100ee57806301ffc9a7146101295780630e89341c1461014c575b600080fd5b6101166100fc366004610da6565b600060208181529281526040808220909352908152205481565b6040519081526020015b60405180910390f35b61013c610137366004610de6565b610264565b6040519015158152602001610120565b61015f61015a366004610e0a565b6102b6565b6040516101209190610e69565b61017f61017a366004610f0a565b61034a565b005b61017f61018f366004610fc5565b6105f2565b6101a76101a2366004610ff8565b61060a565b6040516101209190611064565b61017f6101c2366004610fc5565b61073f565b61017f610762565b6002546040516001600160a01b039091168152602001610120565b61017f6101f83660046110a8565b610776565b61013c61020b3660046110e4565b600160209081526000928352604080842090915290825290205460ff1681565b61017f610239366004611117565b6107e2565b61017f61024c36600461118f565b6109dc565b61017f61025f3660046111aa565b610a55565b60006301ffc9a760e01b6001600160e01b0319831614806102955750636cdb3d1360e11b6001600160e01b03198316145b806102b057506303a24d0760e21b6001600160e01b03198316145b92915050565b6060600380546102c59061121e565b80601f01602080910402602001604051908101604052809291908181526020018280546102f19061121e565b801561033e5780601f106103135761010080835404028352916020019161033e565b820191906000526020600020905b81548152906001019060200180831161032157829003601f168201915b50505050509050919050565b8483146103905760405162461bcd60e51b815260206004820152600f60248201526e0988a9c8ea890be9a92a69a82a8869608b1b60448201526064015b60405180910390fd5b336001600160a01b03891614806103ca57506001600160a01b038816600090815260016020908152604080832033845290915290205460ff165b6104075760405162461bcd60e51b815260206004820152600e60248201526d1393d517d055551213d49256915160921b6044820152606401610387565b60008060005b878110156104c25788888281811061042757610427611258565b90506020020135925086868281811061044257610442611258565b6001600160a01b038e166000908152602081815260408083208984528252822080549390910294909401359550859392509061047f908490611284565b90915550506001600160a01b038a16600090815260208181526040808320868452909152812080548492906104b5908490611297565b909155505060010161040d565b50886001600160a01b03168a6001600160a01b0316336001600160a01b03167f4a39dc06d4c0dbc64b70af90fd698a233a518aa5d07e595d983b8c0526c8f7fb8b8b8b8b60405161051694939291906112dc565b60405180910390a46001600160a01b0389163b156105bd5760405163bc197c8160e01b808252906001600160a01b038b169063bc197c819061056a9033908f908e908e908e908e908e908e90600401611337565b6020604051808303816000875af1158015610589573d6000803e3d6000fd5b505050506040513d601f19601f820116820180604052508101906105ad919061139b565b6001600160e01b031916146105ca565b6001600160a01b03891615155b6105e65760405162461bcd60e51b8152600401610387906113b8565b50505050505050505050565b6105fa610b12565b610605838383610b6c565b505050565b606083821461064d5760405162461bcd60e51b815260206004820152600f60248201526e0988a9c8ea890be9a92a69a82a8869608b1b6044820152606401610387565b8367ffffffffffffffff811115610666576106666113e2565b60405190808252806020026020018201604052801561068f578160200160208202803683370190505b50905060005b84811015610736576000808787848181106106b2576106b2611258565b90506020020160208101906106c7919061118f565b6001600160a01b03166001600160a01b0316815260200190815260200160002060008585848181106106fb576106fb611258565b9050602002013581526020019081526020016000205482828151811061072357610723611258565b6020908102919091010152600101610695565b50949350505050565b610747610b12565b61060583838360405180602001604052806000815250610bf0565b61076a610b12565b6107746000610d38565b565b3360008181526001602090815260408083206001600160a01b03871680855290835292819020805460ff191686151590811790915590519081529192917f17307eab39ab6107e8899845ad3d59bd9653f200f220920489ca2b5937696c31910160405180910390a35050565b336001600160a01b038716148061081c57506001600160a01b038616600090815260016020908152604080832033845290915290205460ff165b6108595760405162461bcd60e51b815260206004820152600e60248201526d1393d517d055551213d49256915160921b6044820152606401610387565b6001600160a01b0386166000908152602081815260408083208784529091528120805485929061088a908490611284565b90915550506001600160a01b038516600090815260208181526040808320878452909152812080548592906108c0908490611297565b909155505060408051858152602081018590526001600160a01b03808816929089169133917fc3d58168c5ae7397731d063d5bbf3d657854427343f4c083240f7aacaa2d0f62910160405180910390a46001600160a01b0385163b156109ab5760405163f23a6e6160e01b808252906001600160a01b0387169063f23a6e61906109589033908b908a908a908a908a906004016113f8565b6020604051808303816000875af1158015610977573d6000803e3d6000fd5b505050506040513d601f19601f8201168201806040525081019061099b919061139b565b6001600160e01b031916146109b8565b6001600160a01b03851615155b6109d45760405162461bcd60e51b8152600401610387906113b8565b505050505050565b6109e4610b12565b6001600160a01b038116610a495760405162461bcd60e51b815260206004820152602660248201527f4f776e61626c653a206e6577206f776e657220697320746865207a65726f206160448201526564647265737360d01b6064820152608401610387565b610a5281610d38565b50565b610a5d610b12565b838214610a9c5760405162461bcd60e51b815260206004820152600d60248201526c125b9d985b1a59081a5b9c1d5d609a1b6044820152606401610387565b60005b848110156109d457610b00868683818110610abc57610abc611258565b9050602002016020810190610ad1919061118f565b83868685818110610ae457610ae4611258565b9050602002013560405180602001604052806000815250610bf0565b80610b0a8161143f565b915050610a9f565b6002546001600160a01b031633146107745760405162461bcd60e51b815260206004820181905260248201527f4f776e61626c653a2063616c6c6572206973206e6f7420746865206f776e65726044820152606401610387565b6001600160a01b03831660009081526020818152604080832085845290915281208054839290610b9d908490611284565b909155505060408051838152602081018390526000916001600160a01b0386169133917fc3d58168c5ae7397731d063d5bbf3d657854427343f4c083240f7aacaa2d0f62910160405180910390a4505050565b6001600160a01b03841660009081526020818152604080832086845290915281208054849290610c21908490611297565b909155505060408051848152602081018490526001600160a01b0386169160009133917fc3d58168c5ae7397731d063d5bbf3d657854427343f4c083240f7aacaa2d0f62910160405180910390a46001600160a01b0384163b15610d095760405163f23a6e6160e01b808252906001600160a01b0386169063f23a6e6190610cb6903390600090899089908990600401611458565b6020604051808303816000875af1158015610cd5573d6000803e3d6000fd5b505050506040513d601f19601f82011682018060405250810190610cf9919061139b565b6001600160e01b03191614610d16565b6001600160a01b03841615155b610d325760405162461bcd60e51b8152600401610387906113b8565b50505050565b600280546001600160a01b038381166001600160a01b0319831681179093556040519116919082907f8be0079c531659141344cd1fd0a4f28419497f9722a3daafe3b4186f6b6457e090600090a35050565b80356001600160a01b0381168114610da157600080fd5b919050565b60008060408385031215610db957600080fd5b610dc283610d8a565b946020939093013593505050565b6001600160e01b031981168114610a5257600080fd5b600060208284031215610df857600080fd5b8135610e0381610dd0565b9392505050565b600060208284031215610e1c57600080fd5b5035919050565b6000815180845260005b81811015610e4957602081850181015186830182015201610e2d565b506000602082860101526020601f19601f83011685010191505092915050565b602081526000610e036020830184610e23565b60008083601f840112610e8e57600080fd5b50813567ffffffffffffffff811115610ea657600080fd5b6020830191508360208260051b8501011115610ec157600080fd5b9250929050565b60008083601f840112610eda57600080fd5b50813567ffffffffffffffff811115610ef257600080fd5b602083019150836020828501011115610ec157600080fd5b60008060008060008060008060a0898b031215610f2657600080fd5b610f2f89610d8a565b9750610f3d60208a01610d8a565b9650604089013567ffffffffffffffff80821115610f5a57600080fd5b610f668c838d01610e7c565b909850965060608b0135915080821115610f7f57600080fd5b610f8b8c838d01610e7c565b909650945060808b0135915080821115610fa457600080fd5b50610fb18b828c01610ec8565b999c989b5096995094979396929594505050565b600080600060608486031215610fda57600080fd5b610fe384610d8a565b95602085013595506040909401359392505050565b6000806000806040858703121561100e57600080fd5b843567ffffffffffffffff8082111561102657600080fd5b61103288838901610e7c565b9096509450602087013591508082111561104b57600080fd5b5061105887828801610e7c565b95989497509550505050565b6020808252825182820181905260009190848201906040850190845b8181101561109c57835183529284019291840191600101611080565b50909695505050505050565b600080604083850312156110bb57600080fd5b6110c483610d8a565b9150602083013580151581146110d957600080fd5b809150509250929050565b600080604083850312156110f757600080fd5b61110083610d8a565b915061110e60208401610d8a565b90509250929050565b60008060008060008060a0878903121561113057600080fd5b61113987610d8a565b955061114760208801610d8a565b94506040870135935060608701359250608087013567ffffffffffffffff81111561117157600080fd5b61117d89828a01610ec8565b979a9699509497509295939492505050565b6000602082840312156111a157600080fd5b610e0382610d8a565b6000806000806000606086880312156111c257600080fd5b853567ffffffffffffffff808211156111da57600080fd5b6111e689838a01610e7c565b909750955060208801359150808211156111ff57600080fd5b5061120c88828901610e7c565b96999598509660400135949350505050565b600181811c9082168061123257607f821691505b60208210810361125257634e487b7160e01b600052602260045260246000fd5b50919050565b634e487b7160e01b600052603260045260246000fd5b634e487b7160e01b600052601160045260246000fd5b818103818111156102b0576102b061126e565b808201808211156102b0576102b061126e565b81835260006001600160fb1b038311156112c357600080fd5b8260051b80836020870137939093016020019392505050565b6040815260006112f06040830186886112aa565b82810360208401526113038185876112aa565b979650505050505050565b81835281816020850137506000828201602090810191909152601f909101601f19169091010190565b6001600160a01b0389811682528816602082015260a060408201819052600090611364908301888a6112aa565b82810360608401526113778187896112aa565b9050828103608084015261138c81858761130e565b9b9a5050505050505050505050565b6000602082840312156113ad57600080fd5b8151610e0381610dd0565b60208082526010908201526f155394d0519157d49150d2541251539560821b604082015260600190565b634e487b7160e01b600052604160045260246000fd5b6001600160a01b03878116825286166020820152604081018590526060810184905260a060808201819052600090611433908301848661130e565b98975050505050505050565b6000600182016114515761145161126e565b5060010190565b6001600160a01b03868116825285166020820152604081018490526060810183905260a06080820181905260009061130390830184610e2356fea164736f6c6343000811000a",
    "linkReferences": {}
  },
  "methodIdentifiers": {
    "balanceOf(address,uint256)": "00fdd58e",
    "balanceOfBatch(address[],uint256[])": "4e1273f4",
    "distribute(address[],uint256[],uint256)": "f72df651",
    "freeBurn(address,uint256,uint256)": "2ef59533",
    "freeMint(address,uint256,uint256)": "615544e2",
    "isApprovedForAll(address,address)": "e985e9c5",
    "owner()": "8da5cb5b",
    "renounceOwnership()": "715018a6",
    "safeBatchTransferFrom(address,address,uint256[],uint256[],bytes)": "2eb2c2d6",
    "safeTransferFrom(address,address,uint256,uint256,bytes)": "f242432a",
    "setApprovalForAll(address,bool)": "a22cb465",
    "supportsInterface(bytes4)": "01ffc9a7",
    "transferOwnership(address)": "f2fde38b",
    "uri(uint256)": "0e89341c"
  },
  "id": 72
}