{
  "abi": [
    {
      "inputs": [
        {
          "internalType": "address",
          "name": "_factoryImplementation",
          "type": "address"
        },
        {
          "internalType": "address",
          "name": "_capacityImplementation",
          "type": "address"
        }
      ],
      "stateMutability": "nonpayable",
      "type": "constructor"
    },
    {
      "anonymous": false,
      "inputs": [
        {
          "indexed": true,
          "internalType": "address",
          "name": "organization",
          "type": "address"
        },
        {
          "indexed": true,
          "internalType": "address",
          "name": "owner",
          "type": "address"
        },
        {
          "indexed": true,
          "internalType": "address",
          "name": "implementation",
          "type": "address"
        }
      ],
      "name": "LaborMarketCreated",
      "type": "event"
    },
    {
      "anonymous": false,
      "inputs": [
        {
          "indexed": true,
          "internalType": "address",
          "name": "previousOwner",
          "type": "address"
        },
        {
          "indexed": true,
          "internalType": "address",
          "name": "newOwner",
          "type": "address"
        }
      ],
      "name": "OwnershipTransferred",
      "type": "event"
    },
    {
      "anonymous": false,
      "inputs": [
        {
          "indexed": true,
          "internalType": "address",
          "name": "implementation",
          "type": "address"
        },
        {
          "components": [
            {
              "internalType": "address",
              "name": "owner",
              "type": "address"
            },
            {
              "internalType": "bytes32",
              "name": "licenseKey",
              "type": "bytes32"
            },
            {
              "internalType": "uint256",
              "name": "amount",
              "type": "uint256"
            },
            {
              "internalType": "bool",
              "name": "locked",
              "type": "bool"
            }
          ],
          "indexed": true,
          "internalType": "struct LaborMarketVersionsInterface.Version",
          "name": "version",
          "type": "tuple"
        }
      ],
      "name": "VersionUpdated",
      "type": "event"
    },
    {
      "inputs": [],
      "name": "capacityToken",
      "outputs": [
        {
          "internalType": "contract IERC20",
          "name": "",
          "type": "address"
        }
      ],
      "stateMutability": "view",
      "type": "function"
    },
    {
      "inputs": [
        {
          "internalType": "address",
          "name": "_implementation",
          "type": "address"
        },
        {
          "internalType": "address",
          "name": "_deployer",
          "type": "address"
        },
        {
          "components": [
            {
              "internalType": "address",
              "name": "network",
              "type": "address"
            },
            {
              "internalType": "address",
              "name": "enforcementModule",
              "type": "address"
            },
            {
              "internalType": "address",
              "name": "paymentModule",
              "type": "address"
            },
            {
              "internalType": "string",
              "name": "marketUri",
              "type": "string"
            },
            {
              "internalType": "address",
              "name": "delegateBadge",
              "type": "address"
            },
            {
              "internalType": "uint256",
              "name": "delegateTokenId",
              "type": "uint256"
            },
            {
              "internalType": "address",
              "name": "maintainerBadge",
              "type": "address"
            },
            {
              "internalType": "uint256",
              "name": "maintainerTokenId",
              "type": "uint256"
            },
            {
              "internalType": "address",
              "name": "reputationModule",
              "type": "address"
            },
            {
              "components": [
                {
                  "internalType": "address",
                  "name": "reputationEngine",
                  "type": "address"
                },
                {
                  "internalType": "uint256",
                  "name": "signalStake",
                  "type": "uint256"
                },
                {
                  "internalType": "uint256",
                  "name": "providerThreshold",
                  "type": "uint256"
                },
                {
                  "internalType": "uint256",
                  "name": "maintainerThreshold",
                  "type": "uint256"
                }
              ],
              "internalType": "struct ReputationModuleInterface.ReputationMarketConfig",
              "name": "reputationConfig",
              "type": "tuple"
            }
          ],
          "internalType": "struct LaborMarketConfigurationInterface.LaborMarketConfiguration",
          "name": "_configuration",
          "type": "tuple"
        }
      ],
      "name": "createLaborMarket",
      "outputs": [
        {
          "internalType": "address",
          "name": "laborMarketAddress",
          "type": "address"
        }
      ],
      "stateMutability": "nonpayable",
      "type": "function"
    },
    {
      "inputs": [
        {
          "internalType": "address",
          "name": "_to",
          "type": "address"
        },
        {
          "internalType": "bytes",
          "name": "_data",
          "type": "bytes"
        },
        {
          "internalType": "uint256",
          "name": "_value",
          "type": "uint256"
        }
      ],
      "name": "execTransaction",
      "outputs": [],
      "stateMutability": "payable",
      "type": "function"
    },
    {
      "inputs": [
        {
          "internalType": "bytes32",
          "name": "_versionKey",
          "type": "bytes32"
        },
        {
          "internalType": "address",
          "name": "_sender",
          "type": "address"
        }
      ],
      "name": "getLicenseKey",
      "outputs": [
        {
          "internalType": "bytes32",
          "name": "",
          "type": "bytes32"
        }
      ],
      "stateMutability": "pure",
      "type": "function"
    },
    {
      "inputs": [
        {
          "internalType": "address",
          "name": "_implementation",
          "type": "address"
        }
      ],
      "name": "getVersionKey",
      "outputs": [
        {
          "internalType": "bytes32",
          "name": "",
          "type": "bytes32"
        }
      ],
      "stateMutability": "view",
      "type": "function"
    },
    {
      "inputs": [
        {
          "internalType": "address",
          "name": "",
          "type": "address"
        },
        {
          "internalType": "address",
          "name": "",
          "type": "address"
        },
        {
          "internalType": "uint256[]",
          "name": "",
          "type": "uint256[]"
        },
        {
          "internalType": "uint256[]",
          "name": "",
          "type": "uint256[]"
        },
        {
          "internalType": "bytes",
          "name": "",
          "type": "bytes"
        }
      ],
      "name": "onERC1155BatchReceived",
      "outputs": [
        {
          "internalType": "bytes4",
          "name": "",
          "type": "bytes4"
        }
      ],
      "stateMutability": "nonpayable",
      "type": "function"
    },
    {
      "inputs": [
        {
          "internalType": "address",
          "name": "",
          "type": "address"
        },
        {
          "internalType": "address",
          "name": "_from",
          "type": "address"
        },
        {
          "internalType": "uint256",
          "name": "_id",
          "type": "uint256"
        },
        {
          "internalType": "uint256",
          "name": "_amount",
          "type": "uint256"
        },
        {
          "internalType": "bytes",
          "name": "_data",
          "type": "bytes"
        }
      ],
      "name": "onERC1155Received",
      "outputs": [
        {
          "internalType": "bytes4",
          "name": "",
          "type": "bytes4"
        }
      ],
      "stateMutability": "nonpayable",
      "type": "function"
    },
    {
      "inputs": [],
      "name": "owner",
      "outputs": [
        {
          "internalType": "address",
          "name": "",
          "type": "address"
        }
      ],
      "stateMutability": "view",
      "type": "function"
    },
    {
      "inputs": [],
      "name": "renounceOwnership",
      "outputs": [],
      "stateMutability": "nonpayable",
      "type": "function"
    },
    {
      "inputs": [
        {
          "internalType": "address",
          "name": "_implementation",
          "type": "address"
        }
      ],
      "name": "setCapacityImplementation",
      "outputs": [],
      "stateMutability": "nonpayable",
      "type": "function"
    },
    {
      "inputs": [
        {
          "internalType": "address",
          "name": "_implementation",
          "type": "address"
        },
        {
          "internalType": "address",
          "name": "_owner",
          "type": "address"
        },
        {
          "internalType": "address",
          "name": "_tokenAddress",
          "type": "address"
        },
        {
          "internalType": "uint256",
          "name": "_tokenId",
          "type": "uint256"
        },
        {
          "internalType": "uint256",
          "name": "_amount",
          "type": "uint256"
        },
        {
          "internalType": "bool",
          "name": "_locked",
          "type": "bool"
        }
      ],
      "name": "setVersion",
      "outputs": [],
      "stateMutability": "nonpayable",
      "type": "function"
    },
    {
      "inputs": [
        {
          "internalType": "bytes4",
          "name": "_interfaceId",
          "type": "bytes4"
        }
      ],
      "name": "supportsInterface",
      "outputs": [
        {
          "internalType": "bool",
          "name": "",
          "type": "bool"
        }
      ],
      "stateMutability": "view",
      "type": "function"
    },
    {
      "inputs": [
        {
          "internalType": "address",
          "name": "newOwner",
          "type": "address"
        }
      ],
      "name": "transferOwnership",
      "outputs": [],
      "stateMutability": "nonpayable",
      "type": "function"
    },
    {
      "inputs": [
        {
          "internalType": "bytes32",
          "name": "",
          "type": "bytes32"
        }
      ],
      "name": "versionKeyToFunded",
      "outputs": [
        {
          "internalType": "uint256",
          "name": "",
          "type": "uint256"
        }
      ],
      "stateMutability": "view",
      "type": "function"
    },
    {
      "inputs": [
        {
          "internalType": "address",
          "name": "",
          "type": "address"
        }
      ],
      "name": "versions",
      "outputs": [
        {
          "internalType": "address",
          "name": "owner",
          "type": "address"
        },
        {
          "internalType": "bytes32",
          "name": "licenseKey",
          "type": "bytes32"
        },
        {
          "internalType": "uint256",
          "name": "amount",
          "type": "uint256"
        },
        {
          "internalType": "bool",
          "name": "locked",
          "type": "bool"
        }
      ],
      "stateMutability": "view",
      "type": "function"
    }
  ],
  "bytecode": {
    "object": "0x60806040523480156200001157600080fd5b50604051620016ae380380620016ae8339810160408190526200003491620001e4565b81806200004133620000a9565b620000808133604051600060208201819052603482015260540160405160208183030381529060405280519060200120600080620000f960201b60201c565b5050600380546001600160a01b0319166001600160a01b0392909216919091179055506200021c565b600080546001600160a01b038381166001600160a01b0319831681178455604051919092169283917f8be0079c531659141344cd1fd0a4f28419497f9722a3daafe3b4186f6b6457e09190a35050565b60408051608080820183526001600160a01b038781168352602080840188815284860188815287151560608088019182528d8616600081815260018088528b82209a518b546001600160a01b03191699169889178b559551958a01869055935160028a0181905592516003909901805460ff1916991515998a1790558951968752948601939093528488015260ff909516151590830152935190819003909101812092917f9aa070da0af188ad2b4060cc793b7f3f9d9178d0a74ccd9f2da6fa610f41baea91a35050505050565b80516001600160a01b0381168114620001df57600080fd5b919050565b60008060408385031215620001f857600080fd5b6200020383620001c7565b91506200021360208401620001c7565b90509250929050565b611482806200022c6000396000f3fe6080604052600436106100e85760003560e01c80638da5cb5b1161008a578063f0526bf811610059578063f0526bf81461030e578063f0d2120b1461032e578063f23a6e611461034e578063f2fde38b1461036e57600080fd5b80638da5cb5b14610284578063bc197c81146102a2578063bf8ebca7146102db578063d8c6d850146102ee57600080fd5b80635f52d852116100c65780635f52d852146101e85780636a7499cb14610215578063715018a61461024d5780638767c6871461026457600080fd5b806301ffc9a7146100ed578063488725a01461012257806352d574e5146101a0575b600080fd5b3480156100f957600080fd5b5061010d610108366004610d79565b61038e565b60405190151581526020015b60405180910390f35b34801561012e57600080fd5b5061017461013d366004610dca565b600160208190526000918252604090912080549181015460028201546003909201546001600160a01b039093169290919060ff1684565b604080516001600160a01b03909516855260208501939093529183015215156060820152608001610119565b3480156101ac57600080fd5b506101da6101bb366004610dca565b6001600160a01b03166000908152600160208190526040909120015490565b604051908152602001610119565b3480156101f457600080fd5b506101da610203366004610de7565b60026020526000908152604090205481565b34801561022157600080fd5b50610235610230366004610e00565b6103b9565b6040516001600160a01b039091168152602001610119565b34801561025957600080fd5b50610262610433565b005b34801561027057600080fd5b5061026261027f366004610dca565b610447565b34801561029057600080fd5b506000546001600160a01b0316610235565b3480156102ae57600080fd5b506102c26102bd366004610fa1565b610471565b6040516001600160e01b03199091168152602001610119565b6102626102e936600461104f565b610483565b3480156102fa57600080fd5b50600354610235906001600160a01b031681565b34801561031a57600080fd5b506102626103293660046110da565b610522565b34801561033a57600080fd5b506101da61034936600461114f565b6107a0565b34801561035a57600080fd5b506102c261036936600461117f565b6107e9565b34801561037a57600080fd5b50610262610389366004610dca565b610950565b60006001600160e01b03198216636a7499cb60e01b14806103b357506103b3826109c9565b92915050565b6001600160a01b0383811660009081526001602081815260408084208151608081018352815490961686529283015491850182905260028301549085015260039091015460ff1615156060840152909190829061041690336107a0565b90506104298682846040015188886109ff565b9695505050505050565b61043b610b64565b6104456000610bbe565b565b61044f610b64565b600380546001600160a01b0319166001600160a01b0392909216919091179055565b63bc197c8160e01b5b95945050505050565b61048b610b64565b600080856001600160a01b03168386866040516104a99291906111e8565b60006040518083038185875af1925050503d80600081146104e6576040519150601f19603f3d011682016040523d82523d6000602084013e6104eb565b606091505b50915091508181906105195760405162461bcd60e51b815260040161051091906111f8565b60405180910390fd5b50505050505050565b6001600160a01b0380871660009081526001602081815260409283902083516080810185528154909516855291820154908401526002810154918301919091526003015460ff1615801560608301526105ed5760405162461bcd60e51b815260206004820152604160248201527f4c61626f724d61726b657456657273696f6e733a3a5f73657456657273696f6e60448201527f3a2043616e6e6f74207570646174652061206c6f636b65642076657273696f6e6064820152601760f91b608482015260a401610510565b80516001600160a01b0316158061060d575080516001600160a01b031633145b61069a5760405162461bcd60e51b815260206004820152605260248201527f4c61626f724d61726b657456657273696f6e733a3a5f73657456657273696f6e60448201527f3a20596f7520646f206e6f742068617665207065726d697373696f6e20746f2060648201527132b234ba103a3434b9903b32b939b4b7b71760711b608482015260a401610510565b6000546001600160a01b0316331461075a576001600160a01b0385161580156106c1575083155b80156106cb575082155b61075a5760405162461bcd60e51b815260206004820152605460248201527f4c61626f724d61726b657456657273696f6e733a3a5f73657456657273696f6e60448201527f3a20596f7520646f206e6f742068617665207065726d697373696f6e20746f2060648201527339b2ba1030903830bcb6b2b73a103a37b5b2b71760611b608482015260a401610510565b6040516001600160601b0319606087901b166020820152603481018590526105199088908890605401604051602081830303815290604052805190602001208686610c0e565b600082826040516020016107cb92919091825260601b6001600160601b031916602082015260340190565b60405160208183030381529060405280519060200120905092915050565b60008151600003610802575063f23a6e6160e01b61047a565b6000828060200190518101906108189190611246565b6001600160a01b03811660009081526001602081905260409091200154909150338660405160200161086392919060609290921b6001600160601b0319168252601482015260340190565b60405160208183030381529060405280519060200120146108ec5760405162461bcd60e51b815260206004820152603b60248201527f4c61626f724d61726b6574466163746f72793a3a6f6e4552433131353552656360448201527f65697665643a20496e76616c6964206c6963656e7365206b65792e00000000006064820152608401610510565b6001600160a01b03811660009081526001602081905260408220015461091290886107a0565b9050846002600083815260200190815260200160002060008282546109379190611279565b9091555063f23a6e6160e01b9998505050505050505050565b610958610b64565b6001600160a01b0381166109bd5760405162461bcd60e51b815260206004820152602660248201527f4f776e61626c653a206e6577206f776e657220697320746865207a65726f206160448201526564647265737360d01b6064820152608401610510565b6109c681610bbe565b50565b60006001600160e01b0319821663292a868b60e11b14806103b357506001600160e01b03198216630271189760e51b1492915050565b600084815260026020526040812080548591908390610a1f90849061128c565b9091555060009050610a396001600160a01b038816610cdc565b905080610a4e61012085016101008601610dca565b6001600160a01b0316632c3a50398386610120016040518363ffffffff1660e01b8152600401610a7f9291906112d4565b600060405180830381600087803b158015610a9957600080fd5b505af1158015610aad573d6000803e3d6000fd5b505060405163545a8b1b60e01b81526001600160a01b038416925063545a8b1b9150610add908790600401611367565b600060405180830381600087803b158015610af757600080fd5b505af1158015610b0b573d6000803e3d6000fd5b50505050876001600160a01b0316856001600160a01b0316836001600160a01b03167f3c036db17d0d0b5dd4eb57da1cc3bb081ed8e75504d2b5250d42b318071c26c760405160405180910390a4509695505050505050565b6000546001600160a01b031633146104455760405162461bcd60e51b815260206004820181905260248201527f4f776e61626c653a2063616c6c6572206973206e6f7420746865206f776e65726044820152606401610510565b600080546001600160a01b038381166001600160a01b0319831681178455604051919092169283917f8be0079c531659141344cd1fd0a4f28419497f9722a3daafe3b4186f6b6457e09190a35050565b60408051608080820183526001600160a01b038781168352602080840188815284860188815287151560608088019182528d8616600081815260018088528b82209a518b546001600160a01b03191699169889178b559551958a01869055935160028a0181905592516003909901805460ff1916991515998a1790558951968752948601939093528488015260ff909516151590830152935190819003909101812092917f9aa070da0af188ad2b4060cc793b7f3f9d9178d0a74ccd9f2da6fa610f41baea91a35050505050565b6000604051733d602d80600a3d3981f3363d3d373d3d3d363d7360601b81528260601b60148201526e5af43d82803e903d91602b57fd5bf360881b60288201526037816000f09150506001600160a01b038116610d745760405162461bcd60e51b8152602060048201526016602482015275115490cc4c4d8dce8818dc99585d194819985a5b195960521b6044820152606401610510565b919050565b600060208284031215610d8b57600080fd5b81356001600160e01b031981168114610da357600080fd5b9392505050565b6001600160a01b03811681146109c657600080fd5b8035610d7481610daa565b600060208284031215610ddc57600080fd5b8135610da381610daa565b600060208284031215610df957600080fd5b5035919050565b600080600060608486031215610e1557600080fd5b8335610e2081610daa565b92506020840135610e3081610daa565b9150604084013567ffffffffffffffff811115610e4c57600080fd5b84016101a08187031215610e5f57600080fd5b809150509250925092565b634e487b7160e01b600052604160045260246000fd5b604051601f8201601f1916810167ffffffffffffffff81118282101715610ea957610ea9610e6a565b604052919050565b600082601f830112610ec257600080fd5b8135602067ffffffffffffffff821115610ede57610ede610e6a565b8160051b610eed828201610e80565b9283528481018201928281019087851115610f0757600080fd5b83870192505b84831015610f2657823582529183019190830190610f0d565b979650505050505050565b600082601f830112610f4257600080fd5b813567ffffffffffffffff811115610f5c57610f5c610e6a565b610f6f601f8201601f1916602001610e80565b818152846020838601011115610f8457600080fd5b816020850160208301376000918101602001919091529392505050565b600080600080600060a08688031215610fb957600080fd5b8535610fc481610daa565b94506020860135610fd481610daa565b9350604086013567ffffffffffffffff80821115610ff157600080fd5b610ffd89838a01610eb1565b9450606088013591508082111561101357600080fd5b61101f89838a01610eb1565b9350608088013591508082111561103557600080fd5b5061104288828901610f31565b9150509295509295909350565b6000806000806060858703121561106557600080fd5b843561107081610daa565b9350602085013567ffffffffffffffff8082111561108d57600080fd5b818701915087601f8301126110a157600080fd5b8135818111156110b057600080fd5b8860208285010111156110c257600080fd5b95986020929092019750949560400135945092505050565b60008060008060008060c087890312156110f357600080fd5b86356110fe81610daa565b9550602087013561110e81610daa565b9450604087013561111e81610daa565b9350606087013592506080870135915060a0870135801515811461114157600080fd5b809150509295509295509295565b6000806040838503121561116257600080fd5b82359150602083013561117481610daa565b809150509250929050565b600080600080600060a0868803121561119757600080fd5b85356111a281610daa565b945060208601356111b281610daa565b93506040860135925060608601359150608086013567ffffffffffffffff8111156111dc57600080fd5b61104288828901610f31565b8183823760009101908152919050565b600060208083528351808285015260005b8181101561122557858101830151858201604001528201611209565b506000604082860101526040601f19601f8301168501019250505092915050565b60006020828403121561125857600080fd5b8151610da381610daa565b634e487b7160e01b600052601160045260246000fd5b808201808211156103b3576103b3611263565b818103818111156103b3576103b3611263565b80356112aa81610daa565b6001600160a01b031682526020818101359083015260408082013590830152606090810135910152565b6001600160a01b038316815260a08101610da3602083018461129f565b6000808335601e1984360301811261130857600080fd5b830160208101925035905067ffffffffffffffff81111561132857600080fd5b80360382131561133757600080fd5b9250929050565b81835281816020850137506000828201602090810191909152601f909101601f19169091010190565b602081526113886020820161137b84610dbf565b6001600160a01b03169052565b600061139660208401610dbf565b6001600160a01b0381166040840152506113b260408401610dbf565b6001600160a01b0381166060840152506113cf60608401846112f1565b6101a060808501526113e66101c08501828461133e565b9150506113f560808501610dbf565b6001600160a01b03811660a08501525060a084013560c084015261141b60c08501610dbf565b6001600160a01b03811660e08501525061010060e085013581850152611442818601610dbf565b905061012061145b818601836001600160a01b03169052565b61146b610140860182880161129f565b509094935050505056fea164736f6c6343000811000a",
    "linkReferences": {}
  },
  "methodIdentifiers": {
    "capacityToken()": "d8c6d850",
    "createLaborMarket(address,address,(address,address,address,string,address,uint256,address,uint256,address,(address,uint256,uint256,uint256)))": "6a7499cb",
    "execTransaction(address,bytes,uint256)": "bf8ebca7",
    "getLicenseKey(bytes32,address)": "f0d2120b",
    "getVersionKey(address)": "52d574e5",
    "onERC1155BatchReceived(address,address,uint256[],uint256[],bytes)": "bc197c81",
    "onERC1155Received(address,address,uint256,uint256,bytes)": "f23a6e61",
    "owner()": "8da5cb5b",
    "renounceOwnership()": "715018a6",
    "setCapacityImplementation(address)": "8767c687",
    "setVersion(address,address,address,uint256,uint256,bool)": "f0526bf8",
    "supportsInterface(bytes4)": "01ffc9a7",
    "transferOwnership(address)": "f2fde38b",
    "versionKeyToFunded(bytes32)": "5f52d852",
    "versions(address)": "488725a0"
  },
  "id": 67
}