{
  "abi": [
    {
      "inputs": [
        {
          "internalType": "address",
          "name": "_factoryImplementation",
          "type": "address"
        },
        {
          "internalType": "address",
          "name": "_capacityImplementation",
          "type": "address"
        }
      ],
      "stateMutability": "nonpayable",
      "type": "constructor"
    },
    {
      "anonymous": false,
      "inputs": [
        {
          "indexed": true,
          "internalType": "address",
          "name": "organization",
          "type": "address"
        },
        {
          "indexed": true,
          "internalType": "address",
          "name": "owner",
          "type": "address"
        },
        {
          "indexed": true,
          "internalType": "address",
          "name": "implementation",
          "type": "address"
        }
      ],
      "name": "LaborMarketCreated",
      "type": "event"
    },
    {
      "anonymous": false,
      "inputs": [
        {
          "indexed": true,
          "internalType": "address",
          "name": "previousOwner",
          "type": "address"
        },
        {
          "indexed": true,
          "internalType": "address",
          "name": "newOwner",
          "type": "address"
        }
      ],
      "name": "OwnershipTransferred",
      "type": "event"
    },
    {
      "anonymous": false,
      "inputs": [
        {
          "indexed": true,
          "internalType": "address",
          "name": "implementation",
          "type": "address"
        },
        {
          "components": [
            {
              "internalType": "address",
              "name": "owner",
              "type": "address"
            },
            {
              "internalType": "bytes32",
              "name": "licenseKey",
              "type": "bytes32"
            },
            {
              "internalType": "uint256",
              "name": "amount",
              "type": "uint256"
            },
            {
              "internalType": "bool",
              "name": "locked",
              "type": "bool"
            }
          ],
          "indexed": true,
          "internalType": "struct LaborMarketVersionsInterface.Version",
          "name": "version",
          "type": "tuple"
        }
      ],
      "name": "VersionUpdated",
      "type": "event"
    },
    {
      "inputs": [],
      "name": "capacityToken",
      "outputs": [
        {
          "internalType": "contract IERC20",
          "name": "",
          "type": "address"
        }
      ],
      "stateMutability": "view",
      "type": "function"
    },
    {
      "inputs": [
        {
          "internalType": "address",
          "name": "_implementation",
          "type": "address"
        },
        {
          "internalType": "address",
          "name": "_deployer",
          "type": "address"
        },
        {
          "components": [
            {
              "internalType": "address",
              "name": "network",
              "type": "address"
            },
            {
              "internalType": "address",
              "name": "enforcementModule",
              "type": "address"
            },
            {
              "internalType": "address",
              "name": "paymentModule",
              "type": "address"
            },
            {
              "internalType": "string",
              "name": "marketUri",
              "type": "string"
            },
            {
              "internalType": "address",
              "name": "delegateBadge",
              "type": "address"
            },
            {
              "internalType": "uint256",
              "name": "delegateTokenId",
              "type": "uint256"
            },
            {
              "internalType": "address",
              "name": "maintainerBadge",
              "type": "address"
            },
            {
              "internalType": "uint256",
              "name": "maintainerTokenId",
              "type": "uint256"
            },
            {
              "internalType": "address",
              "name": "reputationModule",
              "type": "address"
            },
            {
              "components": [
                {
                  "internalType": "address",
                  "name": "reputationEngine",
                  "type": "address"
                },
                {
                  "internalType": "uint256",
                  "name": "signalStake",
                  "type": "uint256"
                },
                {
                  "internalType": "uint256",
                  "name": "providerThreshold",
                  "type": "uint256"
                },
                {
                  "internalType": "uint256",
                  "name": "maintainerThreshold",
                  "type": "uint256"
                }
              ],
              "internalType": "struct ReputationModuleInterface.ReputationMarketConfig",
              "name": "reputationConfig",
              "type": "tuple"
            }
          ],
          "internalType": "struct LaborMarketConfigurationInterface.LaborMarketConfiguration",
          "name": "_configuration",
          "type": "tuple"
        }
      ],
      "name": "createLaborMarket",
      "outputs": [
        {
          "internalType": "address",
          "name": "laborMarketAddress",
          "type": "address"
        }
      ],
      "stateMutability": "nonpayable",
      "type": "function"
    },
    {
      "inputs": [
        {
          "internalType": "address",
          "name": "_to",
          "type": "address"
        },
        {
          "internalType": "bytes",
          "name": "_data",
          "type": "bytes"
        },
        {
          "internalType": "uint256",
          "name": "_value",
          "type": "uint256"
        }
      ],
      "name": "execTransaction",
      "outputs": [],
      "stateMutability": "payable",
      "type": "function"
    },
    {
      "inputs": [
        {
          "internalType": "bytes32",
          "name": "_versionKey",
          "type": "bytes32"
        },
        {
          "internalType": "address",
          "name": "_sender",
          "type": "address"
        }
      ],
      "name": "getLicenseKey",
      "outputs": [
        {
          "internalType": "bytes32",
          "name": "",
          "type": "bytes32"
        }
      ],
      "stateMutability": "pure",
      "type": "function"
    },
    {
      "inputs": [
        {
          "internalType": "address",
          "name": "_implementation",
          "type": "address"
        }
      ],
      "name": "getVersionKey",
      "outputs": [
        {
          "internalType": "bytes32",
          "name": "",
          "type": "bytes32"
        }
      ],
      "stateMutability": "view",
      "type": "function"
    },
    {
      "inputs": [
        {
          "internalType": "address",
          "name": "",
          "type": "address"
        },
        {
          "internalType": "address",
          "name": "",
          "type": "address"
        },
        {
          "internalType": "uint256[]",
          "name": "",
          "type": "uint256[]"
        },
        {
          "internalType": "uint256[]",
          "name": "",
          "type": "uint256[]"
        },
        {
          "internalType": "bytes",
          "name": "",
          "type": "bytes"
        }
      ],
      "name": "onERC1155BatchReceived",
      "outputs": [
        {
          "internalType": "bytes4",
          "name": "",
          "type": "bytes4"
        }
      ],
      "stateMutability": "nonpayable",
      "type": "function"
    },
    {
      "inputs": [
        {
          "internalType": "address",
          "name": "",
          "type": "address"
        },
        {
          "internalType": "address",
          "name": "_from",
          "type": "address"
        },
        {
          "internalType": "uint256",
          "name": "_id",
          "type": "uint256"
        },
        {
          "internalType": "uint256",
          "name": "_amount",
          "type": "uint256"
        },
        {
          "internalType": "bytes",
          "name": "_data",
          "type": "bytes"
        }
      ],
      "name": "onERC1155Received",
      "outputs": [
        {
          "internalType": "bytes4",
          "name": "",
          "type": "bytes4"
        }
      ],
      "stateMutability": "nonpayable",
      "type": "function"
    },
    {
      "inputs": [],
      "name": "owner",
      "outputs": [
        {
          "internalType": "address",
          "name": "",
          "type": "address"
        }
      ],
      "stateMutability": "view",
      "type": "function"
    },
    {
      "inputs": [],
      "name": "renounceOwnership",
      "outputs": [],
      "stateMutability": "nonpayable",
      "type": "function"
    },
    {
      "inputs": [
        {
          "internalType": "address",
          "name": "_implementation",
          "type": "address"
        }
      ],
      "name": "setCapacityImplementation",
      "outputs": [],
      "stateMutability": "nonpayable",
      "type": "function"
    },
    {
      "inputs": [
        {
          "internalType": "address",
          "name": "_implementation",
          "type": "address"
        },
        {
          "internalType": "address",
          "name": "_owner",
          "type": "address"
        },
        {
          "internalType": "address",
          "name": "_tokenAddress",
          "type": "address"
        },
        {
          "internalType": "uint256",
          "name": "_tokenId",
          "type": "uint256"
        },
        {
          "internalType": "uint256",
          "name": "_amount",
          "type": "uint256"
        },
        {
          "internalType": "bool",
          "name": "_locked",
          "type": "bool"
        }
      ],
      "name": "setVersion",
      "outputs": [],
      "stateMutability": "nonpayable",
      "type": "function"
    },
    {
      "inputs": [
        {
          "internalType": "bytes4",
          "name": "_interfaceId",
          "type": "bytes4"
        }
      ],
      "name": "supportsInterface",
      "outputs": [
        {
          "internalType": "bool",
          "name": "",
          "type": "bool"
        }
      ],
      "stateMutability": "view",
      "type": "function"
    },
    {
      "inputs": [
        {
          "internalType": "address",
          "name": "newOwner",
          "type": "address"
        }
      ],
      "name": "transferOwnership",
      "outputs": [],
      "stateMutability": "nonpayable",
      "type": "function"
    },
    {
      "inputs": [
        {
          "internalType": "bytes32",
          "name": "",
          "type": "bytes32"
        }
      ],
      "name": "versionKeyToFunded",
      "outputs": [
        {
          "internalType": "uint256",
          "name": "",
          "type": "uint256"
        }
      ],
      "stateMutability": "view",
      "type": "function"
    },
    {
      "inputs": [
        {
          "internalType": "address",
          "name": "",
          "type": "address"
        }
      ],
      "name": "versions",
      "outputs": [
        {
          "internalType": "address",
          "name": "owner",
          "type": "address"
        },
        {
          "internalType": "bytes32",
          "name": "licenseKey",
          "type": "bytes32"
        },
        {
          "internalType": "uint256",
          "name": "amount",
          "type": "uint256"
        },
        {
          "internalType": "bool",
          "name": "locked",
          "type": "bool"
        }
      ],
      "stateMutability": "view",
      "type": "function"
    }
  ],
  "bytecode": {
    "object": "0x6080346101ad576116c6906001600160401b03601f38849003908101601f1916830190828211848310176101b257808491604096879485528339810103126101ad57610056602061004f846101c8565b93016101c8565b60009384549260018060a01b03199433868616178755825160018060a01b0395863391167f8be0079c531659141344cd1fd0a4f28419497f9722a3daafe3b4186f6b6457e08a80a360208101908882528860348201526034815260608101918183108584111761019957828652815190209360e08201908111838210176101995790600392918652338252608081019485528760c060a08301928c845201948b86521694858b52600160205288878c209351168a845416178355516001830155516002820155019051151560ff801983541691161790557f9aa070da0af188ad2b4060cc793b7f3f9d9178d0a74ccd9f2da6fa610f41baea608083882060ff600386519289815416845260018101546020850152600281015488850152015416151560608201522092519680a3169060035416176003556114e990816101dd8239f35b634e487b7160e01b8a52604160045260248afd5b600080fd5b634e487b7160e01b600052604160045260246000fd5b51906001600160a01b03821682036101ad5756fe6080604081815260048036101561001557600080fd5b600092833560e01c90816301ffc9a714610f3757508063488725a014610ec857806352d574e514610e825780635f52d85214610e5b5780636a7499cb14610a37578063715018a6146109b85780638767c687146109545780638da5cb5b14610921578063bc197c8114610881578063bf8ebca714610746578063d8c6d8501461070d578063f0526bf81461029a578063f0d2120b1461026b578063f23a6e61146101e65763f2fde38b146100c857600080fd5b346101e25760206003193601126101e2576100e1611009565b906100ea6111f8565b73ffffffffffffffffffffffffffffffffffffffff80921692831561015f575050600054827fffffffffffffffffffffffff0000000000000000000000000000000000000000821617600055167f8be0079c531659141344cd1fd0a4f28419497f9722a3daafe3b4186f6b6457e0600080a380f35b90602060849251917f08c379a0000000000000000000000000000000000000000000000000000000008352820152602660248201527f4f776e61626c653a206e6577206f776e657220697320746865207a65726f206160448201527f64647265737300000000000000000000000000000000000000000000000000006064820152fd5b8280fd5b50346101e25760a06003193601126101e257610200611009565b5061020961102c565b926084359067ffffffffffffffff821161026857506020936102527fffffffff0000000000000000000000000000000000000000000000000000000093610260933691016111b1565b906064359060443590611277565b915191168152f35b80fd5b5091346102685781600319360112610268575061029360209261028c61102c565b9035611442565b9051908152f35b5090346101e25760c06003193601126101e2576102b5611009565b6102bd61102c565b916044359173ffffffffffffffffffffffffffffffffffffffff938484169384810361070857606435906084359160a4359485151580960361070457881698898b5260209760018952878c2060ff60038a519261031984611070565b8d815416845260018101548d85015260028101548c850152015416151580606083015261065c57518a168015908115610652575b50156105aa57918a93918c938b85541633036104cf575b50508960ff60038b8b8b838c8c8c89868e839e60809e6103eb8c6103bf86519384928301958690917fffffffffffffffffffffffffffffffffffffffff00000000000000000000000060349360601b16825260148201520190565b037fffffffffffffffffffffffffffffffffffffffffffffffffffffffffffffffe081018352826110cf565b51902093838351976103fc89611070565b1687528a870194855282870195865260608701988952815260018a52209351167fffffffffffffffffffffffff00000000000000000000000000000000000000008454161783555160018301555160028201550190511515857fffffffffffffffffffffffffffffffffffffffffffffffffffffffffffffff0083541691161790558088209181519583541686526001830154908601526002820154908501520154161515606082015220907f9aa070da0af188ad2b4060cc793b7f3f9d9178d0a74ccd9f2da6fa610f41baea8380a380f35b91935091935015806105a2575b8061059a575b156104f257918a91838b94610364565b60a490888851917f08c379a0000000000000000000000000000000000000000000000000000000008352820152605460248201527f4c61626f724d61726b657456657273696f6e733a3a5f73657456657273696f6e60448201527f3a20596f7520646f206e6f742068617665207065726d697373696f6e20746f2060648201527f7365742061207061796d656e7420746f6b656e2e0000000000000000000000006084820152fd5b5083156104e2565b5081156104dc565b60a4828a8a51917f08c379a0000000000000000000000000000000000000000000000000000000008352820152605260248201527f4c61626f724d61726b657456657273696f6e733a3a5f73657456657273696f6e60448201527f3a20596f7520646f206e6f742068617665207065726d697373696f6e20746f2060648201527f6564697420746869732076657273696f6e2e00000000000000000000000000006084820152fd5b905033143861034d565b60a4838b8b51917f08c379a0000000000000000000000000000000000000000000000000000000008352820152604160248201527f4c61626f724d61726b657456657273696f6e733a3a5f73657456657273696f6e60448201527f3a2043616e6e6f74207570646174652061206c6f636b65642076657273696f6e60648201527f2e000000000000000000000000000000000000000000000000000000000000006084820152fd5b8a80fd5b600080fd5b50503461074257816003193601126107425760209073ffffffffffffffffffffffffffffffffffffffff600354169051908152f35b5080fd5b509060606003193601126101e25761075c611009565b90836024359267ffffffffffffffff908185116101e257366023860112156101e257848601359182116101e25736602483870101116101e257829161079f6111f8565b8060248651970187378501948286528060449603918635905af1903d15610879573d916107cb83611177565b926107d8835194856110cf565b83523d86602085013e5b156107eb578480f35b929192519384927f08c379a000000000000000000000000000000000000000000000000000000000845260208091850152825192836024860152825b84811061086357505050828201840152601f017fffffffffffffffffffffffffffffffffffffffffffffffffffffffffffffffe0168101030190fd5b8181018301518882018801528795508201610827565b6060916107e2565b5091346102685760a06003193601126102685761089c611009565b506108a561102c565b5067ffffffffffffffff90604435828111610742576108c79036908601611110565b50606435828111610742576108df9036908601611110565b5060843591821161026857506020926108fa913691016111b1565b50517fbc197c81000000000000000000000000000000000000000000000000000000008152f35b50503461074257816003193601126107425773ffffffffffffffffffffffffffffffffffffffff60209254169051908152f35b83346102685760206003193601126102685773ffffffffffffffffffffffffffffffffffffffff610983611009565b61098b6111f8565b167fffffffffffffffffffffffff0000000000000000000000000000000000000000600354161760035580f35b83346102685780600319360112610268576109d16111f8565b600073ffffffffffffffffffffffffffffffffffffffff81547fffffffffffffffffffffffff000000000000000000000000000000000000000081168355167f8be0079c531659141344cd1fd0a4f28419497f9722a3daafe3b4186f6b6457e08280a380f35b5090346101e25760031991606083360112610e5757610a54611009565b93610a5d61102c565b936044359367ffffffffffffffff808611610e5757853603946101a08094870112610e535773ffffffffffffffffffffffffffffffffffffffff93848a169687875260209a60018c52858820610ae98d8851610ab881611070565b8a845416815260018401548092820152606060ff60036002870154968d850197885201541615159101523390611442565b905190895260028d528689208054918203918211610e2757916037918993558751907f3d602d80600a3d3981f3363d3d373d3d3d363d73000000000000000000000000825260601b60148201527f5af43d82803e903d91602b57fd5bf30000000000000000000000000000000000602882015289f016988915610dcb5761010480820191823594898616809603610704576101249485830196803b15610daa578c8f60a48b838f95610bcc8e975197889687957f2c3a5039000000000000000000000000000000000000000000000000000000008752860152602485019061149c565b5af18015610dc157610dae575b508d3b15610da657908f98979695949392918a51997f545a8b1b000000000000000000000000000000000000000000000000000000008b52888b01528b610c21848a0161104f565b1660248b01528b610c346024850161104f565b1660448b01528b610c476044850161104f565b1660648b01527fffffffffffffffffffffffffffffffffffffffffffffffffffffffffffffffdd60648401359101811215610daa5782016024810198970135968711610da6578636038813610da6578896938c9896938896938d936084890152866101c4890152866101e4998a8a01378a89888a0101528360848201610ccc9061104f565b1660a489015260a481013560c48901528360c48201610cea9061104f565b1660e489015260e4013590870152610d019061104f565b16908401526101448301610d149161149c565b601f017fffffffffffffffffffffffffffffffffffffffffffffffffffffffffffffffe0168101030181838a5af18015610d9c57869392918591610d81575b5050519516917f3c036db17d0d0b5dd4eb57da1cc3bb081ed8e75504d2b5250d42b318071c26c79080a48152f35b610d8e91929394506110bb565b6101e2579084918338610d53565b82513d86823e3d90fd5b8b80fd5b8c80fd5b610dba909c919c6110bb565b9a38610bd9565b8b513d8f823e3d90fd5b6064848d8851917f08c379a0000000000000000000000000000000000000000000000000000000008352820152601660248201527f455243313136373a20637265617465206661696c6564000000000000000000006044820152fd5b60248a6011887f4e487b7100000000000000000000000000000000000000000000000000000000835252fd5b8480fd5b8380fd5b50346101e25760206003193601126101e25760209282913581526002845220549051908152f35b5050346107425760206003193601126107425760018160209373ffffffffffffffffffffffffffffffffffffffff610eb8611009565b1681528285522001549051908152f35b50503461074257602060031936011261074257908160809273ffffffffffffffffffffffffffffffffffffffff9283610eff611009565b168152600160205220918254169160018101549160ff6003600284015493015416928151948552602085015283015215156060820152f35b925050346101e25760206003193601126101e257357fffffffff0000000000000000000000000000000000000000000000000000000081168091036101e257602092507f6a7499cb000000000000000000000000000000000000000000000000000000008114908115610fac575b5015158152f35b7f52550d1600000000000000000000000000000000000000000000000000000000811491508115610fdf575b5038610fa5565b7f4e2312e00000000000000000000000000000000000000000000000000000000091501438610fd8565b6004359073ffffffffffffffffffffffffffffffffffffffff8216820361070857565b6024359073ffffffffffffffffffffffffffffffffffffffff8216820361070857565b359073ffffffffffffffffffffffffffffffffffffffff8216820361070857565b6080810190811067ffffffffffffffff82111761108c57604052565b7f4e487b7100000000000000000000000000000000000000000000000000000000600052604160045260246000fd5b67ffffffffffffffff811161108c57604052565b90601f7fffffffffffffffffffffffffffffffffffffffffffffffffffffffffffffffe0910116810190811067ffffffffffffffff82111761108c57604052565b9080601f830112156107085781359067ffffffffffffffff821161108c578160051b60405193602093611145858401876110cf565b85528380860192820101928311610708578301905b828210611168575050505090565b8135815290830190830161115a565b67ffffffffffffffff811161108c57601f017fffffffffffffffffffffffffffffffffffffffffffffffffffffffffffffffe01660200190565b81601f82011215610708578035906111c882611177565b926111d660405194856110cf565b8284526020838301011161070857816000926020809301838601378301015290565b73ffffffffffffffffffffffffffffffffffffffff60005416330361121957565b60646040517f08c379a000000000000000000000000000000000000000000000000000000000815260206004820152602060248201527f4f776e61626c653a2063616c6c6572206973206e6f7420746865206f776e65726044820152fd5b9290919281518015611419578290602093849181010312610708578201519273ffffffffffffffffffffffffffffffffffffffff8416809403610708576040513360601b7fffffffffffffffffffffffffffffffffffffffff0000000000000000000000001684820190815260148101929092526112f881603484016103bf565b5190209260009381855260018452600160408620015403611395576002929161132e918552600183526001604086200154611442565b835252604081209081549283018093116113685750557ff23a6e610000000000000000000000000000000000000000000000000000000090565b807f4e487b7100000000000000000000000000000000000000000000000000000000602492526011600452fd5b608483604051907f08c379a00000000000000000000000000000000000000000000000000000000082526004820152603b60248201527f4c61626f724d61726b6574466163746f72793a3a6f6e4552433131353552656360448201527f65697665643a20496e76616c6964206c6963656e7365206b65792e00000000006064820152fd5b50505050507ff23a6e610000000000000000000000000000000000000000000000000000000090565b907fffffffffffffffffffffffffffffffffffffffff000000000000000000000000604051916020830193845260601b166040820152603481526060810181811067ffffffffffffffff82111761108c5760405251902090565b6060809173ffffffffffffffffffffffffffffffffffffffff6114be8261104f565b1684526020810135602085015260408101356040850152013591015256fea164736f6c6343000811000a",
    "linkReferences": {}
  },
  "methodIdentifiers": {
    "capacityToken()": "d8c6d850",
    "createLaborMarket(address,address,(address,address,address,string,address,uint256,address,uint256,address,(address,uint256,uint256,uint256)))": "6a7499cb",
    "execTransaction(address,bytes,uint256)": "bf8ebca7",
    "getLicenseKey(bytes32,address)": "f0d2120b",
    "getVersionKey(address)": "52d574e5",
    "onERC1155BatchReceived(address,address,uint256[],uint256[],bytes)": "bc197c81",
    "onERC1155Received(address,address,uint256,uint256,bytes)": "f23a6e61",
    "owner()": "8da5cb5b",
    "renounceOwnership()": "715018a6",
    "setCapacityImplementation(address)": "8767c687",
    "setVersion(address,address,address,uint256,uint256,bool)": "f0526bf8",
    "supportsInterface(bytes4)": "01ffc9a7",
    "transferOwnership(address)": "f2fde38b",
    "versionKeyToFunded(bytes32)": "5f52d852",
    "versions(address)": "488725a0"
  },
  "id": 54
}