{
  "abi": [
    {
      "inputs": [
        {
          "internalType": "address",
          "name": "_implementation",
          "type": "address"
        }
      ],
      "stateMutability": "nonpayable",
      "type": "constructor"
    },
    {
      "anonymous": false,
      "inputs": [
        {
          "indexed": true,
          "internalType": "address",
          "name": "organization",
          "type": "address"
        },
        {
          "indexed": true,
          "internalType": "address",
          "name": "owner",
          "type": "address"
        },
        {
          "indexed": true,
          "internalType": "address",
          "name": "implementation",
          "type": "address"
        }
      ],
      "name": "LaborMarketCreated",
      "type": "event"
    },
    {
      "anonymous": false,
      "inputs": [
        {
          "indexed": true,
          "internalType": "address",
          "name": "previousOwner",
          "type": "address"
        },
        {
          "indexed": true,
          "internalType": "address",
          "name": "newOwner",
          "type": "address"
        }
      ],
      "name": "OwnershipTransferred",
      "type": "event"
    },
    {
      "anonymous": false,
      "inputs": [
        {
          "indexed": true,
          "internalType": "address",
          "name": "implementation",
          "type": "address"
        },
        {
          "components": [
            {
              "internalType": "address",
              "name": "owner",
              "type": "address"
            },
            {
              "internalType": "bytes32",
              "name": "licenseKey",
              "type": "bytes32"
            },
            {
              "internalType": "uint256",
              "name": "amount",
              "type": "uint256"
            },
            {
              "internalType": "bool",
              "name": "locked",
              "type": "bool"
            }
          ],
          "indexed": true,
          "internalType": "struct LaborMarketVersionsInterface.Version",
          "name": "version",
          "type": "tuple"
        }
      ],
      "name": "VersionUpdated",
      "type": "event"
    },
    {
      "inputs": [
        {
          "internalType": "address",
          "name": "_implementation",
          "type": "address"
        },
        {
          "internalType": "address",
          "name": "_deployer",
          "type": "address"
        },
        {
          "components": [
            {
              "internalType": "address",
              "name": "network",
              "type": "address"
            },
            {
              "internalType": "address",
              "name": "enforcementModule",
              "type": "address"
            },
            {
              "internalType": "address",
              "name": "paymentModule",
              "type": "address"
            },
            {
              "internalType": "string",
              "name": "marketUri",
              "type": "string"
            },
            {
              "internalType": "address",
              "name": "delegateBadge",
              "type": "address"
            },
            {
              "internalType": "uint256",
              "name": "delegateTokenId",
              "type": "uint256"
            },
            {
              "internalType": "address",
              "name": "maintainerBadge",
              "type": "address"
            },
            {
              "internalType": "uint256",
              "name": "maintainerTokenId",
              "type": "uint256"
            },
            {
              "internalType": "address",
              "name": "reputationModule",
              "type": "address"
            },
            {
              "components": [
                {
                  "internalType": "address",
                  "name": "reputationEngine",
                  "type": "address"
                },
                {
                  "internalType": "uint256",
                  "name": "signalStake",
                  "type": "uint256"
                },
                {
                  "internalType": "uint256",
                  "name": "providerThreshold",
                  "type": "uint256"
                },
                {
                  "internalType": "uint256",
                  "name": "maintainerThreshold",
                  "type": "uint256"
                }
              ],
              "internalType": "struct ReputationModuleInterface.ReputationMarketConfig",
              "name": "reputationConfig",
              "type": "tuple"
            }
          ],
          "internalType": "struct LaborMarketConfigurationInterface.LaborMarketConfiguration",
          "name": "_configuration",
          "type": "tuple"
        }
      ],
      "name": "createLaborMarket",
      "outputs": [
        {
          "internalType": "address",
          "name": "laborMarketAddress",
          "type": "address"
        }
      ],
      "stateMutability": "nonpayable",
      "type": "function"
    },
    {
      "inputs": [
        {
          "internalType": "address",
          "name": "_to",
          "type": "address"
        },
        {
          "internalType": "bytes",
          "name": "_data",
          "type": "bytes"
        },
        {
          "internalType": "uint256",
          "name": "_value",
          "type": "uint256"
        }
      ],
      "name": "execTransaction",
      "outputs": [],
      "stateMutability": "payable",
      "type": "function"
    },
    {
      "inputs": [
        {
          "internalType": "bytes32",
          "name": "_versionKey",
          "type": "bytes32"
        },
        {
          "internalType": "address",
          "name": "_sender",
          "type": "address"
        }
      ],
      "name": "getLicenseKey",
      "outputs": [
        {
          "internalType": "bytes32",
          "name": "",
          "type": "bytes32"
        }
      ],
      "stateMutability": "pure",
      "type": "function"
    },
    {
      "inputs": [
        {
          "internalType": "address",
          "name": "_implementation",
          "type": "address"
        }
      ],
      "name": "getVersionKey",
      "outputs": [
        {
          "internalType": "bytes32",
          "name": "",
          "type": "bytes32"
        }
      ],
      "stateMutability": "view",
      "type": "function"
    },
    {
      "inputs": [
        {
          "internalType": "address",
          "name": "",
          "type": "address"
        },
        {
          "internalType": "address",
          "name": "",
          "type": "address"
        },
        {
          "internalType": "uint256[]",
          "name": "",
          "type": "uint256[]"
        },
        {
          "internalType": "uint256[]",
          "name": "",
          "type": "uint256[]"
        },
        {
          "internalType": "bytes",
          "name": "",
          "type": "bytes"
        }
      ],
      "name": "onERC1155BatchReceived",
      "outputs": [
        {
          "internalType": "bytes4",
          "name": "",
          "type": "bytes4"
        }
      ],
      "stateMutability": "nonpayable",
      "type": "function"
    },
    {
      "inputs": [
        {
          "internalType": "address",
          "name": "",
          "type": "address"
        },
        {
          "internalType": "address",
          "name": "_from",
          "type": "address"
        },
        {
          "internalType": "uint256",
          "name": "_id",
          "type": "uint256"
        },
        {
          "internalType": "uint256",
          "name": "_amount",
          "type": "uint256"
        },
        {
          "internalType": "bytes",
          "name": "_data",
          "type": "bytes"
        }
      ],
      "name": "onERC1155Received",
      "outputs": [
        {
          "internalType": "bytes4",
          "name": "",
          "type": "bytes4"
        }
      ],
      "stateMutability": "nonpayable",
      "type": "function"
    },
    {
      "inputs": [],
      "name": "owner",
      "outputs": [
        {
          "internalType": "address",
          "name": "",
          "type": "address"
        }
      ],
      "stateMutability": "view",
      "type": "function"
    },
    {
      "inputs": [],
      "name": "renounceOwnership",
      "outputs": [],
      "stateMutability": "nonpayable",
      "type": "function"
    },
    {
      "inputs": [
        {
          "internalType": "address",
          "name": "_implementation",
          "type": "address"
        },
        {
          "internalType": "address",
          "name": "_owner",
          "type": "address"
        },
        {
          "internalType": "address",
          "name": "_tokenAddress",
          "type": "address"
        },
        {
          "internalType": "uint256",
          "name": "_tokenId",
          "type": "uint256"
        },
        {
          "internalType": "uint256",
          "name": "_amount",
          "type": "uint256"
        },
        {
          "internalType": "bool",
          "name": "_locked",
          "type": "bool"
        }
      ],
      "name": "setVersion",
      "outputs": [],
      "stateMutability": "nonpayable",
      "type": "function"
    },
    {
      "inputs": [
        {
          "internalType": "bytes4",
          "name": "_interfaceId",
          "type": "bytes4"
        }
      ],
      "name": "supportsInterface",
      "outputs": [
        {
          "internalType": "bool",
          "name": "",
          "type": "bool"
        }
      ],
      "stateMutability": "view",
      "type": "function"
    },
    {
      "inputs": [
        {
          "internalType": "address",
          "name": "newOwner",
          "type": "address"
        }
      ],
      "name": "transferOwnership",
      "outputs": [],
      "stateMutability": "nonpayable",
      "type": "function"
    },
    {
      "inputs": [
        {
          "internalType": "bytes32",
          "name": "",
          "type": "bytes32"
        }
      ],
      "name": "versionKeyToFunded",
      "outputs": [
        {
          "internalType": "uint256",
          "name": "",
          "type": "uint256"
        }
      ],
      "stateMutability": "view",
      "type": "function"
    },
    {
      "inputs": [
        {
          "internalType": "address",
          "name": "",
          "type": "address"
        }
      ],
      "name": "versions",
      "outputs": [
        {
          "internalType": "address",
          "name": "owner",
          "type": "address"
        },
        {
          "internalType": "bytes32",
          "name": "licenseKey",
          "type": "bytes32"
        },
        {
          "internalType": "uint256",
          "name": "amount",
          "type": "uint256"
        },
        {
          "internalType": "bool",
          "name": "locked",
          "type": "bool"
        }
      ],
      "stateMutability": "view",
      "type": "function"
    }
  ],
  "bytecode": {
    "object": "0x60803461019f576001600160401b0390601f6115f538819003918201601f19168301929190848411838510176101a457816020928492604096875283398101031261019f57516001600160a01b038082169182900361019f57600080546001600160a01b0319808216339081178455865193979193919285167f8be0079c531659141344cd1fd0a4f28419497f9722a3daafe3b4186f6b6457e08980a360208101918783528760348301526034825260608201928284108285111761018b57838852825190209060e083019081118482101761018b5792608094926003927f9aa070da0af188ad2b4060cc793b7f3f9d9178d0a74ccd9f2da6fa610f41baea97958a5233835286820190815260c060a08301928c845201948b8652898c526001602052868b8d2094511690845416178355516001830155516002820155019051151560ff8019835416911617905560ff6003868820875193815416845260018101546020850152600281015488850152015416151560608201522092519380a361143a90816101bb8239f35b634e487b7160e01b89526041600452602489fd5b600080fd5b634e487b7160e01b600052604160045260246000fdfe6080604081815260048036101561001557600080fd5b600092833560e01c90816301ffc9a714610e8857508063488725a014610e1957806352d574e514610dd35780635f52d85214610dac5780636a7499cb14610988578063715018a6146109095780638da5cb5b146108d6578063bc197c8114610832578063bf8ebca7146106f7578063f0526bf814610284578063f0d2120b14610255578063f23a6e61146101d05763f2fde38b146100b257600080fd5b346101cc5760206003193601126101cc576100cb610f5a565b906100d4611149565b73ffffffffffffffffffffffffffffffffffffffff809216928315610149575050600054827fffffffffffffffffffffffff0000000000000000000000000000000000000000821617600055167f8be0079c531659141344cd1fd0a4f28419497f9722a3daafe3b4186f6b6457e0600080a380f35b90602060849251917f08c379a0000000000000000000000000000000000000000000000000000000008352820152602660248201527f4f776e61626c653a206e6577206f776e657220697320746865207a65726f206160448201527f64647265737300000000000000000000000000000000000000000000000000006064820152fd5b8280fd5b50346101cc5760a06003193601126101cc576101ea610f5a565b506101f3610f7d565b926084359067ffffffffffffffff8211610252575060209361023c7fffffffff000000000000000000000000000000000000000000000000000000009361024a93369101611102565b9060643590604435906111c8565b915191168152f35b80fd5b5091346102525781600319360112610252575061027d602092610276610f7d565b9035611393565b9051908152f35b5090346101cc5760c06003193601126101cc5761029f610f5a565b6102a7610f7d565b916044359173ffffffffffffffffffffffffffffffffffffffff93848416938481036106f257606435906084359160a435948515158096036106ee57881698898b5260209760018952878c2060ff60038a519261030384610fc1565b8d815416845260018101548d85015260028101548c850152015416151580606083015261064657518a16801590811561063c575b501561059457918a93918c938b85541633036104b9575b50508960ff60038b8b8b838c8c8c89868e839e60809e6103d58c6103a986519384928301958690917fffffffffffffffffffffffffffffffffffffffff00000000000000000000000060349360601b16825260148201520190565b037fffffffffffffffffffffffffffffffffffffffffffffffffffffffffffffffe08101835282611020565b51902093838351976103e689610fc1565b1687528a870194855282870195865260608701988952815260018a52209351167fffffffffffffffffffffffff00000000000000000000000000000000000000008454161783555160018301555160028201550190511515857fffffffffffffffffffffffffffffffffffffffffffffffffffffffffffffff0083541691161790558088209181519583541686526001830154908601526002820154908501520154161515606082015220907f9aa070da0af188ad2b4060cc793b7f3f9d9178d0a74ccd9f2da6fa610f41baea8380a380f35b919350919350158061058c575b80610584575b156104dc57918a91838b9461034e565b60a490888851917f08c379a0000000000000000000000000000000000000000000000000000000008352820152605460248201527f4c61626f724d61726b657456657273696f6e733a3a5f73657456657273696f6e60448201527f3a20596f7520646f206e6f742068617665207065726d697373696f6e20746f2060648201527f7365742061207061796d656e7420746f6b656e2e0000000000000000000000006084820152fd5b5083156104cc565b5081156104c6565b60a4828a8a51917f08c379a0000000000000000000000000000000000000000000000000000000008352820152605260248201527f4c61626f724d61726b657456657273696f6e733a3a5f73657456657273696f6e60448201527f3a20596f7520646f206e6f742068617665207065726d697373696f6e20746f2060648201527f6564697420746869732076657273696f6e2e00000000000000000000000000006084820152fd5b9050331438610337565b60a4838b8b51917f08c379a0000000000000000000000000000000000000000000000000000000008352820152604160248201527f4c61626f724d61726b657456657273696f6e733a3a5f73657456657273696f6e60448201527f3a2043616e6e6f74207570646174652061206c6f636b65642076657273696f6e60648201527f2e000000000000000000000000000000000000000000000000000000000000006084820152fd5b8a80fd5b600080fd5b509060606003193601126101cc5761070d610f5a565b90836024359267ffffffffffffffff908185116101cc57366023860112156101cc57848601359182116101cc5736602483870101116101cc578291610750611149565b8060248651970187378501948286528060449603918635905af1903d1561082a573d9161077c836110c8565b9261078983519485611020565b83523d86602085013e5b1561079c578480f35b929192519384927f08c379a000000000000000000000000000000000000000000000000000000000845260208091850152825192836024860152825b84811061081457505050828201840152601f017fffffffffffffffffffffffffffffffffffffffffffffffffffffffffffffffe0168101030190fd5b81810183015188820188015287955082016107d8565b606091610793565b5091346102525760a06003193601126102525761084d610f5a565b50610856610f7d565b5067ffffffffffffffff906044358281116108d2576108789036908601611061565b506064358281116108d2576108909036908601611061565b5060843591821161025257506020926108ab91369101611102565b50517fbc197c81000000000000000000000000000000000000000000000000000000008152f35b5080fd5b5050346108d257816003193601126108d25773ffffffffffffffffffffffffffffffffffffffff60209254169051908152f35b8334610252578060031936011261025257610922611149565b600073ffffffffffffffffffffffffffffffffffffffff81547fffffffffffffffffffffffff000000000000000000000000000000000000000081168355167f8be0079c531659141344cd1fd0a4f28419497f9722a3daafe3b4186f6b6457e08280a380f35b5090346101cc5760031991606083360112610da8576109a5610f5a565b936109ae610f7d565b936044359367ffffffffffffffff808611610da857853603946101a08094870112610da45773ffffffffffffffffffffffffffffffffffffffff93848a169687875260209a60018c52858820610a3a8d8851610a0981610fc1565b8a845416815260018401548092820152606060ff60036002870154968d850197885201541615159101523390611393565b905190895260028d528689208054918203918211610d7857916037918993558751907f3d602d80600a3d3981f3363d3d373d3d3d363d73000000000000000000000000825260601b60148201527f5af43d82803e903d91602b57fd5bf30000000000000000000000000000000000602882015289f016988915610d1c57610104808201918235948986168096036106ee576101249485830196803b15610cfb578c8f60a48b838f95610b1d8e975197889687957f2c3a503900000000000000000000000000000000000000000000000000000000875286015260248501906113ed565b5af18015610d1257610cff575b508d3b15610cf757908f98979695949392918a51997f545a8b1b000000000000000000000000000000000000000000000000000000008b52888b01528b610b72848a01610fa0565b1660248b01528b610b8560248501610fa0565b1660448b01528b610b9860448501610fa0565b1660648b01527fffffffffffffffffffffffffffffffffffffffffffffffffffffffffffffffdd60648401359101811215610cfb5782016024810198970135968711610cf7578636038813610cf7578896938c9896938896938d936084890152866101c4890152866101e4998a8a01378a89888a0101528360848201610c1d90610fa0565b1660a489015260a481013560c48901528360c48201610c3b90610fa0565b1660e489015260e4013590870152610c5290610fa0565b16908401526101448301610c65916113ed565b601f017fffffffffffffffffffffffffffffffffffffffffffffffffffffffffffffffe0168101030181838a5af18015610ced57869392918591610cd2575b5050519516917f3c036db17d0d0b5dd4eb57da1cc3bb081ed8e75504d2b5250d42b318071c26c79080a48152f35b610cdf919293945061100c565b6101cc579084918338610ca4565b82513d86823e3d90fd5b8b80fd5b8c80fd5b610d0b909c919c61100c565b9a38610b2a565b8b513d8f823e3d90fd5b6064848d8851917f08c379a0000000000000000000000000000000000000000000000000000000008352820152601660248201527f455243313136373a20637265617465206661696c6564000000000000000000006044820152fd5b60248a6011887f4e487b7100000000000000000000000000000000000000000000000000000000835252fd5b8480fd5b8380fd5b50346101cc5760206003193601126101cc5760209282913581526002845220549051908152f35b5050346108d25760206003193601126108d25760018160209373ffffffffffffffffffffffffffffffffffffffff610e09610f5a565b1681528285522001549051908152f35b5050346108d25760206003193601126108d257908160809273ffffffffffffffffffffffffffffffffffffffff9283610e50610f5a565b168152600160205220918254169160018101549160ff6003600284015493015416928151948552602085015283015215156060820152f35b925050346101cc5760206003193601126101cc57357fffffffff0000000000000000000000000000000000000000000000000000000081168091036101cc57602092507f6a7499cb000000000000000000000000000000000000000000000000000000008114908115610efd575b5015158152f35b7f52550d1600000000000000000000000000000000000000000000000000000000811491508115610f30575b5038610ef6565b7f4e2312e00000000000000000000000000000000000000000000000000000000091501438610f29565b6004359073ffffffffffffffffffffffffffffffffffffffff821682036106f257565b6024359073ffffffffffffffffffffffffffffffffffffffff821682036106f257565b359073ffffffffffffffffffffffffffffffffffffffff821682036106f257565b6080810190811067ffffffffffffffff821117610fdd57604052565b7f4e487b7100000000000000000000000000000000000000000000000000000000600052604160045260246000fd5b67ffffffffffffffff8111610fdd57604052565b90601f7fffffffffffffffffffffffffffffffffffffffffffffffffffffffffffffffe0910116810190811067ffffffffffffffff821117610fdd57604052565b9080601f830112156106f25781359067ffffffffffffffff8211610fdd578160051b6040519360209361109685840187611020565b855283808601928201019283116106f2578301905b8282106110b9575050505090565b813581529083019083016110ab565b67ffffffffffffffff8111610fdd57601f017fffffffffffffffffffffffffffffffffffffffffffffffffffffffffffffffe01660200190565b81601f820112156106f257803590611119826110c8565b926111276040519485611020565b828452602083830101116106f257816000926020809301838601378301015290565b73ffffffffffffffffffffffffffffffffffffffff60005416330361116a57565b60646040517f08c379a000000000000000000000000000000000000000000000000000000000815260206004820152602060248201527f4f776e61626c653a2063616c6c6572206973206e6f7420746865206f776e65726044820152fd5b929091928151801561136a5782906020938491810103126106f2578201519273ffffffffffffffffffffffffffffffffffffffff84168094036106f2576040513360601b7fffffffffffffffffffffffffffffffffffffffff00000000000000000000000016848201908152601481019290925261124981603484016103a9565b51902092600093818552600184526001604086200154036112e6576002929161127f918552600183526001604086200154611393565b835252604081209081549283018093116112b95750557ff23a6e610000000000000000000000000000000000000000000000000000000090565b807f4e487b7100000000000000000000000000000000000000000000000000000000602492526011600452fd5b608483604051907f08c379a00000000000000000000000000000000000000000000000000000000082526004820152603b60248201527f4c61626f724d61726b6574466163746f72793a3a6f6e4552433131353552656360448201527f65697665643a20496e76616c6964206c6963656e7365206b65792e00000000006064820152fd5b50505050507ff23a6e610000000000000000000000000000000000000000000000000000000090565b907fffffffffffffffffffffffffffffffffffffffff000000000000000000000000604051916020830193845260601b166040820152603481526060810181811067ffffffffffffffff821117610fdd5760405251902090565b6060809173ffffffffffffffffffffffffffffffffffffffff61140f82610fa0565b1684526020810135602085015260408101356040850152013591015256fea164736f6c6343000811000a",
    "linkReferences": {}
  },
  "methodIdentifiers": {
    "createLaborMarket(address,address,(address,address,address,string,address,uint256,address,uint256,address,(address,uint256,uint256,uint256)))": "6a7499cb",
    "execTransaction(address,bytes,uint256)": "bf8ebca7",
    "getLicenseKey(bytes32,address)": "f0d2120b",
    "getVersionKey(address)": "52d574e5",
    "onERC1155BatchReceived(address,address,uint256[],uint256[],bytes)": "bc197c81",
    "onERC1155Received(address,address,uint256,uint256,bytes)": "f23a6e61",
    "owner()": "8da5cb5b",
    "renounceOwnership()": "715018a6",
    "setVersion(address,address,address,uint256,uint256,bool)": "f0526bf8",
    "supportsInterface(bytes4)": "01ffc9a7",
    "transferOwnership(address)": "f2fde38b",
    "versionKeyToFunded(bytes32)": "5f52d852",
    "versions(address)": "488725a0"
  },
  "id": 53
}