{
  "abi": [
    {
      "inputs": [
        {
          "internalType": "address",
          "name": "_implementation",
          "type": "address"
        }
      ],
      "stateMutability": "nonpayable",
      "type": "constructor"
    },
    {
      "anonymous": false,
      "inputs": [
        {
          "indexed": true,
          "internalType": "address",
          "name": "organization",
          "type": "address"
        },
        {
          "indexed": true,
          "internalType": "address",
          "name": "owner",
          "type": "address"
        },
        {
          "indexed": true,
          "internalType": "address",
          "name": "implementation",
          "type": "address"
        }
      ],
      "name": "LaborMarketCreated",
      "type": "event"
    },
    {
      "anonymous": false,
      "inputs": [
        {
          "indexed": true,
          "internalType": "address",
          "name": "previousOwner",
          "type": "address"
        },
        {
          "indexed": true,
          "internalType": "address",
          "name": "newOwner",
          "type": "address"
        }
      ],
      "name": "OwnershipTransferred",
      "type": "event"
    },
    {
      "anonymous": false,
      "inputs": [
        {
          "indexed": true,
          "internalType": "address",
          "name": "implementation",
          "type": "address"
        },
        {
          "components": [
            {
              "internalType": "address",
              "name": "owner",
              "type": "address"
            },
            {
              "internalType": "bytes32",
              "name": "licenseKey",
              "type": "bytes32"
            },
            {
              "internalType": "uint256",
              "name": "amount",
              "type": "uint256"
            },
            {
              "internalType": "bool",
              "name": "locked",
              "type": "bool"
            }
          ],
          "indexed": true,
          "internalType": "struct LaborMarketVersionsInterface.Version",
          "name": "version",
          "type": "tuple"
        }
      ],
      "name": "VersionUpdated",
      "type": "event"
    },
    {
      "inputs": [
        {
          "internalType": "address",
          "name": "_implementation",
          "type": "address"
        },
        {
          "internalType": "address",
          "name": "_deployer",
          "type": "address"
        },
        {
          "components": [
            {
              "internalType": "address",
              "name": "network",
              "type": "address"
            },
            {
              "internalType": "address",
              "name": "enforcementModule",
              "type": "address"
            },
            {
              "internalType": "address",
              "name": "paymentModule",
              "type": "address"
            },
            {
              "internalType": "string",
              "name": "marketUri",
              "type": "string"
            },
            {
              "internalType": "address",
              "name": "delegateBadge",
              "type": "address"
            },
            {
              "internalType": "uint256",
              "name": "delegateTokenId",
              "type": "uint256"
            },
            {
              "internalType": "address",
              "name": "maintainerBadge",
              "type": "address"
            },
            {
              "internalType": "uint256",
              "name": "maintainerTokenId",
              "type": "uint256"
            },
            {
              "internalType": "address",
              "name": "reputationModule",
              "type": "address"
            },
            {
              "components": [
                {
                  "internalType": "address",
                  "name": "reputationEngine",
                  "type": "address"
                },
                {
                  "internalType": "uint256",
                  "name": "signalStake",
                  "type": "uint256"
                },
                {
                  "internalType": "uint256",
                  "name": "providerThreshold",
                  "type": "uint256"
                },
                {
                  "internalType": "uint256",
                  "name": "maintainerThreshold",
                  "type": "uint256"
                }
              ],
              "internalType": "struct ReputationModuleInterface.ReputationMarketConfig",
              "name": "reputationConfig",
              "type": "tuple"
            }
          ],
          "internalType": "struct LaborMarketConfigurationInterface.LaborMarketConfiguration",
          "name": "_configuration",
          "type": "tuple"
        }
      ],
      "name": "createLaborMarket",
      "outputs": [
        {
          "internalType": "address",
          "name": "laborMarketAddress",
          "type": "address"
        }
      ],
      "stateMutability": "nonpayable",
      "type": "function"
    },
    {
      "inputs": [
        {
          "internalType": "address",
          "name": "_to",
          "type": "address"
        },
        {
          "internalType": "bytes",
          "name": "_data",
          "type": "bytes"
        },
        {
          "internalType": "uint256",
          "name": "_value",
          "type": "uint256"
        }
      ],
      "name": "execTransaction",
      "outputs": [],
      "stateMutability": "payable",
      "type": "function"
    },
    {
      "inputs": [
        {
          "internalType": "bytes32",
          "name": "_versionKey",
          "type": "bytes32"
        },
        {
          "internalType": "address",
          "name": "_sender",
          "type": "address"
        }
      ],
      "name": "getLicenseKey",
      "outputs": [
        {
          "internalType": "bytes32",
          "name": "",
          "type": "bytes32"
        }
      ],
      "stateMutability": "pure",
      "type": "function"
    },
    {
      "inputs": [
        {
          "internalType": "address",
          "name": "_implementation",
          "type": "address"
        }
      ],
      "name": "getVersionKey",
      "outputs": [
        {
          "internalType": "bytes32",
          "name": "",
          "type": "bytes32"
        }
      ],
      "stateMutability": "view",
      "type": "function"
    },
    {
      "inputs": [
        {
          "internalType": "address",
          "name": "",
          "type": "address"
        },
        {
          "internalType": "address",
          "name": "",
          "type": "address"
        },
        {
          "internalType": "uint256[]",
          "name": "",
          "type": "uint256[]"
        },
        {
          "internalType": "uint256[]",
          "name": "",
          "type": "uint256[]"
        },
        {
          "internalType": "bytes",
          "name": "",
          "type": "bytes"
        }
      ],
      "name": "onERC1155BatchReceived",
      "outputs": [
        {
          "internalType": "bytes4",
          "name": "",
          "type": "bytes4"
        }
      ],
      "stateMutability": "nonpayable",
      "type": "function"
    },
    {
      "inputs": [
        {
          "internalType": "address",
          "name": "",
          "type": "address"
        },
        {
          "internalType": "address",
          "name": "_from",
          "type": "address"
        },
        {
          "internalType": "uint256",
          "name": "_id",
          "type": "uint256"
        },
        {
          "internalType": "uint256",
          "name": "_amount",
          "type": "uint256"
        },
        {
          "internalType": "bytes",
          "name": "_data",
          "type": "bytes"
        }
      ],
      "name": "onERC1155Received",
      "outputs": [
        {
          "internalType": "bytes4",
          "name": "",
          "type": "bytes4"
        }
      ],
      "stateMutability": "nonpayable",
      "type": "function"
    },
    {
      "inputs": [],
      "name": "owner",
      "outputs": [
        {
          "internalType": "address",
          "name": "",
          "type": "address"
        }
      ],
      "stateMutability": "view",
      "type": "function"
    },
    {
      "inputs": [],
      "name": "renounceOwnership",
      "outputs": [],
      "stateMutability": "nonpayable",
      "type": "function"
    },
    {
      "inputs": [
        {
          "internalType": "address",
          "name": "_implementation",
          "type": "address"
        },
        {
          "internalType": "address",
          "name": "_owner",
          "type": "address"
        },
        {
          "internalType": "address",
          "name": "_tokenAddress",
          "type": "address"
        },
        {
          "internalType": "uint256",
          "name": "_tokenId",
          "type": "uint256"
        },
        {
          "internalType": "uint256",
          "name": "_amount",
          "type": "uint256"
        },
        {
          "internalType": "bool",
          "name": "_locked",
          "type": "bool"
        }
      ],
      "name": "setVersion",
      "outputs": [],
      "stateMutability": "nonpayable",
      "type": "function"
    },
    {
      "inputs": [
        {
          "internalType": "bytes4",
          "name": "_interfaceId",
          "type": "bytes4"
        }
      ],
      "name": "supportsInterface",
      "outputs": [
        {
          "internalType": "bool",
          "name": "",
          "type": "bool"
        }
      ],
      "stateMutability": "view",
      "type": "function"
    },
    {
      "inputs": [
        {
          "internalType": "address",
          "name": "newOwner",
          "type": "address"
        }
      ],
      "name": "transferOwnership",
      "outputs": [],
      "stateMutability": "nonpayable",
      "type": "function"
    },
    {
      "inputs": [
        {
          "internalType": "bytes32",
          "name": "",
          "type": "bytes32"
        }
      ],
      "name": "versionKeyToFunded",
      "outputs": [
        {
          "internalType": "uint256",
          "name": "",
          "type": "uint256"
        }
      ],
      "stateMutability": "view",
      "type": "function"
    },
    {
      "inputs": [
        {
          "internalType": "address",
          "name": "",
          "type": "address"
        }
      ],
      "name": "versions",
      "outputs": [
        {
          "internalType": "address",
          "name": "owner",
          "type": "address"
        },
        {
          "internalType": "bytes32",
          "name": "licenseKey",
          "type": "bytes32"
        },
        {
          "internalType": "uint256",
          "name": "amount",
          "type": "uint256"
        },
        {
          "internalType": "bool",
          "name": "locked",
          "type": "bool"
        }
      ],
      "stateMutability": "view",
      "type": "function"
    }
  ],
  "bytecode": {
    "object": "0x608060405234801561001057600080fd5b506040516115cc3803806115cc83398101604081905261002f9161019b565b806100393361007d565b61007681336040516000602082018190526034820152605401604051602081830303815290604052805190602001206000806100cd60201b60201c565b50506101cb565b600080546001600160a01b038381166001600160a01b0319831681178455604051919092169283917f8be0079c531659141344cd1fd0a4f28419497f9722a3daafe3b4186f6b6457e09190a35050565b60408051608080820183526001600160a01b038781168352602080840188815284860188815287151560608088019182528d8616600081815260018088528b82209a518b546001600160a01b03191699169889178b559551958a01869055935160028a0181905592516003909901805460ff1916991515998a1790558951968752948601939093528488015260ff909516151590830152935190819003909101812092917f9aa070da0af188ad2b4060cc793b7f3f9d9178d0a74ccd9f2da6fa610f41baea91a35050505050565b6000602082840312156101ad57600080fd5b81516001600160a01b03811681146101c457600080fd5b9392505050565b6113f2806101da6000396000f3fe6080604052600436106100c25760003560e01c80638da5cb5b1161007f578063f0526bf811610059578063f0526bf8146102a8578063f0d2120b146102c8578063f23a6e61146102e8578063f2fde38b1461030857600080fd5b80638da5cb5b1461023e578063bc197c811461025c578063bf8ebca71461029557600080fd5b806301ffc9a7146100c7578063488725a0146100fc57806352d574e51461017a5780635f52d852146101c25780636a7499cb146101ef578063715018a614610227575b600080fd5b3480156100d357600080fd5b506100e76100e2366004610ce9565b610328565b60405190151581526020015b60405180910390f35b34801561010857600080fd5b5061014e610117366004610d3a565b600160208190526000918252604090912080549181015460028201546003909201546001600160a01b039093169290919060ff1684565b604080516001600160a01b039095168552602085019390935291830152151560608201526080016100f3565b34801561018657600080fd5b506101b4610195366004610d3a565b6001600160a01b03166000908152600160208190526040909120015490565b6040519081526020016100f3565b3480156101ce57600080fd5b506101b46101dd366004610d57565b60026020526000908152604090205481565b3480156101fb57600080fd5b5061020f61020a366004610d70565b610353565b6040516001600160a01b0390911681526020016100f3565b34801561023357600080fd5b5061023c6103cd565b005b34801561024a57600080fd5b506000546001600160a01b031661020f565b34801561026857600080fd5b5061027c610277366004610f11565b6103e1565b6040516001600160e01b031990911681526020016100f3565b61023c6102a3366004610fbf565b6103f3565b3480156102b457600080fd5b5061023c6102c336600461104a565b610492565b3480156102d457600080fd5b506101b46102e33660046110bf565b610710565b3480156102f457600080fd5b5061027c6103033660046110ef565b610759565b34801561031457600080fd5b5061023c610323366004610d3a565b6108c0565b60006001600160e01b03198216636a7499cb60e01b148061034d575061034d82610939565b92915050565b6001600160a01b0383811660009081526001602081815260408084208151608081018352815490961686529283015491850182905260028301549085015260039091015460ff161515606084015290919082906103b09033610710565b90506103c386828460400151888861096f565b9695505050505050565b6103d5610ad4565b6103df6000610b2e565b565b63bc197c8160e01b5b95945050505050565b6103fb610ad4565b600080856001600160a01b0316838686604051610419929190611158565b60006040518083038185875af1925050503d8060008114610456576040519150601f19603f3d011682016040523d82523d6000602084013e61045b565b606091505b50915091508181906104895760405162461bcd60e51b81526004016104809190611168565b60405180910390fd5b50505050505050565b6001600160a01b0380871660009081526001602081815260409283902083516080810185528154909516855291820154908401526002810154918301919091526003015460ff16158015606083015261055d5760405162461bcd60e51b815260206004820152604160248201527f4c61626f724d61726b657456657273696f6e733a3a5f73657456657273696f6e60448201527f3a2043616e6e6f74207570646174652061206c6f636b65642076657273696f6e6064820152601760f91b608482015260a401610480565b80516001600160a01b0316158061057d575080516001600160a01b031633145b61060a5760405162461bcd60e51b815260206004820152605260248201527f4c61626f724d61726b657456657273696f6e733a3a5f73657456657273696f6e60448201527f3a20596f7520646f206e6f742068617665207065726d697373696f6e20746f2060648201527132b234ba103a3434b9903b32b939b4b7b71760711b608482015260a401610480565b6000546001600160a01b031633146106ca576001600160a01b038516158015610631575083155b801561063b575082155b6106ca5760405162461bcd60e51b815260206004820152605460248201527f4c61626f724d61726b657456657273696f6e733a3a5f73657456657273696f6e60448201527f3a20596f7520646f206e6f742068617665207065726d697373696f6e20746f2060648201527339b2ba1030903830bcb6b2b73a103a37b5b2b71760611b608482015260a401610480565b6040516001600160601b0319606087901b166020820152603481018590526104899088908890605401604051602081830303815290604052805190602001208686610b7e565b6000828260405160200161073b92919091825260601b6001600160601b031916602082015260340190565b60405160208183030381529060405280519060200120905092915050565b60008151600003610772575063f23a6e6160e01b6103ea565b60008280602001905181019061078891906111b6565b6001600160a01b0381166000908152600160208190526040909120015490915033866040516020016107d392919060609290921b6001600160601b0319168252601482015260340190565b604051602081830303815290604052805190602001201461085c5760405162461bcd60e51b815260206004820152603b60248201527f4c61626f724d61726b6574466163746f72793a3a6f6e4552433131353552656360448201527f65697665643a20496e76616c6964206c6963656e7365206b65792e00000000006064820152608401610480565b6001600160a01b0381166000908152600160208190526040822001546108829088610710565b9050846002600083815260200190815260200160002060008282546108a791906111e9565b9091555063f23a6e6160e01b9998505050505050505050565b6108c8610ad4565b6001600160a01b03811661092d5760405162461bcd60e51b815260206004820152602660248201527f4f776e61626c653a206e6577206f776e657220697320746865207a65726f206160448201526564647265737360d01b6064820152608401610480565b61093681610b2e565b50565b60006001600160e01b0319821663292a868b60e11b148061034d57506001600160e01b03198216630271189760e51b1492915050565b60008481526002602052604081208054859190839061098f9084906111fc565b90915550600090506109a96001600160a01b038816610c4c565b9050806109be61012085016101008601610d3a565b6001600160a01b0316632c3a50398386610120016040518363ffffffff1660e01b81526004016109ef929190611244565b600060405180830381600087803b158015610a0957600080fd5b505af1158015610a1d573d6000803e3d6000fd5b505060405163545a8b1b60e01b81526001600160a01b038416925063545a8b1b9150610a4d9087906004016112d7565b600060405180830381600087803b158015610a6757600080fd5b505af1158015610a7b573d6000803e3d6000fd5b50505050876001600160a01b0316856001600160a01b0316836001600160a01b03167f3c036db17d0d0b5dd4eb57da1cc3bb081ed8e75504d2b5250d42b318071c26c760405160405180910390a4509695505050505050565b6000546001600160a01b031633146103df5760405162461bcd60e51b815260206004820181905260248201527f4f776e61626c653a2063616c6c6572206973206e6f7420746865206f776e65726044820152606401610480565b600080546001600160a01b038381166001600160a01b0319831681178455604051919092169283917f8be0079c531659141344cd1fd0a4f28419497f9722a3daafe3b4186f6b6457e09190a35050565b60408051608080820183526001600160a01b038781168352602080840188815284860188815287151560608088019182528d8616600081815260018088528b82209a518b546001600160a01b03191699169889178b559551958a01869055935160028a0181905592516003909901805460ff1916991515998a1790558951968752948601939093528488015260ff909516151590830152935190819003909101812092917f9aa070da0af188ad2b4060cc793b7f3f9d9178d0a74ccd9f2da6fa610f41baea91a35050505050565b6000604051733d602d80600a3d3981f3363d3d373d3d3d363d7360601b81528260601b60148201526e5af43d82803e903d91602b57fd5bf360881b60288201526037816000f09150506001600160a01b038116610ce45760405162461bcd60e51b8152602060048201526016602482015275115490cc4c4d8dce8818dc99585d194819985a5b195960521b6044820152606401610480565b919050565b600060208284031215610cfb57600080fd5b81356001600160e01b031981168114610d1357600080fd5b9392505050565b6001600160a01b038116811461093657600080fd5b8035610ce481610d1a565b600060208284031215610d4c57600080fd5b8135610d1381610d1a565b600060208284031215610d6957600080fd5b5035919050565b600080600060608486031215610d8557600080fd5b8335610d9081610d1a565b92506020840135610da081610d1a565b9150604084013567ffffffffffffffff811115610dbc57600080fd5b84016101a08187031215610dcf57600080fd5b809150509250925092565b634e487b7160e01b600052604160045260246000fd5b604051601f8201601f1916810167ffffffffffffffff81118282101715610e1957610e19610dda565b604052919050565b600082601f830112610e3257600080fd5b8135602067ffffffffffffffff821115610e4e57610e4e610dda565b8160051b610e5d828201610df0565b9283528481018201928281019087851115610e7757600080fd5b83870192505b84831015610e9657823582529183019190830190610e7d565b979650505050505050565b600082601f830112610eb257600080fd5b813567ffffffffffffffff811115610ecc57610ecc610dda565b610edf601f8201601f1916602001610df0565b818152846020838601011115610ef457600080fd5b816020850160208301376000918101602001919091529392505050565b600080600080600060a08688031215610f2957600080fd5b8535610f3481610d1a565b94506020860135610f4481610d1a565b9350604086013567ffffffffffffffff80821115610f6157600080fd5b610f6d89838a01610e21565b94506060880135915080821115610f8357600080fd5b610f8f89838a01610e21565b93506080880135915080821115610fa557600080fd5b50610fb288828901610ea1565b9150509295509295909350565b60008060008060608587031215610fd557600080fd5b8435610fe081610d1a565b9350602085013567ffffffffffffffff80821115610ffd57600080fd5b818701915087601f83011261101157600080fd5b81358181111561102057600080fd5b88602082850101111561103257600080fd5b95986020929092019750949560400135945092505050565b60008060008060008060c0878903121561106357600080fd5b863561106e81610d1a565b9550602087013561107e81610d1a565b9450604087013561108e81610d1a565b9350606087013592506080870135915060a087013580151581146110b157600080fd5b809150509295509295509295565b600080604083850312156110d257600080fd5b8235915060208301356110e481610d1a565b809150509250929050565b600080600080600060a0868803121561110757600080fd5b853561111281610d1a565b9450602086013561112281610d1a565b93506040860135925060608601359150608086013567ffffffffffffffff81111561114c57600080fd5b610fb288828901610ea1565b8183823760009101908152919050565b600060208083528351808285015260005b8181101561119557858101830151858201604001528201611179565b506000604082860101526040601f19601f8301168501019250505092915050565b6000602082840312156111c857600080fd5b8151610d1381610d1a565b634e487b7160e01b600052601160045260246000fd5b8082018082111561034d5761034d6111d3565b8181038181111561034d5761034d6111d3565b803561121a81610d1a565b6001600160a01b031682526020818101359083015260408082013590830152606090810135910152565b6001600160a01b038316815260a08101610d13602083018461120f565b6000808335601e1984360301811261127857600080fd5b830160208101925035905067ffffffffffffffff81111561129857600080fd5b8036038213156112a757600080fd5b9250929050565b81835281816020850137506000828201602090810191909152601f909101601f19169091010190565b602081526112f8602082016112eb84610d2f565b6001600160a01b03169052565b600061130660208401610d2f565b6001600160a01b03811660408401525061132260408401610d2f565b6001600160a01b03811660608401525061133f6060840184611261565b6101a060808501526113566101c0850182846112ae565b91505061136560808501610d2f565b6001600160a01b03811660a08501525060a084013560c084015261138b60c08501610d2f565b6001600160a01b03811660e08501525061010060e0850135818501526113b2818601610d2f565b90506101206113cb818601836001600160a01b03169052565b6113db610140860182880161120f565b509094935050505056fea164736f6c6343000811000a",
    "linkReferences": {}
  },
  "methodIdentifiers": {
    "createLaborMarket(address,address,(address,address,address,string,address,uint256,address,uint256,address,(address,uint256,uint256,uint256)))": "6a7499cb",
    "execTransaction(address,bytes,uint256)": "bf8ebca7",
    "getLicenseKey(bytes32,address)": "f0d2120b",
    "getVersionKey(address)": "52d574e5",
    "onERC1155BatchReceived(address,address,uint256[],uint256[],bytes)": "bc197c81",
    "onERC1155Received(address,address,uint256,uint256,bytes)": "f23a6e61",
    "owner()": "8da5cb5b",
    "renounceOwnership()": "715018a6",
    "setVersion(address,address,address,uint256,uint256,bool)": "f0526bf8",
    "supportsInterface(bytes4)": "01ffc9a7",
    "transferOwnership(address)": "f2fde38b",
    "versionKeyToFunded(bytes32)": "5f52d852",
    "versions(address)": "488725a0"
  },
  "id": 66
}