{
  "abi": [
    {
      "inputs": [
        {
          "internalType": "uint256",
          "name": "x",
          "type": "uint256"
        }
      ],
      "name": "curvePoint",
      "outputs": [
        {
          "internalType": "uint256",
          "name": "",
          "type": "uint256"
        }
      ],
      "stateMutability": "pure",
      "type": "function"
    }
  ],
  "bytecode": {
    "object": "0x608060405234801561001057600080fd5b5061019e806100206000396000f3fe608060405234801561001057600080fd5b506004361061002b5760003560e01c8063fb02be8614610030575b600080fd5b61004361003e366004610068565b610055565b60405190815260200160405180910390f35b600061006260028361017b565b92915050565b60006020828403121561007a57600080fd5b5035919050565b634e487b7160e01b600052601160045260246000fd5b600181815b808511156100d25781600019048211156100b8576100b8610081565b808516156100c557918102915b93841c939080029061009c565b509250929050565b6000826100e957506001610062565b816100f657506000610062565b816001811461010c576002811461011657610132565b6001915050610062565b60ff84111561012757610127610081565b50506001821b610062565b5060208310610133831016604e8410600b8410161715610155575081810a610062565b61015f8383610097565b806000190482111561017357610173610081565b029392505050565b600061018a60ff8416836100da565b939250505056fea164736f6c6343000811000a",
    "linkReferences": {}
  },
  "methodIdentifiers": {
    "curvePoint(uint256)": "fb02be86"
  },
  "id": 59
}