{
  "abi": [
    {
      "inputs": [
        {
          "internalType": "uint256",
          "name": "x",
          "type": "uint256"
        }
      ],
      "name": "curvePoint",
      "outputs": [
        {
          "internalType": "uint256",
          "name": "",
          "type": "uint256"
        }
      ],
      "stateMutability": "pure",
      "type": "function"
    }
  ],
  "bytecode": {
    "object": "0x60808060405234610016576101ad908161001c8239f35b600080fdfe6080604052600436101561001257600080fd5b60003560e01c63fb02be861461002757600080fd5b3461006b5760207ffffffffffffffffffffffffffffffffffffffffffffffffffffffffffffffffc36011261006b576020610063600435610070565b604051908152f35b600080fd5b600090801561019c5780806001146101945760021461018c576001918261013383101683600b8410161761017c5760028392935b808211610108575050827fffffffffffffffffffffffffffffffffffffffffffffffffffffffffffffffff0482116100db57500290565b807f4e487b7100000000000000000000000000000000000000000000000000000000602492526011600452fd5b9093807fffffffffffffffffffffffffffffffffffffffffffffffffffffffffffffffff04811161014f57818516610146575b800293811c906100a4565b8093029261013b565b6024837f4e487b710000000000000000000000000000000000000000000000000000000081526011600452fd5b929150600283910a926100db5750565b509060049150565b505050600190565b509056fea164736f6c6343000811000a",
    "linkReferences": {}
  },
  "methodIdentifiers": {
    "curvePoint(uint256)": "fb02be86"
  },
  "id": 46
}