{
  "abi": [
    {
      "anonymous": false,
      "inputs": [
        {
          "indexed": true,
          "internalType": "address",
          "name": "previousOwner",
          "type": "address"
        },
        {
          "indexed": true,
          "internalType": "address",
          "name": "newOwner",
          "type": "address"
        }
      ],
      "name": "OwnershipTransferred",
      "type": "event"
    },
    {
      "inputs": [],
      "name": "owner",
      "outputs": [
        {
          "internalType": "address",
          "name": "",
          "type": "address"
        }
      ],
      "stateMutability": "view",
      "type": "function"
    },
    {
      "inputs": [],
      "name": "renounceOwnership",
      "outputs": [],
      "stateMutability": "nonpayable",
      "type": "function"
    },
    {
      "inputs": [
        {
          "internalType": "uint256",
          "name": "",
          "type": "uint256"
        }
      ],
      "name": "requestToMerkleRoot",
      "outputs": [
        {
          "internalType": "bytes32",
          "name": "",
          "type": "bytes32"
        }
      ],
      "stateMutability": "view",
      "type": "function"
    },
    {
      "inputs": [
        {
          "internalType": "address",
          "name": "",
          "type": "address"
        },
        {
          "internalType": "uint256",
          "name": "",
          "type": "uint256"
        },
        {
          "internalType": "uint256",
          "name": "",
          "type": "uint256"
        }
      ],
      "name": "requestToSubmissionToIndex",
      "outputs": [
        {
          "internalType": "uint256",
          "name": "",
          "type": "uint256"
        }
      ],
      "stateMutability": "view",
      "type": "function"
    },
    {
      "inputs": [
        {
          "internalType": "uint256",
          "name": "submissionId",
          "type": "uint256"
        },
        {
          "internalType": "uint256",
          "name": "index",
          "type": "uint256"
        }
      ],
      "name": "review",
      "outputs": [
        {
          "internalType": "uint256",
          "name": "",
          "type": "uint256"
        }
      ],
      "stateMutability": "nonpayable",
      "type": "function"
    },
    {
      "inputs": [
        {
          "internalType": "uint256",
          "name": "requestId",
          "type": "uint256"
        },
        {
          "internalType": "bytes32",
          "name": "merkleRoot",
          "type": "bytes32"
        }
      ],
      "name": "setRoot",
      "outputs": [],
      "stateMutability": "nonpayable",
      "type": "function"
    },
    {
      "inputs": [
        {
          "internalType": "address",
          "name": "newOwner",
          "type": "address"
        }
      ],
      "name": "transferOwnership",
      "outputs": [],
      "stateMutability": "nonpayable",
      "type": "function"
    },
    {
      "inputs": [
        {
          "internalType": "uint256",
          "name": "submissionId",
          "type": "uint256"
        },
        {
          "internalType": "bytes",
          "name": "data",
          "type": "bytes"
        }
      ],
      "name": "verifyWithData",
      "outputs": [
        {
          "internalType": "uint256",
          "name": "",
          "type": "uint256"
        }
      ],
      "stateMutability": "view",
      "type": "function"
    }
  ],
  "bytecode": {
    "object": "0x608060405234801561001057600080fd5b5061001a3361001f565b61006f565b600080546001600160a01b038381166001600160a01b0319831681178455604051919092169283917f8be0079c531659141344cd1fd0a4f28419497f9722a3daafe3b4186f6b6457e09190a35050565b6109978061007e6000396000f3fe608060405234801561001057600080fd5b50600436106100885760003560e01c80638da5cb5b1161005b5780638da5cb5b1461010157806398b59b3b1461011c578063dc4966111461013c578063f2fde38b1461014f57600080fd5b8063048f06f21461008d57806316e63b7a146100a257806346b9533a146100e6578063715018a6146100f9575b600080fd5b6100a061009b3660046105b1565b610162565b005b6100d36100b03660046105e8565b600260209081526000938452604080852082529284528284209052825290205481565b6040519081526020015b60405180910390f35b6100d36100f436600461061d565b61017c565b6100a061033a565b6000546040516001600160a01b0390911681526020016100dd565b6100d361012a366004610699565b60016020526000908152604090205481565b6100d361014a3660046105b1565b61034e565b6100a061015d3660046106b2565b610388565b61016a610401565b60009182526001602052604090912055565b60008061018a6020846106cf565b905060008167ffffffffffffffff8111156101a7576101a76106f1565b6040519080825280602002602001820160405280156101d0578160200160208202803683370190505b50905060006101de8761045b565b90506040513680606483376000602060005b6064840360208402101561021b575060208281028501518783018190526001909301929101906101f0565b5050505050600087336040516020016102479291909182526001600160a01b0316602082015260400190565b60408051601f1981840301815282825280516020918201209083015201604051602081830303815290604052805190602001209050600061029c846001600086815260200190815260200160002054846104cc565b90508061030b5760405162461bcd60e51b815260206004820152603260248201527f456e666f7263656d656e7443726974657269613a3a766572696679576974684460448201527130ba309d1034b73b30b634b210383937b7b360711b60648201526084015b60405180910390fd5b505033600090815260026020908152604080832093835292815282822089835290522054925050509392505050565b610342610401565b61034c60006104e2565b565b60008061035a8461045b565b3360009081526002602090815260408083209383529281528282208783529052208390555081905092915050565b610390610401565b6001600160a01b0381166103f55760405162461bcd60e51b815260206004820152602660248201527f4f776e61626c653a206e6577206f776e657220697320746865207a65726f206160448201526564647265737360d01b6064820152608401610302565b6103fe816104e2565b50565b6000546001600160a01b0316331461034c5760405162461bcd60e51b815260206004820181905260248201527f4f776e61626c653a2063616c6c6572206973206e6f7420746865206f776e65726044820152606401610302565b604051630fa1a1b360e21b8152600481018290526000903390633e8686cc90602401600060405180830381865afa15801561049a573d6000803e3d6000fd5b505050506040513d6000823e601f3d908101601f191682016040526104c29190810190610886565b6020015192915050565b6000826104d98584610532565b14949350505050565b600080546001600160a01b038381166001600160a01b0319831681178455604051919092169283917f8be0079c531659141344cd1fd0a4f28419497f9722a3daafe3b4186f6b6457e09190a35050565b600081815b845181101561057757610563828683815181106105565761055661094d565b602002602001015161057f565b91508061056f81610963565b915050610537565b509392505050565b600081831061059b5760008281526020849052604090206105aa565b60008381526020839052604090205b9392505050565b600080604083850312156105c457600080fd5b50508035926020909101359150565b6001600160a01b03811681146103fe57600080fd5b6000806000606084860312156105fd57600080fd5b8335610608816105d3565b95602085013595506040909401359392505050565b60008060006040848603121561063257600080fd5b83359250602084013567ffffffffffffffff8082111561065157600080fd5b818601915086601f83011261066557600080fd5b81358181111561067457600080fd5b87602082850101111561068657600080fd5b6020830194508093505050509250925092565b6000602082840312156106ab57600080fd5b5035919050565b6000602082840312156106c457600080fd5b81356105aa816105d3565b6000826106ec57634e487b7160e01b600052601260045260246000fd5b500490565b634e487b7160e01b600052604160045260246000fd5b60405160c0810167ffffffffffffffff8111828210171561072a5761072a6106f1565b60405290565b604051601f8201601f1916810167ffffffffffffffff81118282101715610759576107596106f1565b604052919050565b805161076c816105d3565b919050565b600082601f83011261078257600080fd5b815167ffffffffffffffff81111561079c5761079c6106f1565b60206107b0601f8301601f19168201610730565b82815285828487010111156107c457600080fd5b60005b838110156107e25785810183015182820184015282016107c7565b506000928101909101919091529392505050565b600082601f83011261080757600080fd5b8151602067ffffffffffffffff821115610823576108236106f1565b8160051b610832828201610730565b928352848101820192828101908785111561084c57600080fd5b83870192505b8483101561086b57825182529183019190830190610852565b979650505050505050565b8051801515811461076c57600080fd5b60006020828403121561089857600080fd5b815167ffffffffffffffff808211156108b057600080fd5b9083019060c082860312156108c457600080fd5b6108cc610707565b6108d583610761565b815260208301516020820152604083015160408201526060830151828111156108fd57600080fd5b61090987828601610771565b60608301525060808301518281111561092157600080fd5b61092d878286016107f6565b60808301525061093f60a08401610876565b60a082015295945050505050565b634e487b7160e01b600052603260045260246000fd5b60006001820161098357634e487b7160e01b600052601160045260246000fd5b506001019056fea164736f6c6343000811000a",
    "linkReferences": {}
  },
  "methodIdentifiers": {
    "owner()": "8da5cb5b",
    "renounceOwnership()": "715018a6",
    "requestToMerkleRoot(uint256)": "98b59b3b",
    "requestToSubmissionToIndex(address,uint256,uint256)": "16e63b7a",
    "review(uint256,uint256)": "dc496611",
    "setRoot(uint256,bytes32)": "048f06f2",
    "transferOwnership(address)": "f2fde38b",
    "verifyWithData(uint256,bytes)": "46b9533a"
  },
  "id": 57
}